:020000040800F2
:10000000100E00209D010008A5010008B52C000875
:10001000A9010008AB010008AD01000800000000C4
:10002000000000000000000000000000AF01000818
:10003000B101000800000000B3010008654F00088E
:10004000B7010008B7010008B7010008B7010008B0
:10005000B7010008B7010008F10A0008090B000801
:10006000B7010008B7010008B7010008B701000890
:10007000B7010008B7010008B7010008B701000880
:10008000B7010008B7010008AD060008B701000875
:10009000B7010008B7010008B7010008B701000860
:1000A000B7010008B7010008B7010008B701000850
:1000B0003550000859500008B7010008B701000882
:1000C000B7010008B7010008B7010008B701000830
:1000D000B7010008FD610008B7010008B70100087A
:1000E000B7010008B7010008B70100086550000813
:1000F0008D500008B7010008B7010008B7010008DB
:10010000B7010008B7010008B7010008B7010008EF
:10011000B7010008A1560008B7010008B7010008A0
:10012000B7010008B7010008B7010008B7010008CF
:10013000B7010008B7010008B7010008B7010008BF
:10014000B7010008B7010008B7010008B7010008AF
:10015000B7010008B7010008B7010008B70100089F
:10016000B7010008B7010008B7010008B70100088F
:10017000B7010008B7010008B7010008000000003F
:10018000B7010008B7010008DFF80CD000F050FA02
:1001900000480047A5630008100E0020064880476D
:1001A00006480047FEE7FEE7FEE7FEE7FEE7FEE75C
:1001B000FEE7FEE7FEE7FEE725500008890100089C
:1001C00030B400F10C046830029D2EC04FF0000CDA
:1001D00000F824CC00F823CC6146783804E0A46809
:1001E0000CF1010202F0FF0C002C18BFBCF1050F4E
:1001F000F5D30CEB4C0200EB8202916080F848C012
:100200000188642251434FF47A72B1FBF2F180F815
:10021000561030BC70472DE9F04704460026D4E95B
:100220001A89C18080F8556080F8586080F8536062
:1002300000F10C0580F854600F46484606F019F8A6
:100240000021404604F0D3FD608810FB07F001B2A6
:10025000484606F06AF800221146404604F048FD80
:100260002A88A88810FB07F001B2404604F040FD40
:100270002A88688810FB07F001B2484606F017F894
:100280002888218848434FF47A71B0FBF1F0401C74
:10029000A080A868A06084F85760BDE8F0872DE9C9
:1002A000F05F044680884FF0010A0025D3460028FD
:1002B0007ED0401EA08094F8580030B994F85500C4
:1002C0000028206F06D041688847A08800286FD09A
:1002D00000F0E3B8C16879B194F85710491CC9B26D
:1002E00084F8571094F85620914205D9C168884780
:1002F00084F8535084F85750206F016988470028CC
:1003000008BF84F8535006D094F853007F283CBFB0
:10031000401C84F85300206FC168002994F85310E2
:1003200005D094F85620B1EB520F02D0CDE77F29CB
:10033000CBD1006804F063FC060048BF70420FFA9E
:1003400080F8B4F90600002802DD002E02DD04E08A
:10035000002E02DB84F85350B7E7B4F84A101FFAB6
:1003600088F0884205D9206F4168884784F855B0E5
:10037000ABE7B4F84C108842A7D94FF000094F46BC
:10038000E06E05F090FF206F81688847A068002824
:1003900008BFA58072D0B0F90200404512DAA1680A
:1003A000886858B3B1F90290B1F90470A06000E018
:1003B00025E094F85810491C84F85810B0F9020050
:1003C0004045ECDBA068B0F90210B0F90400A1EBE5
:1003D0000901C01B704390FBF1F007FA80F0E1883F
:1003E00011FB00F001B20022A06E04F081FCA4F821
:1003F00004B004F15C00A06006203BE0A580A0688A
:10040000D8B394F8580010B101280BD00FE0606FFA
:1004100003F05FFD84F854B0606F03F05EFD84F874
:10042000535004E0606F03F056FD84F85450A06808
:10043000E288818811FB02F1028809B2A06E04F003
:1004400057FCA068E288418811FB02F1028809B2DA
:10045000E06E05F02CFFA1682288088850434FF415
:100460007A72B0FBF2F0401CA0808868A06094F81B
:100470005800401C84F858000FE0FFE794F848103B
:1004800094F85800491E884208BF4FF0000A04D073
:10049000072804BF84F85850A5805046BDE8F09F57
:1004A00070B504468088012520B1401E0004000C70
:1004B000A08028D1A068002808BF002523D081880B
:1004C000E28811FB02F1028809B2A06E04F010FC70
:1004D000A068E288418811FB02F1028809B2E06E4F
:1004E00005F0E5FEA1682288088850434FF47A722F
:1004F000B0FBF2F0401CA0808868A06094F858001F
:10050000401C84F85800284670BD014600208968C8
:10051000002908BF0120704710B50021C46E81601A
:100520008180204604F06BFB01462046BDE8104068
:10053000002205F0BCBE01EB410100EB810082818D
:10054000704701EB410100EB8100C281704701EB74
:10055000410100EB81000282704701EB410100EB99
:1005600081008089704701EB410100EB8100B0F907
:100570000E00704701EB410100EB8100B0F9100063
:10058000704790F84800704790F8540070472DE984
:10059000F05F0546002092469B4688460646814607
:1005A00040241BE0284641464746224600F02FF8EB
:1005B00053465A46C01A914110D311461846224656
:1005C00000F016F82D1A67EB01084F46224601206D
:1005D000002100F00DF817EB00094E41201EA4F198
:1005E0000104DFDC484631462A464346BDE8F09F19
:1005F000202A04DB203A00FA02F1002070479140E3
:10060000C2F1200320FA03F3194390407047202AD7
:1006100004DB203A21FA02F00021704721FA02F3AC
:10062000D040C2F1200291400843194670470000B3
:10063000064C074D06E0E06840F0010394E807002F
:1006400098471034AC42F6D3FFF7A2FD946E000831
:10065000B46E000870B58C1810F8015B15F0070334
:1006600001D110F8013B2A1106D110F8012B03E04B
:1006700010F8016B01F8016B5B1EF9D12B0705D453
:100680000023521E0DD401F8013BFAE710F8013B9C
:10069000CB1A921C03E013F8015B01F8015B521EB8
:1006A000F9D5A142D8D3002070BD00000D4810B587
:1006B000016811F0040F09D0016821F00C010160FC
:1006C00004F0E2FDBDE8104005F0D6B9D0F8001204
:1006D00021F00C01C0F8001204F0D6FDBDE8104076
:1006E00005F0CAB90020014010B4024608460FFACE
:1006F00081FC1CFB0CF40B1413FB034114886443B2
:100700008C4224BF10BC704792F8B240C4EB116118
:10071000C9B202EB41018A8810BC0CFB02F14FEA1E
:10072000E17C01EB5C41C91361F30F0003FB02F1B3
:10073000CA1701EB5241C91361F31F407047000013
:1007400070B5044690F83010114D002205F008FAFB
:10075000EE1306FA80F10F4802686FF30F1211438F
:100760000160686840F00100686094F83110002270
:10077000204605F0F5F906FA80F1074802686FF3A4
:100780000F1211430160686840F00200686070BD9C
:10079000007400400C74004018740040084490F845
:1007A0003000704700EB4100B0F9320070470000A4
:1007B0000448016841F001010160016841F48031A1
:1007C0000160704700740040084480F83020704792
:1007D00000EB41004286704770B5044680890125D0
:1007E00030B1401E0004000CA08118BF002501D0CC
:1007F000284670BDB4F91400217E90FBF1F001B2DF
:10080000A06800F05FF90120A073F1E7C07B70479A
:100810008360C0E9001200218173C1737047807B3F
:100820007047C173704710B50446002240681146F6
:1008300005F03DFDB4F91410606805F076FD002167
:10084000206804F0D4FA00221146206804F050FA1F
:10085000E28AB4F91210206804F04AFAE08A218A88
:1008600048434FF47A71B0FBF1F0401CA08110BDF9
:10087000016A496A826E89B25143CA1701EB12417B
:100880000914C388C180427812FB01F212B282803F
:10089000C91A836809B219448160104670472DE96E
:1008A000F041076A002490F875507B6A2246B0F840
:1008B00070C02646A0F870403F68BCF1010F07F0F9
:1008C000100884BF4FF0010C80F879C0B0F86E704A
:1008D000B0F872C0B8F1100F5ED09C4594BF4FF0D5
:1008E00000084FF00108A3EB0C0C08FB07CC90F8B4
:1008F000787000EB8707C7F828C0002D08D900EBF7
:10090000820C521CDCF828C0D2B264449542F6D85E
:10091000426A02FB04FCB0F86E2090F87540624316
:100920009CFBF2F20A80B0F80CC0A2EB0C0CA0F811
:1009300012C0828190F87820B0F86CC000EB82027F
:10094000926A02FB0CF290F801C002FB0CF2B0F8C4
:100950006EC092FBFCF2D0F81CC00CFB02F2B0F8A7
:100960001AC092FBFCF2C281A0F8723090F8782095
:10097000521C80F8782090F8782090F875309A42D0
:1009800028BF80F8786090F87920B2B180F876605E
:10099000C2780021027013E09C4534BF4FF001087B
:1009A0004FF00008A3EB0C0C08FB17CC90F8787004
:1009B00000EB8707C7F828C09FE704F033F901462A
:1009C0000846BDE8F081000090F875200021002A5B
:1009D00088BF002209D900BF00EB8103491C9A623D
:1009E00090F87530C9B28B42F6D8012180F87610A4
:1009F0007047B0F87010491CA0F8701000207047C4
:100A00002DE9F001016A00224A62B0F86E204FF031
:100A1000FF33B3FBF2F28266B0F86C20DFF8A0C0BF
:100A200002EB82025200426290F8772001F1180531
:100A300016059CF8002053191F680CF10702F024DA
:100A400092F8008004FA08F827EA080792F8008074
:100A5000360C06FA08F63E431E6090F877301E0505
:100A60009CF802302B44D3F800C09578AC402CEAB7
:100A7000040C340CEAB204FA02F24CEA02021A60E4
:100A80006FF001020A61CA6842F00102CA600A6896
:100A900042F001020A6090F875200021002A8EBF02
:100AA0000023BDE8F001704700EB810C491CC9B27E
:100AB000CCF828308A42F7D8BDE8F0017047000032
:100AC000706E0008026AC180437813FB01F38380D3
:100AD0004FF6FF730029B8BF494289B2B8BF591A0F
:100AE000B0F86E004843B0FBF3F080B2506270473C
:100AF0000448016811F0010F08BF7047012101602F
:100B000005F00CBA143C0140022000F09BBC00210F
:100B100090B14378017800221944002B09D900EBE9
:100B2000020C521C9CF802C0D2B2614489B29342BA
:100B3000F5D801EB1120C1B208467047002141826F
:100B40000175417580F8961080F8971080F898101C
:100B500080F8991080F89A1080F81B1180F81C1109
:100B600080F81D117047DDF800C0002818BF80E82C
:100B70000E10704700EB400101EB001210B5084960
:100B800001EB420494F82410002918BF10BD054958
:100B900051F8200004F076F8E083208210BD0000B8
:100BA000780800200406002010B5044600EB44003D
:100BB00000EB04121248002100EB420211481160C0
:100BC0005160D1601161D183C2F81610C2F81A10B9
:100BD000118450F8240002F0E6FF0B48002150F881
:100BE000240002F0E0FF094850F8240004F078F8EF
:100BF000074850F82400BDE8104003F06AB900002F
:100C0000780800200C0600201006002004060020B2
:100C1000200600207047000010B490F83C20012A04
:100C200002BF022010BC7047012280F83C200A68F5
:100C30000723D0F800C0092A18D9DCF80C400A3A7A
:100C400002EB420203FA02F224EA0202CCF80C2080
:100C50000B788A680A3B03EB430302FA03F302684A
:100C6000D2F80CC043EA0C03D36015E0DCF8104066
:100C700002EB420203FA02F224EA0202CCF810204C
:100C80000B788A6803EB430302FA03F30268D2F895
:100C900010C043EA0C0313610268936B23F4401302
:100CA00093630268936BB1F810C05A4C04EB0C5C70
:100CB00043EA0C0393630A790B7CD21AD21C02EB31
:100CC00082021F2393400268D2F838C02CEA030343
:100CD00093630A790B7CD21A0B88D21C02EB820236
:100CE0009BB293400268D2F838C043EA0C03936386
:100CF0008A696FF47023DA420268936823F47023E0
:100D000093600268936808BF23F440130FD0D1F8B2
:100D100018C043EA0C0393600268936823F44013FD
:100D2000936002689368D1F81CC043EA0C03936097
:100D30004A7D002A0268536814BF43F4806323F499
:100D4000806353600A7D002A0268536814BF43F42D
:100D5000805323F4805353604A68012A1BD0022A2F
:100D600026D0032A026830D0136A6FF30B03136294
:100D70000268136AD1F80CC043EA0C031362274BD4
:100D8000D0F800C0244A9C4504BFD1F800C0BCF193
:100D9000120F2CD125E0026853696FF30B035361E6
:100DA00002685369D1F80CC043EA0C035361E6E7CB
:100DB000026893696FF30B03936102689369D1F83A
:100DC0000CC043EA0C039361D9E7D3696FF30B03BB
:100DD000D3610268D369D1F80CC043EA0C03D36134
:100DE000CDE7D2F804C04CF4800CC2F804C0D0F8AF
:100DF00000C09C4508D10968102918BF112903D1EA
:100E0000516841F400015160002180F83C1010BC91
:100E1000084670470000F0FF002301400020014019
:100E200030B482B04FF0000CCDF804C090F83C20F4
:100E3000012A01BF022002B030BC7047012280F8B5
:100E40003C200A6807230468092A14D9E5680A3A8D
:100E500002EB420203FA02F225EA0202E2600B7898
:100E60008A680A3B03EB430302FA03F30268D4687F
:100E70002343D36011E0256902EB420203FA02F238
:100E800025EA020222610B788A6803EB430302FA27
:100E900003F302681469234313614A681F23072A76
:100EA00016D20468656B521E02EB820203FA02F24C
:100EB00025EA020262630B790A885B1E92B203EB99
:100EC000830302FA03F30268546B234353632DE058
:100ED00004680D2A15D2256BD21F02EB820203FA99
:100EE00002F225EA020222630B790A88DB1F92B222
:100EF00003EB830302FA03F30268146B23431363C7
:100F000014E0E56A0D3A02EB820203FA02F225EAE6
:100F10000202E2620B790A880D3B92B203EB830373
:100F200002FA03F30268D46A2343D362254B0468B0
:100F3000234A9C4204BF0C68122C03D1546844F429
:100F40008004546004689C422FD10B68102B18BF9A
:100F5000112B2AD1536843F4000353600968102908
:100F600023D11949194A0968B1FBF2F101EB81015A
:100F700049000191009118D0B1F1004F1BD2002916
:100F8000D8BF002105DD11F0010102D0019A521EE7
:100F90000192009A491C521C914206DA019B891C5D
:100FA0005B1E5B1E01939142F8DB80F83CC002B0EF
:100FB000002030BC70470199491E0191FCD1F4E733
:100FC00000230140002001405806002040420F004D
:100FD00070B504004FF0000504BF012070BD206C07
:100FE000002628B9204600F0ADF8666484F83C601D
:100FF000206C10F0100F18BF012503D084F83C605E
:10100000284670BD206C20F4885040F00200206417
:101010004948416821F440314160416862681143A8
:1010200041602068416821F4807141602068416816
:10103000226941EA022141602068416821F0407143
:10104000416020684168A26811434160206881685E
:1010500021F40061816020688168E2681143816049
:10106000A06A6FF07061C8422068816821F07061E9
:1010700081602068816808BF21F040510BD0A26ACE
:10108000114381602068816821F0405181602068AF
:101090008168E26A114381602068816821F0020161
:1010A000816020688168227E41EA4201816094F873
:1010B000200000282068416808BF21F400610ED09C
:1010C00041F4006141602068416821F46041416061
:1010D00020684168194B626A03EB42321143416058
:1010E0002068C16A21F47001C1622068C16AA28BC4
:1010F000134B03EB02521143C1622068816821F453
:10110000007181602068816894F8302041EA4221B2
:1011100081602068816821F4806181602068816835
:10112000626941EA822181606664206C20F00200DD
:1011300040F00100206461E70023014000E0FFFF70
:101140000000F0FF2DE9F04186B0002400940194E6
:1011500002940394049402683848394903254026D0
:10116000384FDFF8E480A2F18043B3F590332DD0FF
:10117000364B9A421CBF06B0BDE8F081026842F4CB
:1011800000720260006800F400700590086840F08A
:1011900001000860086800F001000590086840F050
:1011A000020008600868694600F002000590CDE979
:1011B0000065384600F052F90095CDE901546946C2
:1011C000404600F04BF906B0BDE8F081026842F4F9
:1011D00080720260006800F480700590086840F03A
:1011E00004000860086800F004000590086840F0FA
:1011F00001000860086800F001000590086840F0F0
:10120000020008600868694600F0020005900920A5
:10121000CDE900050E4800F021F90096CDE9015412
:101220006946384600F01AF90095CDE9015469463F
:10123000404600F013F906B0BDE8F08144380240A2
:10124000303802400000024000040240002101400A
:10125000000802404379012B04BF0220704730B4DC
:101260004FF0010C80F805C00223037103681C686D
:1012700002F0100240F6FE759540AC43D1E90051F2
:10128000294391402143196001680B68C02404FA86
:1012900002F223EA02020A6080F804C000214171D0
:1012A00030BC08467047002804BF0120704770B565
:1012B00004460079002518B96571204600F008F849
:1012C00002202071256101202071002070BD0000E6
:1012D00000B587B000210091019102910391049122
:1012E0000068A0F18041B1F5E8411CBF07B000BD26
:1012F0000D48016841F000510160006800F00050A5
:1013000005900A48016841F00101016000686946E2
:1013100000F0010005903020009003200190044867
:1013200000F09CF807B000BD403802403038024061
:10133000000002402DE9F0410446876D00F090F96D
:10134000054694F835000026022806D08020606506
:1013500084F834600120BDE8F0812068016821F044
:10136000160101602068416921F080014161206C13
:10137000002804BFA06C002804D02068016821F078
:10138000080101602068016821F001010160206806
:10139000006810F0010F12D000F062F9401B052820
:1013A00008D920206065032084F8350084F8346073
:1013B000BDE8F0812068006810F0010FECD194F8CE
:1013C0005C003F2101FA00F0B860012084F835008C
:1013D00084F834600020BDE8F08190F835100229CF
:1013E00003D08021416501207047052180F8351028
:1013F0000068016821F001010160002070470000D1
:1014000070B5044600F02CF90546B4F1FF3F02D058
:1014100004480078044400F023F9401BA042FAD3AA
:1014200070BD00004C060020022818BF7047044819
:101430000178002914BF00210121017070470000CC
:101440000000002004490A68024208BF704710B536
:101450000860FFF7E9FF10BD143C01402DE9F84F8B
:10146000794D784C00224FF001094FF0030C4FF0FA
:101470000F0A05F1040E00BF0B6809FA02F63340AB
:10148000B34240F0D9800F7907F00307012F18BF4E
:10149000022F16D1D0F8088057000CFA07FB28EA73
:1014A0000B08D1F80CB00BFA07F747EA080787607A
:1014B000476827EA06060F79C7F3001797403E43AF
:1014C00046604E683CEA06060BD0C76856000CFA28
:1014D00006F827EA0807D1F8088008FA06F63E431E
:1014E000C6600E7906F00306022E11D1D60800EB75
:1014F0008607D7F820805607F60E0AFA06FB28EA78
:101500000B08D1F810B00BFA06F646EA08063E6260
:10151000076856000CFA06F827EA080791F80480D5
:1015200008F0030808FA06F63E4306604E6816F413
:10153000403F7DD0266846F480462660266806F443
:101540008046009622F0030606F1804707F598379B
:10155000D7F808889607360F0AFA06FB28EA0B0820
:10156000A0F1804BBBF5003B38D0A0F1804BBBF520
:10157000013B08BF4FF0010B30D0A0F1804BBBF511
:10158000023B08BF4FF0020B28D0A0F1804BBBF507
:10159000033B08BF4FF0030B20D0A0F1804BBBF5FD
:1015A000043B08BF4FF0040B18D0A0F1804BBBF5F3
:1015B000053B08BF4FF0050B10D0A0F1804BBBF5E9
:1015C000063B08BF4FF0060B08D0A0F1804BBBF5DF
:1015D000073B0CBF4FF0070B4FF0080B0BFA06F65A
:1015E00046EA0806C7F808682E684F689E4317F455
:1015F000801F18BF1E432E60DEF800604F689E43B8
:1016000017F4001F18BF1E43CEF800600F4F3E684E
:10161000D1F804809E4318F4003F18BF1E433E607B
:101620000B4F3E68D1F804809E4318F4803F00E0E1
:1016300002E018BF1E433E60521C102AFFF41CAF8C
:10164000BDE8F88F44380240083C0140043C0140AA
:10165000003C01400069084018BF012070470000AD
:1016600001488068704700004C06002002488168ED
:1016700002781144816070474C0600200B4810B579
:10168000016841F400710160016841F4806101600A
:10169000016841F480710160032000F087F80420A4
:1016A00000F006F800F024F8002010BD003C0240D5
:1016B00070B50D4D04464FF47A712878B1FBF0F007
:1016C0000A490968B1FBF0F000F09AFB48B9102C08
:1016D00007D200222146501E00F036F800206C6030
:1016E00070BD012070BD00004C060020580600208F
:1016F0000B4882B0016841F480410160006800F449
:10170000804000900748016841F080510160006806
:1017100000F080500090042002B000F047B80000B4
:1017200044380240403802400028B8BF704700F0FB
:101730001F01012202FA01F14009800000F1E020BE
:10174000C0F8001170470000174B10B41B68C3F3BA
:101750000223C3F1070CBCF1040F88BF4FF0040C47
:101760001C1D072C34BF0023DB1E012404FA0CFCD3
:10177000ACF1010C0CEA0101994004FA03F35B1E81
:101780001A40114300284FEA0111A1BF00F1E020E7
:1017900080F8001410BC704700F00F0000F1E0204A
:1017A00080F8141D10BC70470CED00E0074900F0F4
:1017B00007000A684FF6FF031A4042EA002040F093
:1017C000FD7040F080600860704700000CED00E0A4
:1017D000002804BF012070472DE9F0474D4E044614
:1017E0000F46306801F0FF0800F00700B84206D24B
:1017F00086F80080306800F00700B84261D12068A8
:10180000454D10F0020F14D010F0040F03D02868DB
:1018100040F4E0502860207810F0080F03D02868CA
:1018200040F4604028602868A16820F0F000084378
:101830002860207810F0010F37D060683749012800
:1018400023D0022818BF0328096823D011F0020F03
:1018500037D0296821F0030108432860FFF700FF13
:1018600081462868616800F00C00B0EB810F18BF5A
:1018700041F2883A19D000BFFFF7F2FEA0EB090051
:1018800050450BD90320BDE8F087096811F4003FEB
:10189000DFD116E011F0007FDBD112E0286861682B
:1018A00000F00C00B0EB810FE6D1306800F00700CB
:1018B000B84209D986F80080306800F00700B842C5
:1018C00002D00120BDE8F087207810F0040F05D089
:1018D0002868E16820F4E05008432860207810F080
:1018E000080F06D02868216920F4604040EAC10052
:1018F000286000F047F82968094AC1F30311515CD8
:10190000C8400849086008480068FFF7D1FE002079
:10191000BDE8F087003C0240083802400038024031
:10192000586E00085806002050060020014901208A
:10193000C8647047000047420148006870470000D3
:10194000580600200448054900680968044AC1F3A4
:101950008221515CC8407047580600200838024078
:10196000686E00080448054900680968044AC1F324
:101970004231515CC8407047580600200838024088
:10198000686E00081848006810F00C02174808BF7D
:1019900070471749042A04BF08467047082A18BF31
:1019A000704710B5134C2268236802F03F0213F40D
:1019B000800F08D020680023C0F38810A0FB01012D
:1019C000FEF7E5FD07E021680023C1F38811A1FBC4
:1019D0000001FEF7DCFD2168C1F30141491C49000B
:1019E000B0FBF1F010BD0000083802400024F40004
:1019F00000127A0004380240002804BF012070471A
:101A00002DE9F84F04460078DFF8CC8310F0010F81
:101A1000A8F1040558D008F10400016801F00C0198
:101A2000042909D0006800F00C0008280DD1D8F86E
:101A3000000010F4800F08D0286810F4003F43D055
:101A40006068002800F0C1813EE06068B0F5803F2A
:101A500019D0B0F5A02F28680CBF40F4802020F4E6
:101A60008030286028680CBF40F4803020F480204B
:101A700028606068B8B1FFF7F3FD0646286810F4E7
:101A8000003F05D020E0286840F480302860F0E76F
:101A9000FFF7E6FD801B642800F22F81286810F410
:101AA000003FF5D010E0FFF7DBFD0646286810F494
:101AB000003F09D0FFF7D4FD801B642800F21D8190
:101AC000286810F4003FF5D12078C44F10F0020FC1
:101AD00047D0C349086810F00C0F15D0086800F013
:101AE0000C00082804BFD8F8000010F4800F0BD0B9
:101AF000E06818B301203860FFF7B2FD0646286899
:101B000010F0020F09D011E0286810F0020F1CBF7E
:101B1000E06801280AD000F058B9FFF7A1FD801B4A
:101B200002287DD8286810F0020FF6D028682169B5
:101B300020F0F80040EAC100286012E00020386080
:101B4000FFF78EFD0646286810F0020F09D000BF8F
:101B5000FFF786FD801B022862D8286810F0020F6C
:101B6000F6D1207810F0080F2AD09E489E4E616969
:101B700099B101210160FFF773FD8146306810F0D3
:101B8000020F1DD1FFF76CFDA0EB0900022847D81A
:101B9000306810F0020FF5D012E000210160FFF76D
:101BA0005FFD8146306810F0020F09D0FFF758FD45
:101BB000A0EB0900022833D8306810F0020FF5D1ED
:101BC000207810F0040F7FD088484FF0000B006899
:101BD00010F0805F0AD18548016841F080510160B2
:101BE00000684FF0010B00F080500090DFF8009289
:101BF000D9F8000010F4807F1AD1D9F8000040F421
:101C00008070C9F80000FFF72BFD0646D9F80000E8
:101C100010F4807F0CD100BFFFF722FD801B00E095
:101C20006BE0022869D8D9F8000010F4807FF3D067
:101C3000A068704E01281BD0052830680CBF40F00A
:101C4000040020F00100306030680CBF40F001005B
:101C500020F00400C6F80000A06841F2883AB8B14C
:101C6000FFF7FEFC8146306810F0020F05D021E03E
:101C7000306840F001003060EEE7FFF7F1FCA0EBC8
:101C80000900504539D8306810F0020FF5D011E046
:101C9000FFF7E6FC8146306810F0020F0AD000BF63
:101CA000FFF7DEFCA0EB0900504526D8306810F0A5
:101CB000020FF5D1BBF1000F06D04C48016821F0AE
:101CC000805100E000E00160A069E8B34449096880
:101CD00001F00C01082950D002284FF000003866AE
:101CE0000ED0FFF7BDFC0446286810F0007F6FD0CF
:101CF000FFF7B6FC001B02283AD90320BDE8F88F95
:101D0000FFF7AEFC0646286810F0007F09D000BF40
:101D1000FFF7A6FC801B0228EFD8286810F0007F90
:101D2000F6D1D4E907010843A16A334A490802EB16
:101D30000141626A41EA8211084394F82C1040EA9A
:101D40000160C8F8000000E042E001203866FFF7BB
:101D500087FC0446286810F0007F39D1FFF780FC2B
:101D6000001B0228C9D8286810F0007FF6D02FE0A9
:101D7000286810F0007FBBD12AE0012808BFBDE829
:101D8000F88FD8F80000E26900F4800191421CD17C
:101D9000226A00F03F01914217D147F6C071626A92
:101DA0000140B1EB821F10D1A26A4FF0FF3300F463
:101DB000403103EB5202B1EB024F06D194F82C10E4
:101DC00000F07060B0EB016F02D00120BDE8F88F29
:101DD0000020BDE8F88F00000438024000004742B0
:101DE00008380240800E47427438024040380240B2
:101DF00000700040703802400000FFFF7047000094
:101E0000411EB1F1807F24BF012070474FF0E020D8
:101E10004161054AF02182F8141D002181610721EA
:101E200001610020704700000FE000E010B5FFF7EF
:101E3000E5FF10BD7047704790F83C20012A04BFB1
:101E400002207047012280F83C20CA688B6822F487
:101E500040721A434B6822F480621A430B6822F4E2
:101E600000621A430B6922F480521A434B6922F430
:101E700000521A43C96922F4804211430268516436
:101E8000002180F83C100846704790F83C20012A59
:101E900004BF0220704730B4012380F83C30022296
:101EA00080F83D2002685468D2F808C00D6824F01C
:101EB00070042C4354600268A2F18044B4F580346D
:101EC00018BFB2F1804F1DD0A2F18044B4F58064F8
:101ED0001CBFA2F18044B4F5006413D0A2F1804489
:101EE000B4F540641CBFA2F18044B4F5823409D03B
:101EF000A2F18044B4F5A0341CBFA2F18044B4F533
:101F0000C05405D149682CF0800C41EA0C01916065
:101F100080F83D30002180F83C1030BC0846704706
:101F2000002804BF0120704710B5044690F83D001A
:101F300028B9002084F83C00204600F01FF8022059
:101F400084F83D00211D206803F0ACF8012084F8DE
:101F5000460084F83E0084F83F0084F8400084F88E
:101F6000410084F8420084F8430084F8440084F877
:101F7000450084F83D00002010BD0000006881B0DD
:101F8000A0F18041B1F582311CBF01B07047054816
:101F9000016841F002010160006800F00200009059
:101FA00001B0704744380240002804BF0120704748
:101FB00070B5044690F83D000D4628B9002084F81D
:101FC0003C00204600F052F8022084F83D002068D2
:101FD000816821F0070121F480418160211D206882
:101FE00003F060F8206882688369016AD5F800C050
:101FF00023F00303AE694CEA020223F4407343EA80
:102000000623D5F808C0EE694CEA030323F0FC036D
:1020100023F47C43D5F80CC043EA06234CEA0303BF
:10202000D5F810C02E6A4FEA0C1C4CEA063C4CEA6C
:102030000303D5F804C06D6921F0AA0141EA051136
:102040004CEA0101826020688361206801620120FE
:1020500084F8460084F83E0084F83F0084F842008B
:1020600084F8430084F83D00002070BD70B586B050
:1020700000240094019402940394049402682E496D
:102080002E480225B2F1804F28D0A2F18043B3F54B
:1020900080631CBF06B070BD0A6842F002020A608D
:1020A000096801F002010591016841F00401016035
:1020B0000068694600F004000590C020CDE90005E5
:1020C0001F480495FFF7CAF9002211461D20FFF7AB
:1020D0003BFB1D20FFF728FB06B070BD0A6842F0ED
:1020E00001020A60096801F001010591016841F0EF
:1020F00002010160016801F002010591016841F0EF
:10210000010101600068012600F00100059008202F
:10211000CDE90005694604960A48FFF79FF9F003E8
:102120000090CDE90154CDE9034669460648FFF722
:1021300095F906B070BD00004038024030380240CA
:1021400000080240000402400000024030B490F851
:102150003E3090F83F5090F8424090F843C0022241
:1021600031B1042915D0012B08BF012D24D028E05E
:10217000012B08BF012C24D180F83E2080F842209A
:1021800001680A6A22F001020A620A6A42F0010248
:1021900033E0012D08BFBCF1010F12D180F83F20C0
:1021A00080F8432001680A6A22F010020A620A6A73
:1021B00042F010020A6221E0012C08BFBCF1010FBD
:1021C00002D030BC0120704780F83E2080F83F20CC
:1021D00080F8422080F8432001680A6A22F0010258
:1021E0000A620A6A42F001020A6201680A6A22F07F
:1021F00010020A620A6A42F010020A62006801686C
:1022000041F00101016030BC00207047704770B59B
:102210000446006801694FF0000511F0020F1CBF71
:10222000C16811F0020F13D06FF0020101610120AB
:1022300020772068806910F0030F204602D0FFF756
:10224000E5FF04E000F0DAF8204600F02BFA2577ED
:102250002068016911F0040F1CBFC16811F0040F60
:1022600013D06FF00401016102202077206880699B
:1022700010F4407F204602D0FFF7C8FF04E000F0D2
:10228000BDF8204600F00EFA25772068016911F0AC
:10229000080F1CBFC16811F0080F13D06FF00801C0
:1022A0000161042020772068C06910F0030F2046E8
:1022B00002D0FFF7ABFF04E000F0A0F8204600F0EA
:1022C000F1F925772068016911F0100F1CBFC16872
:1022D00011F0100F13D06FF010010161082020776A
:1022E0002068C06910F4407F204602D0FFF78EFFBF
:1022F00004E000F083F8204600F0D4F92577206848
:10230000016911F0010F1CBFC16811F0010F05D068
:102310006FF001010161204600F0C5F920680169F4
:1023200011F0800F1CBFC16811F0800F05D06FF055
:10233000800101612046FFF77DFD2068016911F0F1
:10234000400F1CBFC16811F0400F05D06FF0400175
:102350000161204600F0D3F92068016911F0200FD7
:102360001ABFC16811F0200F70BD6FF0200101612C
:102370002046BDE87040FFF75EBD000030B587B075
:102380000021009101910291039104910068A0F154
:102390008041B1F582311CBF07B030BD14480168DF
:1023A00041F480710160016801F480710591016858
:1023B00041F0800101600068022400F08000059077
:1023C000E020CDE900040325029469460948CDE9DF
:1023D0000345FFF743F84FF46040CDE90004029451
:1023E00069460548CDE90345FFF738F807B030BD29
:1023F0003038024000200240001C024070470000BC
:102400002DE9F00190F83C300024012B02BF02209E
:10241000BDE8F0017047012380F83C30884BDFF8BD
:1024200024C27AB1042A4FD0082A7DD00C2A18BFC2
:10243000012400F0D180002180F83C102046BDE846
:10244000F00170470268156A25F001051562156AEA
:1024500056689769D1F8008027F0730748EA0707A4
:10246000D1F8088025F0020548EA05059A4218BF10
:10247000624507D1D1F80C8025F0080548EA05052A
:1024800025F004059A4218BF624509D1D1F814C05D
:1024900026F440734CEA0303D1F818C04CEA030653
:1024A000566097614B68536315620268936943F005
:1024B000080393610268936923F00403936102683F
:1024C00093690969194343E00268156A25F010050C
:1024D0001562156A56689769D1F8008027F4E647B7
:1024E00047EA0827D1F8088025F0200545EA0815B5
:1024F0009A4218BF624507D1D1F80C8025F08005BB
:1025000045EA081525F040059A4218BF624509D1F1
:10251000D1F814C026F4406343EA8C03D1F818C004
:1025200043EA8C06566000E014E097614B689363C1
:1025300015620268936943F40063936102689369CA
:1025400023F48063936102689369096943EA012176
:10255000916170E70268156A25F480751562156A45
:102560005668D769D1F8008027F0730748EA070753
:10257000D1F8088025F4007545EA08259A4218BF6D
:10258000624507D1D1F80C8025F4006545EA08259D
:1025900025F480659A4218BF624509D1D1F814C06C
:1025A00026F4405343EA0C13D1F818C043EA0C1642
:1025B0005660D7614B68D36315620268D36943F0F4
:1025C0000803D3610268D36923F00403D36102686E
:1025D000D3690969194331E00268156A25F4805509
:1025E0001562166A5568D769D1F8008027F4E64766
:1025F00047EA0827D1F8088026F4005646EA08364C
:102600009A4218BF624505D1D1F814C025F4804321
:1026100043EA8C155560D7614B68136416620268F3
:10262000D36943F40063D3610268D36923F4806300
:10263000D3610268D369096943EA0121D161FAE6ED
:102640000000014000040140002804BF0120704741
:1026500010B5044690F83D0028B9002084F83C00ED
:10266000204600F01EF8022084F83D00211D20685D
:1026700002F018FD012084F8460084F83E0084F83A
:102680003F0084F8400084F8410084F8420084F858
:10269000430084F8440084F8450084F83D0000209D
:1026A00010BD70477047704770B5044690F83C0005
:1026B000012804BF022070BD012584F83C5002208F
:1026C00084F83D00204602F051FD01004FF000006B
:1026D00005D084F83D5084F83C00012070BD21688D
:1026E000CA6822F04002CA602168CA6822F48042A7
:1026F000CA6084F83D5084F83C00002070BD7047EB
:1027000070477047F8B5016804460868CA684B69A5
:1027100010F00F0F4FF020064FF000055ED003F0D1
:10272000010C02F490775CEA07077DD010F0010FEE
:1027300018BF12F4807F03D0216C41F001012164A5
:1027400010F0040F18BF13F0010F03D0216C41F0FB
:102750000201216410F0020F18BF13F0010F03D023
:10276000216C41F00401216410F0080F1CBF02F03D
:10277000200151EA0C0103D0216C41F008012164D1
:10278000216C002908BFF8BD10F0200F1EBF12F009
:10279000200F204602F092FF20684069216CC0F3B0
:1027A000801001F00801084355D0206800F10C01A9
:1027B00051E8000F20F4907041E80002002AF4D1A3
:1027C0002068143050E8001F21F0010140E8001299
:1027D000002AF5D1206B012815D10AE010F0200F56
:1027E00018BF12F0200F3BD02046BDE8F84002F0A1
:1027F00065BF20680C3050E8001F21F0100140E850
:102800000012002AF5D184F83E60256320684069F3
:1028100010F0400F1BD02068143050E8001F21F04A
:10282000400140E8001200E01AE0002AF3D1A06B5A
:1028300068B171490165A06BFEF7CFFD002808BFA4
:10284000F8BDA06B016D01B0BDE8F040084720461F
:10285000FFF757FFF8BD2046FFF753FF2564F8BD8B
:10286000236B012B7DD110F0100F18BF12F0100F49
:1028700077D0086848680090486910F0400F46D04B
:10288000A16B086840680004000C1CBFA28D824246
:1028900098BFF8BDE085C869B0F5807F2FD020686B
:1028A0000C3050E8001F21F4807140E80012002A2B
:1028B000F5D1206800F1140151E8000F20F001006B
:1028C00041E80002002AF4D1206800F1140151E827
:1028D000000F20F0400041E80002002AF4D184F803
:1028E0003E60256320680C3050E8001F21F0100185
:1028F00040E80012002AF5D1A06BFEF71BFDA08D69
:10290000E18D401A81B22046FFF7FAFEF8BDA08D96
:10291000E18D401A81B2E08D002814BF0029F8BD76
:10292000206800F10C0252E8000F20F4907042E899
:102930000003002BF4D1206800F1140252E8000FCC
:1029400020F0010042E80003002BF4D184F83E603F
:102950002563206800F10C0252E8000F20F01000FF
:1029600000E007E042E80003002BF2D12046FFF729
:10297000C7FEF8BD10F0800F18BF12F0800F2BD0EB
:1029800094F83D00212818BFF8BDA068B0F5805F1D
:1029900004BF20690028206A16D0411C21622168EA
:1029A00000784860E08C401E0004000CE08418BFF2
:1029B000F8BD2068C16821F08001C1602068C1684D
:1029C00041F04001C160F8BD0088C0F308004860D4
:1029D000206A801C2062E5E710F0400F14BF12F05F
:1029E000400FF8BD2046CA6822F04002CA6084F851
:1029F0003D6000F05DF9F8BDAD560008002804BF49
:102A00000120704770B5044690F83D00002520B9BC
:102A100084F83C50204600F023F8242084F83D0040
:102A20002068C16821F40051C160204602F0AAFE6E
:102A30002068016921F4904101612068416921F019
:102A40002A0141612068C16841F40051C1602564D8
:102A5000202084F83D0084F83E00002070BD000076
:102A6000F0B587B000250095019502950395049572
:102A7000016830480224A1F18042B2F5A04220D082
:102A8000B2F540421CBF07B0F0BD2B490A6842F0C6
:102A900010020A60096801F010010591016841F017
:102AA000020101600068694600F002000590C02044
:102AB000CDE90004072004902048FEF7CFFC07B0C2
:102AC000F0BD1F490A6842F480120A60096801F4E7
:102AD00080110591016841F004010160016801F075
:102AE00004010591016841F00801016000680126B8
:102AF00000F0080005904FF48050CDE9000408274D
:102B00006946049702960F48FEF7A8FC0420CDE919
:102B10000004CDE90265694604970B48FEF79EFC68
:102B2000002211463520FEF70FFE3520FEF7FCFD92
:102B300007B0F0BD30380240443802400004024083
:102B40004038024000080240000C0240704700007C
:102B50002DE9F05F044690F83D001D461646884674
:102B600020287DD1B8F1000F12BF002E0120BDE852
:102B7000F09F94F83C00012872D0012084F83C00BA
:102B80004FF0000BC4F840B0212084F83D00FEF760
:102B900067FDA6848146E684A068B0F5805F03BF28
:102BA000206900280026464618BF4FF0000884F828
:102BB0003CB0E08C4FF0200AB0B32068802700685A
:102BC00037EA000025D000BFB5F1FF3F1CD02DB182
:102BD000FEF746FDA0EB0901A94215D9206800F1D6
:102BE0000C0151E8000F20F4D07041E80002002AE7
:102BF000F4D12068143050E8001F21F0010140E8B2
:102C00000012002AF5D136E02068006837EA00009B
:102C1000DAD136B3216816F8010B4860E08C401E0B
:102C2000E084E08C0028C8D120684026006836EA9D
:102C3000000035D0B5F1FF3F2DD02DB1FEF710FDCE
:102C4000A0EB0900A84226D920680C3050E8001FEC
:102C500021F4D07140E80012002AF5D1206801E08B
:102C600023E011E0143050E8001F21F0010140E89A
:102C70000012002AF2D184F83DA084F83EA084F826
:102C80003CB00320BDE8F09F38F8020B2168C0F388
:102C900008004860C2E72068006836EA0000C9D131
:102CA00084F83DA00020BDE8F09F0220BDE8F09F21
:102CB0007047000082B002F0D7FA184CD4F8200117
:102CC000006810F0080F0AD0144802F0D9FDD4F8BB
:102CD0002001016800914068009003F05DF9D4F88C
:102CE0002001006810F0800F1CBF0C4802F082FE2B
:102CF000D4F82001016811F0200FDFD04068C1B284
:102D0000064802F0C7FD0088012804D0022808BF49
:102D100003F042F9D2E703F039F9CFE7BC04002011
:102D2000012908BF002115D0042908BF012111D0B5
:102D3000102908BF02210DD0402908BF032109D066
:102D4000B1F5807F08BF042104D0B1F5806F0CBFBE
:102D500005210621084B18305B5C1844D0F800C0F0
:102D6000064B595C73238B402CEA030302FA01F1F2
:102D700019430160704700007E6E0008856E0008F0
:102D800010B50446406802F004F8A168086110BD5F
:102D90000068012102F067B8002808BF704710B52D
:102DA0000446007E012818BF10BD217B00200129A8
:102DB00004D0022910D003291ED026E0A16881F892
:102DC00024000121606802F012F8E28AB4F90E10C2
:102DD000606801F08DFF0CE0A16881F824000021FB
:102DE000606802F004F8E28AB4F91010606801F03B
:102DF0007FFF50B1022009E0A168012081F8240082
:102E0000A068D4F812100161F4E70320207610BD09
:102E100001230373C181C282037643767047022384
:102E200003730182C282012101760021417670473D
:102E3000006801F0E6BF10B5406801F0C0FFBDE8D2
:102E4000104001F0DCBE407E70478068006870472B
:102E50008068406870478068C06870478068006913
:102E60007047027B0021012A08BFB0F90E10084606
:102E70007047406801F097BF006801F0EDBF8068BF
:102E8000B0F91E0070478068D0F81A00704780685B
:102E9000D0F8160070478360C0E90012002101736A
:102EA000C1810182C182017670470322027341828F
:102EB00009148182012101760021417670478268E0
:102EC000518280688182704710B5044600680321F2
:102ED00001F0C9FF00281CBF0121217610BD006848
:102EE000072101F0C0BF406801F087BF014661F3D0
:102EF0000F0044F6E61211FB02F244F6E61311FB52
:102F000023F10A4411444942C913B1F5004FA8BF47
:102F100047F6FF7104DA11F5004FB4BF054909B255
:102F200061F31F4011F5004F04BF48F2010161F346
:102F30001F4070470080FFFF70B50546084600F04F
:102F400059F82AB203B212FB03F14FEA254C0514DB
:102F50001CFB05F0081AC0131649B0F5004FA8BFB6
:102F600047F6FF7004DA10F5004FB4BF084600B210
:102F700060F30F04104E10F5004F08BF66F30F0406
:102F800012FB05F01CFB03F21044C013B0F5004F18
:102F9000A8BF47F6FF7103DA10F5004FA8BF01B2D2
:102FA000204661F31F4011F5004F08BF66F31F4034
:102FB00070BD00000080FFFF0180FFFF10B50446D8
:102FC000084600F017F814FB00F12214031412FB5A
:102FD00003FC61444FEAE13C29466CF30F0114FB0A
:102FE00003F312FB00F0C01AC01360F31F41084640
:102FF00010BD000000F50041890911F4407C00F586
:103000000041C1F387121749C2F1FF0319D0BCF583
:10301000807F1FD0BCF5007F0AD0BCF5407F18BF71
:10302000704731F8133031F8121063F31F400FE08E
:1030300031F8122031F8131062F31F4061F30F00D2
:10304000704731F8122031F81310524262F31F40DA
:103050004942F3E731F8133031F812105B4263F361
:103060001F40EBE7C26B0008F8B58C460446DDE96B
:103070000710069FC4F830C0C4E9300108481E4656
:1030800015460090074B084A21466046FDF76BFD48
:10309000E763C4E90D56204600F094FBF8BD00003C
:1030A000AD300008B5300008BD37000810B500F09D
:1030B00089FB10BD2DE9F04105468CB000209846F3
:1030C00014460E468DF804004F0914D07A1E0021D4
:1030D000284602F079FF002804BF0B208DF8280055
:1030E00000F05783D5F8C40006F01F0618B17A1E09
:1030F000002102F069FF132E80F04983DFE806F01B
:10310000C00AAEBFBEBEBDBCBBBAB9B8B7B6BEBEC4
:10311000BEBEC000267805208DF82800472E6FD04F
:1031200027DC0F2E7DD00ADC6BD2DFE806F055924B
:103130009263927A7A7A7A7A7A7A7A7A7A00172EFF
:103140006FD009DCA6F1100007285AD2DFE800F0A2
:1031500072728181696969001D2E5BD004DC182EB2
:103160005FD01C2E4ED074E0412E5AD0462E61D036
:103170006FE0652E55D01EDC572E52D00EDC542E3B
:103180004FD006DC482E55D04F2E18BF532E48D0B6
:103190005FE0552E18BF562E5BD142E05B2E49D022
:1031A00004DC582E18BF592E53D13AE0612E18BFB7
:1031B000642E4ED135E0A6F17400152849D2DFE81F
:1031C00000F01939393939394848483939484848B7
:1031D0004848484830303000647831462246D5F8B7
:1031E000C40002F0F1FE22463146284602F0ECFE11
:1031F00000F028BA62783146284602F0E5FE21E266
:1032000018E026E062780021D5F8C40002F0D7FE6D
:10321000012017E262780121D5F8C40002F0CFFE48
:103220007EE16078A17800EB01223146284602F069
:10323000CBFE07E26078A178227900EB0120E178EB
:10324000090401EB026142183146284602F0BCFE37
:10325000F8E102208DF8280000F09BBA21780320C5
:103260008DF82800892980F094820AE0D7E16EE287
:1032700056E244E21CE2E8E1BEE18EE187E282E14F
:1032800015E288007844406887440000240200006A
:10329000BE0200002402000024020000BE02000062
:1032A00098020000980200009802000098020000B6
:1032B00098020000980200009802000098020000A6
:1032C0009802000098020000980200009802000096
:1032D0009802000098020000980200009802000086
:1032E0009802000098020000980200009802000076
:1032F00098020000980200009802000048020000B6
:1033000074020000BE020000980200009802000053
:1033100098020000240200000605000006050000D7
:103320000605000006050000060500000605000071
:103330000605000006050000060500000605000061
:103340000605000006050000060500000605000051
:103350000605000006050000060500000605000041
:103360000605000006050000060500000605000031
:103370000605000006050000060500000605000021
:103380000605000006050000060500000605000011
:103390009802000006050000060500000605000072
:1033A00006050000BE020000BE020000BE020000D2
:1033B00098020000980200009802000098020000A5
:1033C00024020000BE0200009802000098020000E3
:1033D0009802000098020000980200009802000085
:1033E0009802000098020000980200009802000075
:1033F0009802000024020000BE0200000605000042
:103400009802000098020000980200009802000054
:103410009802000006050000060500009802000062
:10342000980200002402000024020000BE020000F6
:10343000BE020000BE020000BE020000BE0200008C
:10344000240200009802000098020000BE02000062
:103450000605000098020000980200002402000007
:10346000BE020000BE020000BE020000BE0200005C
:10347000BE020000BE020000BE020000BE0200004C
:10348000BE020000BE020000BE02000024020000D6
:103490000605000024020000E4020000E40200002F
:1034A000E402000098020000980200009802000068
:1034B00001AA284602F054FB00909DF80400002861
:1034C00000F07081D5E90C0C01236A46F02100F070
:1034D0003AB900BFD5F8C400002800F05A81002195
:1034E00002F034FB8DF80000D5E90C0C01236A468C
:1034F000F021E04701208DF804000CB0BDE8F08118
:10350000D5F8C400002800F04481012102F01EFB20
:103510008DF80000D5E90C0C01236A46F021E04744
:1035200001208FE001AA284602F01AFB00909DF8C6
:103530000400002800F03681D5E90C0C02236A460D
:10354000F021E0470CB0BDE8F08101AA284602F066
:1035500007FB00909DF80400002800F02381D5E9C6
:103560000C0C04236A46F021E0470CB0BDE8F08162
:1035700001AA284602F0F4FA00909DF80400002801
:10358000EDD100F00FB9217807208DF828002846EA
:1035900002F082FA8DF80400FBE0002002A9024646
:1035A0000A54401CC0B22028FAD3002005E00B18B2
:1035B000401CC0B2DA701D2804D2D5F8C020125CBD
:1035C000092AF4D1D5F8C020411D2023515C8DF883
:1035D0000810C11D0930515C8DF80910D5F8C010D4
:1035E00002AA085C8DF80A00D5E90C0CF021E0472E
:1035F00001208DF80400CFE020796179E37800EBB9
:10360000012082B22078617800EB0120A1780904C2
:1036100001EB03610144284602F076FA12E02079BA
:103620006179E37800EB012082B22078617800EBC9
:103630000120A178090401EB0361084401B2284686
:1036400002F07AFA8DF80400A3E005A80090217832
:1036500006AB04AA284602F039FCBDF9180054490B
:10366000C0EB0010800081FB00108110A1EBE07026
:103670008DF80800010A8DF80910010C8DF80A1068
:10368000000E8DF80B00BDF814008DF80C00000A38
:103690008DF80D00BDF810008DF80E00000A8DF8B1
:1036A0000F00D5E90C0C082302AAF021E04770E0D6
:1036B000E079227A237900EB02201FFA80FC6078FF
:1036C000A278217800EB0220E278120402EB036278
:1036D000104400EB80004200364B0020C3FB020286
:1036E0005011A0EBE27003B26079A27900EB0220E6
:1036F00000B200906246284602F00CFDA2E7207856
:103700006178E27800EB012001B2A07800EB0220A2
:1037100002B2284602F046FC01208DF804003BE08E
:103720000C208DF8280002948DF80C80224902A804
:1037300002F014FA8DF8040058B31F48F021037901
:103740000268D5E90C0CE0470CB0BDE8F081002020
:1037500002A904E00A54401CC0B220280DD2D5F8BA
:10376000C020125C002AF5D1202838BF002204D2E4
:103770000A54401CC0B22028FAD3D5E90C0C2023EF
:103780000A46F021E04701208DF8040004E0012002
:1037900060E59DF8040028B10023D5E90C0C1A4619
:1037A000F021D0E7D5E90C0C01230AAAFF21CAE7D2
:1037B00067666666898888881400002010B500F066
:1037C00001F810BD10B50446006BE16B88478020FE
:1037D00084F8C800A16B206BBDE8104008470000CA
:1037E00001480068FFF7D4BA0C00002001480068C7
:1037F000FFF742BB0C000020034603480A46194667
:103800000068FFF705BB00000C00002006480078A8
:10381000002808BF704710B500F008F801F0C4FE9A
:10382000BDE8104002F092BBF805002010B50E4C28
:103830002078012818BF10BD608800281CBF608850
:10384000401E02D101F086FD03206080A08810B1E7
:10385000A088401EA080E088002808BF10BDE08836
:10386000401EE08010BD0000F805002001480068FF
:10387000FFF72ABB0C00002001480068FFF72FBBB0
:103880000C0000202DE9F35F594801F0E7FA594E8A
:10389000002406F13001347057480860A1F108088F
:1038A0005648C8F8000000F0B1FC03F013F9544882
:1038B00000F06FF906F1100B5148CBF8000006F14B
:1038C0000C05504828605048FDF79AF84E4B4F4A77
:1038D0004F482968FCF79CFF05F110014C4808602F
:1038E000DBF80010484A286801F071FA474802F0F6
:1038F000D6FC484800F04DF9474800F04AF905F178
:1039000008094448C9F8000005F10C0A4248CAF801
:1039100000004248306201F067F905F1200140489B
:103920000860316A3F4FC0E943713F4800F006F933
:1039300005F118003C49016005F128013B48086089
:1039400001F0F6F80020FDF72FF9012087F8240098
:10395000286801F01EFA3861286801F01AFA00148C
:10396000B88207F128002F1FA0F12803386005F165
:103970002C012A68FFF78FFA286801F01AFA3B68D1
:10398000014600221846FFF743FA009839680160A3
:103990002748DBF800100160D9F800104160DAF820
:1039A0000010C0E90214D8F80010C0E90414164948
:1039B000C0E9061404622968416205F12C018162A4
:1039C00014390968C162316AC0E90C1405F120019B
:1039D00084630968C0E90F1444648464C4640465A2
:1039E000019908600120307002B0BDE8F09F00002E
:1039F00030060020F805002008040020E80100201F
:103A000030010020B40100209C020020640200204C
:103A1000180300205C010020880100205C030020C6
:103A20001C0000207808002034030020F003002050
:103A3000BC080020B0F80031002220F81310B0F8C4
:103A40000031A0F802315B1C9BB2A0F80031802B42
:103A500024BF0023A0F800315FF0000330F913C049
:103A60005B1C9BB26244802BF8D3D31702EB5362EA
:103A7000D211A0F804210846704700210A4620F818
:103A80001120491C89B28029F9D3A0F80021A0F89F
:103A900002217047B0F904017047000008B5FDF736
:103AA0004BFF4FF4FA61B0FBF1F0FEF7A9F90749BB
:103AB000081FFFF7E7FE02F077FF044B04481A1FC8
:103AC00000900121101F02F041FB08BD10000020F2
:103AD0009E6B000810B504460078002818BF00202F
:103AE00012D194F8260000F03FFFA0F57F41FF3986
:103AF00007D0218B238A4A1E03FB0200B0FBF1F0A2
:103B00002082204600F02CF8E08280B210BD002117
:103B1000018270470178002918BF808A01D000B265
:103B20007047018A026A891AB0F91E20808C5143BD
:103B3000CA1701EB124100EB2140F0E710B5044633
:103B4000007820B10020E082608A208210BD201D14
:103B500000F06CFF84F826002046FFF7D8FF10BD68
:103B6000018A428B914284BF08207047828B8A422F
:103B70008CBF0020C08A7047B0F922007047B0F9AE
:103B800006007047408B7047B0F904007047008B07
:103B90007047018881804188C180018C4184002167
:103BA0008160816270478160704741847047C18045
:103BB000704781807047000070B4B0F90420002481
:103BC00002FB01F6B0F90620B0F914C0B0F91630C6
:103BD000002A04BF0021816014D085684A43A918D7
:103BE00005D5002DC4BF002A6FF0004103E0002D71
:103BF000BCBF002A0F49C2688A42A5BF0269914230
:103C000082608160827F8168057F41FA02F246FA14
:103C100005F52A446245C4BFACEB0204624603DCEE
:103C20009342C4BF9C1A1A462144816070BC10B2F2
:103C3000704700000100008070B5D0F80C110446F8
:103C4000C868D1F8161010FB01F210FB3121C8171B
:103C500001EB10400514D4F8100102F005FBD4F874
:103C6000081148434FF4167190FBF1F0684300EBE4
:103C700040000849400081FB00108110A1EBE07179
:103C8000C81701EB104001142046BDE87040FFF753
:103C9000D1BE000067666666C169084770B5044614
:103CA000002511B1012908D017E000F012F9B4F88D
:103CB0005200A4F8440080B90BE0B4F84400002896
:103CC00008BF012509D0401E0004000CA4F84400E0
:103CD00003D12169204688470125284670BD4268E6
:103CE000104730B4038E0AB253430A14B0F8501090
:103CF0004A435200524202EB030CA2EB03030CEBCB
:103D0000DC7C03EBD3735FEA6C0C4FEA63034FEA8E
:103D1000910153D5002B18DA042280F83A20ACEB3D
:103D20000302D41702EB943201EBA241DA1703EB42
:103D3000D23201EB62434FEAEC720CEBD232A1EBD0
:103D4000624CA0F83CC0C1876CE0002A1BDC4FF03D
:103D5000030C80F83AC0A2EB030C4FEAEC740CEBB6
:103D6000943C01EBAC414FEAE37C03EBDC334FEADC
:103D7000E27C01EB634302EBDC32A3EB624CA0F884
:103D80003CC0C38717E0022380F83A30ACEB020353
:103D9000DC1703EB943301EBA3414FEAEC730CEB1C
:103DA000D333A1EB634CD31702EBD3320CEB62435A
:103DB0008387A0F83EC0A0F8401052E0002B17DB2C
:103DC000012280F83A20ACEB0302D41702EB9432C4
:103DD00001EBA241DA1703EBD23201EB62434FEA67
:103DE000EC720CEBD2328387A1EB624CC18736E0D8
:103DF000002A1ADC052380F83A30ACEB0203DC170A
:103E000003EB943301EBA3414FEAEC730CEBD33398
:103E1000A1EB634CD31702EBD33281870CEB6243E7
:103E2000A0F83EC0A0F840301BE04FF0000C80F836
:103E30003AC0A2EB030C4FEAEC740CEB943C01EBA0
:103E4000AC414FEAE37C03EBDC3301EB63434FEA25
:103E5000E27C02EBDC328187A3EB624CC387A0F8E3
:103E600040C00029D8BF002189B24186002BD8BFAD
:103E700000239AB28286BCF1000FD8BF4FF0000C2D
:103E80001FFA8CF3C386B0F84EC0BCF1010F02D00C
:103E9000816930BC0847B0F948C0BCF1000FB0F8E8
:103EA00054C0CCBF6144A1EB0C014186B0F94A106B
:103EB00000291FFA8CF1CCBF1144511A8186B0F948
:103EC0004C1000291FFA8CF1CCBF1944591AC18635
:103ED000DEE781680847C168084741690847816F84
:103EE00091F88F20022A0DD1CA68098B09049161CB
:103EF000826F1169928B12048A61816F4A69098C01
:103F000009049161012180F8741046307047000067
:103F10002DE9F0470446806F00278568E76527662E
:103F2000676684F87370286A20F0550020F4A0605A
:103F300028624049616040490326A16184F87260AB
:103F4000204684F83A6000F012FCA06F04F173037D
:103F500004F1380190F88E20284602F0EBFD20464F
:103F600000F0DCFB204684F873703449616084F80B
:103F7000727084F83A7000F0FAFBA06F04F17303DA
:103F800004F1380190F88E20284602F0D3FD204637
:103F900000F0C4FBE06D2C4BC108E165206E05F11B
:103FA0001809C1082166606EC10861662449616014
:103FB0002449A161187800EB09021168D81D4FF05F
:103FC000080890F800C008FA0CFC21EA0C01116006
:103FD00099784944D1F800A0877808FA07F72AEAC7
:103FE000070AC1F800A01B794B44D3F80090007970
:103FF00008FA00F829EA08001860B4F8700068634D
:10400000B4F87000A863B4F87000E863106840EA80
:104010000C001060086838430860186840EA08001F
:10402000186084F83A60296A40F2555008432862C3
:10403000BDE8F0877941000853460008CF410008E9
:104040004D400008974600087E6E000870B4826FED
:104050009268136A23F48053136290F83AC02422C2
:10406000836F02EB8C029A5814684FF6FF7202EAD3
:1040700044053C2404EB8C041B591B6802EA4304EE
:104080003C4A530CBCF1060F66D2DFE80CF01D4130
:104090004103031DD0F85CC0ACEB050C1CF5004FD0
:1040A000D8BF0A8005DDBCF5004FACBF0B80A1F87E
:1040B00000C0D0F860C0ACEB040C1CF5004F47DD2D
:1040C000BCF5004F3FDA45E0D0F860C0ACEB050C22
:1040D0001CF5004FD8BF4A8005DDBCF5004FACBFD2
:1040E0004B80A1F802C0D0F864C0ACEB040CB1F96D
:1040F0000240A444CCF1000CBCF5004FA8BF0B80DB
:104100002ADA1CF5004FD4BF0A80A1F800C023E0D2
:10411000D0F85CC0ACEB050C1CF5004FD8BF0A8092
:1041200005DDBCF5004FACBF0B80A1F800C0D0F896
:1041300064C0ACEB040CB1F90040A444CCF1000C19
:10414000BCF5004F01DB4B8006E01CF5004F01DCA5
:104150004A8001E0A1F802C00A88A0F848204A88F5
:10416000A0F84A200A88498811444942A0F84C1016
:1041700070BC70470180FFFF826F9268136A23F45E
:104180008053136290F87320102A1CD290F872307A
:104190004FF0240C826F0CEB8303D2581268C36D6E
:1041A0004FF03C0C1A44C26590F87230826F0CEBF1
:1041B0008303D2581268036E1A44026690F8732083
:1041C000521C80F873200020088048807047826F5E
:1041D0009268136A23F48053136290F87320102AB4
:1041E00010D290F872304FF03C0C826F0CEB8303CE
:1041F000D2581268436E1A44426690F87320521CDB
:1042000080F87320002008804880704730B4836FA6
:104210009968D3E90023D1F800C02CF0010CC1F853
:1042200000C0D0F878C09CF890C0BCF1000F09D055
:104230006FF0800CC1F810C0D1F80CC04CF0800CAD
:10424000C1F80CC0D1F814C04CF0010CC1F814C076
:10425000D0F878C09CF88C40022C05D090F846C06D
:10426000BCF1000F17D01CE09CF88D40012C04BF5E
:104270009CF88EC0BCF1030F0DD14FF0010CC1F8BA
:1042800030C0D1F814C04CF0010CC1F814C04FF08C
:10429000030CC1F830C0B0F870C0ACF1010CC1F82B
:1042A00024C00C6A40F2555C44EA0C0CC1F820C0F2
:1042B000DFF86CC0A1F180454FF48014DCF80C10DD
:1042C000B5F580350CBF41F0010141F00201CCF899
:1042D0000C100EBF84664FF4F0118166916841F0B6
:1042E00001019160996841F0010199606FF004014A
:1042F0001160516841F080015160D16A21F4700170
:10430000D162916B21F440119163996B21F44011BA
:1043100099630021C466A0F84E1030BC70470000BD
:10432000002004E090F874200021012A03D14021EC
:10433000002280F8742008467047000070B50546DA
:10434000806F846895F84700012818BF70BD60220F
:1043500001212046FEF7E4FC206A40F001002062C3
:10436000A86F90F88F00012804BF206A40F0040075
:1043700005D0022804BF206A20F0040000D120628A
:10438000B5F8700040086063602210212046FEF7F7
:10439000C7FC206A40F010002062A86F90F88F00E0
:1043A000012804BF206A40F0400005D0022804BF65
:1043B000206A20F0400000D12062B5F8700040086B
:1043C000A06360224FF480712046FEF7A9FC206AAA
:1043D00040F480702062A86F90F88F00012804BF1D
:1043E000206A40F4806005D0022804BF206A20F4CF
:1043F000806000D12062B5F870004008E063064894
:104400006860064868610648E8600648A8600020C1
:1044100085F8470070BD00004D4000081D490008A8
:104420006F4700081D47000870B50546806F846817
:1044300095F8470000283ED1602201212046FEF772
:104440006FFC206A40F001002062206A20F0040026
:10445000206200206063A86F90F88F00012802D0CE
:1044600002280DD019E0102211462046FEF758FC14
:10447000206A20F010002062206A40F040000BE02B
:10448000202210212046FEF74BFC206A40F010004D
:104490002062206A20F04000206270224FF4807178
:1044A0002046FEF73DFC206A20F480702062206ADE
:1044B00020F480602062064868600648686106480B
:1044C000E8600648A860012085F8470070BD00003C
:1044D000154500080D4600085D4500081D47000809
:1044E000836FB0F870C002469B680CFB01F1090CA9
:1044F00041865963032180F83A10186A10F48050FD
:1045000018BF0120118F012918BF70470120002119
:1045100011877047826F9268136A23F48053136285
:1045200090F83A304FF03C0C826F0CEB8303D2587A
:104530001268006E524200EB4200074A9042D8BF18
:10454000104605DD47F6FF729042A8BF47F6FF70A0
:1045500008804880704700000180FFFF10B4816F21
:104560006FF0010389680B610A6912F0010FFBD03B
:104570000B6101224A63B0F87020521F0A640A6975
:1045800012F0010FFBD00B614A6C42F480624A6466
:104590004A6C42F400424A64826F92F88FC0BCF1C8
:1045A000020F2CD1D1F820C040F255541CEA040F60
:1045B000D2F80CC010D09269CCF81820D0F878C08E
:1045C000DCF81020DCF81CC0C2F818C0826F5069FB
:1045D000128C1204826112E0128B1204CCF81820A3
:1045E000D0F878C0DCF81020BCF81CC04FEA0C4CA6
:1045F000C2F818C0806F4269008C000490610B61A2
:10460000C86840F00100C86010BC7047816F00228C
:1046100089684A63931E0B610A6912F0010FFBD08F
:104620000B614A6C42F400424A64816F91F88F201A
:10463000022A18BF7047CA6889699161826F11693F
:10464000928B12048A61806F4169008C000488613A
:1046500070474FF48011C16690F8721080F83A10DC
:10466000B0F87010491E8AB20146806F4B8E806888
:1046700043638B8E8363CB8EC3630264006A10F442
:10468000805018BF01200A8F012A18BF70470120EF
:1046900000220A87704730B4856F818FB0F8702090
:1046A000B5F88640A2EB010CC38F1FFA8CFCA44521
:1046B00006D9032180F83A1091B2491E89B215E05B
:1046C000CB1A9BB2B3EB4C0F84BFB5F88820891A84
:1046D0000BD8214489B2914208D34FF40012C2662C
:1046E000B0F87020C1EB4201491E89B2AB680246A6
:1046F000408E5863908E9863D08ED8631964186A80
:1047000010F4805018BF0120118F01291CBF30BC4C
:10471000704701200021118730BC7047816F896884
:10472000CA6822F00102CA60002280F842204A6C66
:1047300022F400424A64826F92F88F30022B0DD12E
:10474000D368128B12049A61836F1A699B8B1B04C6
:104750009361826F5069128C120482616FF00102C2
:104760000A61086910F0010FFBD00A61704710B4AC
:10477000816F0022896880F84220B0F870205208CA
:104780004A63B0F8702052088A63B0F8702052086B
:10479000CA63B0F87020521F0A646FF001030B6106
:1047A0000A6912F0010FFBD00B614A6C42F480627F
:1047B0004A644A6C42F400424A64826F92F88FC0A5
:1047C000BCF1020F1BD1D1F820C040F2555434EA9D
:1047D0000C0CD2F80CC019D0128B1204CCF8182093
:1047E000D0F878C0DCF81020BCF81CC04FEA0C4CA4
:1047F000C2F818C0826F5069128C120482610B617A
:10480000C86840F00100C86010BC70479269CCF8DD
:104810001820D0F878C0DCF81020DCF81CC0C2F8F2
:1048200018C0826F5069126AE8E730B4D0F878C0D7
:10483000DCE90012DCF808300C6804F00C04082CE9
:1048400005D0002C08BFBCF884C008D018E0D1F80F
:1048500000C00CF00C0CBCF10C0FF8D110E05C6A3D
:104860006445FCD3D1F800C00CF00C0CBCF1080F6F
:1048700006D1D1F800C00CF00C0CBCF10C0FF8D133
:10488000D1F808C02CF4401CC1F808C0D2F808C008
:104890002CF4401CC2F808C0D0F878C010F83A4F89
:1048A000542505EB84045CF804C0C1F838C0D0F886
:1048B0003EC010F82E4B6C2505EB84045CF804C058
:1048C000C2F838C0D0F800C08C680CF4702C24F406
:1048D000702444EA0C0CC1F808C050F804CB94686A
:1048E0000CF4702C24F4702444EA0C0CC2F808C0B8
:1048F000D3F820C04CF4805CC3F820C00368D1F822
:1049000008C04CEA03038B60016893681943916007
:104910004FF4801140F8261930BC7047816F012296
:10492000D31E896880F842200B6100224A638A63A3
:10493000CA630A6912F0010FFBD00B614A6C42F4A2
:1049400000424A64816F91F88F20022A18BF704795
:10495000CA6889699161816F0A69C9699161816FCA
:104960004869096A816170471D4910B451F82020D7
:10497000D2F800C0127902EB4203092A99BF4FF026
:10498000007444EA0353174C04EB03531A434FF4E7
:10499000407494FAA4F44FF40073B4FA84F4E3403E
:1049A0000CEB8303D3F82CC002F01F022CF01F0C79
:1049B0004CEA0202DA6251F820201268D36C01231B
:1049C000520102F18442C2F8783151F820000068A7
:1049D000016811F0020FFBD0C06C10BC80B27047B0
:1049E00010090020000020FE10B50E4C6078012850
:1049F00018BF10BD2078FFF7B7FF60800146022086
:104A00006070094A207852F83030002B08BF10BD82
:104A10004FF0000C02EBC00284F801C05268BDE800
:104A200010401847360600202009002070B4FF22ED
:104A30003C4B002153F821C0BCF1000F1DD09CF865
:104A400004400579AC4206D1DCF800C00468A445F6
:104A500004BF0A460421491CC9B20429EAD3042A26
:104A60005CD243F82200304B002143F83210016839
:104A70008B6813F0010F1AD103E0042A88BF0A469D
:104A8000E9E74B6823F020034B6001686FF00203F5
:104A90000B6001684B6823F080034B6001686FF086
:104AA00004030B6001688B6843F001038B600168AD
:104AB000CB6A23F47003CB620179D0F800C04FF0C9
:104AC0000074092901EB410392BF44EA0353174DD7
:104AD00005EB03531943836894FAA4F401F00070C2
:104AE000B4FA84F4E0400CEB8000C46801F0F87C78
:104AF0004FF0F87191FAA1F5B5FA85F591FAA1F1A7
:104B00002CFA05F50726B1FA81F106FA05F52CFA1B
:104B100001F1AC4303FA01F12143C16070BC1046BE
:104B2000704700001009002020090020000020FE2E
:104B3000002181604160C1600161012141617047D4
:104B400070B5044690F82600FFF70EFFA0F57F41F0
:104B50008446FF3921D094F82510206A20F811C02E
:104B60000021228B0846002A88BF236A07D900BF8C
:104B700033F81050401CC0B229448242F8D8B1FB2F
:104B8000F2F0E080A4F804C094F82500511E884299
:104B9000B4BF401C002084F82500204600F002F835
:104BA000208170BDC188428B914284BF0220704732
:104BB000808B88428CBF042000207047418B828B01
:104BC000038B11444A080021002B07D9036A23F8FC
:104BD0001120491C038B89B28B42F7D88280C28096
:104BE000002180F82510704710B504460C30FFF7FF
:104BF0001DFF84F826002046FFF7E0FF10BDB0F946
:104C00000C007047B0F904007047B0F9100070470D
:104C1000B0F90C10B0F91400C1EBC13191FBF0F008
:104C200000B2704730B4B1F90050012490F803C0CD
:104C300000230278002DBABF694289B20988858AAB
:104C40008D4238BF0123C58A8D4288BF0123B0F948
:104C500012100029BABF494289B2418A058B8D42A0
:104C600028BF002B04D062453CBF511CCAB202E0F1
:104C7000624538BF0022624508BF0024027020460A
:104C800030BC704770B50546007800280CBFAC6892
:104C90006C68E968012904D9AA69A1F101011444E9
:104CA00005E005D169884FEA01444FF00001E96051
:104CB000012805D0E01704EB10400014AC6070BD73
:104CC000E01704EB104006146869FFF798FF301AEC
:104CD00001B22869FEF770FF0104C5E9014170BD0A
:104CE0000178012918BF704700690021FEF75BBFFA
:104CF0002DE9F0410446007817460D46012660B1C3
:104D00006068C11700EB1140E18B0014A942A4BFF9
:104D1000B4F924108D4212DA0FE0204600F051F869
:104D2000E18CA94205DAB4F9281000268D421CDA7C
:104D300003E0B4F928108D4208DA002615E0218C32
:104D40008D42BCBFB4F92210A942F6DB87B1658061
:104D5000A18B4FF47A727943B1FBF2F1491C281A06
:104D6000000490FBF1F0E160A0613046BDE8F08105
:104D700021782804012914BFA06060600020E06051
:104D8000F2E710B504464069FFF739FF00046060A0
:104D900010BD0146C28D098E62F30F0061F31F4002
:104DA0007047C08B70474068C11700EB114000147A
:104DB0007047B0F92C007047B0F924007047406983
:104DC00070478068C11700EB114000147047C0E9BC
:104DD000041290F82A100170818D09044160C18D80
:104DE0000904816000214180C160816170470170C8
:104DF0000021C1607047416170470021C16081613D
:104E00007047027800210B2A04D10921017000218A
:104E10008180012108467047B0F802C003784CEA4F
:104E2000010C2CEA02024280B0F804C00A2B4CEAC2
:104E30000101818005D012B10A2101700B4618468C
:104E40007047002AFBD10B2101700B46F7E78188E0
:104E5000408841EA004070470078704700210170A7
:104E600041808180704710B502780024152A6CD2E9
:104E7000DFE802F00E1B3033525E636669706B6BC5
:104E80000B21262B3D424D584800002966D05CE09E
:104E900003291CBF01290C2960D0072903D0002257
:104EA0008021FFF7B9FF204610BD07291CBF0D293F
:104EB0000E2953D049E00E2918BF07294ED044E0EF
:104EC0000F2918BF072949D03FE0022918BF072939
:104ED00044D03AE0072941D037E0072918BF10290C
:104EE0003CD004291CBF1129012937D02DE01129FC
:104EF00018BF072932D028E012291CBF072914291E
:104F00002CD022E0122918BF072927D01DE0042940
:104F100018BF072922D018E013291CBF072905292B
:104F20001CD012E004291CBF0729052916D00CE06B
:104F3000062918BF072911D007E007290ED004E081
:104F400008290BD001E0092908D0032918BF01293D
:104F5000A9D0A2E7002918BF0C29F6D101240170BD
:104F6000A1E7000010B5084C2078022805D1FCF715
:104F70007DFBFCF75BFF00202070C0B2401C20705E
:104F8000BDE81040FEF742BC3A06002030B593B0B1
:104F90000025224802950395049505950C950D95DD
:104FA0000E950F951095016841F0805101600068E1
:104FB00000F0805011901A48016841F4804101606E
:104FC0000068022400F48040119001200090000449
:104FD00001908001CDE906400420CDE90A40A821D6
:104FE000CDE908016846FCF707FD08B172B6FEE797
:104FF0000F20CDE90C044FF4A050CDE90E504FF432
:105000008050109005210CA8FCF7E2FB08B172B6A5
:10501000FEE7FCF78BFC13B030BD000040380240C7
:10502000007000400248016841F47001016070475F
:1050300088ED00E00748006AC16811F0010F1ABF4F
:10504000016911F0010F70476FF001010161014822
:10505000FBF7CFBC9C0200200148FDF7D8B8000048
:105060004C070020084810B5806F8068016911F076
:10507000800F05D06FF0800101610348FEF72FFF1C
:10508000BDE81040FEF7D2BBE801002004486FF0F5
:105090000101806F806801610148FFF7C6BB000015
:1050A000E8010020F0B402682B4B2C4C2C4D2D4E07
:1050B000DFF8B4C0984218BFB0F1804F07D0A042CB
:1050C00018BFA84203D0B04218BF604503D14F6853
:1050D00022F070023A43984218BFB0F1804F25D0B9
:1050E000A04218BFA84221D0B04218BF60451DD0D1
:1050F000A0F18044B4F5A0341CBFA0F18044B4F505
:10510000A23413D0A0F18044B4F5A4341CBFA0F1A4
:105110008044B4F5C05409D0A0F18044B4F5E05403
:105120001CBFA0F18044B4F5005403D1CC6822F434
:10513000407222434C6922F08002224302608A6856
:10514000C2620A688262984212BF604509690163BF
:1051500001214161F0BC70470000014000040040A3
:1051600000080040000C00400004014010B4036837
:105170000022D3F808C04C682CF0700C44EA0C0CE8
:105180000C682CF0070C44EA0C0CC3F808C04B6800
:1051900013F00F0F5AD11B11082B57D2DFE803F081
:1051A00057575757122B40040068D1E9023C096950
:1051B000846843EA012124F47F4441EA0C0121433D
:1051C000816044E00B68052B02BF012010BC7047D2
:1051D0000368D3F820C01C6A24F001041C62036831
:1051E0009C69096924F0F00444EA0111996100689E
:1051F000C0F820C02BE00068D1F810C08B68016AAD
:10520000046A24F001040462846921F00A0124F094
:10521000F00444EA0C1C1943C0F818C0016216E0FF
:105220000068D1F810C08B68016A21F0100101629A
:105230008469016A24F4704444EA0C3C21F0A00122
:1052400041EA0311C0F818C0016200E0012210BC5D
:1052500010467047034900208988002908BF0120B3
:1052600070470000F8050020054810B50068FFF7FA
:1052700055FA0022BDE8104080210248FFF7CCBD5E
:1052800020060020300600202DE9F84F4FF0000ADC
:105290002C48FBF7EDFA2C480068FFF790FD834699
:1052A000FFF7B0FCDFF8A49007466946D9F8000084
:1052B000FEF715FD0098FDF719FE80463946FDF70B
:1052C0003BFE234C064631B2B4F91000411AA9F155
:1052D00014000068FEF770FC60F30F05B4F91200CB
:1052E000A0EB2641A9F110000068FEF765FC2946F5
:1052F00060F31F4109F108000068FBF7F5F9054666
:105300005846FFF782FC39462846FDF757FE83468C
:105310005946D9F80000FEF7E4FCC4F8165000998D
:10532000E660C4E90018C4F81AB02784012805D142
:105330000022012109F11000FFF76EFD5046BDE883
:10534000F88F00009C0200200406002020060020A8
:105350007808002038B50020ADF80000694689487B
:10536000FBF79DFA88480068FEF766FC8748FFF760
:1053700073FD132828BF38BDDFE800F00A60A119CB
:105380009CC4D7DFF5FF1818186C7B8832414E009B
:105390007F48FBF73BFA002808BF38BD00217C4856
:1053A000FBF73FFA03217948FFF75DFD38BD7848E8
:1053B000FBF735FA58B177480068FFF7AFFA1420C9
:1053C00000F058F910217148FFF74DFD38BD01215B
:1053D0006F48FBF726FA01216C48FFF744FD38BD02
:1053E000FFF738FF002808BF38BD6A480021006871
:1053F000FEF754FC11216548FFF735FD38BD6548BF
:1054000001210068FEF74AFC002808BF38BD1221C0
:105410005E48FFF728FD38BD5A48FBF7D5FA04214E
:105420005A48FFF720FD002808BF38BD0020FBF7D1
:10543000BBFB58480068FFF79AF938BD554800682B
:10544000FFF76CFA142000F015F90D214F48FFF713
:105450000AFD38BDFFF7FEFE002808BF38BD4D48E5
:1054600000210068FEF71AFC0E214848FFF7FBFCFC
:1054700038BD484801210068FEF710FC002808BF2D
:1054800038BD0F214148FFF7EEFC38BD42490120ED
:1054900081F82400414842490068FFF7ACFC3C48D1
:1054A000FBF7C1F902213948FFF7DDFC002808BFEE
:1054B00038BDBBE705213548FFF7D5FC38BD34487A
:1054C000FBF78AF990B133480068FFF727F9334CAE
:1054D00001212068FFF78BFC2A492068FFF78BFC2D
:1054E000072104F12C00FFF7BEFC38BD002060F35B
:1054F0000F042A480068FFF7C5FB60F31F442648E5
:10550000046138BD0020FBF785FB0020FBF732FB70
:1055100006211E48FFF7A7FC20480068FFF731FC72
:1055200020480068FDF738FC38BD1E480068FDF7CC
:1055300033FC0020FBF71EFB38BD16480068FFF760
:10554000EDF80020FBF730FB0F480068FEF795FAF6
:105550004FF4487000F094F808210C48FFF783FCE2
:1055600038BD0AE0FFE700F091F8002808BF38BD19
:1055700009210648FFF777FC38BD00210348FFF7F3
:1055800072FC38BD9C02002024060020300600205A
:1055900018030020200600207808002004060020C0
:1055A000640200200006002006480078012818BF89
:1055B000704710B5002000F007F8BDE81040FFF775
:1055C00013BA0000F8050020F8B504462348006827
:1055D0000090234850F82400FEF77CFA3DF81410A0
:1055E000204F00EA010557F82400FEF755FB05435C
:1055F00044B9A7F12800006AFFF7A2FABDF800102D
:1056000008400543E84382B2174804EB440100EB2D
:10561000410629463046FFF7FFFB3046FFF71CFCEA
:105620000A2806D00B2804BF57F82400FEF751FCC7
:10563000F8BD0E4850F8240000281CBF0021FBF7DD
:10564000F0F857F82400FEF744FC2046FBF7ACFACC
:10565000074850F82400FEF710FAF8BDC06B0008A8
:105660001C06002020060020300600201406002022
:10567000240600200149888070470000F8050020BA
:105680000149C88070470000F80500200349002048
:10569000C988002908BF012070470000F8050020D4
:1056A0000148FDF72FB80000DC07002010B5806B23
:1056B0000021C185C184FDF724F810BD08B590F81C
:1056C0003E1022291CBF022008BD8268B2F5805F0F
:1056D00004BF01690029816A16D0B2F5805F1BD032
:1056E000002A04BF0269002A16D00268526802F03C
:1056F0007F020A70816A491C8162C18D491E0904BA
:10570000090CC1850BD024E002685268C2F308027C
:105710000A80816A891CEFE702685268E9E701683C
:10572000CA6822F02002CA600168CA6822F4807246
:10573000CA6001684A6922F001024A61202180F8AA
:105740003E10016B012904BF0021016303D0FDF766
:10575000FDF9002008BD016801F10C0252E8001FAC
:1057600021F0100142E80013002BF4D101680A680F
:1057700012F0100F02D00A6849680091818DFCF781
:10578000BFFFE6E770B5044600680169E26821F4EE
:105790004051114301612169A068E26908436169D0
:1057A000114301432068C26822F4037222F41442B8
:1057B0001143C16020684169A26921F4407111431D
:1057C00041612068A0F18041B1F588311CBFA0F192
:1057D0008041B1F58A3128D0FCF7B4F8E2690023A2
:1057E00019213226B2F5004F214D626820D0A0FB6E
:1057F0000101930F9200FAF7CAFE0146A5FB0120B2
:1058000040096FF01802424301EB820106EB0111DF
:10581000A5FB0121490901F0F00202EB001001F0A3
:105820000F0108442168886070BDFCF79BF8D5E73C
:10583000A0FB010192185B41FAF7A9FE0146A5FB06
:105840000120420908466FF01801514300EB810026
:1058500006EBC000A5FB00101301400900F0F801A1
:1058600003EB410100F0070008442168886070BD27
:105870001F85EB51002180F81C117047FBF75EB9C2
:1058800008B508218DF8001001236A46FF2100F0B9
:1058900081F808BD38B5044690F81C012D4D00284C
:1058A00056D0C8B294F81D1189B10023012915D032
:1058B00094F89A20921C91421CD204F199028854C7
:1058C00094F81D0110F1010084F81D0140E084F8F6
:1058D0009900208A6082204D0120F5E784F89A0023
:1058E000022084F81D0194F89A00802828BF84F8CB
:1058F0001D312DE084F81B016382D4F82001174D7F
:1059000010F10C0050E8001F21F0200140E80012C7
:10591000002AF7D184F81C3104F19900FBF7F7F85D
:1059200094F81B1188420AD1D4F808C094F89A3030
:1059300094F8991004F19B022068E04708E00A20DF
:105940008DF8000001236A46FF21204600F022F86E
:10595000284638BD8C6E00088E6E0008906E0008D8
:1059600090F81C1100291CBF01207047002180F80D
:105970001D11012180F81C11D0F8200110F10C003C
:1059800050E8001F41F0200140E80012002AF7D142
:105990000220704710B5044690F8970000281CBFFD
:1059A000012010BD04F116002175591E6375C9B29E
:1059B00007D300BF12F8013B491E00F8013BC9B2F2
:1059C000F8D204F11400FBF7A2F884F89600002145
:1059D00084F89810012184F89710D4F820010C3035
:1059E00050E8001F41F0800140E80012002AF7D182
:1059F000022010BD90F897200146002A08BF70478A
:105A000091F89820002A08BF0A7D0CD0012A08BF0F
:105A10004A7D08D04B7D9B1C9A423ABF01F114038A
:105A2000D25C91F89620D0F820315A604B7D91F8E5
:105A300098209B1C9A4239BF501C81F89800D1F8DD
:105A400020010C3038BF704750E8002F22F0800250
:105A500040E80023002BF7D1002081F89700D1E91E
:105A6000000108478169002908BF7047084741695C
:105A7000002908BF7047084770B5064C0546A06866
:105A800000F049FAA84218BF70BDA068BDE8704098
:105A9000FFF7E8BF3C06002070B5026A90F82C00C2
:105AA00001240F2952F820502AD2DFE801F02919E9
:105AB00015082A2A111D21252929292915002846DA
:105AC000FDF7DAF9062804BF2846FDF70CFA18E0BE
:105AD0002846FDF7D1F918B12846FDF700FA10E085
