:020000040800F2
:100000007007002029020008FB180008C112000830
:10001000F9180008BF040008991C0008000000003F
:1000200000000000000000000000000003190008AC
:10003000C104000800000000FD18000805190008B0
:10004000430200084302000843020008430200087C
:10005000430200084302000843020008430200086C
:10006000430200084302000843020008430200085C
:10007000430200084302000843020008430200084C
:10008000430200084302000843020008430200083C
:10009000430200084302000843020008430200082C
:1000A000430200084302000843020008430200081C
:1000B000430200084302000843020008430200080C
:1000C00043020008430200084302000843020008FC
:1000D000430200088D1C0008430200084302000888
:1000E00043020008430200084302000843020008DC
:1000F00043020008430200084302000843020008CC
:1001000043020008430200084302000843020008BB
:1001100043020008430200084302000843020008AB
:10012000430200084302000843020008430200089B
:10013000430200084302000843020008430200088B
:10014000430200084302000843020008430200087B
:10015000430200084302000843020008430200086B
:10016000430200084302000843020008430200085B
:100170004302000843020008430200080000000098
:10018000430200084302000800F002F800F03CF8C7
:100190000AA090E8000C82448344AAF10107DA45E2
:1001A00001D100F031F8AFF2090EBAE80F0013F0F8
:1001B000010F18BFFB1A43F001031847342E00004B
:1001C000542E0000103A24BF78C878C1FAD85207DC
:1001D00024BF30C830C144BF04680C6070470000C1
:1001E0000023002400250026103A28BF78C1FBD840
:1001F000520728BF30C148BF0B6070471FB501F0E0
:10020000FDFD1FBD10B510BD00F020F91146FFF730
:10021000F5FF01F061FD00F03EF903B4FFF7F2FFD6
:1002200003BC00F045F90000094880470948004731
:10023000FEE7FEE7FEE7FEE7FEE7FEE7FEE7FEE796
:10024000FEE7FEE704480549054A064B70470000F3
:100250009D19000889010008700100207007002026
:10026000700300207003002053EA020C00F0698044
:100270002DE9F04B4FF00006002B1FBFB3FA83F5BA
:1002800003FA05F424FA05F65E4012BF1643B2FAEB
:1002900082F502FA05F4C5F120051EBF22FA05FC1D
:1002A00044EA0C04203556EA044C4FEA144418BFC3
:1002B000641C4FF000084FF00009904271EB030CF2
:1002C00039D3002919BFB1FA81F701FA07F6B0FA5C
:1002D00080F700FA07F6C7F120071EBF20FA07FCD7
:1002E00046EA0C062037B6FBF4FCA7EB0507103FE7
:1002F00007F01F0BCBF120060CFA0BFB2CFA06F6CD
:1003000044BFB3460026202FA4BF5E464FF0000B2B
:100310005BEA060C08BF4FF0010B19EB0B09ABFBB6
:10032000027C48EB0608C01B06FB02CC0BFB03CC8F
:1003300071EB0C01C1E70B46024641464846BDE859
:10034000F08B13B54FF000004FF00001AFF30080C9
:10035000BDE81C40704710B5431C02E010F8011BBB
:1003600071B18107FAD14FF0013202C88C1A8C4367
:1003700014EAC211F9D0C01A0A0603D0C01E10BD7B
:10038000C01A10BD0A0401D0801E10BD0902FCD0A5
:10039000401E10BD10B5203AC0F00B80B1E81850D7
:1003A000203AA0E81850B1E81850A0E81850BFF45F
:1003B000F5AF5FEA027C24BFB1E81850A0E81850FE
:1003C00044BF18C918C0BDE810405FEA827C24BF52
:1003D00051F8043B40F8043B08BF7047D20728BFE0
:1003E00031F8023B48BF11F8012B28BF20F8023B2F
:1003F00048BF00F8012B70474FF0000200B51346CC
:1004000094469646203922BFA0E80C50A0E80C5034
:10041000B1F12001BFF4F7AF090728BFA0E80C50E5
:1004200048BF0CC05DF804EB890028BF40F8042BDE
:1004300008BF704748BF20F8022B11F0804F18BF4B
:1004400000F8012B7047704770477047754600F001
:100450002BF8AE4605006946534620F00700854656
:1004600018B020B5FFF7EEFEBDE820404FF00006C3
:100470004FF000074FF000084FF0000B21F007018C
:10048000AC46ACE8C009ACE8C009ACE8C009ACE8CF
:10049000C0098D46704710B50446AFF30080204672
:1004A000BDE81040FFF7B9BE0048704710010020BA
:1004B00001491820ABBEFEE7260002007047FEE7A8
:1004C00070472DE9F0410446876D00F065F9064656
:1004D00094F835000025022806D08020606584F855
:1004E00034500120BDE8F0812068016821F0160138
:1004F00001602068416921F080014161206C08B9E8
:10050000A06C20B12068016821F00801016020681A
:10051000016821F0010101600CE000F03DF9801B51
:10052000052807D920206065032084F8350084F869
:100530003450D7E720680068C007EED194F85C100B
:100540003F208840B860012084F8350084F834509A
:100550000020C7E790F83510022903D080214165BB
:1005600001207047052180F835100068016821F0EE
:10057000010101600020704770B5044600F00CF9DD
:100580000546601C02D004480078044400F004F9D9
:10059000401BA042FAD370BD080000202DE9F84F9F
:1005A000DFF8BCA10022012503264FF00F090AF154
:1005B000040BAAF1040E00BF0B6805FA02F42340F5
:1005C000A34270D10F7907F00307012F01D0022F4A
:1005D00016D187684FEA420806FA08FC27EA0C079A
:1005E000D1F80CC00CFA08FC4CEA070CC0F808C0A3
:1005F0004768A7430C79C4F3001494403C4344601B
:100600000C79E443A4070AD0C4684FEA420C06FA06
:100610000CF7BC438F6807FA0CF72743C7600C79C7
:1006200004F00304022C12D1D40800EB840CDCF893
:1006300020405707FF0E09FA07F824EA0804D1F80A
:10064000108008FA07F848EA0408CCF8208004680B
:100650004FEA420C06FA0CF7BC430F7907F0030788
:1006600007FA0CF7274307604C6814F4403F70D03A
:100670003C4C276847F480472760246822F0030732
:1006800004F480440094384C07EB040CDCF8084870
:1006900097074FEA177809FA08F7BC43334FB84277
:1006A00002D1002724E054E0314FB84201D10127A4
:1006B0001EE0304FB84201D1022719E02E4FB84258
:1006C00001D1032714E02D4FB84201D104270FE0D8
:1006D0002B4FB84201D105270AE02A4FB84201D179
:1006E000062705E0284FB84201D1072700E0082778
:1006F00007FA08F72743CCF80878DAF8004057469D
:10070000D1F804C09C435FEACC2C00D51C433C606C
:10071000DBF800405F46D1F804C09C435FEA8C2CB4
:1007200000D51C433C60DEF800407746D1F804C099
:100730009C435FEA8C3C00D51C433C60084F083F5B
:100740003C68D1F804C09C435FEACC3C00D51C4314
:100750003C60521C102AFFF42FAFBDE8F88F000058
:10076000083C014044380240003001400000024093
:100770000004024000080240000C02400010024049
:100780000014024000180240001C02400AB18161BE
:1007900070470904FBE700000148806870470000CB
:1007A0000800002002488168027811448160704787
:1007B000080000200B4810B5016841F40071016089
:1007C000016841F480610160016841F48071016059
:1007D000032000F06FF80F2000F006F800F024F876
:1007E000002010BD003C024070B50D4D04464FF492
:1007F0007A712878B1FBF0F00A490968B1FBF0F092
:1008000000F00CFB48B9102C07D200222146501EE4
:1008100000F030F800206C6070BD012070BD000059
:1008200008000020140000200A4808B5016841F4BF
:1008300080410160006800F4804000900548001F7E
:10084000016841F080510160006800F08050009024
:1008500008BD000044380240002809DB00F01F02F8
:10086000012191404009800000F1E020C0F8001112
:1008700070470000F0B40E4B1B680C46C3F3022314
:10088000C3F10705042D00D90425191D072901D23C
:10089000002300E0DB1E012606FA05F1491E214077
:1008A00099409E40761E16403143F0BC01F0F5B9E8
:1008B0000CED00E0064900F0070208684FF6FF0360
:1008C000184040EA0220034A1043086070470000C5
:1008D0000CED00E00000FA052DE9F0470E4605009A
:1008E00065D0DFF81481D8F80000F7B200F00700F7
:1008F000B04207D288F80070D8F8000000F0070076
:10090000B04254D128683D4C810712D5400703D529
:10091000206840F4E05020602878000703D5206864
:1009200040F4604020602068A96820F0F00008438F
:1009300020602878C0072DD0304968680839012820
:1009400012D0022813D0032811D009688907002982
:100950002DDA216821F0030101432160FFF71CFF1C
:10096000814641F2883A0EE009688903EFE7096899
:100970008901ECE7FFF710FFA0EB0901514502D90F
:100980000320BDE8F0872068696800F00C00B0EB38
:10099000810FEFD1D8F80010404601F00701B142B5
:1009A00007D90770006800F00700B04201D00120AD
:1009B000E7E72878400705D52068E96820F4E0508B
:1009C000084320602878000706D52068296920F4AC
:1009D000604040EAC100206000F038F82168084A11
:1009E000C1F30311515CC84006490860064800681D
:1009F000FFF7FAFE0020C4E7003C0240083802403E
:100A0000D62F0008140000200C00002004480549DF
:100A100000680968044AC1F38221515CC8407047EC
:100A20001400002008380240E62F00080448054959
:100A300000680968044AC1F34231515CC8407047FC
:100A40001400002008380240E62F0008154810B5B1
:100A5000006810F00C02144813D01449042A0FD077
:100A6000082A0ED10F4C241F2268236802F03F028F
:100A70005B0207D52068C0F38810A0FB010106E0E7
:100A8000084610BD2168C1F38811A1FB00010023B5
:100A9000FFF7EAFB2168C1F30141491C4900B0FBA3
:100AA000F1F010BD083802400024F40040787D01C8
:100AB0002DE9F84F04006ED02078DFF84C93C00782
:100AC000A9F104054AD009F104000168C1F38101CC
:100AD000012908D00068C0F3810002280AD1D9F8A2
:100AE0000000400206D52868800337D560680028DA
:100AF000E1D033E06068B0F5803F10D0B0F5A02FB2
:100B0000286810D020F480302860286820F48020E5
:100B100028606068A8B1FFF73FFE06460DE0286830
:100B200040F48030F4E740F480202860F7E700BF0D
:100B3000FFF732FE801B642873D828688003F7D53E
:100B40000CE0FFF729FE064605E000BFFFF724FE94
:100B5000801B6428F0D828688003F7D42078DFF859
:100B6000AC8280074FF0000A3ED5A748001D0168FF
:100B700011F00C0F08D00068C0F3810002280BD1DF
:100B8000D9F80000400207D42868800716D5E0682D
:100B9000012800D112E033E1E068B8B10120C8F8C3
:100BA0000000FFF7F9FD064605E000BFFFF7F4FD82
:100BB000801B0228C0D828688007F7D528682169DB
:100BC00020F0F80040EAC10028600DE0C8F800A05D
:100BD000FFF7E2FD064604E0FFF7DEFD801B02287A
:100BE0001FD828688007F7D42078000722D5864FC1
:100BF00087486169703771B101210160FFF7CCFD51
:100C0000064604E0FFF7C8FD801B022809D83868B3
:100C10008007F7D50EE0C0F800A0FFF7BDFD06463F
:100C200005E082E0FFF7B8FD801B02287DD8386818
:100C30008007F7D42078400768D5DFF8CCB10027CB
:100C40000BF13C0BDBF80000C0000BD4DBF800100C
:100C500041F08051CBF80010DBF80000012700F0D4
:100C6000805000906B4E3068C00510D4306840F45E
:100C700080703060FFF790FD009005E0FFF78CFD7D
:100C80000099401A022850D83068C005F6D55E4E4B
:100C9000A0686C3601280FD00528306810D020F0ED
:100CA00001003060306820F004003060A068B8B106
:100CB000FFF772FD00900FE0306840F00100F4E7AC
:100CC00040F004003060F7E7FFF766FD0099411A35
:100CD00041F28830814266D830688007F4D50EE052
:100CE000FFF75AFD009007E0FFF756FD0099411A03
:100CF00041F28830814256D830688007F4D42FB151
:100D0000DBF8001021F08051CBF80010A069C8B3C7
:100D10003D49091D0968C1F3810102294AD0022811
:100D2000504607D0C8F8600000E03CE0FFF734FD13
:100D300004463BE04746C8F86000FFF72DFD064635
:100D400005E000BFFFF728FD801B02282BD828688C
:100D50008001F7D4D4E907010843A16A2E4A490863
:100D600002EB0141626A41EA8211084394F82C10B7
:100D700040EA0161C9F8001001203866FFF70CFD58
:100D8000044606E03EE000BFFFF706FD001B022818
:100D900009D828688001F7D534E000BFFFF7FCFCD4
:100DA000001B022802D90320BDE8F88F28688001C3
:100DB000F4D427E00128F7D0D9F80000E26900F464
:100DC000800191421CD1226A00F03F01914217D16B
:100DD00047F6C071626A0140B1EB821F10D1A26A6E
:100DE0004FF0FF3300F4403103EB5202B1EB024FFE
:100DF00006D194F82C1000F07060B0EB016F01D0B8
:100E00000120D1E70020CFE704380240000047422C
:100E1000800E4742007000400000FFFF10B5401EEA
:100E2000B0F1807F01D3012010BD4FF0E02460615C
:100E30000F21601700F031FF0020A0610720206122
:100E4000002010BD70477047F8B501680446086877
:100E5000CA684B6910F00F0F4FF000055AD003F02D
:100E6000010602F49077374365D0C10705D0D1055C
:100E700003D5216C41F001012164410705D5D90753
:100E800003D0216C41F002012164810705D5D90707
:100E900003D0216C41F004012164010707D502F061
:100EA0002001314303D0216C41F008012164216C01
:100EB00000293BD0800604D5900602D5204600F0DC
:100EC000A4FD20684069216CC0F3801001F0080186
:100ED000014320462BD000F071FD20684069400698
:100EE00021D52068143050E8001F21F0400140E86F
:100EF0000012002AF5D1A06BA8B16C490165A06B66
:100F0000FFF728FB002811D0A06B016D01B0BDE8F0
:100F1000F040084783060ED593060CD52046BDE861
:100F2000F84000F072BD2046FFF78DFFF8BDFFF7D7
:100F30008AFF2564F8BD266B2023012E79D1C606D1
:100F400077D5D60675D50868486800904869400688
:100F500040D5A16B086840680004000CEAD0A28D5F
:100F60008242E7D9E085C869B0F5807F2DD020683E
:100F70000C3050E8001F21F4807140E80012002A74
:100F8000F5D12068143050E8001F21F0010140E83D
:100F90000012002AF5D12068143050E8001F21F01B
:100FA000400140E80012002AF5D184F83E30256364
:100FB00020680C3050E8001F21F0100140E80012BA
:100FC000002AF5D1A06BFFF77CFAA08DE18D401AC5
:100FD00081B229E0A08DE18D401A81B2E08D002818
:100FE000A8D00029A6D020680C3050E8002F22F4A9
:100FF000907240E80026002EF5D12068143050E8A9
:10100000002F22F0010240E80026002EF5D184F8DE
:101010003E30256320680C3050E8002F22F010028B
:1010200040E80023002BF5D12046FFF70BFFF8BD69
:10103000FFE705062BD5150629D594F83D00212894
:10104000F5D1A068B0F5805F01D12069B0B1206A08
:10105000411C2162216800784860E08C401E000439
:10106000000CE084E3D12068C16821F08001C160F8
:101070002068C16841F04001C160D8E7206A00885B
:10108000C0F308004860206A801C2062E5E7400643
:10109000CDD55006CBD5CA68204622F04002CA60A2
:1010A00084F83D3000F00BF9C1E70000AD190008ED
:1010B00070B5040004D094F83D00002510B106E09E
:1010C000012070BD84F83C50204600F023F8242015
:1010D00084F83D002068C16821F40051C1602046B9
:1010E00000F0F4FC2068016921F49041016120685E
:1010F000416921F02A0141612068C16841F4005131
:10110000C1602564202084F83D0084F83E00002062
:1011100070BD000010B586B0044614216846FFF784
:101120006BF918492068884229D1174800210268C4
:1011300042F010020260006800F0100005901248B2
:101140001438026842F001020260006800F00100F9
:1011500005904FF4C06000900220CDE9010103200A
:1011600003900720049069460848FFF717FA002209
:1011700011462520FFF77EFB2520FFF76DFB06B00B
:1011800010BD000000100140443802400000024041
:1011900090F83E30202B0ED159B152B190F83C302E
:1011A000012B08D0012380F83C300023036300F0BA
:1011B00013BD0120704702207047000070B5002366
:1011C00001221049104800F021F80E4C0E4D6078B5
:1011D000B43D21782954401C607020290AD1294649
:1011E000062000F0D5F80020607020212954401C12
:1011F0008028FBDBBDE87040012202490248FFF76E
:10120000C7BF000004000020CC0000202DE9F843F7
:10121000044690F83D001F4616460D4620284CD146
:10122000C5B1BEB194F83C00012846D0012084F835
:101230003C004FF00008C4F84080212084F83D00B5
:10124000FFF7AAFAA6848146E684A068B0F5805F1D
:1012500003D004E00120BDE8F883206928B12E46C0
:101260005FF0000584F83C800EE00026FAE780215C
:10127000204600F0CEFCA0B9AEB116F8010B2168F3
:101280004860E08C401EE084E08C4B464FF000024A
:1012900000970028EBD14FF04001204600F0B9FC48
:1012A00030B10320D7E735F8020BC0F30800E6E7BA
:1012B000202084F83D000020CDE70220CBE77047D6
:1012C000FEE7000070B50646002440F23F112046BC
:1012D00000F006F900F088FA4FF49635304600F039
:1012E00059FA641CAC42F9D3BDE8704001221103E5
:1012F000014800F03FB80000000802401A4810B54D
:10130000016886B041F004010160016801F0040148
:101310000591016841F0020101600068694600F032
:1013200002000590012001900290000300900F48F8
:10133000FFF734F920200E4C009069462046FFF755
:101340002DF9002220212046FFF720FA002141F24A
:101350008830491C8142FCD3012220212046FFF71E
:1013600015FA06B010BD00003038024000080240F7
:1013700000040240FFF70ABA203AD2B2034B02EB54
:10138000420203EB021200F01BB80000061E000828
:101390002DE9F041002500EB40000E462C46C70029
:1013A00007E0F8B22146FFF7E7FF10346D1CA4B246
:1013B000761C3278002A01D0142DF2D3BDE8F081DA
:1013C0002DE9F05FA1F23F11C1F1000A914600261C
:1013D00004461FFA8AF100F083F80127DFF84C80F9
:1013E0004FF4805B00F000FA5FF0000539F816005A
:1013F00007FA05F10842404601D1408800E0008824
:1014000000F0C8F96D1C102DF0D301225946084890
:10141000FFF7B0FF641CE4B21FFA8AF1204600F027
:101420005FF8761C182EDDD3BDE8F09F0000002089
:101430000008024070B5274886B0016841F00401F9
:101440000160016801F004010591016841F00201A9
:101450000160016801F002010591016841F0080195
:101460000160016801F008010591016841F0400147
:1014700001600068184E00F0400005900120C40390
:1014800001900290694600943046FFF787F8A51155
:10149000694630460095FFF781F880200090694644
:1014A0003046FFF77BF8FF20009069460B48FFF7B6
:1014B00075F8012280213046FFF768F9012229469C
:1014C0003046FFF763F9012221463046FFF75EF907
:1014D00006B070BD30380240000C024000180240D7
:1014E00010B50C460146202000F08CF92146BDE8DD
:1014F0001040212000F086B901B5BDF80000014977
:10150000088008BD0000002010B5FFF7F7FEFFF7C8
:1015100091FF0A2000F0D2FB0121002000F072F9B7
:101520004FF48071012000F06DF94FF4E06102206A
:1015300000F068F941F23001032000F063F9002166
:10154000042000F05FF940F20221082000F05AF96F
:101550000021092000F056F900210A2000F052F97C
:1015600000210C2000F04EF900210D2000F04AF976
:1015700000210F2000F046F90021102000F042F970
:101580000021112000F03EF90021122000F03AF96C
:101590000021132000F036F90A2000F08FFB41F201
:1015A000B071102000F02EF940F23711112000F038
:1015B00029F90A2000F082FB40F23911122000F0D4
:1015C00021F90A2000F07AFB4FF4E851132000F0D3
:1015D00019F91321292000F015F90A2000F06EFBFB
:1015E0000021202000F00EF90021212000F00AF94E
:1015F0000621302000F006F940F20111312000F000
:1016000001F90321322000F0FDF84FF483713520F9
:1016100000F0F8F840F60231362000F0F3F840F21E
:101620000231372000F0EEF840F20771382000F068
:10163000E9F80721392000F0E5F84FF4C0613C20BB
:1016400000F0E0F840F20B213D2000F0DBF8002133
:10165000502000F0D7F8EF21512000F0D3F80021FE
:10166000522000F0CFF840F23F11532000F0CAF8AA
:101670004FF42741602000F0C5F80121612000F0FF
:10168000C1F800216A2000F0BDF80021802000F0A0
:10169000B9F80021812000F0B5F80021822000F087
:1016A000B1F80021832000F0ADF80021842000F083
:1016B000A9F80021852000F0A5F81021902000F065
:1016C000A1F80021922000F09DF80321932000F062
:1016D00099F84FF48871952000F094F80021972034
:1016E00000F090F80021982000F08CF841F21801E9
:1016F000032000F087F8BDE8104040F27311072086
:1017000000F080B82DE9F041074642F21076B2FBB6
:10171000F6F015463030C2B20C463846FFF72CFEC4
:10172000B5FBF6F006FB10504FF47A76B0FBF6F0FE
:101730003030C2B204F1190081B23846FFF71CFE06
:10174000B5FBF6F006FB10506426B0FBF6F0303027
:10175000C2B204F1320081B23846FFF70DFEB5FB8C
:10176000F6F006FB10500A26B0FBF6F204F14B002F
:1017700081B238463032FFF7FFFDB5FBF6F006FBCD
:1017800010526434A1B23846BDE8F0413032FFF760
:10179000F3BD00002DE9F041114E044601228021E5
:1017A0003046FEF7F3FF0F4D200A28604FF4004744
:1017B000002239463046FEF7E9FF0122394630461D
:1017C000FEF7E4FF2C60002239463046FEF7DEFFCC
:1017D00039463046BDE8F0410122FEF7D7BF000090
:1017E000000C02401418024010B5222000F046F808
:1017F000BDE8104000224FF480510148FFF7BABD08
:10180000000802402DE9F0470C4600F037F8DFF8F9
:1018100060804FF48056002231464046FFF7AAFD13
:10182000DFF85090012280214846FEF7AFFF124DAD
:10183000200A2860F700002239464846FEF7A6FF36
:10184000012239464846FEF7A1FF2C6000223946A6
:101850004846FEF79BFF012239464846FEF796FFB1
:1018600031464046BDE8F0470122FFF783BD000046
:1018700000080240000C0240141802402DE9F04715
:10188000DFF8688007464FF480550022294640461D
:10189000FFF770FDDFF85890002280214846FEF7E0
:1018A00075FF144C002020600246EE003146484689
:1018B000FEF76CFF012231464846FEF767FF2760BE
:1018C000002231464846FEF761FF01223146484674
:1018D000FEF75CFF012280214846FEF757FF2946AC
:1018E0004046BDE8F0470122FFF744BD0008024032
:1018F000000C024014180240FEE7FEE77047FFF7B5
:1019000003BE7047FEF74EBF30B593B03021684636
:10191000FEF772FD14210CA8FEF76EFD1D48002590
:10192000016841F080510160006800F08050119022
:101930001948016841F4804101600068022400F404
:101940008040119001200390102004900094069490
:101950000820CDE90750A820CDE9090404200B9008
:101960006846FFF7A5F808B172B6FEE70CA90F208C
:1019700081E831004FF4A0500F904FF48050109048
:1019800005210CA8FEF7A8FF002801D072B6FEE7DB
:1019900013B030BD4038024000700040024801687A
:1019A00041F470010160704788ED00E010B5806B74
:1019B0000021C185C184FFF746FA10BD01680C31D2
:1019C00051E8002F22F4907241E80023002BF5D15A
:1019D0000168143151E8002F22F0010241E8002390
:1019E000002BF5D1016B012909D101680C3151E8B7
:1019F000002F22F0100241E80023002BF5D1202116
:101A000080F83E1000210163704708B590F83E1041
:101A1000222901D0022008BD82684FF480539A42E7
:101A200001D1016921B1816A9A421BD04AB10AE011
:101A30000268816A5268C2F308020A80816A891CBE
:101A400008E0026972B10268526802F07F020A700F
:101A5000816A491C8162C18D491E0904090CC18536
:101A600003D019E002685268F1E70168CA6822F001
:101A70002002CA600168CA6822F48072CA600168E4
:101A80004A6922F001024A61202180F83E10016B70
:101A9000012903D0FFF792FB002008BD002101635C
:101AA00001680C3151E8002F22F0100241E80023B8
:101AB000002BF5D101680A68D20602D50A68496888
:101AC0000091818DFFF7BEF9E6E7000070B504468E
:101AD00000680169E26821F4405111430161216904
:101AE000A068E26908436169114308432168CA6834
:101AF00049F20C639A430243CA6020684169A269B3
:101B000021F440711143416131492068884202D07B
:101B10003049884202D1FEF789FF01E0FEF776FFE7
:101B2000E2690023192164253226B2F5004F62686C
:101B300028D0A0FB0101930F9200FEF795FB014610
:101B4000B0FBF5F06FF01802504301EB800006EB9C
:101B50000010B0FBF5F000F0F002B1FBF5F002EB85
:101B60000012B1FBF5F06FF01803584301EB800051
:101B700006EB0010B0FBF5F000F00F0021681044F8
:101B8000886070BDA0FB010192185B41FEF76CFB01
:101B90000146B0FBF5F00201B1FBF5F06FF0180360
:101BA000584301EB800006EBC000B0FBF5F000F0FD
:101BB000F80002EB4002B1FBF5F0584301EB800066
:101BC00006EBC000B0FBF5F000F00700D6E7000020
:101BD000001001400014014081628285C28500210D
:101BE0000164222280F83E2080F83C10016921B176
:101BF0000168CA6842F48072CA6001684A6942F0AA
:101C000001024A610068C16841F02001C160002002
:101C100070472DE9F041984617460E460446069D4A
:101C200027E0681C25D02DB1FEF7B6FDA0EB08001B
:101C3000A8421ED920680C3050E8001F21F4D07152
:101C400040E80012002AF5D12068143050E8001F47
:101C500021F0010140E80012002AF5D1202084F88B
:101C60003D0084F83E00002084F83C000320BDE8DD
:101C7000F0812068006836EA000004D00020B842F5
:101C8000CFD00020F3E70120F9E700000148FFF77B
:101C9000DBB80000CC000020FEE70907090E002891
:101CA00004DB00F1E02080F80014704700F00F0022
:101CB00000F1E02080F8141D7047000001B581B0EC
:101CC0000449019848430090002801D0401EFAE7DB
:101CD0000CBD0000A08601001CB5FEF76BFDFFF7F0
:101CE00013FE35480024016841F08001016001685D
:101CF00001F080010191016841F00101016000687B
:101D00002E4900F0010001902D4801604FF49641EA
:101D1000C0E901140C21C460C0E904418461C461BC
:101D2000FFF7C6F908B172B6FEE7FFF7E8FD2548F0
:101D30000088FFF7C7FA1F20FFF7DEFB22A1022071
:101D4000FFF726FB24A10420FFF722FB1C483222C8
:101D500026A13438FEF71EFB19483438FEF7FBFA8B
:101D6000174982B24FF47A752B4634391448FFF77D
:101D70004DFA012220491248FFF70AFA8DF8004077
:101D80005FEA650400219DF800200846FFF7BAFCD1
:101D90002B46012269460A48FFF738FA9DF80000F1
:101DA000401C8DF800002046FEF7E6FB9DF8000081
:101DB0000A28F8D2E6E7000030380240001001405F
:101DC000CC0000200200002048656C6C6F2C576F1F
:101DD000726C64210000000053544D33324634309D
:101DE000375A4754362E2E2E000000006578616D5C
:101DF00037202E2E2E0A0000040000204FF04070E5
:101E0000E1EE100A70470000000000000000000032
:101E100000000000000000000000000000000000C2
:101E200000000000000000000000000000000000B2
:101E3000000000000000000080018001800180019E
:101E4000800180018001800180018001800180018A
:101E500080010000000080018001000000000000FF
:101E600000000000000000000000CC00CC00CC000E
:101E7000CC00CC00CC0000000000000000000000FE
:101E80000000000000000000000000000000000052
:101E90000000000000000000000000000000000042
:101EA0000000600C600C600C30063006FE1FFE1F48
:101EB000300638071803FE1FFE1F180318038C0195
:101EC0008C018C01000000008000E003F80F9C0EE4
:101ED0008C1C8C188C009800F801E007800E801C88
:101EE0008C188C189C18B80CF00FE0038000800050
:101EF0000000000000000000000000000E181B0C95
:101F0000110C11061106110311039B018E01C0383B
:101F1000C06C60446044304430441844186C0C3841
:101F20000000000000000000E001F0033807180680
:101F300018063003F001F000F8009C310E33061E45
:101F4000061C061C063FFC73F02100000000000088
:101F5000000000000000000000000C000C000C005D
:101F60000C000C000C00000000000000000000004D
:101F70000000000000000000000000000000000061
:101F80000000000000000000000200038001C0000B
:101F9000C0006000600030003000300030003000D1
:101FA00030003000300060006000C000C0008001E0
:101FB000000300020000000020006000C00080015B
:101FC000800100030003000600060006000600066C
:101FD0000006000600060003000380018001C00027
:101FE0006000200000000000000000000000000071
:101FF0000000C000C000D806F807E0013003380731
:1020000000000000000000000000000000000000D0
:1020100000000000000000000000000000000000C0
:10202000000080018001800180018001FC3FFC3FB5
:10203000800180018001800180010000000000001B
:102040000000000000000000000000000000000090
:102050000000000000000000000000000000000080
:10206000000000000000000080018001000100016C
:1020700080000000000000000000000000000000E0
:102080000000000000000000000000000000E00769
:10209000E007000000000000000000000000000059
:1020A0000000000000000000000000000000000030
:1020B0000000000000000000000000000000000020
:1020C0000000000000000000C000C0000000000090
:1020D0000000000000000000000C000C00060006DC
:1020E00000060003000300038003800180018001DB
:1020F000C000C000C00060006000000000000000E0
:102100000000000000000000E003F007380E180C8B
:102110000C180C180C180C180C180C180C180C189F
:102120000C18180C380EF007E00300000000000047
:10213000000000000000000000018001C001F0016B
:102140009801880180018001800180018001800167
:1021500080018001800180018001000000000000FA
:102160000000000000000000E003F80F180C0C183D
:102170000C1800180018000C000600038001C000B5
:10218000600030001800FC1FFC1F00000000000071
:102190000000000000000000E001F807180E0C0C21
:1021A0000C0C000C0006C003C007000C001800183F
:1021B0000C180C18180CF807E003000000000000D1
:1021C0000000000000000000000C000E000F000FD7
:1021D000800DC00C600C600C300C180C0C0CFC3F1B
:1021E000FC3F000C000C000C000C00000000000084
:1021F0000000000000000000F80FF80F18001800A1
:102200000C00EC03FC071C0E001C00180018001842
:102210000C181C0C180EF807E0030000000000006A
:102220000000000000000000C007F00F381C181864
:1022300018000C00CC03EC0F3C0E1C1C0C180C18E6
:102240000C18181C380EF007E00300000000000016
:102250000000000000000000FC1FFC1F000C000636
:102260000006000380038001C001C000E0006000A0
:1022700060007000300030003000000000000000FE
:102280000000000000000000E003F007380E180C0A
:10229000180C180C3806F007F007180C0C180C185E
:1022A0000C180C18380CF80FE003000000000000B8
:1022B0000000000000000000E003F007380E1C0CD6
:1022C0000C180C180C181C1C381EF81BE0190018F0
:1022D000000C000C1C0EF807F001000000000000CC
:1022E00000000000000000000000000000000000EE
:1022F00000008001800100000000000000000000DC
:1023000000000000000080018001000000000000CB
:1023100000000000000000000000000000000000BD
:1023200000008001800100000000000000000000AB
:102330000000000000008001800100010001800019
:10234000000000000000000000000000000000008D
:102350000000000000000010001C800FE003F800E7
:102360001800F800E003800F001C001000000000BF
:10237000000000000000000000000000000000005D
:10238000000000000000F81F000000000000F81F1F
:10239000000000000000000000000000000000003D
:1023A000000000000000000000000000000000002D
:1023B00000000000000008003800F001C007001F06
:1023C0000018001FC007F0013800080000000000DE
:1023D0000000000000000000E003F80F180C0C18CB
:1023E0000C180018000C000600038001C000C0009B
:1023F000C00000000000C000C0000000000000009D
:1024000000000000000000000000E0071818042091
:10241000C229224A114409440944094409221113DA
:10242000E20C024004201818E00700000000000041
:10243000000000000000000080038003C006C0060A
:10244000C006600C600C301830183018F83FF83FA8
:102450001C700C600C6006C006C00000000000008C
:102460000000000000000000FC03FC0F0C0C0C1826
:102470000C180C180C0CFC07FC0F0C180C300C3052
:102480000C300C300C18FC1FFC0700000000000092
:102490000000000000000000C007F01F38381C30AA
:1024A0000C70066006000600060006000600060026
:1024B00006600C701C30F01FE007000000000000F8
:1024C0000000000000000000FE03FE0F060E0618CC
:1024D0000618063006300630063006300630063064
:1024E00006180618060EFE0FFE030000000000008E
:1024F0000000000000000000FC3FFC3F0C000C004E
:102500000C000C000C00FC1FFC1F0C000C000C004D
:102510000C000C000C00FC3FFC3F00000000000021
:102520000000000000000000F83FF83F180018000D
:10253000180018001800F81FF81F180018001800DD
:102540001800180018001800180000000000000013
:102550000000000000000000E00FF83F3C780E6033
:1025600006E007C00300030003FE03FE03C007C02C
:1025700006C00EC03CF0F83FE00F00000000000075
:1025800000000000000000000C300C300C300C305B
:102590000C300C300C30FC3FFC3F0C300C300C305D
:1025A0000C300C300C300C300C30000000000000FF
:1025B0000000000000000000800180018001800117
:1025C0008001800180018001800180018001800103
:1025D0008001800180018001800100000000000076
:1025E00000000000000000000006000600060006D3
:1025F00000060006000600060006000600060006AB
:10260000180618063807F003E0010000000000007B
:10261000000000000000000006300618060C060648
:1026200006038601C60066007600DE008E01060302
:102630000606060C061806300660000000000000C2
:10264000000000000000000018001800180018002A
:1026500018001800180018001800180018001800BA
:10266000180018001800F81FF81F000000000000F4
:1026700000000000000000000EE01EF01EF01EF042
:1026800036D836D836D836D866CC66CC66CCC6C6F0
:10269000C6C6C6C6C6C686C386C300000000000004
:1026A00000000000000000000C301C303C303C30CA
:1026B0006C306C30CC30CC308C310C330C330C366D
:1026C0000C360C3C0C3C0C380C30000000000000B8
:1026D0000000000000000000E007F81F1C380E702A
:1026E000066003C003C003C003C003C003C003C02F
:1026F00006600E701C38F81FE007000000000000A4
:102700000000000000000000FC0FFC1F0C380C3023
:102710000C300C300C300C18FC1FFC070C000C00AB
:102720000C000C000C000C000C000000000000006D
:102730000000000000000000E007F81F1C380E70C9
:10274000066003E003C003C003C003C003C007E08A
:1027500006630E3F1C3CF83FE0F700C0000000009D
:102760000000000000000000FE0FFE1F06380630CB
:10277000063006300638FE1FFE0706030606060C66
:10278000061806180630063006600000000000003B
:102790000000000000000000E003F80F1C0C0C1803
:1027A0000C180C001C00F803E00F001E0038063067
:1027B00006300E301C1CF80FE0070000000000007F
:1027C0000000000000000000FE7FFE7F800180010D
:1027D00080018001800180018001800180018001F1
:1027E0008001800180018001800100000000000064
:1027F00000000000000000000C300C300C300C30E9
:102800000C300C300C300C300C300C300C300C30E8
:102810000C300C301818F81FE00700000000000012
:1028200000000000000000000360063006300630A3
:102830000C180C180C18180C180C380E3006300632
:10284000700760036003C001C001000000000000C9
:1028500000000000000000000360C361C361C361A9
:102860006633663366336633663366336C1B6C1BC4
:102870006C1B2C1A3C1E380E380E000000000000A5
:1028800000000000000000000FE00C70183030184D
:10289000700C600EC00780038003C003E006700C5C
:1028A000301C18180C300E6007E00000000000001B
:1028B000000000000000000003C006600C301C385F
:1028C0003818300C6006E007C003800180018001E9
:1028D0008001800180018001800100000000000073
:1028E0000000000000000000FC7FFC7F0060003062
:1028F0000018000C000600038001C00060003000DA
:1029000018000C000600FE7FFE7F000000000000A3
:102910000000000000000000E003E0036000600031
:1029200060006000600060006000600060006000A7
:102930006000600060006000600060006000600097
:10294000E003E003000000003000300060006000A1
:102950006000C000C000C000C00180018001800193
:102960000003000300030006000600000000000052
:102970000000000000000000E003E003000300038B
:10298000000300030003000300030003000300032F
:10299000000300030003000300030003000300031F
:1029A000E003E003000000000000C001C00160037C
:1029B0006003600330063006180C180C000000009D
:1029C0000000000000000000000000000000000007
:1029D00000000000000000000000000000000000F7
:1029E00000000000000000000000000000000000E7
:1029F0000000000000000000FFFFFFFF00000000DB
:102A000000000000000000000C000C000C000C0096
:102A10000C000C000000000000000000000000009E
:102A200000000000000000000000000000000000A6
:102A30000000000000000000000000000000000096
:102A40000000F003F8071C0C0C0C000FF00FF80C42
:102A50000C0C0C0C1C0FF80FF0180000000000000C
:102A60000000000000000000180018001800180006
:102A70001800D803F80F380C181818181818181858
:102A800018181818380CF80FD803000000000000C0
:102A90000000000000000000000000000000000036
:102AA0000000C003F007300E180C180018001800C2
:102AB0001800180C300EF007C003000000000000E2
:102AC00000000000000000000018001800180018A6
:102AD0000018C01BF01F301C1818181818181818E8
:102AE00018181818301CF01FC01B00000000000050
:102AF00000000000000000000000000000000000D6
:102B00000000C003F00F300C1818F81FF81F180051
:102B100018003818301CF00FC0070000000000003B
:102B20000000000000000000800FC00FC000C000C7
:102B3000C000F007F007C000C000C000C000C00027
:102B4000C000C000C000C000C000000000000000C5
:102B50000000000000000000000000000000000075
:102B60000000E00DF80F180E0C0C0C0C0C0C0C0CEB
:102B70000C0C0C0C180EF80FE00D000C0C0C1C06C5
:102B8000F807F001000000001800180018001800F5
:102B90001800D807F80F381C181818181818181823
:102BA0001818181818181818181800000000000035
:102BB0000000000000000000C000C0000000000095
:102BC0000000C000C000C000C000C000C000C000C5
:102BD000C000C000C000C000C00000000000000035
:102BE0000000000000000000C000C0000000000065
:102BF0000000C000C000C000C000C000C000C00095
:102C0000C000C000C000C000C000C000C000C000C4
:102C1000F8007800000000000C000C000C000C0014
:102C20000C000C0C0C060C038C01CC006C00FC009E
:102C30009C018C030C030C060C0C0000000000002F
:102C40000000000000000000C000C000C000C00084
:102C5000C000C000C000C000C000C000C000C00074
:102C6000C000C000C000C000C000000000000000A4
:102C70000000000000000000000000000000000054
:102C800000007C3CFF7EC7E383C183C183C183C155
:102C900083C183C183C183C183C1000000000000E0
:102CA0000000000000000000000000000000000024
:102CB00000009807F80F381C18181818181818185A
:102CC0001818181818181818181800000000000014
:102CD00000000000000000000000000000000000F4
:102CE0000000C003F00F300C181818181818181826
:102CF00018181818300CF00FC00300000000000076
:102D000000000000000000000000000000000000C3
:102D10000000D803F80F380C1818181818181818CD
:102D200018181818380CF80FD803180018001800D5
:102D30001800180000000000000000000000000063
:102D40000000C01BF01F301C18181818181818188D
:102D500018181818301CF01FC01B00180018001895
:102D60000018001800000000000000000000000033
:102D70000000B007F0037000300030003000300079
:102D80003000300030003000300000000000000053
:102D90000000000000000000000000000000000033
:102DA0000000E003F003380E180C3800F003C007F1
:102DB000000C180C380EF007E003000000000000C3
:102DC000000000000000000000008000C000C00003
:102DD000C000F007F007C000C000C000C000C00085
:102DE000C000C000C000C007800700000000000055
:102DF00000000000000000000000000000000000D3
:102E00000000181818181818181818181818181872
:102E100018181818381CF01FE019000000000000F6
:102E200000000000000000000000000000000000A2
:102E300000000C18180C180C180C30063006300660
:102E4000600360036003C001C001000000000000D7
:102E50000000000000000000000000000000000072
:102E60000000C141C141C36163636363636336367C
:102E7000363636361C1C1C1C1C1C000000000000D2
:102E80000000000000000000000000000000000042
:102E900000001C38381C300C6006600360036003BF
:102EA00060036006300C381C1C3800000000000075
:102EB0000000000000000000000000000000000012
:102EC00000001830301830187018600C600CE00CDE
:102ED000C006C00680038003800380018001C0011A
:102EE000F000700000000000000000000000000082
:102EF0000000FC1FFC1F000C000600038001C00046
:102F0000600030001800FC1FFC1F000000000000E3
:102F1000000000000000000000038001C000C000AD
:102F2000C000C000C000C000600060003000600051
:102F30004000C000C000C000C000C000C000800150
:102F4000000300000000000080018001800180017A
:102F50008001800180018001800180018001800169
:102F60008001800180018001800180018001800159
:102F700080018001000000006000C000C0018001ED
:102F8000800180018001800100030003000600032E
:102F90000001800180018001800180018001C0006A
:102FA00060000000000000000000000000000000C1
:102FB000000000000000F010F81F080F00000000E3
:102FC0000000000000000000000000000000000001
:102FD00000000000000000000000000000000102EE
:102FE00003040607080900000000010203040000B2
:102FF000103000080000002018000000C401000884
:10300000283000081800002058070000E0010008E0
:103010000000FFFF000000000100000010000000A1
:08302000000000000024F40090
:040000050800018965
:00000001FF
