:020000040800F2
:10000000F00400209D0100087F0D0008B90C0008D5
:100010007D0D0008C7020008390E0008000000002E
:10002000000000000000000000000000830D000838
:100030006D03000800000000810D0008850D000818
:10004000B7010008B7010008B7010008B7010008B0
:10005000B7010008B7010008B7010008B7010008A0
:10006000B7010008B7010008B7010008B701000890
:10007000B7010008B7010008B7010008B701000880
:10008000B7010008B7010008B7010008B701000870
:10009000B7010008B7010008B7010008B701000860
:1000A000B7010008B7010008B7010008B701000850
:1000B000B7010008B7010008B7010008B701000840
:1000C000B7010008B7010008B7010008B701000830
:1000D000B7010008B7010008B7010008B701000820
:1000E000B7010008B7010008B7010008B701000810
:1000F000B7010008B7010008B7010008B701000800
:10010000B7010008B7010008B7010008B7010008EF
:10011000B7010008B7010008B7010008B7010008DF
:10012000B7010008B7010008B7010008B7010008CF
:10013000B7010008B7010008B7010008B7010008BF
:10014000B7010008B7010008B7010008B7010008AF
:10015000B7010008B7010008B7010008B70100089F
:10016000B7010008B7010008B7010008B70100088F
:10017000B7010008B7010008B7010008000000003F
:10018000B7010008B7010008DFF80CD000F07AF8DA
:1001900000480047790E0008F00400200648804718
:1001A00006480047FEE7FEE7FEE7FEE7FEE7FEE75C
:1001B000FEE7FEE7FEE7FEE71D0E000889010008E6
:1001C0002DE9F05F0546002092469B46884606468C
:1001D000814640241BE0284641464746224600F01F
:1001E00041F853465A46C01A914110D31146184659
:1001F000224600F028F82D1A67EB01084F462246E8
:100200000120002100F01FF817EB00094E41201ECD
:10021000A4F10104DFDC484631462A464346BDE8E6
:10022000F09FD2B201E000F8012B491EFBD27047CB
:100230000022F6E710B513460A4604461946FFF7B2
:10024000F0FF204610BD202A04DB203A00FA02F11C
:10025000002070479140C2F1200320FA03F31943B4
:1002600090407047202A04DB203A21FA02F0002156
:10027000704721FA02F3D040C2F1200291400843B6
:1002800019467047064C074D06E0E06840F0010350
:1002900094E8070098471034AC42F6D3FFF778FF94
:1002A0009C0F0008BC0F000810B507E003680C683D
:1002B000A34201D0002010BD001D091D521E92B2A4
:1002C000F4D2012010BDFEE701681823CAB2103A2B
:1002D000B2FBF3F2054B6FF30901032A9B5CC36584
:1002E00000D9091D8165084670470000840F000889
:1002F00010B5014600208B698A6A4FF0C07453B173
:10030000B3F5005F15D072B1012A0CD0022A0AD0D1
:10031000032A09D104E01AB1012A06D0022A03D126
:10032000C96AC90100D5012010BDC96AA142FAD02D
:1003300010BD002AF7D0012AF2D0022AF3D0032AF6
:10034000F3D010BD30B50468256825F480252560FC
:10035000046863608368402B036803D09960006879
:10036000C26030BD9A600068C16030BD704772B62F
:10037000FEE700002DE9F041044600F07DF9064655
:100380005CB1002584F83450022084F835002068E0
:10039000016821F0010101600DE00120BDE8F0815C
:1003A00000F06AF9801B052805D92020606503202C
:1003B00084F83500F2E720680068C007F0D12268B1
:1003C000116820480140D4E901031843D4E90336F9
:1003D0003343184363691843A3691843E369184317
:1003E000236A18430843616A042903D1D4E90B1333
:1003F00019430843106020684069666A20F00701CD
:1004000030460E43012704280CD1A06A0643E06A57
:1004100040B12046FFF76CFF20B14020606584F8B2
:100420003570BAE7206846612046FFF74DFF94F823
:100430005C203F2191408160656584F83570002023
:10044000ACE700003F8010F070B5044690F834002F
:10045000002501280CD0012084F8340094F8356080
:100460000020012E06D084F834000225284670BDF5
:10047000022070BD022684F8356060652046FFF7D3
:1004800061FF2068016841F001010160EEE70000B2
:1004900070B5044600F0F0F80546601C02D0044830
:1004A0000078044400F0E8F8401BA042FAD370BD85
:1004B000000000202DE9F84F00224FF0010803252D
:1004C0004FF00F0E0B6808FA02F42340A3426ED1DE
:1004D0004E68012E05D0022E03D0112E01D0122E0F
:1004E00012D186684FEA420C05FA0CF7BE43CF687A
:1004F00007FA0CF7374387604668A6430C79C4F3C4
:100500000014944034434460C668570005FA07FC61
:100510008C6826EA0C06BC403443C4604C68022C4C
:1005200001D0122C13D1D40800EB8404A346D4F8D4
:10053000209054074FEAD46A0EFA0AF629EA06090F
:100540000E6906FA0AF646EA0906CBF82060066844
:100550000C7926EA0C0604F00304BC403443046022
:100560004C68E40065D5364C266846F48046266023
:10057000246822F0030604F480440094314C34448F
:10058000A446D4F808489607370F0EFA07F6B44386
:100590002D4EB04201D1002624E02C4EB04201D1B4
:1005A00001261FE02A4EB04202D102261AE040E0A6
:1005B000284EB04201D1032614E0274EB04201D1AB
:1005C00004260FE0254EB04201D105260AE0244E54
:1005D000B04201D1062605E0224EB04201D10726E5
:1005E00000E00826BE402643CCF808681E4E34685A
:1005F0004F689C43FF0300D51C4334601A4C241DF4
:1006000026684F689E43BF0300D51E432660164EE2
:10061000083634684F689C43FF0200D51C433460A1
:10062000114E0C3634684F689C43BF0200D51C4302
:100630003460521C102AFFF445AFBDE8F88F00006B
:1006400044380240003001400000024000040240F3
:1006500000080240000C024000100240001402405A
:1006600000180240001C0240003C01400AB18161B8
:1006700070470904FBE700000148806870470000EC
:1006800000000020024881680278114481607047B0
:10069000000000200B4810B5016841F400710160B2
:1006A000016841F480610160016841F4807101607A
:1006B000032000F061F8002000F006F800F024F8B4
:1006C000002010BD003C024070B50D4D04464FF4B3
:1006D0007A712878B1FBF0F00A490968B1FBF0F0B3
:1006E00000F0D6FA48B9102C07D200222146501E3D
:1006F00000F022F800206C6070BD012070BD000089
:10070000000000200C0000200A4808B5016841F4F0
:1007100080410160006800F4804000900548001F9F
:10072000016841F080510160006800F08050009045
:1007300008BD000044380240F0B40E4B1B680C4664
:10074000C3F30223C3F10705042D00D90425191DA5
:10075000072901D2002300E0DB1E012606FA05F17D
:10076000491E214099409E40761E16403143F0BC00
:1007700000F063BB0CED00E0064900F007020868DA
:100780004FF6FF03184040EA0220034A1043086076
:10079000704700000CED00E00000FA052DE9F0477D
:1007A0000E46050065D0DFF81481D8F80000F7B2D6
:1007B00000F00F00B04207D288F80070D8F80000AF
:1007C00000F00F00B04254D128683D4C810712D58B
:1007D000400703D5206840F4E050206028780007E7
:1007E00003D5206840F4604020602068A96820F0AC
:1007F000F000084320602878C0072DD03049686891
:100800000839012812D0022813D0032811D0096812
:10081000890700292DDA216821F0030101432160B5
:10082000FFF72AFF814641F2883A0EE00968890302
:10083000EFE709688901ECE7FFF71EFFA0EB09016C
:10084000514502D90320BDE8F0872068696800F0AF
:100850000C00B0EB810FEFD1D8F80010404601F04A
:100860000F01B14207D90770006800F00F00B042D5
:1008700001D00120E7E72878400705D52068E9681E
:1008800020F4E050084320602878000706D520684F
:10089000296920F4604040EAC100206000F018F8A7
:1008A0002168084AC1F30311515CC8400649086039
:1008B00006480068FFF708FF0020C4E7003C02403C
:1008C000083802408C0F00080C00002004000020B3
:1008D000154810B5006810F00C02144813D01449E4
:1008E000042A0FD0082A0ED10F4C241F2268236837
:1008F00002F03F025B0207D52068C0F38810A0FB1E
:10090000010106E0084610BD2168C1F38811A1FB72
:1009100000010023FFF754FC2168C1F30141491C89
:100920004900B0FBF1F010BD083802400024F4008B
:1009300040787D012DE9F84F04006ED02078DFF873
:100940003C93C007A9F104054AD009F104000168ED
:10095000C1F38101012908D00068C0F38100022899
:100960000AD1D9F80000400206D52868800337D59F
:1009700060680028E1D033E06068B0F5803F10D0B7
:10098000B0F5A02F286810D020F4803028602868A7
:1009900020F4802028606068A8B1FFF76DFE06464D
:1009A0000DE0286840F48030F4E740F480202860AF
:1009B000F7E700BFFFF760FE801B642873D8286844
:1009C0008003F7D50CE0FFF757FE064605E000BFB1
:1009D000FFF752FE801B6428F0D828688003F7D404
:1009E0002078DFF89C8280074FF0000A3ED5A348AC
:1009F000001D016811F00C0F08D00068C0F38100E1
:100A000002280BD1D9F80000400207D428688007DB
:100A100016D5E068012800D112E02BE1E068B8B1FA
:100A20000120C8F80000FFF727FE064605E000BFDA
:100A3000FFF722FE801B0228C0D828688007F7D560
:100A40002868216920F0F80040EAC10028600DE024
:100A5000C8F800A0FFF710FE064604E0FFF70CFE02
:100A6000801B02281FD828688007F7D42078000749
:100A700022D5824E83486169703671B101210160CF
:100A8000FFF7FAFD074604E0FFF7F6FDC01B02285A
:100A900009D830688007F7D50EE0C0F800A0FFF74E
:100AA000EBFD074605E082E0FFF7E6FDC01B0228EC
:100AB0007DD830688007F7D42078400768D5DFF804
:100AC000BCB100270BF13C0BDBF80000C0000BD4DD
:100AD000DBF8001041F08051CBF80010DBF800008B
:100AE000012700F080500090674E3068C00510D498
:100AF000306840F480703060FFF7BEFD009005E084
:100B0000FFF7BAFD0099401A022850D83068C00596
:100B1000F6D55A4EA0686C3601280FD005283068EB
:100B200010D020F001003060306820F00400306008
:100B3000A068B8B1FFF7A0FD00900FE0306840F06A
:100B40000100F4E740F004003060F7E7FFF794FDA0
:100B50000099411A41F28830814266D83068800796
:100B6000F4D50EE0FFF788FD009007E0FFF784FD65
:100B70000099411A41F28830814256D83068800786
:100B8000F4D42FB1DBF8001021F08051CBF8001025
:100B9000A069C8B33949091D0968C1F38101022957
:100BA0004AD00228504607D0C8F8600000E03CE078
:100BB000FFF762FD04463BE04746C8F86000FFF7D8
:100BC0005BFD064605E000BFFFF756FD801B0228CF
:100BD0002BD828688001F7D4D4E907010843A16A1B
:100BE0002A4A490802EB0141626A41EA821108433C
:100BF00094F82C1040EA0161C9F800100120386611
:100C0000FFF73AFD044606E036E000BFFFF734FD8B
:100C1000001B022809D828688001F7D52CE000BF06
:100C2000FFF72AFD001B022802D90320BDE8F88F38
:100C300028688001F4D41FE00128F7D0D9F800001B
:100C4000E26900F48001914214D1226A00F03F0170
:100C500091420FD147F6C071626A0140914209D1B9
:100C6000A26A00F44031914204D1E16A00F0706060
:100C7000884201D00120D9E70020D7E7043802409C
:100C800000004742800E4742007000400000FFFF16
:100C900010B5401EB0F1807F01D3012010BD4FF090
:100CA000E02460610F21601700F0C7F80020A06108
:100CB00007202061002010BDFEE70000154808B5A0
:100CC0000268002142F4800202600068124A00F4C7
:100CD000800000901148C0E90021802282609200CB
:100CE000C26052000261920042619200C0E9062196
:100CF000D2000262042242620322C0E90A21016397
:100D0000FFF738FB002803D0BDE80840FFF72FBBF2
:100D100008BD0000303802401064024090000020FE
:100D200030B587B014216846FFF782FA11480024D5
:100D3000016841F020010160016801F02001059186
:100D4000016841F08001016000680B4D00F08000F7
:100D50000590012207212846FFF788FC0720009014
:100D60000120CDE90104694628460394FFF7A2FB60
:100D700007B030BD3038024000140240FEE7FEE705
:100D800070477047FFF77EBC30B593B0302168469E
:100D9000FFF74EFA14210CA8FFF74AFA1D48002568
:100DA000016841F080510160006800F080501190AE
:100DB0001948016841F4804101600068022400F490
:100DC000804011900120039010200490009406941C
:100DD0000820CDE90750A820CDE9090404200B9094
:100DE0006846FFF7A7FD08B172B6FEE70CA90F2011
:100DF00081E831004FF4A0500F904FF480501090D4
:100E000005210CA8FFF7CAFC002801D072B6FEE746
:100E100013B030BD40380240007000400548016802
:100E200041F47001016003494FF0006080390860AF
:100E30007047000088ED00E0FEE70907090E002872
:100E400004DB00F1E02080F80014704700F00F0090
:100E500000F1E02080F8141D704702E008C8121F5E
:100E600008C1002AFAD170477047002001E001C193
:100E7000121F002AFBD17047FFF70CFCFFF784FF1D
:100E8000FFF74EFFFFF71AFF1A4C002204212046FD
:100E9000FFF7ECFB4FF47A70FFF7FAFA2023164ABB
:100EA00016491748FFF7D0FA28B10122042120463D
:100EB000FFF7DCFBFEE720220F491048FFF7F4F9AB
:100EC00001280FD0012211462046FFF7CFFB002258
:100ED00002212046FFF7CAFB012204212046FFF72A
:100EE000C5FBFEE7002201212046FFF7BFFB0122E0
:100EF000EEE700000014024010000020040F00087C
:100F00009000002004030201080706050C0B0A09E3
:100F1000100F0E0D14131211181716151C1B1A1989
:100F2000201F1E1D24232221282726252C2B2A2979
:100F3000302F2E2D34333231383736353C3B3A3969
:100F4000403F3E3D44434241484746454C4B4A4959
:100F5000504F4E4D54535251585756555C5B5A5949
:100F6000605F5E5D64636261686766656C6B6A6939
:100F7000706F6E6D74737271787776757C7B7A7929
:100F8000807F7E7D0006101600061016000000000F
:100F9000000000000102030406070809BC0F000856
:100FA00000000020100000005A0E0008CC0F0008BE
:100FB00010000020E00400006A0E0008010000009C
:0C0FC00010000000000000000024F400FD
:040000050800018965
:00000001FF
