:020000040800F2
:10000000800500209D0100089B1B00085515000875
:10001000991B00086D040008651D00080000000021
:10002000000000000000000000000000AD1C0008FF
:1000300021050008000000009D1B0008AF1C0008FF
:10004000B7010008B7010008B7010008B7010008B0
:10005000B7010008B7010008B7010008B7010008A0
:10006000B7010008B7010008B7010008B701000890
:10007000B7010008B7010008B7010008B701000880
:10008000B7010008B701000839030008B7010008EC
:10009000B7010008B7010008B7010008B701000860
:1000A000B7010008B7010008B7010008B701000850
:1000B000B7010008B7010008B7010008B701000840
:1000C000B7010008B7010008B7010008B701000830
:1000D000B7010008B7010008B7010008B701000820
:1000E000B7010008B7010008B7010008B701000810
:1000F000B7010008B7010008B7010008B701000800
:10010000B7010008B7010008B7010008B7010008EF
:10011000B7010008B7010008B7010008B7010008DF
:1001200071040008B7010008B7010008B701000812
:10013000B7010008B7010008B7010008B7010008BF
:10014000B7010008B7010008B7010008B7010008AF
:10015000B7010008B7010008B7010008B70100089F
:10016000B7010008B7010008B7010008B70100088F
:10017000B7010008B7010008B7010008000000003F
:10018000B7010008B7010008DFF80CD000F07AF8DA
:1001900000480047C11D0008800500200648804730
:1001A00006480047FEE7FEE7FEE7FEE7FEE7FEE75C
:1001B000FEE7FEE7FEE7FEE7491D000889010008AB
:1001C0002DE9F05F0546002092469B46884606468C
:1001D000814640241BE0284641464746224600F01F
:1001E00041F853465A46C01A914110D31146184659
:1001F000224600F028F82D1A67EB01084F462246E8
:100200000120002100F01FF817EB00094E41201ECD
:10021000A4F10104DFDC484631462A464346BDE8E6
:10022000F09FD2B201E000F8012B491EFBD27047CB
:100230000022F6E710B513460A4604461946FFF7B2
:10024000F0FF204610BD202A04DB203A00FA02F11C
:10025000002070479140C2F1200320FA03F31943B4
:1002600090407047202A04DB203A21FA02F0002156
:10027000704721FA02F3D040C2F1200291400843B6
:1002800019467047064C074D06E0E06840F0010350
:1002900094E8070098471034AC42F6D3FFF778FF94
:1002A0007C3000089C30000810B50146806B026C61
:1002B00012F0500F05D0026CD20626D500F0DCF902
:1002C00010BD016C41F40071016401688A6812F08C
:1002D000405F17D1027EAAB9CA6A12F4700F02D029
:1002E0008A6852050ED44A6822F020024A60016CE6
:1002F00021F480710164016CC90403D4016C41F0E4
:100300000101016400F0B6F910BD806BC26CBDE85C
:1003100010400846104710B5806B40210164416CC5
:1003200041F00401416400F0A7F910BD10B5806BE5
:1003300000F0A1F910BD0000014800F09EB90000D6
:100340001C000020464910B54A6822F440324A6039
:100350004A6843681A434A6001684A6822F4807216
:100360004A6001684A68036942EA03224A600168F8
:100370004A6822F040724A6001684A6883681A43FA
:100380004A6001688A6822F400628A6001688A68AB
:10039000C3681A438A60816A6FF07062D142016853
:1003A0008A6822F070628A6001688A680CD0836A69
:1003B0001A438A6001688A6822F040528A600168A4
:1003C0008A68C36A1A4301E022F040528A600168D9
:1003D0008A6822F002028A6001688A68037E42EA23
:1003E00043028A6090F82010002901684A680FD003
:1003F00042F400624A6001684A6822F460424A603E
:1004000001684A68174C436A04EB43331A4301E01E
:1004100022F400624A600168CA6A22F47002CA6269
:100420000168CA6A838B104C04EB03531A43CA62F7
:1004300001688A6822F400728A6001688A6890F80C
:10044000303042EA43228A6001688A6822F480627E
:100450008A6001688A68406942EA8020886010BD2D
:100460000023014000E0FFFF0000F0FFFEE7000076
:10047000014800F0B9BA00006400002001681823A8
:10048000CAB2103AB2FBF3F2054B6FF30901032A2B
:100490009B5CC36500D9091D816508467047000053
:1004A0006430000810B5014600208B698A6A4FF05D
:1004B000C07453B1B3F5005F15D072B1012A0CD0EE
:1004C000022A0AD0032A09D104E01AB1012A06D06F
:1004D000022A03D1C96AC90100D5012010BDC96A29
:1004E000A142FAD010BD002AF7D0012AF2D0022A88
:1004F000F3D0032AF3D010BD30B50468256825F485
:1005000080252560046863608368402B036803D0FE
:1005100099600068C26030BD9A600068C16030BDFB
:10052000704772B6FEE7704778B50024009490F8E3
:100530003C20012A19D0012280F83C200A680723B8
:100540000568092A13D9EE680A3A02EB4202934081
:100550009E43EE600B788A680A3B03EB43039A40A4
:100560000368DD682A43DA6010E0022078BD2E6956
:1005700002EB420293409E432E610B788A6803EBA4
:1005800043039A4003681D692A431A614A681F237E
:10059000072A13D205686E6B521E02EB820293404B
:1005A0009E436E630B790A885B1E92B203EB830352
:1005B0009A4003685D6B2A435A6327E005680D2A59
:1005C00012D22E6BD21F02EB820293409E432E6307
:1005D0000B790A88DB1F92B203EB83039A4003680E
:1005E0001D6B2A431A6311E0EE6A0D3A02EB820298
:1005F00093409E43EE620B790A880D3B92B203EB67
:1006000083039A400368DD6A2A43DA62164B056861
:10061000144A9D4206D10D68122D03D1556845F448
:100620008005556005689D4218D10B68102B01D0DC
:10063000112B13D1536843F4000353600968102948
:100640000CD10A490A4A0968B1FBF2F101EB8101B8
:10065000490000E0491E00910029FBD180F83C4090
:10066000002078BD00230140002001401800002038
:1006700040420F0070477047704770B504460068ED
:1006800001684268C1F34001C2F3401251B34AB35A
:10069000216CC90603D4216C41F400712164816886
:1006A00011F0405F17D1217EA9B9C16A11F4700F12
:1006B00002D0816849050ED4416821F020014160D3
:1006C000206C20F480702064206CC00403D4206C63
:1006D00040F0010020642046FFF7CCFF21686FF056
:1006E00012000860206801684268C1F38001C2F30B
:1006F000C01289B382B3216CC90603D4216C41F4C2
:1007000000512164816811F4401F1ED1816B11F4E6
:10071000401F02D08168490517D44168490514D4A7
:10072000816811F0405F10D1217E71B9416821F0DC
:1007300080014160206C20F480502064206CC00552
:1007400003D4206C40F0010020642046FFF7EBFE4C
:1007500021686FF00C00086020680168426811F0A1
:10076000010FC2F380120ED06AB10068C0070AD030
:10077000206C40F480302064204600F046F8216868
:100780006FF001000860206801684268C1F3401101
:10079000C2F3806200290DD0002A0BD0616C41F0B9
:1007A000020161646FF0200505602046FFF764FFD9
:1007B0002068056070BD70B504004FF0000503D0DF
:1007C000206C002610B107E0012070BD204600F02B
:1007D0001DF8666484F83C60206CC00610D4206C60
:1007E00020F4885040F0020020642046FFF7AAFD64
:1007F0006664206C20F0020040F00100206400E0FC
:10080000012584F83C60284670BD704770B586B0FD
:10081000064614216846FFF70BFD224930688842DE
:100820003DD121480025016841F4807101600068D4
:1008300000F4807005901C481438016841F00401F0
:1008400001600068694600F00400059010200090E7
:100850000320CDE90105154800F06CFA154C144849
:10086000C4E900050015A560C4E9035040006061BB
:100870008000A0614011E0614002C4E90805204603
:1008800000F082F908B1FFF74CFEB4630022114674
:100890001220A66300F09EFB122000F08DFB06B034
:1008A00070BD0000002001404438024000080240B2
:1008B0001064024064000020F8B50E460021044692
:1008C000009190F83C00012807D0012084F83C00FA
:1008D00020688368DB0702D011E00220F8BD83683E
:1008E00043F0010383603748374B0068B0FBF3F0F7
:1008F00000EB400000E0401E00900028FBD1206883
:100900008368DB075CD0236C40F20165AB4343F4A2
:10091000807323644068400505D5206C20F40050A6
:1009200040F480502064206CC00404D5606C20F03A
:100930000600606400E0616484F83C10A16B244808
:10094000224DC863A16B23480864A16B2248C86488
:1009500021686FF0220008602068416841F08061E2
:1009600041602068816841F480718160216813468C
:1009700032464C31A06B00F094F968681749C00604
:10098000206806D088421BD1816811F0405F13D0E7
:1009900016E08842F8D0124A904203D1D1F80423DD
:1009A000D206F1D00F4A90420AD1D1F8041301F0D7
:1009B0001F011029E8D303E0816841F08041816084
:1009C0000020F8BD1800002040420F000023014025
:1009D000A90200082D0300081703000800200140A9
:1009E00000210140002201402DE9F84304464FF068
:1009F0000009CDF8009063484FF41651A56D0068CA
:100A0000B0FBF1F72E6894F85C10082000FA01F1B1
:100A100031420FD021680A6852070BD50A6822F0CC
:100A200004020A6094F85C108840A860606D40F091
:100A30000100606594F85C104FF0010808FA01F0BD
:100A4000304208D021684969090604D5A860606D64
:100A500040F00200606594F85C1004208840304249
:100A600008D021680968890704D5A860606D40F046
:100A70000400606594F85C1010208840304218D063
:100A800021680968090714D5A8602068016849032E
:100A900004D50068000308D5A16C07E00168C9050A
:100AA00003D4016821F008010160216C09B12046DE
:100AB000884794F85C1020208840304231D021686B
:100AC0000968C9062DD5A86094F835000528206866
:100AD000016806D0490347D5006800031DD4616C46
:100AE0001CE021F0160101602068416921F08001BD
:100AF0004161206C08B9A06C20B12068016821F028
:100B00000801016094F85C103F208840A86084F8D8
:100B1000349084F83580216D1FE0E16B09B12046E7
:100B20008847606D00282BD0606DC00714D0052069
:100B300084F835002068016821F001010160009807
:100B4000401C0090B84203D820680068C007F6D166
:100B500084F8349084F83580E16C002910D001B01D
:100B60002046BDE8F04308470168C905D5D40168AF
:100B700021F01001016084F8349084F83580CCE7CE
:100B8000BDE8F883180000202DE9F041044600F08C
:100B9000B3F906465CB1002584F83450022084F88D
:100BA00035002068016821F0010101600DE001209D
:100BB000BDE8F08100F0A0F9801B052805D92020B0
:100BC0006065032084F83500F2E720680068C007FC
:100BD000F0D12268116820480140D4E9010318438C
:100BE000D4E903363343184363691843A3691843B0
:100BF000E3691843236A18430843616A042903D14F
:100C0000D4E90B1319430843106020684069666AF1
:100C100020F0070130460E43012704280CD1A06ABA
:100C20000643E06A40B12046FFF73CFC20B140207B
:100C3000606584F83570BAE7206846612046FFF7A2
:100C40001DFC94F85C203F2191408160656584F82B
:100C500035700020ACE700003F8010F070B504460E
:100C600090F83400002501280CD0012084F83400CD
:100C700094F835600020012E06D084F83400022557
:100C8000284670BD022070BD022684F8356060657C
:100C90002046FFF731FC2068016841F00101016046
:100CA000EEE72DE9F0410446866D90F8340000250A
:100CB00001280DD0012084F8340094F8357000200C
:100CC000012F07D084F8340002252846BDE8F081C2
:100CD0000220FBE7022784F8357060652046FFF7A5
:100CE0000BFC94F85C103F208840B06020680168DD
:100CF00041F016010160206C20B12068016841F0CC
:100D0000080101602068016841F001010160DCE731
:100D100070B5044600F0F0F80546601C02D00448A7
:100D20000078044400F0E8F8401BA042FAD370BDFC
:100D30000C0000202DE9F84F00224FF00108032598
:100D40004FF00F0E0B6808FA02F42340A3426ED155
:100D50004E68012E05D0022E03D0112E01D0122E86
:100D600012D186684FEA420C05FA0CF7BE43CF68F1
:100D700007FA0CF7374387604668A6430C79C4F33B
:100D80000014944034434460C668570005FA07FCD9
:100D90008C6826EA0C06BC403443C4604C68022CC4
:100DA00001D0122C13D1D40800EB8404A346D4F84C
:100DB000209054074FEAD46A0EFA0AF629EA060987
:100DC0000E6906FA0AF646EA0906CBF820600668BC
:100DD0000C7926EA0C0604F00304BC40344304609A
:100DE0004C68E40065D5364C266846F4804626609B
:100DF000246822F0030604F480440094314C344407
:100E0000A446D4F808489607370F0EFA07F6B443FD
:100E10002D4EB04201D1002624E02C4EB04201D12B
:100E200001261FE02A4EB04202D102261AE040E01D
:100E3000284EB04201D1032614E0274EB04201D122
:100E400004260FE0254EB04201D105260AE0244ECB
:100E5000B04201D1062605E0224EB04201D107265C
:100E600000E00826BE402643CCF808681E4E3468D1
:100E70004F689C43FF0300D51C4334601A4C241D6B
:100E800026684F689E43BF0300D51E432660164E5A
:100E9000083634684F689C43FF0200D51C43346019
:100EA000114E0C3634684F689C43BF0200D51C437A
:100EB0003460521C102AFFF445AFBDE8F88F0000E3
:100EC000443802400030014000000240000402406B
:100ED00000080240000C02400010024000140240D2
:100EE00000180240001C0240003C01400AB1816130
:100EF00070470904FBE70000014880687047000064
:100F00000C0000200248816802781144816070471B
:100F10000C0000200B4810B5016841F4007101601D
:100F2000016841F480610160016841F480710160F1
:100F3000032000F06FF8002000F006F800F024F81D
:100F4000002010BD003C024070B50D4D04464FF42A
:100F50007A712878B1FBF0F00A490968B1FBF0F02A
:100F600000F0E4FA48B9102C07D200222146501EA6
:100F700000F030F800206C6070BD012070BD0000F2
:100F80000C000020180000200A4808B5016841F450
:100F900080410160006800F4804000900548001F17
:100FA000016841F080510160006800F080500090BD
:100FB00008BD000044380240002809DB00F01F0291
:100FC000012191404009800000F1E020C0F80011AB
:100FD00070470000F0B40E4B1B680C46C3F30223AD
:100FE000C3F10705042D00D90425191D072901D2D5
:100FF000002300E0DB1E012606FA05F1491E214010
:1010000099409E40761E16403143F0BC00F0ABBEC6
:101010000CED00E0064900F0070208684FF6FF03F8
:10102000184040EA0220034A10430860704700005D
:101030000CED00E00000FA052DE9F0470E46050032
:1010400065D0DFF81481D8F80000F7B200F00F0087
:10105000B04207D288F80070D8F8000000F00F0006
:10106000B04254D128683D4C810712D5400703D5C2
:10107000206840F4E05020602878000703D52068FD
:1010800040F4604020602068A96820F0F000084328
:1010900020602878C0072DD03049686808390128B9
:1010A00012D0022813D0032811D00968890700291B
:1010B0002DDA216821F0030101432160FFF71CFFB5
:1010C000814641F2883A0EE009688903EFE7096832
:1010D0008901ECE7FFF710FFA0EB0901514502D9A8
:1010E0000320BDE8F0872068696800F00C00B0EBD1
:1010F000810FEFD1D8F80010404601F00F01B14246
:1011000007D90770006800F00F00B04201D001203D
:10111000E7E72878400705D52068E96820F4E05023
:10112000084320602878000706D52068296920F444
:10113000604040EAC100206000F018F82168084AC9
:10114000C1F30311515CC8400649086006480068B5
:10115000FFF7FAFE0020C4E7003C024008380240D6
:101160006C3000081800002010000020154810B551
:10117000006810F00C02144813D01449042A0FD050
:10118000082A0ED10F4C241F2268236802F03F0268
:101190005B0207D52068C0F38810A0FB010106E0C0
:1011A000084610BD2168C1F38811A1FB000100238E
:1011B000FFF706F82168C1F30141491C4900B0FB63
:1011C000F1F010BD083802400024F40040787D01A1
:1011D0002DE9F84F04006ED02078DFF83C93C0076B
:1011E000A9F104054AD009F104000168C1F38101A5
:1011F000012908D00068C0F3810002280AD1D9F87B
:101200000000400206D52868800337D560680028B2
:10121000E1D033E06068B0F5803F10D0B0F5A02F8A
:10122000286810D020F480302860286820F48020BE
:1012300028606068A8B1FFF75FFE06460DE02868E9
:1012400040F48030F4E740F480202860F7E700BFE6
:10125000FFF752FE801B642873D828688003F7D5F7
:101260000CE0FFF749FE064605E000BFFFF744FE2D
:10127000801B6428F0D828688003F7D42078DFF832
:101280009C8280074FF0000A3ED5A348001D0168EC
:1012900011F00C0F08D00068C0F3810002280BD1B8
:1012A000D9F80000400207D42868800716D5E06806
:1012B000012800D112E02BE1E068B8B10120C8F8A4
:1012C0000000FFF719FE064605E000BFFFF714FE19
:1012D000801B0228C0D828688007F7D528682169B4
:1012E00020F0F80040EAC10028600DE0C8F800A036
:1012F000FFF702FE064604E0FFF7FEFD801B022812
:101300001FD828688007F7D42078000722D5824E9E
:1013100083486169703671B101210160FFF7ECFD0E
:10132000074604E0FFF7E8FDC01B022809D8306833
:101330008007F7D50EE0C0F800A0FFF7DDFD0746F7
:1013400005E082E0FFF7D8FDC01B02287DD8306899
:101350008007F7D42078400768D5DFF8BCB10027B4
:101360000BF13C0BDBF80000C0000BD4DBF80010E5
:1013700041F08051CBF80010DBF80000012700F0AD
:1013800080500090674E3068C00510D4306840F43B
:1013900080703060FFF7B0FD009005E0FFF7ACFD16
:1013A0000099401A022850D83068C005F6D55A4E28
:1013B000A0686C3601280FD00528306810D020F0C6
:1013C00001003060306820F004003060A068B8B1DF
:1013D000FFF792FD00900FE0306840F00100F4E765
:1013E00040F004003060F7E7FFF786FD0099411AEE
:1013F00041F28830814266D830688007F4D50EE02B
:10140000FFF77AFD009007E0FFF776FD0099411A9B
:1014100041F28830814256D830688007F4D42FB129
:10142000DBF8001021F08051CBF80010A069C8B3A0
:101430003949091D0968C1F3810102294AD00228EE
:10144000504607D0C8F8600000E03CE0FFF754FDCC
:1014500004463BE04746C8F86000FFF74DFD0646EE
:1014600005E000BFFFF748FD801B02282BD8286845
:101470008001F7D4D4E907010843A16A2A4A490840
:1014800002EB0141626A41EA8211084394F82C1090
:1014900040EA0161C9F8001001203866FFF72CFD11
:1014A000044606E036E000BFFFF726FD001B0228D9
:1014B00009D828688001F7D52CE000BFFFF71CFD94
:1014C000001B022802D90320BDE8F88F286880019C
:1014D000F4D41FE00128F7D0D9F80000E26900F445
:1014E0008001914214D1226A00F03F0191420FD154
:1014F00047F6C071626A0140914209D1A26A00F4C4
:101500004031914204D1E16A00F07060884201D01C
:101510000120D9E70020D7E7043802400000474205
:10152000800E4742007000400000FFFF10B5401ED3
:10153000B0F1807F01D3012010BD4FF0E024606145
:101540000F21601700F00FFC0020A0610720206130
:10155000002010BDFEE7000070B50646002440F2F2
:101560003F11204600F054F900F08EFA4FF4963502
:10157000304600F05FFA641CAC42F9D3BDE870401D
:1015800001221103014800F03FB8000000080240AA
:101590001A4810B5016886B041F004010160016885
:1015A00001F004010591016841F002010160006849
:1015B000694600F0020005900120019002900003AE
:1015C00000900F48FFF7B6FB20200E4C00906946B4
:1015D0002046FFF7AFFB002220212046FFF786FCC4
:1015E000002141F28830491C8142FCD30122202194
:1015F0002046FFF77BFC06B010BD000030380240EB
:101600000008024000040240FFF770BC203AD2B24A
:10161000034B02EB420203EB021200F01BB8000086
:10162000941E00082DE9F041002500EB40000E4615
:101630002C46C70007E0F8B22146FFF7E7FF103459
:101640006D1CA4B2761C3278002A01D0142DF2D37E
:10165000BDE8F0812DE9F05FA1F23F11C1F1000A70
:101660009146002604461FFA8AF100F0D1F80127BE
:10167000DFF84C804FF4805B00F006FA5FF0000565
:1016800039F8160007FA05F10842404601D14088B2
:1016900000E0008800F0CEF96D1C102DF0D301227F
:1016A00059460848FFF7B0FF641CE4B21FFA8AF1FC
:1016B000204600F0ADF8761C182EDDD3BDE8F09F73
:1016C00006000020000802402DE9F041074642F2E2
:1016D0001070B2FBF0F014463030C2B20D46C1F5C6
:1016E000A07081B23846FFF791FF4FF47A70B4FBD7
:1016F000F0F00A26B0FBF6F106FB11003030C2B262
:10170000C5F5A87081B23846FFF780FF6420B4FBAE
:10171000F0F0B0FBF6F106FB11003030C2B2C5F5B7
:10172000B07081B23846FFF771FFB4FBF6F0B0FB42
:10173000F6F106FB11003030C2B2C5F5B87081B2C7
:101740003846FFF763FFB4FBF6F006FB104030307D
:10175000C2B2C5F5C07081B23846BDE8F041FFF7AE
:1017600055BF000070B5274886B0016841F00401FC
:101770000160016801F004010591016841F0020176
:101780000160016801F002010591016841F0080162
:101790000160016801F008010591016841F0400114
:1017A00001600068184E00F0400005900120C4035D
:1017B00001900290694600943046FFF7BBFAA511EC
:1017C000694630460095FFF7B5FA802000906946DB
:1017D0003046FFF7AFFAFF20009069460B48FFF74D
:1017E000A9FA012280213046FFF780FB0122294619
:1017F0003046FFF77BFB012221463046FFF776FBA0
:1018000006B070BD30380240000C024000180240A3
:1018100010B50C460146202000F044F92146BDE8F1
:101820001040212000F03EB901B5BDF8000001498B
:10183000088008BD0600002010B5FFF7A9FEFFF7DD
:1018400091FF0A2000F0AEFA0121002000F02AF9F1
:101850004FF48071012000F025F94FF4E06102207F
:1018600000F020F941F23001032000F01BF90021C3
:10187000042000F017F940F20221082000F012F9CC
:101880000021092000F00EF900210A2000F00AF9D9
:1018900000210C2000F006F900210D2000F002F9D3
:1018A00000210F2000F0FEF80021102000F0FAF8CF
:1018B0000021112000F0F6F80021122000F0F2F8CB
:1018C0000021132000F0EEF80A2000F06BFA41F23C
:1018D000B071102000F0E6F840F23711112000F04E
:1018E000E1F80A2000F05EFA40F23911122000F00F
:1018F000D9F80A2000F056FA4FF4E851132000F00E
:10190000D1F81321292000F0CDF80A2000F04AFA7E
:101910000021202000F0C6F80021212000F0C2F8AC
:101920000621302000F0BEF840F20111312000F015
:10193000B9F80321322000F0B5F84FF48371352057
:1019400000F0B0F840F60231362000F0ABF840F27B
:101950000231372000F0A6F840F20771382000F07D
:10196000A1F80721392000F09DF84FF4C0613C2018
:1019700000F098F840F20B213D2000F093F8002190
:10198000502000F08FF8EF21512000F08BF800215B
:10199000522000F087F840F23F11532000F082F807
:1019A0004FF42741602000F07DF80121612000F014
:1019B00079F800216A2000F075F80021802000F0FD
:1019C00071F80021812000F06DF80021822000F0E4
:1019D00069F80021832000F065F80021842000F0E0
:1019E00061F80021852000F05DF81021902000F0C2
:1019F00059F80021922000F055F80321932000F0BF
:101A000051F84FF48871952000F04CF80021972090
:101A100000F048F80021982000F044F841F2180145
:101A2000032000F03FF8BDE8104040F2731107209A
:101A300000F038B82DE9F041114E04460122802112
:101A40003046FFF753FA0F4D200A28604FF4004745
:101A5000002239463046FFF749FA0122394630461E
:101A6000FFF744FA2C60002239463046FFF73EFA71
:101A700039463046BDE8F0410122FFF737BA000091
:101A8000000C02401418024010B5222000F046F865
:101A9000BDE8104000224FF480510148FFF7B4BD6B
:101AA000000802402DE9F0470C4600F037F8DFF857
:101AB00060804FF48056002231464046FFF7A4FD77
:101AC000DFF85090012280214846FFF70FFA124DAF
:101AD000200A2860F700002239464846FFF706FA38
:101AE000012239464846FFF701FA2C6000223946A8
:101AF0004846FFF7FBF9012239464846FFF7F6F959
:101B000031464046BDE8F0470122FFF77DBD0000A9
:101B100000080240000C0240141802402DE9F04772
:101B2000DFF8688007464FF480550022294640467A
:101B3000FFF76AFDDFF85890002280214846FFF742
:101B4000D5F9144C002020600246EE00314648468C
:101B5000FFF7CCF9012231464846FFF7C7F9276065
:101B6000002231464846FFF7C1F901223146484676
:101B7000FFF7BCF9012280214846FFF7B7F9294653
:101B80004046BDE8F0470122FFF73EBD0008024095
:101B9000000C024014180240FEE7FEE77047000008
:101BA00038B52D480024016841F4800101600068C7
:101BB0002A4900F4800000902948012500F1200204
:101BC000846001600915C0E9034149004161890051
:101BD00081614911C161490282E83200C462046333
:101BE0004460FEF7D1FF01231E4A1F491C48FFF73E
:101BF00035F819481430016841F4807101600068BB
:101C0000194900F48070009015484C39603001602B
:101C10002904C0E901140461057680F8204044627B
:101C2000C462C561C46080F830504461FEF7C3FDF2
:101C30000B480E21A830C0E900150321C0E90214A9
:101C400001464838FEF770FCBDE8384004480122E0
:101C500004496030FEF730BE303802401064024064
:101C6000C4000020040000204C2001400C4800B5B6
:101C7000026887B0002142F002020260006800F0B2
:101C800002000590102000900320CDE90101694673
:101C90000448FFF74FF807B05DF804EBFFF780BF8B
:101CA0003038024000080240FFF7C6BD7047FFF71A
:101CB00029B9000030B593B030216846FEF7B8FA74
:101CC00014210CA8FEF7B4FA1D480025016841F064
:101CD00080510160006800F080501190194801683F
:101CE00041F4804101600068022400F480401190BA
:101CF0000120039010200490009406940820CDE960
:101D00000750A820CDE9090404200B906846FFF78E
:101D10005FFA08B172B6FEE70CA90F2081E8310026
:101D20004FF4A0500F904FF48050109005210CA854
:101D3000FFF782F9002801D072B6FEE713B030BD7C
:101D400040380240007000400548016841F47001CD
:101D5000016003494FF0006080390860704700005F
:101D600088ED00E0FEE70907090E002804DB00F11A
:101D7000E02080F80014704700F00F0000F1E02030
:101D800080F8141D704702E008C8121F08C1002A1D
:101D9000FAD170477047002001E001C1121F002AEC
:101DA000FBD1704701B581B00449019848430090C8
:101DB000002801D0401EFAE70CBD0000A0860100FB
:101DC0002DED048BFFF770FF29480088FFF7C4FB57
:101DD0001F20FFF729FDFFF79DF8FFF76BFFFFF7C7
:101DE00045FF244E9FED248ADFED248ADFF89080A2
:101DF0009FED249A4FF4967740F2DA2930884446D2
:101E000000EE100A20A10020B8EE400A20EE080AD9
:101E100020EE280A88ED000AFFF704FCD4ED000A42
:101E200032883946BDEEE00A462010EE104A00EE38
:101E3000104AB8EEC00A30EEC00A20EE090ABDEE24
:101E4000C00A10EE105AFFF73FFC224639466420C4
:101E5000FFF73AFC2A4649466420FFF735FC642127
:101E60002E220846FFF7D2FB6420FEF751FFC5E79C
:101E70000800002004000020000080393333534064
:101E80000000002000401C46414420746573743AF1
:101E90000000000000000000000000000000000042
:101EA0000000000000000000000000000000000032
:101EB0000000000000000000000000000000000022
:101EC000000000000000800180018001800180018D
:101ED00080018001800180018001800180018001FA
:101EE00000000000800180010000000000000000F0
:101EF0000000000000000000CC00CC00CC00CC00B2
:101F0000CC00CC0000000000000000000000000039
:101F100000000000000000000000000000000000C1
:101F200000000000000000000000000000000000B1
:101F3000600C600C600C30063006FE1FFE1F300681
:101F400038071803FE1FFE1F180318038C018C01AD
:101F50008C01000000008000E003F80F9C0E8C1C38
:101F60008C188C009800F801E007800E801C8C18FB
:101F70008C189C18B80CF00FE00380008000000063
:101F8000000000000000000000000E181B0C110CE7
:101F900011061106110311039B018E01C038C06C9C
:101FA00060446044304430441844186C0C380000DD
:101FB000000000000000E001F003380718061806D2
:101FC0003003F001F000F8009C310E33061E061CB1
:101FD000061C063FFC73F02100000000000000001A
:101FE00000000000000000000C000C000C000C00C1
:101FF0000C000C00000000000000000000000000C9
:1020000000000000000000000000000000000000D0
:10201000000000000000000200038001C000C000BA
:1020200060006000300030003000300030003000D0
:102030003000300060006000C000C000800100037C
:1020400000020000000020006000C000800180014C
:102050000003000300060006000600060006000656
:10206000000600060003000380018001C00060003C
:102070002000000000000000000000000000000040
:10208000C000C000D806F807E001300338070000A0
:102090000000000000000000000000000000000040
:1020A0000000000000000000000000000000000030
:1020B00080018001800180018001FC3FFC3F8001A4
:1020C000800180018001800100000000000000000C
:1020D0000000000000000000000000000000000000
:1020E00000000000000000000000000000000000F0
:1020F000000000000000800180010001000180005C
:1021000000000000000000000000000000000000CF
:10211000000000000000000000000000E007E007F1
:1021200000000000000000000000000000000000AF
:10213000000000000000000000000000000000009F
:10214000000000000000000000000000000000008F
:10215000000000000000C000C000000000000000FF
:10216000000000000000000C000C00060006000645
:102170000003000300038003800180018001C00090
:10218000C000C0006000600000000000000000000F
:10219000000000000000E003F007380E180C0C18D7
:1021A0000C180C180C180C180C180C180C180C180F
:1021B000180C380EF007E0030000000000000000DB
:1021C00000000000000000018001C001F001980142
:1021D00088018001800180018001800180018001EF
:1021E00080018001800180010000000000000000EB
:1021F000000000000000E003F80F180C0C180C1889
:1022000000180018000C000600038001C0006000E8
:1022100030001800FC1FFC1F000000000000000040
:10222000000000000000E001F807180E0C0C0C0C78
:10223000000C0006C003C007000C001800180C18A2
:102240000C18180CF807E003000000000000000064
:10225000000000000000000C000E000F000F800DB9
:10226000C00C600C600C300C180C0C0CFC3FFC3FDC
:10227000000C000C000C000C00000000000000002E
:10228000000000000000F80FF80F180018000C0004
:10229000EC03FC071C0E001C0018001800180C189A
:1022A0001C0C180EF807E0030000000000000000FE
:1022B000000000000000C007F00F381C18181800BC
:1022C0000C00CC03EC0F3C0E1C1C0C180C180C184A
:1022D000181C380EF007E0030000000000000000AA
:1022E000000000000000FC1FFC1F000C00060006A0
:1022F000000380038001C001C000E00060006000B6
:1023000070003000300030000000000000000000CD
:10231000000000000000E003F007380E180C180C55
:10232000180C3806F007F007180C0C180C180C18CD
:102330000C18380CF80FE00300000000000000004B
:10234000000000000000E003F007380E1C0C0C1821
:102350000C180C181C1C381EF81BE0190018000C77
:10236000000C1C0EF807F001000000000000000047
:10237000000000000000000000000000000000005D
:10238000800180010000000000000000000000004B
:10239000000000008001800100000000000000003B
:1023A000000000000000000000000000000000002D
:1023B000800180010000000000000000000000001B
:1023C0000000000080018001000100018000000089
:1023D00000000000000000000000000000000000FD
:1023E000000000000010001C800FE003F80018003F
:1023F000F800E003800F001C001000000000000047
:1024000000000000000000000000000000000000CC
:1024100000000000F81F000000000000F81F00008E
:1024200000000000000000000000000000000000AC
:10243000000000000000000000000000000000009C
:102440000000000008003800F001C007001F00185D
:10245000001FC007F0013800080000000000000065
:10246000000000000000E003F80F180C0C180C1816
:102470000018000C000600038001C000C000C0006E
:1024800000000000C000C0000000000000000000CC
:102490000000000000000000E00718180420C22916
:1024A000224A114409440944094409221113E20C47
:1024B000024004201818E00700000000000000009F
:1024C00000000000000080038003C006C006C006B4
:1024D000600C600C301830183018F83FF83F1C7052
:1024E0000C600C6006C006C0000000000000000088
:1024F000000000000000FC03FC0F0C0C0C180C1872
:102500000C180C0CFC07FC0F0C180C300C300C30A9
:102510000C300C18FC1FFC0700000000000000003D
:10252000000000000000C007F01F38381C300C709D
:1025300006600600060006000600060006000660AB
:102540000C701C30F01FE0070000000000000000CD
:10255000000000000000FE03FE0F060E061806181D
:1025600006300630063006300630063006300618D3
:102570000618060EFE0FFE0300000000000000001B
:10258000000000000000FC3FFC3F0C000C000C00B1
:102590000C000C00FC1FFC1F0C000C000C000C00BD
:1025A0000C000C00FC3FFC3F00000000000000009D
:1025B000000000000000F83FF83F18001800180065
:1025C00018001800F81FF81F18001800180018004D
:1025D000180018001800180000000000000000009B
:1025E000000000000000E00FF83F3C780E6006E0BD
:1025F00007C00300030003FE03FE03C007C006C0BC
:102600000EC03CF0F83FE00F0000000000000000AA
:102610000000000000000C300C300C300C300C308E
:102620000C300C30FC3FFC3F0C300C300C300C30CC
:102630000C300C300C300C300000000000000000AA
:102640000000000000008001800180018001800105
:102650008001800180018001800180018001800172
:102660008001800180018001000000000000000066
:10267000000000000000000600060006000600063C
:102680000006000600060006000600060006180602
:1026900018063807F003E001000000000000000009
:1026A00000000000000006300618060C06060603AF
:1026B0008601C60066007600DE008E01060306066F
:1026C000060C06180630066000000000000000003E
:1026D0000000000000001800180018001800180082
:1026E000180018001800180018001800180018002A
:1026F00018001800F81FF81F00000000000000007C
:102700000000000000000EE01EF01EF01EF036D8A3
:1027100036D836D836D866CC66CC66CCC6C6C6C6E1
:10272000C6C6C6C686C386C30000000000000000FF
:102730000000000000000C301C303C303C306C309D
:102740006C30CC30CC308C310C330C330C360C3636
:102750000C3C0C3C0C380C30000000000000000069
:10276000000000000000E007F81F1C380E70066033
:1027700003C003C003C003C003C003C003C006609E
:102780000E701C38F81FE007000000000000000079
:10279000000000000000FC0FFC1F0C380C300C3057
:1027A0000C300C300C18FC1FFC070C000C000C004B
:1027B0000C000C000C000C000000000000000000E9
:1027C000000000000000E007F81F1C380E700660D3
:1027D00003E003C003C003C003C003C007E00663F7
:1027E0000E3F1C3CF83FE0F700C000000000000076
:1027F000000000000000FE0FFE1F06380630063005
:1028000006300638FE1FFE0706030606060C0618ED
:1028100006180630063006600000000000000000C8
:10282000000000000000E003F80F1C0C0C180C184E
:102830000C001C00F803E00F001E003806300630C4
:102840000E301C1CF80FE007000000000000000024
:10285000000000000000FE7FFE7F800180018001FB
:102860008001800180018001800180018001800160
:102870008001800180018001000000000000000054
:102880000000000000000C300C300C300C300C301C
:102890000C300C300C300C300C300C300C300C3058
:1028A0000C301818F81FE0070000000000000000BE
:1028B00000000000000003600630063006300C18EF
:1028C0000C180C18180C180C380E3006300670074F
:1028D00060036003C001C0010000000000000000B0
:1028E0000000000000000360C361C361C361663380
:1028F000663366336633663366336C1B6C1B6C1B46
:102900002C1A3C1E380E380E00000000000000009B
:102910000000000000000FE00C7018303018700C40
:10292000600EC00780038003C003E006700C301CFB
:1029300018180C300E6007E00000000000000000D6
:1029400000000000000003C006600C301C3838187E
:10295000300C6006E007C003800180018001800127
:102960008001800180018001000000000000000063
:10297000000000000000FC7FFC7F006000300018B9
:10298000000C000600038001C00060003000180049
:102990000C000600FE7FFE7F00000000000000002B
:1029A000000000000000E003E00360006000600041
:1029B0006000600060006000600060006000600017
:1029C0006000600060006000600060006000E00384
:1029D000E003000000003000300060006000600094
:1029E000C000C000C000C001800180018001000360
:1029F00000030003000600060000000000000000C5
:102A0000000000000000E003E003000300030003F7
:102A1000000300030003000300030003000300039E
:102A20000003000300030003000300030003E003AE
:102A3000E003000000000000C001C001600360036B
:102A4000600330063006180C180C0000000000006F
:102A50000000000000000000000000000000000076
:102A60000000000000000000000000000000000066
:102A70000000000000000000000000000000000056
:102A8000000000000000FFFFFFFF0000000000004A
:102A90000000000000000C000C000C000C000C00FA
:102AA0000C0000000000000000000000000000001A
:102AB0000000000000000000000000000000000016
:102AC0000000000000000000000000000000000006
:102AD000F003F8071C0C0C0C000FF00FF80C0C0C9A
:102AE0000C0C1C0FF80FF018000000000000000094
:102AF000000000000000180018001800180018005E
:102B0000D803F80F380C18181818181818181818AF
:102B10001818380CF80FD80300000000000000005F
:102B200000000000000000000000000000000000A5
:102B3000C003F007300E180C180018001800180019
:102B4000180C300EF007C003000000000000000069
:102B500000000000000000180018001800180018FD
:102B6000C01BF01F301C181818181818181818183F
:102B70001818301CF01FC01B0000000000000000EF
:102B80000000000000000000000000000000000045
:102B9000C003F00F300C1818F81FF81F18001800A9
:102BA0003818301CF00FC0070000000000000000C3
:102BB000000000000000800FC00FC000C000C00077
:102BC000F007F007C000C000C000C000C000C00097
:102BD000C000C000C000C0000000000000000000F5
:102BE00000000000000000000000000000000000E5
:102BF000E00DF80F180E0C0C0C0C0C0C0C0C0C0C43
:102C00000C0C180EF80FE00D000C0C0C1C06F8074D
:102C1000F00100000000180018001800180018004B
:102C2000D807F80F381C181818181818181818187A
:102C300018181818181818180000000000000000D4
:102C4000000000000000C000C00000000000000004
:102C5000C000C000C000C000C000C000C000C00074
:102C6000C000C000C000C000000000000000000064
:102C7000000000000000C000C000000000000000D4
:102C8000C000C000C000C000C000C000C000C00044
:102C9000C000C000C000C000C000C000C000F800FC
:102CA0007800000000000C000C000C000C000C0070
:102CB0000C0C0C060C038C01CC006C00FC009C017D
:102CC0008C030C030C060C0C00000000000000003C
:102CD000000000000000C000C000C000C000C00034
:102CE000C000C000C000C000C000C000C000C000E4
:102CF000C000C000C000C0000000000000000000D4
:102D000000000000000000000000000000000000C3
:102D10007C3CFF7EC7E383C183C183C183C183C180
:102D200083C183C183C183C1000000000000000093
:102D30000000000000000000000000000000000093
:102D40009807F80F381C1818181818181818181899
:102D500018181818181818180000000000000000B3
:102D60000000000000000000000000000000000063
:102D7000C003F00F300C1818181818181818181865
:102D80001818300CF00FC003000000000000000015
:102D90000000000000000000000000000000000033
:102DA000D803F80F380C181818181818181818180D
:102DB0001818380CF80FD80318001800180018005D
:102DC00018000000000000000000000000000000EB
:102DD000C01BF01F301C18181818181818181818CD
:102DE0001818301CF01FC01B00180018001800181D
:102DF00000180000000000000000000000000000BB
:102E0000B007F003700030003000300030003000B8
:102E100030003000300030000000000000000000F2
:102E200000000000000000000000000000000000A2
:102E3000E003F003380E180C3800F003C007000C54
:102E4000180C380EF007E00300000000000000003E
:102E500000000000000000008000C000C000C000B2
:102E6000F007F007C000C000C000C000C000C000F4
:102E7000C000C000C0078007000000000000000084
:102E80000000000000000000000000000000000042
:102E900018181818181818181818181818181818B2
:102EA0001818381CF01FE019000000000000000096
:102EB0000000000000000000000000000000000012
:102EC0000C18180C180C180C30063006300660036D
:102ED00060036003C001C0010000000000000000AA
:102EE00000000000000000000000000000000000E2
:102EF000C141C141C3616363636363633636363680
:102F000036361C1C1C1C1C1C0000000000000000AD
:102F100000000000000000000000000000000000B1
:102F20001C38381C300C60066003600360036003CB
:102F30006006300C381C1C38000000000000000047
:102F40000000000000000000000000000000000081
:102F50001830301830187018600C600CE00CC00687
:102F6000C00680038003800380018001C001F0005F
:102F700070000000000000000000000000000000E1
:102F8000FC1FFC1F000C000600038001C000600055
:102F900030001800FC1FFC1F0000000000000000B3
:102FA00000000000000000038001C000C000C0005D
:102FB000C000C000C0006000600030006000400041
:102FC000C000C000C000C000C000C00080010003FD
:102FD000000000000000800180018001800180016C
:102FE00080018001800180018001800180018001D9
:102FF00080018001800180018001800180018001C9
:103000008001000000006000C000C001800180015C
:10301000800180018001000300030006000300011D
:10302000800180018001800180018001C00060007A
:103030000000000000000000000000000000000090
:1030400000000000F010F81F080F00000000000052
:103050000000000000000000000000000000000070
:103060000000000000061016000610160000000008
:103070000000000001020304060708099C30000854
:10308000000000201C000000861D0008B830000869
:103090001C00002064050000961D000800000000D0
:1030A00000000000FFFF0000010000001000000011
:0830B000000000000024F40000
:040000050800018965
:00000001FF
