:020000040800F2
:10000000080700209D01000837370008392D000837
:1000100035370008250A0008453E000800000000AA
:100020000000000000000000000000003F37000852
:10003000E50A0008000000003937000841370008D1
:10004000B7010008B7010008B7010008B7010008B0
:10005000B7010008B7010008B7010008B7010008A0
:10006000B7010008B7010008B7010008B701000890
:10007000B7010008B7010008B7010008B701000880
:10008000B7010008B7010008B7010008B701000870
:10009000B7010008B7010008B7010008B701000860
:1000A000B7010008B7010008B7010008B701000850
:1000B000E9370008F5370008B7010008B701000864
:1000C000B7010008B7010008B7010008B701000830
:1000D000B7010008393E0008B7010008B701000861
:1000E000B7010008B7010008B7010008013800088F
:1000F000B7010008B7010008B7010008B701000800
:10010000B7010008B7010008B7010008B7010008EF
:10011000B7010008B7010008B7010008B7010008DF
:10012000290A0008350A0008B7010008B7010008CD
:10013000B7010008B7010008B7010008B7010008BF
:10014000B7010008B7010008B7010008B7010008AF
:10015000B7010008B7010008B7010008B70100089F
:10016000B7010008B7010008B7010008B70100088F
:10017000B7010008B7010008B7010008000000003F
:10018000B7010008B7010008DFF80CD000F05CFBF5
:10019000004800471D49000808070020064880471E
:1001A00006480047FEE7FEE7FEE7FEE7FEE7FEE75C
:1001B000FEE7FEE7FEE7FEE7D93700088901000801
:1001C0002DE9F05F0546002092469B46884606468C
:1001D000814640241BE0284641464746224600F01F
:1001E00064FA53465A46C01A914110D31146184634
:1001F000224600F04BFA2D1A67EB01084F462246C3
:100200000120002100F042FA17EB00094E41201EA8
:10021000A4F10104DFDC484631462A464346BDE8E6
:10022000F09FD2B201E000F8012B491EFBD27047CB
:100230000022F6E710B513460A4604461946FFF7B2
:10024000F0FF204610BD2DE9FE4F804681EA0300F5
:10025000C00F0C46009021F0004123F00045B8EBA0
:100260000200A94105D24046214690461C460B4655
:10027000024623F00040104347D0270DC7F30A0081
:10028000C3F30A510290401A019040286BDAC3F37D
:10029000130040F4801B0098924620B10023D2EB5B
:1002A000030A63EB0B0B01985946C0F1400250461C
:1002B00000F0ECF906460D4650465946019A00F00A
:1002C00004FA10EB08006141002487EA115284EA25
:1002D000E7731A4340D0009A62B3019A012A4FEAA9
:1002E000075215DC001B61EB02014FF0004202EAED
:1002F0000752CDE90042001C41F5801132462B46E1
:1003000000F03BFA03B0BDE8F08F40462146F9E724
:10031000001B61EB0201001C41F5801300185B41DA
:100320002018A2F5001747EB030140EAD570B61973
:100330006D4111E06D084FEA360645EAC0754FEA97
:100340000752001B61EB0201001C41F580114908B6
:100350004FEA30000019514132462B4603B0BDE848
:10036000F04F00F0FBB90098012240000023D0EBD1
:10037000020263EBE073009821464FEAE074B8EBA9
:10038000000061EB0401E9E783F000435BE781F0E3
:10039000004158E72DE9FE4F81EA030404F00044D0
:1003A00021F0004100944FF0000B23F0004350EA8D
:1003B00001045ED052EA03045BD0C3F30A54C1F3D4
:1003C0000A552C44A4F2F3340194A0FB0254C1F367
:1003D000130141F48011C3F3130343F4801301FBB1
:1003E000024400FB034E840A970A44EA815447EA18
:1003F0008357A4FB076802958D0A05FB07854FEA22
:10040000932C04FB0C542705029D4FEA065847EA3B
:100410001637B5EB08056EEB070C870E920E47EA10
:10042000811742EA8312A7FB0201B6EB0B0164EBD2
:1004300000042B0D43EA0C335E1844EB1C50DA46E3
:100440005146E7FB0201C5F313044FEA0B3343EABD
:1004500014534FEA0432019C43EA0603A4F10C044E
:100460000294009CCDE900B400F087F903B0BDE828
:10047000F08F00200146F9E72DE9F04D81EA0304F1
:1004800004F0004B21F0004514464FF0000A23F021
:10049000004150EA050220D054EA01021DD0C5F304
:1004A0000A570246C5F31303C1F31300C1F30A56FA
:1004B00040F4801543F48013A7EB0608101BD646C2
:1004C00008F2FD3873EB050002D308F1010801E0E2
:1004D00092185B41B8F1000F03DA00200146BDE835
:1004E000F08D00204FF48011064684460EE0171B65
:1004F00073EB050705D3121B63EB050306434CEAB8
:10050000010C49084FEA300092185B4150EA01079C
:10051000EDD152EA030012D082EA040083EA050119
:10052000084305D0101BAB4106D20122002306E090
:1005300000224FF0004302E06FF0010253101AEB6B
:1005400006004CEB085110EB0A0041EB0B01BDE833
:10055000F04D00F003B90EB540F233410291002195
:10056000CDE900110A460B4600F007F903B000BDC3
:10057000C1F30A5210B5C1F3130140F2FF3341F445
:1005800080119A4201DA002010BD40F233439A42B2
:10059000A2F2334203DC524200F087F810BD9040D3
:1005A00010BD00F0004230F000400AD0C10D01F54E
:1005B0006071C0F3160042EA0151C20840071143BE
:1005C000704700200146704730B5041E71F10004E9
:1005D00004DB4FF00044404264EB0101141E73F150
:1005E000000405DB1C464FF00043524263EB04035A
:1005F0008B4208BF824230BD30B5041E71F1000449
:1006000004DB4FF00044404264EB0101141E73F11F
:10061000000405DB1C464FF00043524263EB040329
:10062000994208BF904230BD01F0004330B421F040
:10063000004150EA010206D00A0DA2F56072C1F332
:100640001301002A02DC30BC00207047440F44EA4A
:10065000C104C100E01830BC00EBC25000F047B844
:1006600030B50B46014600202022012409E021FA82
:1006700002F59D4205D303FA02F5491B04FA02F57F
:100680002844151EA2F10102F1DC30BD202A04DB52
:10069000203A00FA02F1002070479140C2F1200395
:1006A00020FA03F3194390407047202A04DB203AD4
:1006B00021FA02F00021704721FA02F3D040C2F182
:1006C00020029140084319467047202A06DBCB17C9
:1006D000203A41FA02F043EAE07306E041FA02F3FD
:1006E000D040C2F1200291400843194670470029CA
:1006F000A8BF7047401C490008BF20F001007047A8
:1007000010B4B0FA80FC00FA0CF050EA010404BF07
:1007100010BC704749B1CCF1200421FA04F411FA5D
:100720000CF118BF012121430843A3EB0C01CB1DA1
:100730004FEA00614FEA102042BF002010BC704712
:1007400000EBC35010440029A4BF10BC7047401CEC
:10075000490008BF20F0010010BC704710B5141EFE
:1007600073F1000408DA401C41F1000192185B416A
:100770001A4301D120F0010010BD2DE9F04D924641
:100780009B4611B1B1FA81F202E0B0FA80F2203258
:100790009046FFF77BFF04460F4640EA0A0041EA15
:1007A0000B0153465A46084313D0114653EA010041
:1007B00019D0C8F140025046FFF777FF05460E46B4
:1007C000504659464246FFF761FF084305D00120D5
:1007D00004E020463946BDE8F08D0020054346EA96
:1007E000E0762C4337430A986305E40AA0EB08003F
:1007F0000022FD0A44EA47540A3002D5002001468F
:10080000E9E7010510196941DDE908450019694169
:10081000BDE8F04DA2E7C1F30A52C1F3130140F263
:10082000FF3341F480119A4202DA002001467047FA
:1008300040F233439A42A2F2334202DC5242FFF7C3
:1008400034BFFFF723BF0000064C074D06E0E06809
:1008500040F0010394E8070098471034AC42F6D307
:10086000FFF796FCFC5D00081C5E000810B5014611
:10087000806B026C12F0500F05D0026CD20626D5A8
:1008800000F0DCF910BD016C41F4007101640168F5
:100890008A6812F0405F17D1027EAAB9CA6A12F4C0
:1008A000700F02D08A6852050ED44A6822F02002E6
:1008B0004A60016C21F480710164016CC90403D4A5
:1008C000016C41F00101016400F0B6F910BD806BCC
:1008D000C26CBDE810400846104710B5806B40213F
:1008E0000164416C41F00401416400F0A7F910BDBE
:1008F00010B5806B00F0A1F910BD0000464910B59D
:100900004A6822F440324A604A6843681A434A609F
:1009100001684A6822F480724A6001684A68036983
:1009200042EA03224A6001684A6822F040724A6043
:1009300001684A6883681A434A6001688A6822F439
:1009400000628A6001688A68C3681A438A60816AA3
:100950006FF07062D14201688A6822F070628A602A
:1009600001688A680CD0836A1A438A6001688A68C1
:1009700022F040528A6001688A68C36A1A4301E023
:1009800022F040528A6001688A6822F002028A607E
:1009900001688A68037E42EA43028A6090F8201068
:1009A000002901684A680FD042F400624A60016879
:1009B0004A6822F460424A6001684A68174C436AF8
:1009C00004EB43331A4301E022F400624A600168F9
:1009D000CA6A22F47002CA620168CA6A838B104C28
:1009E00004EB03531A43CA6201688A6822F4007256
:1009F0008A6001688A6890F8303042EA43228A604F
:100A000001688A6822F480628A6001688A684069A5
:100A100042EA8020886010BD0023014000E0FFFF13
:100A20000000F0FFFEE70000014800F0BBBA000044
:100A300048020020014800F0B5BA0000A8020020DA
:100A400001681823CAB2103AB2FBF3F2054B6FF3F8
:100A50000901032A9B5CC36500D9091D816508460D
:100A600070470000DC5D000810B5014600208B696E
:100A70008A6A4FF0C07453B1B3F5005F15D072B1FC
:100A8000012A0CD0022A0AD0032A09D104E01AB1A3
:100A9000012A06D0022A03D1C96AC90100D5012062
:100AA00010BDC96AA142FAD010BD002AF7D0012AB0
:100AB000F2D0022AF3D0032AF3D010BD30B5046877
:100AC000256825F480252560046863608368402BD1
:100AD000036803D099600068C26030BD9A60006806
:100AE000C16030BD704772B6FEE7000078B50024E3
:100AF000009490F83C20012A19D0012280F83C2073
:100B00000A6807230568092A13D9EE680A3A02EB36
:100B1000420293409E43EE600B788A680A3B03EBE7
:100B200043039A400368DD682A43DA6010E002203C
:100B300078BD2E6902EB420293409E432E610B78F2
:100B40008A6803EB43039A4003681D692A431A61CC
:100B50004A681F23072A13D205686E6B521E02EBE8
:100B6000820293409E436E630B790A885B1E92B2A9
:100B700003EB83039A4003685D6B2A435A6327E0C3
:100B800005680D2A12D22E6BD21F02EB820293400F
:100B90009E432E630B790A88DB1F92B203EB83031B
:100BA0009A4003681D6B2A431A6311E0EE6A0D3AFE
:100BB00002EB820293409E43EE620B790A880D3B62
:100BC00092B203EB83039A400368DD6A2A43DA6238
:100BD000164B0568144A9D4206D10D68122D03D1AB
:100BE000556845F48005556005689D4218D10B682D
:100BF000102B01D0112B13D1536843F40003536021
:100C0000096810290CD10A490A4A0968B1FBF2F1B6
:100C100001EB8101490000E0491E00910029FBD150
:100C200080F83C40002078BD0023014000200140B6
:100C30009400002040420F0070477047704770B525
:100C400004004FF0000503D0206C002610B107E02F
:100C5000012070BD204600F01DF8666484F83C60F9
:100C6000206CC00610D4206C20F4885040F00200A4
:100C700020642046FFF742FE6664206C20F00200EC
:100C800040F00100206400E0012584F83C60284623
:100C900070BD00002DE9F04F87B00646142168466C
:100CA000FFF7C6FA3548344C143833680025334909
:100CB000032207154FF400684FF400594FF4807A6F
:100CC0004FF4003BA34227D10B6843F480730B60C1
:100CD000096801F480710591016841F00401016027
:100CE0000068694600F00400059010208DE825009A
:100CF000234800F0DBFA244C224804F10C03C4E939
:100D00000005A56083E8A00F204665622CE0B4636F
:100D1000A66307B0BDE8F08F1C4CA342F9D10B6865
:100D200043F480630B60096801F4806105910168F8
:100D300041F0200101600068694600F02000059044
:100D400060158DE82500124800F0B0FA114C0D48EE
:100D500004F10C03183020604FF08060C4E90105F5
:100D600083E8A00F2046656200F0ECF90028CED0A1
:100D7000FFF7B9FECBE700000020014044380240F5
:100D80000008024010640240480200200022014096
:100D900000140240A8020020F8B5044600200E46C8
:100DA000009094F83C10012907D0012184F83C10F0
:100DB00021688B68DB0702D011E00220F8BD8B6848
:100DC00043F001038B604049404B0968B1FBF3F1EC
:100DD00001EB410100E0491E00910029FBD121688F
:100DE0008B68DB0503D58B6823F480738B602168E7
:100DF0008B68DB075DD0236C40F20165AB4343F4A5
:100E0000807323644968490505D5216C21F400519C
:100E100041F480512164216CC90404D5616C21F036
:100E20000601616400E0606484F83C00A16B29481D
:100E3000274DC863A16B28480864A16B2748C86484
:100E400021686FF0220008602068416841F08061ED
:100E500041602068816841F4807181602168134697
:100E600032464C31A06B00F0D7F968681C49C006C7
:100E7000206806D0884224D1816811F0405F13D0E9
:100E80001FE08842F8D0174A904203D1D1F80423DA
:100E9000D206F1D0144A904213D1D1F8041301F0D4
:100EA0001F011029E8D30CE0816841F08041816086
:100EB00007E0206C40F010002064606C40F00100FE
:100EC00060640020F8BD00009400002040420F0044
:100ED000002301406D080008F1080008DB08000845
:100EE0000020014000210140002201402DE9F04195
:100EF0000446876D00F0DCFA064694F835000025BC
:100F0000022806D08020606584F834500120BDE8B6
:100F1000F0812068016821F01601016020684169B4
:100F200021F080014161206C08B9A06C20B12068DB
:100F3000016821F0080101602068016821F00101C9
:100F400001600CE000F0B4FA801B052807D92020CE
:100F50006065032084F8350084F83450D7E72068B2
:100F60000068C007EED194F85C103F208840B8605C
:100F7000012084F8350084F834500020C7E790F849
:100F80003510022903D080214165012070470521D9
:100F900080F835100068016821F00101016000202F
:100FA000704700002DE9F84304464FF00009CDF8E2
:100FB000009063484FF41651A56D0068B0FBF1F73F
:100FC0002E6894F85C10082000FA01F131420FD02D
:100FD00021680A6852070BD50A6822F004020A60E9
:100FE00094F85C108840A860606D40F00100606576
:100FF00094F85C104FF0010808FA01F0304208D074
:1010000021684969090604D5A860606D40F00200B6
:10101000606594F85C1004208840304208D0216854
:101020000968890704D5A860606D40F00400606518
:1010300094F85C1010208840304218D0216809686C
:10104000090714D5A86020680168490304D5006821
:10105000000308D5A16C07E00168C90503D4016845
:1010600021F008010160216C09B12046884794F8FD
:101070005C1020208840304231D021680968C906C0
:101080002DD5A86094F8350005282068016806D0A1
:10109000490347D5006800031DD4616C1CE021F0B2
:1010A000160101602068416921F080014161206CD6
:1010B00008B9A06C20B12068016821F00801016026
:1010C00094F85C103F208840A86084F8358084F84C
:1010D0003490216D1FE0E16B09B120468847606DB7
:1010E00000282BD0606DC00714D0052084F835008F
:1010F0002068016821F0010101600098401C009007
:10110000B84203D820680068C007F6D184F835805B
:1011100084F83490E16C002910D001B02046BDE87D
:10112000F04308470168C905D5D4016821F01001D2
:10113000016084F8358084F83490CCE7BDE8F8830A
:10114000940000202DE9F041044600F0B1F9064674
:101150005CB1022084F83500002584F83450206802
:10116000016821F0010101600DE00120BDE8F0817E
:1011700000F09EF9801B052805D92020606503201A
:1011800084F83500F2E720680068C007F0D12268D3
:10119000116820480140D4E901031843D4E903361B
:1011A0003343184363691843A3691843E369184339
:1011B000236A18430843616A042903D1D4E90B1355
:1011C00019430843106020684069666A20F00701EF
:1011D00030460E43012704280CD1A06A0643E06A7A
:1011E00040B12046FFF740FC20B14020606584F804
:1011F0003570BAE7206846612046FFF721FC94F875
:101200005C203F2191408160656584F83570002045
:10121000ACE700003F8010F02DE9F0410446866DF8
:1012200090F83400002501280DD0012084F8340006
:1012300094F835700020012F07D084F8340002257F
:101240002846BDE8F0810220FBE7022784F83570CC
:1012500060652046FFF732FC94F85C103F20884020
:10126000B0602068016841F016010160206C20B177
:101270002068016841F0080101602068016841F0C0
:1012800001010160DCE7000070B5044600F010F9D0
:101290000546601C02D004480078044400F008F9B8
:1012A000401BA042FAD370BD880000202DE9F84F02
:1012B000DFF8BCA10022012503264FF00F090AF137
:1012C000040BAAF1040E00BF0B6805FA02F42340D8
:1012D000A34270D10F7907F00307012F01D0022F2D
:1012E00016D187684FEA420806FA08FC27EA0C077D
:1012F000D1F80CC00CFA08FC4CEA070CC0F808C086
:101300004768A7430C79C4F3001494403C434460FD
:101310000C79E443A4070AD0C4684FEA420C06FAE9
:101320000CF7BC438F6807FA0CF72743C7600C79AA
:1013300004F00304022C12D1D40800EB840CDCF876
:1013400020405707FF0E09FA07F824EA0804D1F8ED
:10135000108008FA07F848EA0408CCF820800468EE
:101360004FEA420C06FA0CF7BC430F7907F003076B
:1013700007FA0CF7274307604C6814F4403F70D01D
:101380003C4C276847F480472760246822F0030715
:1013900004F480440094384C07EB040CDCF8084853
:1013A00097074FEA177809FA08F7BC43334FB8425A
:1013B00002D1002724E054E0314FB84201D1012787
:1013C0001EE0304FB84201D1022719E02E4FB8423B
:1013D00001D1032714E02D4FB84201D104270FE0BB
:1013E0002B4FB84201D105270AE02A4FB84201D15C
:1013F000062705E0284FB84201D1072700E008275B
:1014000007FA08F72743CCF80878DAF8004057467F
:10141000D1F804C09C435FEACC2C00D51C433C604F
:10142000DBF800405F46D1F804C09C435FEA8C2C97
:1014300000D51C433C60DEF800407746D1F804C07C
:101440009C435FEA8C3C00D51C433C60084F083F3E
:101450003C68D1F804C09C435FEACC3C00D51C43F7
:101460003C60521C102AFFF42FAFBDE8F88F00003B
:10147000083C014044380240003001400000024076
:101480000004024000080240000C0240001002402C
:101490000014024000180240001C0240006908408D
:1014A00000D0012070470AB1816170470904FBE751
:1014B0000148806870470000880000200248816869
:1014C0000278114481607047880000200B4810B5F5
:1014D000016841F400710160016841F480610160BC
:1014E000016841F480710160032000F07FF80F2053
:1014F00000F006F800F024F8002010BD003C024087
:1015000070B50D4D04464FF47A712878B1FBF0F0B8
:101510000A490968B1FBF0F000F01CFB48B9102C37
:1015200007D200222146501E00F040F800206C60D7
:1015300070BD012070BD00008800002094000020D4
:101540000A4808B5016841F480410160006800F470
:10155000804000900548001F016841F08051016003
:10156000006800F08050009008BD00004438024040
:1015700000280DDB00F01F0201219140400980008E
:1015800000F1E020C0F88011BFF34F8FBFF36F8FE1
:101590007047002809DB00F01F020121914040093B
:1015A000800000F1E020C0F800117047F0B40E4B4D
:1015B0001B680C46C3F30223C3F10705042D00D9B1
:1015C0000425191D072901D2002300E0DB1E012696
:1015D00006FA05F1491E214099409E40761E1640AC
:1015E0003143F0BC02F040BC0CED00E0064900F0D5
:1015F000070208684FF6FF03184040EA0220034A3A
:1016000010430860704700000CED00E00000FA0590
:101610002DE9F0470E46050065D0DFF81481D8F8B3
:101620000000F7B200F00700B04207D288F800705F
:10163000D8F8000000F00700B04254D128683D4CB3
:10164000810712D5400703D5206840F4E0502060A0
:101650002878000703D5206840F4604020602068A7
:10166000A96820F0F000084320602878C0072DD03A
:10167000304968680839012812D0022813D003289D
:1016800011D00968890700292DDA216821F00301AA
:1016900001432160FFF70CFF814641F2883A0EE0DA
:1016A00009688903EFE709688901ECE7FFF700FFA4
:1016B000A0EB0901514502D90320BDE8F08720685D
:1016C000696800F00C00B0EB810FEFD1D8F8001082
:1016D000404601F00701B14207D90770006800F0E9
:1016E0000700B04201D00120E7E72878400705D580
:1016F0002068E96820F4E05008432060287800075B
:1017000006D52068296920F4604040EAC1002060C5
:1017100000F038F82168084AC1F30311515CC84051
:101720000649086006480068FFF7EAFE0020C4E7A3
:10173000003C024008380240E45D000894000020AC
:101740008C0000200448054900680968044AC1F378
:101750008221515CC8407047940000200838024044
:10176000F45D00080448054900680968044AC1F3AB
:101770004231515CC8407047940000200838024054
:10178000F45D0008154810B5006810F00C0214480C
:1017900013D01449042A0FD0082A0ED10F4C241F4D
:1017A0002268236802F03F025B0207D52068C0F37D
:1017B0008810A0FB010106E0084610BD2168C1F3B6
:1017C0008811A1FB00010023FEF7FAFC2168C1F398
:1017D0000141491C4900B0FBF1F010BD083802403E
:1017E0000024F40040787D012DE9F84F04006ED00C
:1017F0002078DFF84C93C007A9F104054AD009F11D
:1018000004000168C1F38101012908D00068C0F318
:10181000810002280AD1D9F80000400206D52868C4
:10182000800337D560680028E1D033E06068B0F508
:10183000803F10D0B0F5A02F286810D020F4803061
:101840002860286820F4802028606068A8B1FFF72D
:101850002FFE06460DE0286840F48030F4E740F49F
:1018600080202860F7E700BFFFF722FE801B642876
:1018700073D828688003F7D50CE0FFF719FE0646F9
:1018800005E000BFFFF714FE801B6428F0D828682D
:101890008003F7D42078DFF8AC8280074FF0000A8D
:1018A0003ED5A748001D016811F00C0F08D0006854
:1018B000C0F3810002280BD1D9F80000400207D400
:1018C0002868800716D5E068012800D112E033E1CE
:1018D000E068B8B10120C8F80000FFF7E9FD06464E
:1018E00005E000BFFFF7E4FD801B0228C0D8286890
:1018F0008007F7D52868216920F0F80040EAC10088
:1019000028600DE0C8F800A0FFF7D2FD064604E00D
:10191000FFF7CEFD801B02281FD828688007F7D468
:101920002078000722D5864F87486169703771B1EA
:1019300001210160FFF7BCFD064604E0FFF7B8FD9A
:10194000801B022809D838688007F7D50EE0C0F858
:1019500000A0FFF7ADFD064605E082E0FFF7A8FD19
:10196000801B02287DD838688007F7D4207840078C
:1019700068D5DFF8CCB100270BF13C0BDBF8000099
:10198000C0000BD4DBF8001041F08051CBF8001000
:10199000DBF80000012700F0805000906B4E3068AB
:1019A000C00510D4306840F480703060FFF780FDCF
:1019B000009005E0FFF77CFD0099401A022850D8FE
:1019C0003068C005F6D55E4EA0686C3601280FD091
:1019D0000528306810D020F001003060306820F019
:1019E00004003060A068B8B1FFF762FD00900FE01E
:1019F000306840F00100F4E740F004003060F7E7A1
:101A0000FFF756FD0099411A41F28830814266D8AD
:101A100030688007F4D50EE0FFF74AFD009007E03C
:101A2000FFF746FD0099411A41F28830814256D8AD
:101A300030688007F4D42FB1DBF8001021F080511A
:101A4000CBF80010A069C8B33D49091D0968C1F36E
:101A5000810102294AD00228504607D0C8F8600008
:101A600000E03CE0FFF724FD04463BE04746C8F8B1
:101A70006000FFF71DFD064605E000BFFFF718FDFB
:101A8000801B02282BD828688001F7D4D4E90701ED
:101A90000843A16A2E4A490802EB0141626A41EA01
:101AA0008211084394F82C1040EA0161C9F8001033
:101AB00001203866FFF7FCFC044606E03EE000BF6C
:101AC000FFF7F6FC001B022809D828688001F7D52B
:101AD00034E000BFFFF7ECFC001B022802D9032012
:101AE000BDE8F88F28688001F4D427E00128F7D0FA
:101AF000D9F80000E26900F4800191421CD1226A09
:101B000000F03F01914217D147F6C071626A01406F
:101B1000B1EB821F10D1A26A4FF0FF3300F44031C5
:101B200003EB5202B1EB024F06D194F82C1000F0F7
:101B30007060B0EB016F01D00120D1E70020CFE74A
:101B40000438024000004742800E474200700040C7
:101B50000000FFFF10B5401EB0F1807F01D30120CF
:101B600010BD4FF0E02460610F21601702F07CF996
:101B70000020A06107202061002010BD10B5006882
:101B80001249884221D10021114800F05FFE042152
:101B90000F4800F05BFE08210D4800F057FE0022C0
:101BA00080210C48FFF77FFC0B4C002201212046CE
:101BB000FFF779FC002202212046FFF774FC04485D
:101BC0000068C16821F08001C16010BD00040140BF
:101BD000BC0100200000024000040240704710B524
:101BE00090F83C20012A22D0012280F83C20CA68CB
:101BF0008C6822F4407222434C6822F480622243B3
:101C00000C6822F4006222430C6922F480522243C1
:101C10004C6922F400522243C969002322F4804215
:101C20000A4301684A6480F83C30002010BD02205D
:101C300010BD000070B590F83C20012A32D001247C
:101C400080F83C40022280F83D2003685A689D6875
:101C500022F070060A6832435A60134B02689A42B7
:101C600014D0B2F1804F11D0104B9A420ED0104BCD
:101C70009A420BD00F4B9A4208D00F4B9A4205D094
:101C80000E4B9A4202D00E4B9A4204D1496825F07D
:101C900080031943916080F83D40002180F83C109A
:101CA000084670BD022070BD0000014000040040E5
:101CB00000080040000C00400004014000400140CA
:101CC0000018004010B5040003D094F83D0010B196
:101CD00007E0012010BD002084F83C00204600F001
:101CE0001FF8022084F83D00211D206801F08EFDC0
:101CF000012084F8460084F83E0084F83F0084F810
:101D0000400084F8410084F8420084F8430084F8DD
:101D1000440084F8450084F83D00002010BD000018
:101D2000F0B587B0044614216846FEF781FA3D48B5
:101D3000226800243B49103802253B4EB2F1804F07
:101D400014D03A4B9A4246D1086840F0020008602D
:101D50000868002200F00200059011461D20FFF7E0
:101D600025FC1D20FFF715FC07B0F0BD0A6842F006
:101D700001020A60096801F001010591016841F062
:101D800002010160016801F002010591016841F062
:101D900001010160006802AA00F0010005904FF403
:101DA0008160CDE90005012782E8B000694620483E
:101DB000FFF77CFAF803CDE9000502AA694682E83C
:101DC000B0003046FFF772FA002211461C20FFF7E0
:101DD000EDFB1C20C6E717498A42C5D11149091DF0
:101DE0000A6842F002020A60096801F002010591E6
:101DF000016841F0010101600068694600F00100DE
:101E0000059040200090CDE901540320CDE9034026
:101E10003046FFF74BFA002211462B20FFF7C6FB96
:101E20002B209FE7403802400000024000040040A1
:101E3000000402400004014090F83D10012901D047
:101E400001207047022180F83D100168CA6842F005
:101E50000102CA6000681149884214D0B0F1804F75
:101E600011D00F4988420ED00E4988420BD00E493E
:101E7000884208D00D49884205D00D49884202D0D9
:101E80000C49884204D1816801F00701062903D07A
:101E9000016841F00101016000207047000001402D
:101EA0000004004000080040000C00400004014015
:101EB000004001400018004070B5044690F83C0016
:101EC0000025012817D0012684F83C60022084F800
:101ED0003D002068826822F0770222F47F4282600F
:101EE0000868502838D00DDC20284FD005DC90B38E
:101EF000102811D14AE0022070BD302846D0402879
:101F00000AD13BE060282FD070280DD0B0F5805F5B
:101F100003D0B0F5005F12D0012584F83D600020A9
:101F200084F83C00284670BDCB68D1E901212068C7
:101F300001F0DDFC2068816841F0770109E0CB68A1
:101F4000D1E90121206801F0D2FC2068816841F4C8
:101F500080418160E1E719E0CA684968206801F0C2
:101F60009BFD5021206806E0CA684968206801F09E
:101F7000E5FD6021206801F0C4FCCEE7CA6849682D
:101F8000206801F089FD40212068F4E722680146BD
:101F90001046F0E70268506820F080000843506067
:101FA000002070472DE9F041964C974DDFF85C8298
:101FB000617899B30068B0F1804F6FD12915284638
:101FC000FFF76CFA01270026012845D06671082129
:101FD0002846FFF763FA012841D026714FF40041EB
:101FE0004046FFF75BFA01283BD0E67000212079DC
:101FF000A0B3002211406279012A37D00023194290
:1020000036D00021824800F0BDFB0421804800F05A
:102010001DFC08217E4800F019FCC4E0FFE7002108
:102020007B4800F013FC0421794800F00FFC0821E4
:10203000774800F00BFC002280214046FFF733FA7E
:10204000002201212846FFF72EFA2846BDE8F0417C
:1020500000220221FFF727BA6771B8E704E0277171
:10206000BCE7E7700121C2E70122C3E70123C6E70D
:10207000E178012910D0002388B100273B4082B1CC
:1020800000273B420FD00021614800F07BFB042178
:102090005F4800F0DBFB19E00123EDE7A7E0012733
:1020A000ECE70127EDE7012920D0002301281FD00C
:1020B00000273B40F2B100273B421DD0002154488D
:1020C00000F0C4FB0421524800F05CFB082150489A
:1020D00000F0BCFB002280214046FFF7E4F900221B
:1020E00001212846FFF7DFF9012267E00123DDE740
:1020F0000127DEE70127DFE7A9B10023012814D07B
:1021000000273B409AB100273B4212D000214048B3
:1021100000F09CFB04213E4800F034FB08213C48C1
:1021200000F094FB1CE00123E8E70127E9E7012721
:10213000EAE7E1B1002301281BD000273B40012A38
:1021400019D000273B4218D00021314800F07EFB17
:1021500004212F4800F07AFB08212D4800F012FBE3
:10216000012280214046FFF79EF9002221E0012351
:10217000E1E70127E2E70127E4E7D1B30021C8B393
:1021800000200140012A3AD0002001421AD000214B
:102190001F4800F05BFB04211D4800F057FB08219D
:1021A0001B4800F0EFFA002280214046FFF77BF940
:1021B000012201212846FFF776F900220221284654
:1021C000FFF771F96069401C60610F280FD194ED31
:1021D000040AB2EE0E1AF8EEC00A80EE810AF3EE9F
:1021E000080A80EE801A84ED031A26616661BDE854
:1021F000F08100E001E00121C1E70120C1E70120F9
:10220000C3E700005000002000040240000002402C
:10221000BC0100202DE9F041054690F83C00002665
:102220000C46012810D0012085F83C0072B1042A28
:102230001CD0082A2CD00C2A50D00126002085F86A
:102240003C003046BDE8F0810220FBE7D4E90012F3
:10225000E368286801F032FC2868816921F00C01EC
:10226000816128688169A26811430FE0D4E90012F6
:10227000E368286801F074FC2868816921F44061F2
:10228000816128688169A26841EA02218161D5E7FC
:102290002868D4E9002C277B016A21F4807101624F
:1022A000C169036A21F0030141EA0C0121F0F00C3D
:1022B00039074FF420674CEA116123F4206307EAE1
:1022C00002221A43C16102622868C16921F00C012F
:1022D000C1612868C169A268114328E02868D4E96F
:1022E0000027E168036A23F480530362D0F81CC01E
:1022F000036A2CF4407C4CEA07274FF6FF7C27F456
:1023000070470CEA013139434FF4204723F420434E
:1023100007EA02321A43C16102622868C16921F4E6
:102320004061C1612868C169A26841EA0221C161B6
:1023300084E710B5040003D094F83D0010B107E025
:10234000012010BD002084F83C00204600F01EF85B
:10235000022084F83D00211D206801F057FA012079
:1023600084F8460084F83E0084F83F0084F840007A
:1023700084F8410084F8420084F8430084F8440063
:1023800084F8450084F83D00002010BD704700002F
:1023900030B50446002551B104290DD0082910D0CC
:1023A00094F8410094F84520012811D10EE094F8EA
:1023B0003E0094F84220F7E794F83F0094F8432059
:1023C000F2E794F8400094F84420EDE7012A01D0A8
:1023D000012030BD022059B1042912D0082919D09A
:1023E00084F8410084F845000C2944D0012540E0E0
:1023F00084F83E0084F842002068C26842F002027D
:1024000010E084F83F0084F843002068C26842F07E
:10241000040207E084F8400084F844002068C268A1
:1024200042F00802C2600122206801F053FA144908
:102430002068884214D0B0F1804F11D011498842F1
:102440000ED0114988420BD01049884208D010495B
:10245000884205D00F49884202D00F49884204D1F2
:10246000816801F00701062903D0016841F00101EC
:102470000160284630BD2068C26842F01002D1E7F2
:10248000000001400004004000080040000C004033
:1024900000040140004001400018004070B50446AF
:1024A000006801694FF00005C943890715D4C16868
:1024B000C943890711D4E91E0161012020772068F2
:1024C00080698007204602D0FFF76CFD04E000F031
:1024D000C3F8204600F055F9257720680169C94303
:1024E000490717D4C168C943490713D46FF00401E1
:1024F0000161022020772068806910F4407F204627
:1025000002D0FFF74FFD04E000F0A6F8204600F0EF
:1025100038F9257720680169C943090716D4C168CD
:10252000C943090712D46FF0080101610420207724
:102530002068C0698007204602D0FFF733FD04E021
:1025400000F08AF8204600F01CF925772068016920
:10255000C943C90617D4C168C943C90613D46FF06B
:1025600010010161082020772068C06910F4407FC5
:10257000204602D0FFF716FD04E000F06DF820467B
:1025800000F0FFF8257720680169C943C90708D121
:10259000C168C943C90704D1891E0161204600F002
:1025A00093F920680169C943090609D4C168C94380
:1025B000090605D46FF0800101612046FFF7DEFABD
:1025C00020680169C943490609D4C168C94349065D
:1025D00005D46FF040010161204600F0A9F92068A0
:1025E0000169C94389060BD4C168C943890607D468
:1025F0006FF0200101612046BDE87040FFF7EEBAA0
:1026000070BD000010B586B0044614216846FDF781
:102610000FFE0E492068884216D10D48002102683D
:1026200042F004020260006800F0040005904FF4DC
:10263000E07000900220CDE9010103200390049096
:1026400069460448FEF732FE06B010BD00040140A2
:102650003038024000080240704770B5044690F8D8
:102660003C0000260D4601280FD0012084F83C00D4
:102670006AB1042A1DD0082A2FD00C2A3FD0012687
:10268000002084F83C00304670BD022070BD2068F8
:1026900001F040F92068816941F0080181612068FA
:1026A000816921F004018161206881692A691143EF
:1026B00011E0206801F05EF92068816941F4006151
:1026C00081612068816921F480618161206881696C
:1026D0002A6941EA02218161D2E7206801F080F98C
:1026E0002068C16941F00801C1612068C16921F019
:1026F0000401C1612068C1692A69114311E02068A1
:1027000001F0A2F92068C16941F40061C16120684B
:10271000C16921F48061C1612068C1692A6941EA07
:102720000221C161ACE710B5040003D094F83D006C
:1027300010B107E0012010BD002084F83C002046C5
:1027400000F01EF8022084F83D00211D206801F0F1
:102750005DF8012084F8460084F83E0084F83F00CC
:1027600084F8400084F8410084F8420084F8430073
:1027700084F8440084F8450084F83D00002010BD32
:102780007047704710B50446022249B104290ED0A3
:10279000082913D094F84100012816D0012010BD5B
:1027A00094F83E000128F9D184F83E200FE094F817
:1027B0003F000128F2D184F83F2008E094F840005F
:1027C0000128EBD184F8402001E084F84120012267
:1027D000206801F07FF816492068164A884201D027
:1027E000904203D1436C43F4004343642068884221
:1027F00013D0B0F1804F10D00F4988420DD00F494F
:1028000088420AD00E49884207D0904205D00D492F
:10281000884202D00C49884204D1816801F0070146
:10282000062903D0016841F001010160002010BDBC
:102830000000014000040140000400400008004086
:10284000000C0040004001400018004030B5044634
:102850000D460068002201F03DF8194B41F21111BC
:1028600020688A10984202D0164B984209D1036A18
:102870000B4206D1036A134203D1436C23F4004395
:1028800043642068036A0B4206D1016A114203D1F6
:10289000016821F00101016001203DB1042D08D043
:1028A000082D09D084F84100002030BD84F83E0096
:1028B000FAE784F83F00F7E784F84000F4E7000007
:1028C000000001400004014010B50068154988422D
:1028D00026D115480169491C0161B1F5487F03DD26
:1028E0009FED120A80ED030A0189491C89B201811A
:1028F0000A2915D10021018101F0A8FF01F01EFF76
:1029000001F0E4FF01F052FF01F098FF01F060FFD9
:1029100001F034FF01F0ACFFBDE8104001F018BF3A
:1029200010BD000000040040500000200000000026
:102930007047704770470000F8B5016804460868A2
:10294000CA684B6910F00F0F4FF000055AD003F022
:10295000010602F49077374365D0C10705D0D10551
:1029600003D5216C41F001012164410705D5D90748
:1029700003D0216C41F002012164810705D5D907FC
:1029800003D0216C41F004012164010707D502F056
:102990002001314303D0216C41F008012164216CF6
:1029A00000293BD0800604D5900602D5204601F0D0
:1029B00021F920684069216CC0F3801001F0080102
:1029C000014320462BD001F0EEF820684069400614
:1029D00021D52068143050E8001F21F0400140E864
:1029E0000012002AF5D1A06BA8B16C490165A06B5B
:1029F000FEF7C5FA002811D0A06B016D01B0BDE84B
:102A0000F040084783060ED593060CD52046BDE856
:102A1000F84001F0EFB82046FFF78CFFF8BDFFF754
:102A200089FF2564F8BD266B2023012E79D1C606C7
:102A300077D5D60675D5086848680090486940067D
:102A400040D5A16B086840680004000CEAD0A28D54
:102A50008242E7D9E085C869B0F5807F2DD0206833
:102A60000C3050E8001F21F4807140E80012002A69
:102A7000F5D12068143050E8001F21F0010140E832
:102A80000012002AF5D12068143050E8001F21F010
:102A9000400140E80012002AF5D184F83E30256359
:102AA00020680C3050E8001F21F0100140E80012AF
:102AB000002AF5D1A06BFEF719FAA08DE18D401A1E
:102AC00081B229E0A08DE18D401A81B2E08D00280D
:102AD000A8D00029A6D020680C3050E8002F22F49E
:102AE000907240E80026002EF5D12068143050E89E
:102AF000002F22F0010240E80026002EF5D184F8D4
:102B00003E30256320680C3050E8002F22F0100280
:102B100040E80023002BF5D12046FFF70AFFF8BD5F
:102B2000FFE705062BD5150629D594F83D00212889
:102B3000F5D1A068B0F5805F01D12069B0B1206AFD
:102B4000411C2162216800784860E08C401E00042E
:102B5000000CE084E3D12068C16821F08001C160ED
:102B60002068C16841F04001C160D8E7206A008850
:102B7000C0F308004860206A801C2062E5E7400638
:102B8000CDD55006CBD5CA68204622F04002CA6097
:102B900084F83D3000F0CFF8C1E70000973B000813
:102BA00070B5040004D094F83D00002510B106E093
:102BB000012070BD84F83C50204600F023F824200A
:102BC00084F83D002068C16821F40051C1602046AE
:102BD00001F070F82068016921F4904101612068DA
:102BE000416921F02A0141612068C16841F4005126
:102BF000C1602564202084F83D0084F83E00002058
:102C000070BD000010B586B0044614216846FDF77B
:102C10000FFB18492068884229D117480021026813
:102C200042F010020260006800F0100005901248A7
:102C30001438026842F001020260006800F00100EE
:102C400005904FF4C06000900220CDE901010320FF
:102C500003900720049069460848FEF727FB0022EE
:102C600011462520FEF7A2FC2520FEF792FC06B0B7
:102C700010BD000000100140443802400000024036
:102C8000704700002DE9F843044690F83D001F46C8
:102C900016460D4620284CD1C5B1BEB194F83C0073
:102CA000012846D0012084F83C004FF00008C4F809
:102CB0004080212084F83D00FEF7FAFBA68481467F
:102CC000E684A068B0F5805F03D004E00120BDE891
:102CD000F883206928B12E465FF0000584F83C8017
:102CE0000EE00026FAE78021204601F069F8A0B93D
:102CF000AEB116F8010B21684860E08C401EE084FC
:102D0000E08C4B464FF0000200970028EBD14FF0CB
:102D10004001204601F054F830B10320D7E735F8E0
:102D2000020BC0F30800E6E7202084F83D000020F5
:102D3000CDE70220CBE77047FEE7000070B50646FE
:102D4000002440F23F11204600F052F900F08CFAC6
:102D50004FF49635304600F05DFA641CAC42F9D36E
:102D6000BDE8704001221103014800F03FB80000A7
:102D7000000802401A4810B5016886B041F004010D
:102D80000160016801F004010591016841F0020150
:102D900001600068694600F0020005900120019082
:102DA0000290000300900F48FEF780FA20200E4C9E
:102DB000009069462046FEF779FA0022202120463D
:102DC000FEF771FB002141F28830491C8142FCD39F
:102DD000012220212046FEF766FB06B010BD000050
:102DE000303802400008024000040240FEF75BBB9E
:102DF000203AD2B2034B02EB420203EB021200F084
:102E00001BB800000C4C00082DE9F041002500EB38
:102E100040000E462C46C70007E0F8B22146FFF7F7
:102E2000E7FF10346D1CA4B2761C3278002A01D062
:102E3000142DF2D3BDE8F0812DE9F05FA1F23F112E
:102E4000C1F1000A9146002604461FFA8AF100F0FB
:102E5000CFF80127DFF84C804FF4805B00F004FAD4
:102E60005FF0000539F8160007FA05F10842404600
:102E700001D1408800E0008800F0CCF96D1C102DD5
:102E8000F0D3012259460848FFF7B0FF641CE4B2B2
:102E90001FFA8AF1204600F0ABF8761C182EDDD31D
:102EA000BDE8F09F00000020000802402DE9F0413D
:102EB00007460A24B2FBF4F0164604FB10603030DB
:102EC000C2B20D46C1F5C07081B23846FFF790FF1F
:102ED000B6FBF4F6B6FBF4F004FB10603030C2B27F
:102EE000C5F5B87081B23846FFF782FFB6FBF4F63D
:102EF000B6FBF4F004FB10603030C2B2C5F5B07020
:102F000081B23846FFF774FFB6FBF4F6B6FBF4F077
:102F100004FB10603030C2B2C5F5A87081B23846EB
:102F2000FFF766FFB6FBF4F0B0FBF4F104FB110011
:102F30003030C2B2C5F5A07081B23846BDE8F0416C
:102F4000FFF756BF70B5274886B0016841F004010D
:102F50000160016801F004010591016841F002017E
:102F60000160016801F002010591016841F008016A
:102F70000160016801F008010591016841F040011C
:102F800001600068184E00F0400005900120C40365
:102F900001900290694600943046FEF787F9A5112A
:102FA000694630460095FEF781F980200090694619
:102FB0003046FEF77BF9FF20009069460B48FEF78C
:102FC00075F9012280213046FEF76DFA012229466B
:102FD0003046FEF768FA012221463046FEF763FAD2
:102FE00006B070BD30380240000C024000180240AC
:102FF00010B50C460146202000F044F92146BDE8FA
:103000001040212000F03EB901B5BDF80000014993
:10301000088008BD0000002010B5FFF7ABFEFFF7E9
:1030200091FF0A2001F060FC0121002000F02AF944
:103030004FF48071012000F025F94FF4E061022087
:1030400000F020F941F23001032000F01BF90021CB
:10305000042000F017F940F20221082000F012F9D4
:103060000021092000F00EF900210A2000F00AF9E1
:1030700000210C2000F006F900210D2000F002F9DB
:1030800000210F2000F0FEF80021102000F0FAF8D7
:103090000021112000F0F6F80021122000F0F2F8D3
:1030A0000021132000F0EEF80A2001F01DFC41F28F
:1030B000B071102000F0E6F840F23711112000F056
:1030C000E1F80A2001F010FC40F23911122000F062
:1030D000D9F80A2001F008FC4FF4E851132000F061
:1030E000D1F81321292000F0CDF80A2001F0FCFBD3
:1030F0000021202000F0C6F80021212000F0C2F8B5
:103100000621302000F0BEF840F20111312000F01D
:10311000B9F80321322000F0B5F84FF4837135205F
:1031200000F0B0F840F60231362000F0ABF840F283
:103130000231372000F0A6F840F20771382000F085
:10314000A1F80721392000F09DF84FF4C0613C2020
:1031500000F098F840F20B213D2000F093F8002198
:10316000502000F08FF8EF21512000F08BF8002163
:10317000522000F087F840F23F11532000F082F80F
:103180004FF42741602000F07DF80121612000F01C
:1031900079F800216A2000F075F80021802000F005
:1031A00071F80021812000F06DF80021822000F0EC
:1031B00069F80021832000F065F80021842000F0E8
:1031C00061F80021852000F05DF81021902000F0CA
:1031D00059F80021922000F055F80321932000F0C7
:1031E00051F84FF48871952000F04CF80021972099
:1031F00000F048F80021982000F044F841F218014E
:10320000032000F03FF8BDE8104040F273110720A2
:1032100000F038B82DE9F041114E0446012280211A
:103220003046FEF740F90F4D200A28604FF4004762
:10323000002239463046FEF736F90122394630463B
:10324000FEF731F92C60002239463046FEF72BF9A3
:1032500039463046BDE8F0410122FEF724B90000AE
:10326000000C02401418024010B5222000F046F86D
:10327000BDE8104000224FF480510148FFF7B6BD71
:10328000000802402DE9F0470C4600F037F8DFF85F
:1032900060804FF48056002231464046FFF7A6FD7D
:1032A000DFF85090012280214846FEF7FCF8124DCD
:1032B000200A2860F700002239464846FEF7F3F856
:1032C000012239464846FEF7EEF82C6000223946C6
:1032D0004846FEF7E8F8012239464846FEF7E3F88B
:1032E00031464046BDE8F0470122FFF77FBD0000B0
:1032F00000080240000C0240141802402DE9F0477B
:10330000DFF8688007464FF4805500222946404682
:10331000FFF76CFDDFF85890002280214846FEF749
:10332000C2F8144C002020600246EE0031464846A8
:10333000FEF7B9F8012231464846FEF7B4F8276097
:10334000002231464846FEF7AEF801223146484693
:10335000FEF7A9F8012280214846FEF7A4F8294685
:103360004046BDE8F0470122FFF740BD000802409B
:10337000000C0240141802407FB500241548009448
:10338000019402941249039401604FF48031C0E922
:10339000011401250461057680F820400E49C0E93A
:1033A0000A14C561C46080F830504561FDF747FCE0
:1033B00008B172B6FEE70E20CDE900056946029419
:1033C0000448FDF793FB002801D072B6FEE77FBDED
:1033D000002001409C0000200100000F7FB5002468
:1033E00015480094019402941249039401604FF42B
:1033F0008031C0E901140461047680F820400F494F
:10340000C0E90A140125C561C46080F830504561E7
:10341000FDF715FC08B172B6FEE70720CDE90005FF
:10342000694602940448FDF761FB002801D072B69A
:10343000FEE77FBD00220140E40000200100000FF4
:103440002DE9F04186B014216846FCF7F1FE2E48C4
:103450004FF00008016841F020010160016801F0AF
:1034600020010591016841F080010160016801F0CF
:1034700080010591016841F001010160016801F0DE
:1034800001010591016841F004010160016801F04A
:1034900004010591016841F002010160016801F039
:1034A00002010591016841F0400101600068174E7A
:1034B00000F040000590002280213046FDF7F3FF28
:1034C000134F002203213846FDF7EDFF0124802031
:1034D000CDE90004032569463046CDE90245FDF7F4
:1034E000E5FECDE9005469463846CDE90245FDF7D1
:1034F000DDFEA002CDE90008694602940548FDF70B
:10350000D5FE06B0BDE8F081303802400000024030
:10351000000402400018024010B58AB000242F4871
:1035200004940594069407940894099400940194D3
:1035300002944FF08041039401605321C0E90114CB
:103540004FF6FF71C0E9031480218161FEF7BAFBD9
:1035500008B172B6FEE74FF48050049004A91F48EA
:10356000FEF7AAFC08B172B6FEE71C48FEF7E1FEC2
:1035700008B172B6FEE7089408A918480994FEF746
:1035800059FB08B172B6FEE70A2000900120CDE990
:10359000010408200390002269461048FEF73AFE15
:1035A00008B172B6FEE7042269460C48FEF732FE07
:1035B00008B172B6FEE7082269460848FEF72AFEFF
:1035C00008B172B6FEE780210448FEF7E3FC00284C
:1035D00001D072B6FEE70AB010BD00002C01002039
:1035E00010B586B000241748009401940294039407
:1035F000049413490594016042F2CF01C0E901141B
:103600000921C0E9031480218161FEF75BFB08B149
:1036100072B6FEE74FF48050009069460948FEF705
:103620004BFC08B172B6FEE7049404A90548059462
:10363000FEF700FB002801D072B6FEE706B010BD11
:10364000000400407401002030B595B000240F94B0
:1036500010941194129413941C2168461494FCF74E
:10366000E7FD202107A8FCF7E3FD31482F49C0E919
:10367000001442F2D001C0E9024180210461C0E996
:103680000541FEF71FFB08B172B6FEE74FF4805507
:103690000FA927480F95FEF70FFC08B172B6FEE799
:1036A0002348FFF740F808B172B6FEE7139413A958
:1036B0001F481494FEF7BEFA08B172B6FEE7602008
:1036C000CDE9000402940394049405940022694611
:1036D00017480694FEF7C1FF08B172B6FEE7042250
:1036E00069461348FEF7B9FF08B172B6FEE7082233
:1036F00069460F48FEF7B1FF08B172B6FEE74FF416
:10370000006007904010CDE90804CDE90A450C940B
:1037100007A907480E94FEF762FA08B172B6FEE7F1
:103720000348FEF76FFF15B030BD000000040140F4
:10373000BC010020FEE7FEE77047FFF76DBC704755
:10374000FDF7BCBE30B593B030216846FCF770FD84
:1037500014210CA8FCF76CFD1D480025016841F000
:1037600080510160006800F0805011901948016894
:1037700041F4804101600068022400F4804011900F
:103780000120039010200490009406940820CDE9B5
:103790000750A820CDE9090404200B906846FEF7E5
:1037A00023F808B172B6FEE70CA90F2081E83100BA
:1037B0004FF4A0500F904FF48050109005210CA8AA
:1037C000FDF726FF002801D072B6FEE713B030BD2A
:1037D00040380240007000400248016841F4700126
:1037E0000160704788ED00E00148FEF757BE000019
:1037F0002C0100200148FEF751BE0000740100209A
:103800000148FEF74BBE0000BC010020F0B5026885
:10381000254C264D264E274F274B4FF0804CA0427B
:1038200009D0604507D0A84205D0B04203D0B842C5
:1038300001D0984204D122F0700E4A6842EA0E028A
:10384000A0421BD0604519D0A84217D0B04215D075
:10385000B84213D0984211D0184DA8420ED0184D3E
:10386000A8420BD0174DA84208D0174DA84205D04A
:10387000164DA84202D0164DA84203D122F440753D
:10388000CA682A434D6922F080022A4302608A688E
:10389000C2620A688262A04201D0984201D10969DD
:1038A000016301214161F0BD0000014000040040BE
:1038B00000080040000C00400004014000400140AE
:1038C000004401400048014000180040001C004036
:1038D0000020004010B501F01F030121046A994047
:1038E0008C430462016A9A401143016210BD10B515
:1038F000846842EA032224F47F440A43224382601C
:1039000010BD826822F070020A4342F00701816014
:1039100070470000F0B5026A22F001020262036AF9
:1039200042688469124E24F073050C682C4323F01E
:1039300002058B682B430D4DA84201D0B04205D142
:1039400023F00807CB683B4323F00403A84201D0CF
:10395000B04205D14D6922F4407215438A692A4369
:1039600042608461496841630362F0BD0000014028
:1039700000040140F0B5026A22F010020262026AFD
:10398000436884690D6824F4E64444EA05248D689C
:1039900022F0200242EA05120F4D104EA84201D03B
:1039A000B04206D1CF6822F0800242EA071222F02C
:1039B0004002A84201D0B04207D14D6923F44063D0
:1039C00043EA85038D6943EA85034360846149685E
:1039D00081630262F0BD000000000140000401406C
:1039E000F0B5026A22F480720262026A4368C46916
:1039F00022F4007224F073050C68124E2C438D687B
:103A000042EA05220E4DA84201D0B04206D1CF684D
:103A100022F4006242EA072222F48062A84201D026
:103A2000B04207D14D6923F4405343EA05138D6931
:103A300043EA05134360C4614968C1630262F0BD93
:103A4000000001400004014030B5026A22F48052B7
:103A50000262046A4268C3690D6823F4E64343EADC
:103A600005238D6824F4005444EA0534084DA84227
:103A700002D0084DA84204D14D6922F4804242EAA6
:103A800085124260C36149680164046230BD000070
:103A9000000001400004014010B5036A046A24F0EC
:103AA00001040462846924F0F00444EA021423F05F
:103AB0000A020A438461026210BD000070B5046A04
:103AC00024F0010404628469056A154EB04214D0E2
:103AD000B0F1804F11D0134EB0420ED0124EB04212
:103AE0000BD0124EB04208D0114EB04205D0114E4C
:103AF000B04202D0104EB04203D124F0030414436C
:103B000001E044F001041A0724F0F00444EA1262D0
:103B100025F00A0301F00A0119438261016270BDB8
:103B2000000001400004004000080040000C00407C
:103B300000040140004001400018004010B5036A35
:103B400023F0100303628369046A23F4704343EA99
:103B5000023224F0A00343EA01118261016210BD28
:103B600030B5046A24F0100404628469056A24F400
:103B7000407444EA022222F470444FF6FF7202EAD3
:103B800003322243A02425F0A00304EA01111943C3
:103B90008261016230BD10B5806B0021C185C18496
:103BA000FEF7C8FE10BD01680C3151E8002F22F469
:103BB000907241E80023002BF5D10168143151E8DF
:103BC000002F22F0010241E80023002BF5D1016B08
:103BD000012909D101680C3151E8002F22F01002AF
:103BE00041E80023002BF5D1202180F83E10002170
:103BF0000163704708B590F83E10222901D00220D9
:103C000008BD82684FF480539A4201D1016921B105
:103C1000816A9A421BD04AB10AE00268816A5268FE
:103C2000C2F308020A80816A891C08E0026972B145
:103C30000268526802F07F020A70816A491C816240
:103C4000C18D491E0904090CC18503D019E0026821
:103C50005268F1E70168CA6822F02002CA60016870
:103C6000CA6822F48072CA6001684A6922F00102BF
:103C70004A61202180F83E10016B012903D0FEF734
:103C8000FFFF002008BD0021016301680C3151E8ED
:103C9000002F22F0100241E80023002BF5D101682B
:103CA0000A68D20602D50A6849680091818DFEF73C
:103CB00040FEE6E770B5044600680169E26821F459
:103CC0004051114301612169A068E26908436169BB
:103CD000114308432168CA6849F20C639A430243BE
:103CE000CA6020684169A26921F4407111434161B1
:103CF00031492068884202D03049884202D1FDF71C
:103D000031FD01E0FDF71EFDE26900231921642564
:103D10003226B2F5004F626828D0A0FB0101930F54
:103D20009200FCF74DFA0146B0FBF5F06FF0180277
:103D3000504301EB800006EB0010B0FBF5F000F003
:103D4000F002B1FBF5F002EB0012B1FBF5F06FF001
:103D50001803584301EB800006EB0010B0FBF5F0B0
:103D600000F00F0021681044886070BDA0FB0101C5
:103D700092185B41FCF724FA0146B0FBF5F0020112
:103D8000B1FBF5F06FF01803584301EB800006EB30
:103D9000C000B0FBF5F000F0F80002EB4002B1FB10
:103DA000F5F0584301EB800006EBC000B0FBF5F0E6
:103DB00000F00700D6E700000010014000140140A9
:103DC0002DE9F041984617460E460446069D27E029
:103DD000681C25D02DB1FDF76BFBA0EB0800A842B5
:103DE0001ED920680C3050E8001F21F4D07140E843
:103DF0000012002AF5D12068143050E8001F21F08D
:103E0000010140E80012002AF5D1202084F83D008D
:103E100084F83E00002084F83C000320BDE8F081D7
:103E20002068006836EA000004D00020B842CFD0F5
:103E30000020F3E70120F9E70148FEF77DBD00000F
:103E400004020020FEE700000FB4054B10B503A9E3
:103E5000044A029800F0DAF810BC5DF814FB000088
:103E600005490008980000200907090E002804DB16
:103E700000F1E02080F80014704700F00F0000F11E
:103E8000E02080F8141D704702E008C8121F08C126
:103E9000002AFAD170477047002001E001C1121FCB
:103EA000002AFBD1704700002DE9FF5FDDE9022009
:103EB000010DDDF838B0024318D044F61050A1F2DD
:103EC000FF3141430D140F98012820D0A5EB0B00C2
:103ED000401C5FEA000A4FF00004474EDFF81C91D7
:103EE000A046504616D5CAF1000728E00F980124D5
:103EF00043A2012808D0002100980F9BC0E90021AF
:103F0000C0E90243BDE8FF9F6FEA0B01F4E7CBF184
:103F10000000DEE7074612E0F80707D022463346E6
:103F200040464946FCF736FA8046894622463346E3
:103F300010461946FCF72EFA04460E467F10002F55
:103F4000EAD1DDE90201BAF1000F42464B4602DA3E
:103F5000FCF720FA01E0FCF78FFA04460E46002237
:103F6000284BFCF749FB03D84FF0FF30014607E030
:103F70000022254B20463146FCF765F9FCF74BFC47
:103F8000102409E0002C0ADB0A220023FCF718F9B0
:103F9000019B30321A55641E50EA0102F2D1641CB2
:103FA000019AC4F1110314440F9A012A03D001228B
:103FB00008430DD10AE0084304D000204FF0110B54
:103FC0000F9080E7A3EB0B056D1E0DE05B4504DD54
:103FD0004FF0000205F1010504E003DA4FF00002A2
:103FE000A5F10105002AECD000980F99C0E9023133
:103FF000C0E9004586E70000000024400000F03FD3
:10400000300000000000F0430000E03F2DE9FF4FCA
:1040100095B09B468946064600250FE2252877D1B4
:1040200000242746F84A0121059400E0044316F8CD
:10403000013F203B01FA03F01042F7D130782A28E3
:1040400011D06FF02F033078A0F13002092A16D872
:10405000059A44F0020402EB820203EB4202104490
:10406000761C0590EFE759F8042B0592002A03DA35
:10407000504244F40054059044F00204761C307819
:104080002E2816D116F8010F44F004042A280DD06A
:104090006FF02F023078A0F13003092B09D807EB1D
:1040A000870302EB4303C718761CF3E759F8047B38
:1040B000761C30786C280FD006DC4C2817D0682886
:1040C0000DD06A2814D104E0742810D07A280FD1BA
:1040D0000DE044F400140AE044F4801401E044F4D8
:1040E00040147278824202D104F58014761C761C4A
:1040F000307866280BD013DC582877D009DC0028EC
:1041000075D04528F6D04628F4D047281AD19DE12D
:1041100018E0632835D0642879D0652812D195E15C
:10412000702873D008DC6728F1D069286FD06E281A
:104130000DD06F2806D1B5E073282CD0752875D026
:10414000782874D05A46179990476D1C75E1C4F3CE
:104150000250022809D003280DD0D9F800100428F5
:104160000DD00D6009F1040967E1D9F80010EA17D4
:10417000C1E90052F6E7D9F800100D80F2E70D70A2
:10418000F0E719F8041B8DF8001000208DF80100ED
:10419000EA46012003E059F804AB4FF0FF30610715
:1041A0004FF0000102D40DE008F101018846B94248
:1041B0000FDA8045F8DB1AF808100029F4D108E07E
:1041C00008F1010188468142FADB1AF8081000293B
:1041D000F6D105985B46A0EB080721463846179AAA
:1041E00000F094FA284400EB080507E04DE029E1CF
:1041F0000DE01AF8010B5A4617999047B8F10108DB
:10420000F7D25B4621463846179A13E142E00A226C
:104210000092C4F302524FF0000A022A08D059F863
:1042200004CB032A4FEAEC710AD00DE029E02AE022
:1042300009F1070121F00702F2E802C1914609E005
:104240000FFA8CFC4FEAEC71042A03D14FFA8CFC74
:104250004FEAEC71002907DA0A460021DCF1000C74
:1042600061EB02012D2202E0220504D52B228DF8FC
:104270000420012203E0E20701D02022F7E7904664
:1042800059E00A2102E010220DE010214FF0000A4F
:1042900000910BE010224FF0000A44F004040827BC
:1042A000009203E008224FF0000A0092C4F3025289
:1042B000022A05D059F804CB0021032A08D009E0CE
:1042C00009F1070121F00702F2E802C1914605E079
:1042D0001FFA8CFC042A01D10CF0FF0C4FF00008EF
:1042E000220728D5702806D0009B83F0100353EADC
:1042F0000A0305D00EE040228DF80420012208E0D8
:104300005CEA010206D030228DF804208DF8050009
:1043100002229046009B83F0080353EA0A030AD165
:104320005CEA010201D1620705D530228DF8042034
:104330004FF001087F1E582804D034A003900EA827
:1043400002900DE036A0F9E753466046009AFBF76D
:1043500037FF84460398825C0298401E02900270E8
:104360005CEA0100F0D1029806A9081A00F1200ABF
:10437000600702D524F4803400E00127574502DDB0
:10438000A7EB0A0000E0002000EB0A01009005986E
:104390004144401A0590E00306D45B462146179A33
:1043A000059800F0B3F90544002706E001A85A4635
:1043B000C05D179990476D1C7F1C4745F6DBE003F5
:1043C0000CD55B462146179A059800F09FF90544E5
:1043D00004E030205A46179990476D1C0099481EFA
:1043E00000900029F5DC08E0029802995A4600780E
:1043F000491C0291179990476D1CBAF10001AAF16E
:10440000010AF1DC65E10000092801003031323396
:104410003435363738396162636465660000000000
:1044200030313233343536373839414243444546EA
:104430000000000000F058F90544761C3078002890
:104440007FF4ECAD19B02846BDE8F08F620700D4C8
:10445000062709F1070222F0070CFCE80223E146D7
:1044600003F000485FEA080C02D00FF2702C0DE058
:104470005FEA045C02D50FF2682C07E05FEAC47CB7
:1044800002D00FF2602C01E0AFF2700C4FF0FF3859
:1044900023F00043CDF850C065280CD006DC452839
:1044A00009D046281DD047283DD13DE0662818D0C8
:1044B00067287ED138E00021112F01DB112000E0B8
:1044C000781CCDE9000106A90EA8FFF7EDFCDDE997
:1044D0000F010E9A03910021009207F1010A049145
:1044E0004DE04FF000400097CDE9011006A90EA85D
:1044F000FFF7DAFCDDE90F0203920E9B119900220F
:10450000DDF80CA00093049211B9791C00EB010AAC
:10451000B7EB0A0004D4C0F1FF3007F1010A0490A0
:10452000AAEB0700019044E0012F00DA01270021E7
:10453000112F01DD112000E03846CDE9000106A968
:104540000EA8FFF7B1FCDDE90F010E9A03910021DF
:1045500004910092BA4621070CD40399514500DA20
:104560008A46BAF1010F05DD009AAAF10101515CFA
:10457000302908D0B84202DA10F1040F06DA01211E
:10458000CDE9011015E0AAF10101E9E7002805DCF9
:10459000049901440491AAEB000102E0411C514539
:1045A00000DD8A460499401A401C01904FF00040FB
:1045B0000290200704D40198504501DBCDF8048017
:1045C00000208DF84F0002980DF14F07B0F1004F19
:1045D00025D02B200E9002984FF0020800280CDA0C
:1045E000404202902D200E9007E00A210298FCF72D
:1045F00037F83031029007F8011DB8F10001A8F139
:104600000108F2DC02980028EFD1791E0E9808709C
:10461000307800F0200040F0450007F8020D12A8A5
:10462000C01B00F107081498007800B1012000EBCE
:104630000A01019801EBE07105984144401A401EBF
:104640000590E00306D45B462146179A059800F0D2
:104650005DF805441498007818B15A4617999047A8
:104660006D1CE00324D55B462146179A059800F09F
:104670004DF805441CE00498002807DBDDE9030140
:10468000884203DD0098405C179901E017993020BB
:104690005A469047049805F10105401C0490019882
:1046A000401E019004D12E205A46179990476D1C48
:1046B000BAF10001AAF1010ADDDC05E017F8010BEF
:1046C0005A46179990476D1CB8F10001A8F10108EE
:1046D000F4DC5B462146179A0598ABE62D000000F6
:1046E0002B000000200000002DE9F04104460025C9
:1046F0001E461746880404D405E039462020B047FA
:104700006D1C641EF9D52846BDE8F0812DE9F04105
:10471000044600251E469046C80301D5302700E018
:104720002027880404D505E041463846B0476D1C73
:10473000641EF9D52846BDE8F0810000024803490F
:1047400000684860704700006800002008000020F2
:1047500010B5094C94ED040B51EC100BFBF708FF5E
:104760002060002801DA002004E0B0F5805F02DB61
:1047700040F6FF70206010BD0800002010B50A4C04
:104780002DED028B94ED020B94ED088B53EC102B66
:1047900051EC180BFBF7F8FDC4E90E0184ED028B18
:1047A000BDEC028B10BD00000800002010B5074CC6
:1047B00094ED100B53EC102B94ED060B51EC100BF9
:1047C000FBF7E2FDC4E9080110BD0000080000206D
:1047D00010B5174C2DED048B94ED080B9FED128B4B
:1047E00053EC102B94ED0C0B9FED129B51EC100B26
:1047F000FBF729FD41EC100B53EC182B84ED0C0B4F
:10480000FBF7FAFE04D284ED0C8BBDEC048B10BDDB
:1048100094ED0C0B53EC192B51EC100BFBF7D4FE61
:10482000F3D284ED0C9BF0E70000000000E085402F
:10483000080000200000000000E085C0024890ED64
:10484000080B80ED0A0B704708000020064810B5E1
:10485000006800EB0010C0F3D320FBF77CFE034A96
:10486000C2E9060110BD0000680000200800002019
:1048700010B59FED110B124C53EC102B2DED028B4C
:1048800094ED0C0B51EC100BFBF784FD9FED0D0B21
:1048900041EC180B53EC102B94ED0A0B51EC100B60
:1048A000FBF778FD53EC182BFBF7CDFCC4E90401B2
:1048B000BDEC028B10BD00000000000000001440A1
:1048C000080000200000000000C06240044810B54D
:1048D0000068FBF766FE034AC2E9100110BD000044
:1048E0005C0000200800002001B581B00449019857
:1048F00048430090002801D0401EFAE70CBD00009C
:10490000A086010013B54FF6FF73012269460248E5
:10491000FEF7B8F900981CBD040200202DED048BB1
:1049200082B0FCF7D3FDFEF70DFFFEF789FD9D4831
:104930000025016841F48001016000682A4600F406
:104940008000009029463820FCF730FE3820FCF724
:1049500020FE002211463920FCF728FE3920FCF702
:1049600018FEFEF709FDFEF739FDFEF7D5FDFEF74F
:1049700037FEFEF769FE8D488B4901604FF4964182
:10498000C0E901150C21C560C0E904518561C5610C
:10499000FEF706F908B172B6FEE73820FCF7E8FD2D
:1049A000DFF808B2ABF1480BDBF80000C16841F05A
:1049B0008001C1600021ABF19000FDF7E9FC04210A
:1049C000ABF19000FDF7E4FC0821ABF19000FDF79E
:1049D000DFFC00215846FDF7D5FE04215846FDF7BF
:1049E000D1FE08215846FDF7CDFEABF14800FDF79A
:1049F00023FAFEF7A2FE6E480088FEF79FF91F20FB
:104A0000FEF702FB6B4C6CA10020A561FEF7FCF9E0
:104A10006AA10220FEF7F8F96AA10420FEF7F4F972
:104A20006CA10620FEF7F0F96CA10820FEF7ECF966
:104A30006D4FDFF8B8A1DFF8B8914FF480685D4999
:104A4000012218316B48FCF7A7F92070B0B9A069B2
:104A500058B16948DBF8002001685163DBF8002099
:104A60009163DBF80000C16308E0DBF800104D63E0
:104A7000DBF800108D63DBF80000C5634D495D482D
:104A800001221C314838FCF787F9A07030BB94ED47
:104A90000C0B94ED0A9B53EC102B51EC190BFBF70C
:104AA000D2FB94ED070A41EC180BB8EE400ADFED9B
:104AB000530A20EE200ADFED520A20EE200A10EE03
:104AC000100AFBF76EFD53EC192BFBF7D5FC53ECEA
:104AD000182BFBF75FFCFBF7A7FD2062464641461B
:104AE0003846FCF7DBFCC8B90520FCF7CDFB3146A6
:104AF0003846FCF7D3FC88B96078C0F10100C0B239
:104B0000607001280AD13B484830FDF74BFA052078
:104B1000FCF7BAFB37484830FDF744FA9AED000B32
:104B20004E468DED000B99ED000B36A053EC102B8B
:104B3000FFF78AF9E088142802D0401CE0807EE765
:104B4000C8211420A269FEF7B1F9A0696421484385
:104B500042F2D001B0FBF1F2C8214620FEF7A6F9DF
:104B600096ED000B51EC100BFBF702FD0246C8213D
:104B70007820FEF79BF994ED030AC821AA20BCEE29
:104B8000C00A10EE102AFEF791F994ED080AC82128
:104B9000DC20BCEEC00A10EE102AFEF787F9E58093
:104BA0004DE70000303802400010014004020020B0
:104BB000020000205000002052503A0050574D3A59
:104BC000000000004558504543544544205350458B
:104BD00045443A0053504545443A0000564F4C5422
:104BE0004147453A000000000018024048000020FC
:104BF00020000020E4000020080000200000803990
:104C000000404E4525662C25660D0A000000000078
:104C10000000000000000000000000000000000094
:104C20000000000000000000000000000000000084
:104C300000000000000000000000000000008001F3
:104C4000800180018001800180018001800180015C
:104C5000800180018001800100000000800180014E
:104C60000000000000000000000000000000000044
:104C7000CC00CC00CC00CC00CC00CC00000000006C
:104C80000000000000000000000000000000000024
:104C90000000000000000000000000000000000014
:104CA0000000000000000000600C600C600C30068A
:104CB0003006FE1FFE1F300638071803FE1FFE1FBA
:104CC000180318038C018C018C0100000000800087
:104CD000E003F80F9C0E8C1C8C188C009800F801D7
:104CE000E007800E801C8C188C189C18B80CF00FF4
:104CF000E0038000800000000000000000000000D1
:104D000000000E181B0C110C1106110611031103E3
:104D10009B018E01C038C06C604460443044304414
:104D20001844186C0C380000000000000000E0017E
:104D3000F0033807180618063003F001F000F800F9
:104D40009C310E33061E061C061C063FFC73F02128
:104D50000000000000000000000000000000000053
:104D60000C000C000C000C000C000C0000000000FB
:104D70000000000000000000000000000000000033
:104D80000000000000000000000000000000000221
:104D900000038001C000C0006000600030003000EF
:104DA0003000300030003000300030006000600023
:104DB000C000C000800100030002000000002000CD
:104DC0006000C000800180010003000300060006AF
:104DD00000060006000600060006000600030003A9
:104DE00080018001C0006000200000000000000081
:104DF0000000000000000000C000C000D806F80756
:104E0000E00130033807000000000000000000004F
:104E10000000000000000000000000000000000092
:104E2000000000000000000080018001800180017E
:104E30008001FC3FFC3F80018001800180018001F6
:104E40000000000000000000000000000000000062
:104E50000000000000000000000000000000000052
:104E600000000000000000000000000000008001C1
:104E7000800100010001800000000000000000002F
:104E80000000000000000000000000000000000022
:104E900000000000E007E007000000000000000044
:104EA0000000000000000000000000000000000002
:104EB00000000000000000000000000000000000F2
:104EC0000000000000000000000000000000C00022
:104ED000C000000000000000000000000000000C06
:104EE000000C000600060006000300030003800318
:104EF000800180018001C000C000C000600060002F
:104F00000000000000000000000000000000E003BE
:104F1000F007380E180C0C180C180C180C180C187C
:104F20000C180C180C180C18180C380EF007E003AD
:104F30000000000000000000000000000000000170
:104F40008001C001F0019801880180018001800189
:104F50008001800180018001800180018001800149
:104F60000000000000000000000000000000E0035E
:104F7000F80F180C0C180C1800180018000C00067C
:104F800000038001C000600030001800FC1FFC1FFF
:104F90000000000000000000000000000000E00130
:104FA000F807180E0C0C0C0C000C0006C003C00710
:104FB000000C001800180C180C18180CF807E00367
:104FC0000000000000000000000000000000000CD5
:104FD000000E000F000F800DC00C600C600C300C38
:104FE000180C0C0CFC3FFC3F000C000C000C000CDF
:104FF0000000000000000000000000000000F80FAA
:10500000F80F180018000C00EC03FC071C0E001C25
:105010000018001800180C181C0C180EF807E003F4
:105020000000000000000000000000000000C007B9
:10503000F00F381C181818000C00CC03EC0F3C0EB5
:105040001C1C0C180C180C18181C380EF007E00368
:105050000000000000000000000000000000FC1F35
:10506000FC1F000C00060006000380038001C00145
:10507000C000E000600060007000300030003000D0
:105080000000000000000000000000000000E0033D
:10509000F007380E180C180C180C3806F007F0073B
:1050A000180C0C180C180C180C18380CF80FE0031E
:1050B0000000000000000000000000000000E0030D
:1050C000F007380E1C0C0C180C180C181C1C381E81
:1050D000F81BE0190018000C000C1C0EF807F0017A
:1050E00000000000000000000000000000000000C0
:1050F00000000000000000008001800100000000AE
:10510000000000000000000000000000800180019D
:10511000000000000000000000000000000000008F
:10512000000000000000000080018001000000007D
:10513000000000000000000000000000800180016D
:1051400000010001800000000000000000000000DD
:105150000000000000000000000000000010001C23
:10516000800FE003F8001800F800E003800F001C37
:10517000001000000000000000000000000000001F
:10518000000000000000000000000000F81F000008
:1051900000000000F81F00000000000000000000F8
:1051A00000000000000000000000000000000000FF
:1051B00000000000000000000000000008003800AF
:1051C000F001C007001F0018001FC007F0013800E1
:1051D0000800000000000000000000000000E003E4
:1051E000F80F180C0C180C180018000C000600031F
:1051F0008001C000C000C00000000000C000C0006E
:10520000000000000000000000000000000000009E
:10521000E00718180420C229224A1144094409440D
:10522000094409221113E20C024004201818E00777
:1052300000000000000000000000000000008003EB
:105240008003C006C006C006600C600C3018301821
:105250003018F83FF83F1C700C600C6006C006C0A8
:105260000000000000000000000000000000FC033F
:10527000FC0F0C0C0C180C180C180C0CFC07FC0F79
:105280000C180C300C300C300C300C18FC1FFC07C8
:105290000000000000000000000000000000C00747
:1052A000F01F38381C300C7006600600060006003F
:1052B00006000600060006600C701C30F01FE007B8
:1052C0000000000000000000000000000000FE03DD
:1052D000FE0F060E06180618063006300630063099
:1052E00006300630063006180618060EFE0FFE03BE
:1052F0000000000000000000000000000000FC3F73
:10530000FC3F0C000C000C000C000C00FC1FFC1FF0
:105310000C000C000C000C000C000C00FC3FFC3FCF
:105320000000000000000000000000000000F83F46
:10533000F83F18001800180018001800F81FF81F90
:10534000180018001800180018001800180018009D
:105350000000000000000000000000000000E00F5E
:10536000F83F3C780E6006E007C00300030003FE30
:1053700003FE03C007C006C00EC03CF0F83FE00FBC
:1053800000000000000000000000000000000C30E1
:105390000C300C300C300C300C300C30FC3FFC3F2F
:1053A0000C300C300C300C300C300C300C300C301D
:1053B000000000000000000000000000000080016C
:1053C00080018001800180018001800180018001D5
:1053D00080018001800180018001800180018001C5
:1053E00000000000000000000000000000000006B7
:1053F000000600060006000600060006000600067D
:10540000000600060006180618063807F003E0013B
:105410000000000000000000000000000000063056
:105420000618060C060606038601C600660076000E
:10543000DE008E0106030606060C0618063006601E
:105440000000000000000000000000000000180044
:10545000180018001800180018001800180018008C
:10546000180018001800180018001800F81FF81F7E
:1054700000000000000000000000000000000EE03E
:105480001EF01EF01EF036D836D836D836D866CC88
:1054900066CC66CCC6C6C6C6C6C6C6C686C386C3E6
:1054A00000000000000000000000000000000C30C0
:1054B0001C303C303C306C306C30CC30CC308C31DB
:1054C0000C330C330C360C360C3C0C3C0C380C30CA
:1054D0000000000000000000000000000000E007E5
:1054E000F81F1C380E70066003C003C003C003C061
:1054F00003C003C003C006600E701C38F81FE0072D
:105500000000000000000000000000000000FC0F90
:10551000FC1F0C380C300C300C300C300C18FC1FFD
:10552000FC070C000C000C000C000C000C000C0024
:105530000000000000000000000000000000E00784
:10554000F81F1C380E70066003E003C003C003C0E0
:1055500003C003C007E006630E3F1C3CF83FE0F7C2
:1055600000C0000000000000000000000000FE0F6E
:10557000FE1F06380630063006300638FE1FFE07CE
:1055800006030606060C06180618063006300660E6
:105590000000000000000000000000000000E00328
:1055A000F80F1C0C0C180C180C001C00F803E00F72
:1055B000001E0038063006300E301C1CF80FE007C5
:1055C0000000000000000000000000000000FE7F5E
:1055D000FE7F8001800180018001800180018001C7
:1055E00080018001800180018001800180018001B3
:1055F00000000000000000000000000000000C306F
:105600000C300C300C300C300C300C300C300C30BA
:105610000C300C300C300C300C301818F81FE00730
:105620000000000000000000000000000000036017
:105630000630063006300C180C180C18180C180C14
:10564000380E30063006700760036003C001C001E9
:1056500000000000000000000000000000000360E7
:10566000C361C361C36166336633663366336633D1
:1056700066336C1B6C1B6C1B2C1A3C1E380E380ED0
:1056800000000000000000000000000000000FE02B
:105690000C7018303018700C600EC0078003800347
:1056A000C003E006700C301C18180C300E6007E0C8
:1056B000000000000000000000000000000003C027
:1056C00006600C301C383818300C6006E007C00348
:1056D00080018001800180018001800180018001C2
:1056E0000000000000000000000000000000FC7F3F
:1056F000FC7F006000300018000C000600038001F1
:10570000C0006000300018000C000600FE7FFE7F25
:105710000000000000000000000000000000E003A6
:10572000E0036000600060006000600060006000F6
:105730006000600060006000600060006000600069
:10574000600060006000E003E00300000000300043
:105750003000600060006000C000C000C000C001F8
:1057600080018001800100030003000300060006A1
:105770000000000000000000000000000000E00346
:10578000E003000300030003000300030003000321
:1057900000030003000300030003000300030003F1
:1057A000000300030003E003E0030000000000002A
:1057B000C001C00160036003600330063006180CAE
:1057C000180C0000000000000000000000000000B5
:1057D00000000000000000000000000000000000C9
:1057E00000000000000000000000000000000000B9
:1057F0000000000000000000000000000000FFFFAB
:10580000FFFF0000000000000000000000000C008E
:105810000C000C000C000C000C000000000000004C
:105820000000000000000000000000000000000078
:105830000000000000000000000000000000000068
:105840000000000000000000F003F8071C0C0C0C26
:10585000000FF00FF80C0C0C0C0C1C0FF80FF018CC
:105860000000000000000000000000000000180020
:105870001800180018001800D803F80F380C181872
:1058800018181818181818181818380CF80FD80302
:105890000000000000000000000000000000000008
:1058A0000000000000000000C003F007300E180CDC
:1058B0001800180018001800180C300EF007C0036C
:1058C00000000000000000000000000000000018C0
:1058D0000018001800180018C01BF01F301C181802
:1058E00018181818181818181818301CF01FC01B92
:1058F00000000000000000000000000000000000A8
:105900000000000000000000C003F00F300C181869
:10591000F81FF81F180018003818301CF00FC007C7
:105920000000000000000000000000000000800FE8
:10593000C00FC000C000C000F007F007C000C000EA
:10594000C000C000C000C000C000C000C000C00057
:105950000000000000000000000000000000000047
:105960000000000000000000E00DF80F180E0C0C05
:105970000C0C0C0C0C0C0C0C0C0C180EF80FE00D95
:10598000000C0C0C1C06F807F001000000001800C9
:105990001800180018001800D807F80F381C18183D
:1059A0001818181818181818181818181818181877
:1059B0000000000000000000000000000000C00027
:1059C000C000000000000000C000C000C000C00017
:1059D000C000C000C000C000C000C000C000C000C7
:1059E0000000000000000000000000000000C000F7
:1059F000C000000000000000C000C000C000C000E7
:105A0000C000C000C000C000C000C000C000C00096
:105A1000C000C000C000F8007800000000000C00CA
:105A20000C000C000C000C000C0C0C060C038C0180
:105A3000CC006C00FC009C018C030C030C060C0CCD
:105A40000000000000000000000000000000C00096
:105A5000C000C000C000C000C000C000C000C00046
:105A6000C000C000C000C000C000C000C000C00036
:105A70000000000000000000000000000000000026
:105A800000000000000000007C3CFF7EC7E383C1F3
:105A900083C183C183C183C183C183C183C183C1E6
:105AA00000000000000000000000000000000000F6
:105AB00000000000000000009807F80F381C1818BC
:105AC0001818181818181818181818181818181856
:105AD00000000000000000000000000000000000C6
