:020000040800F2
:10000000680400209D010008970E0008430E0008B8
:10001000950E0008A90200086F10000800000000FB
:100020000000000000000000000000009B0E00081F
:10003000AB02000800000000990E00089D0E0008A9
:10004000B7010008B7010008B7010008B7010008B0
:10005000B7010008B7010008B7010008B7010008A0
:10006000B7010008B7010008B7010008B701000890
:10007000B7010008B7010008B7010008B701000880
:10008000B7010008B7010008B7010008B701000870
:10009000B7010008B7010008B7010008B701000860
:1000A000B7010008B7010008B7010008B701000850
:1000B000B7010008B7010008B7010008B701000840
:1000C000B7010008B7010008B7010008B701000830
:1000D000B7010008B7010008B7010008B701000820
:1000E000B7010008B7010008B7010008B701000810
:1000F000B7010008B7010008B7010008B701000800
:10010000B7010008B7010008B7010008B7010008EF
:10011000B7010008B7010008B7010008B7010008DF
:10012000B7010008B7010008B7010008B7010008CF
:10013000B7010008B7010008B7010008B7010008BF
:10014000B7010008B7010008B7010008B7010008AF
:10015000B7010008B7010008B7010008B70100089F
:10016000B7010008B7010008B7010008B70100088F
:10017000B7010008B7010008B7010008000000003F
:10018000B7010008B7010008DFF80CD000F07AF8DA
:1001900000480047B1100008680400200648804766
:1001A00006480047FEE7FEE7FEE7FEE7FEE7FEE75C
:1001B000FEE7FEE7FEE7FEE7210F000889010008E1
:1001C0002DE9F05F0546002092469B46884606468C
:1001D000814640241BE0284641464746224600F01F
:1001E00041F853465A46C01A914110D31146184659
:1001F000224600F028F82D1A67EB01084F462246E8
:100200000120002100F01FF817EB00094E41201ECD
:10021000A4F10104DFDC484631462A464346BDE8E6
:10022000F09FD2B201E000F8012B491EFBD27047CB
:100230000022F6E710B513460A4604461946FFF7B2
:10024000F0FF204610BD202A04DB203A00FA02F11C
:10025000002070479140C2F1200320FA03F31943B4
:1002600090407047202A04DB203A21FA02F0002156
:10027000704721FA02F3D040C2F1200291400843B6
:1002800019467047064C074D06E0E06840F0010350
:1002900094E8070098471034AC42F6D3FFF778FF94
:1002A000D0110008F0110008FEE7704770B54379DF
:1002B000012B13D0012444710223037105682B68BC
:1002C0004FF47C668E4042F08002B3438A40134371
:1002D0002B60047100214171084670BD022070BD81
:1002E00070B54379012B1AD00126467102230371A0
:1002F00005682C6840F6FE7393409C43D1E90031B9
:100300000B43934023432B6001680B68C024944047
:10031000A3430B60067100214171084670BD0220A5
:1003200070BD70B5040003D02079002510B105E040
:10033000012070BD6571204600F008F80220207190
:10034000256101202071002070BD000010B586B02D
:10035000044614216846FFF76BFF11492068884264
:100360001CD110480021026842F00052026000686F
:1003700000F0005005900B481038026842F001026E
:100380000260006800F0010005903020009003201A
:10039000CDE901016946044800F05EF806B010BDE1
:1003A00000740040403802400000024018B5046864
:1003B00000940068104421B11430009003600020C4
:1003C00018BD0830F9E730B54279012A16D001226C
:1003D00042710223037103681D6802FA01F4254388
:1003E0001D60002901680B680AD00C6803F48023A3
:1003F00004F46014B3F5802F0FD015E0022030BD57
:100400000C6803F0040304F03804042B0CD1382CDE
:100410000AD14B6843F0010305E0B4F5601F03D136
:100420004B6843F002034B600271002141710846A2
:1004300030BD000070B5044600F0F0F80546601CC1
:1004400002D004480078044400F0E8F8401BA042C1
:10045000FAD370BD000000202DE9F84F00224FF0C4
:10046000010803254FF00F0E0B6808FA02F4234031
:10047000A3426ED14E68012E05D0022E03D0112E5C
:1004800001D0122E12D186684FEA420C05FA0CF701
:10049000BE43CF6807FA0CF7374387604668A64328
:1004A0000C79C4F30014944034434460C668570088
:1004B00005FA07FC8C6826EA0C06BC403443C4608D
:1004C0004C68022C01D0122C13D1D40800EB840408
:1004D000A346D4F8209054074FEAD46A0EFA0AF6DD
:1004E00029EA06090E6906FA0AF646EA0906CBF871
:1004F000206006680C7926EA0C0604F00304BC4070
:10050000344304604C68E40065D5364C266846F4F4
:1005100080462660246822F0030604F48044009498
:10052000314C3444A446D4F808489607370F0EFAE5
:1005300007F6B4432D4EB04201D1002624E02C4EE4
:10054000B04201D101261FE02A4EB04202D102265C
:100550001AE040E0284EB04201D1032614E0274EB5
:10056000B04201D104260FE0254EB04201D105264C
:100570000AE0244EB04201D1062605E0224EB042E8
:1005800001D1072600E00826BE402643CCF80868C3
:100590001E4E34684F689C43FF0300D51C433460F3
:1005A0001A4C241D26684F689E43BF0300D51E4386
:1005B0002660164E083634684F689C43FF0200D50B
:1005C0001C433460114E0C3634684F689C43BF02A4
:1005D00000D51C433460521C102AFFF445AFBDE81F
:1005E000F88F000044380240003001400000024013
:1005F0000004024000080240000C024000100240CB
:100600000014024000180240001C0240003C01405F
:100610000069084000D00120704700000148806850
:1006200070470000000000200248816802781144F1
:1006300081607047000000200B4810B5016841F44C
:1006400000710160016841F480610160016841F45A
:1006500080710160032000F061F8002000F006F8CE
:1006600000F024F8002010BD003C024070B50D4D94
:1006700004464FF47A712878B1FBF0F00A49096812
:10068000B1FBF0F000F0D6FA48B9102C07D20022E6
:100690002146501E00F022F800206C6070BD012041
:1006A00070BD0000000000200C0000200A4808B5C2
:1006B000016841F480410160006800F480400090CE
:1006C0000548001F016841F080510160006800F09A
:1006D0008050009008BD000044380240F0B40E4B3A
:1006E0001B680C46C3F30223C3F10705042D00D990
:1006F0000425191D072901D2002300E0DB1E012675
:1007000006FA05F1491E214099409E40761E16408A
:100710003143F0BC00F0ACBC0CED00E0064900F049
:10072000070208684FF6FF03184040EA0220034A18
:1007300010430860704700000CED00E00000FA056F
:100740002DE9F0470E46050065D0DFF81481D8F892
:100750000000F7B200F00F00B04207D288F8007036
:10076000D8F8000000F00F00B04254D128683D4C8A
:10077000810712D5400703D5206840F4E05020607F
:100780002878000703D5206840F460402060206886
:10079000A96820F0F000084320602878C0072DD019
:1007A000304968680839012812D0022813D003287C
:1007B00011D00968890700292DDA216821F0030189
:1007C00001432160FFF72AFF814641F2883A0EE09B
:1007D00009688903EFE709688901ECE7FFF71EFF65
:1007E000A0EB0901514502D90320BDE8F08720683C
:1007F000696800F00C00B0EB810FEFD1D8F8001061
:10080000404601F00F01B14207D90770006800F0BF
:100810000F00B04201D00120E7E72878400705D556
:100820002068E96820F4E050084320602878000739
:1008300006D52068296920F4604040EAC1002060A4
:1008400000F018F82168084AC1F30311515CC84050
:100850000649086006480068FFF708FF0020C4E763
:10086000003C024008380240C01100080C00002083
:1008700004000020154810B5006810F00C02144860
:1008800013D01449042A0FD0082A0ED10F4C241F6C
:100890002268236802F03F025B0207D52068C0F39C
:1008A0008810A0FB010106E0084610BD2168C1F3D5
:1008B0008811A1FB00010023FFF782FC2168C1F32E
:1008C0000141491C4900B0FBF1F010BD083802405D
:1008D0000024F40040787D012DE9F84F04006ED02B
:1008E0002078DFF83C93C007A9F104054AD009F14C
:1008F00004000168C1F38101012908D00068C0F338
:10090000810002280AD1D9F80000400206D52868E3
:10091000800337D560680028E1D033E06068B0F527
:10092000803F10D0B0F5A02F286810D020F4803080
:100930002860286820F4802028606068A8B1FFF74C
:100940006DFE06460DE0286840F48030F4E740F480
:1009500080202860F7E700BFFFF760FE801B642857
:1009600073D828688003F7D50CE0FFF757FE0646DA
:1009700005E000BFFFF752FE801B6428F0D828680E
:100980008003F7D42078DFF89C8280074FF0000ABC
:100990003ED5A348001D016811F00C0F08D0006877
:1009A000C0F3810002280BD1D9F80000400207D41F
:1009B0002868800716D5E068012800D112E02BE1F5
:1009C000E068B8B10120C8F80000FFF727FE06462E
:1009D00005E000BFFFF722FE801B0228C0D8286870
:1009E0008007F7D52868216920F0F80040EAC100A7
:1009F00028600DE0C8F800A0FFF710FE064604E0EE
:100A0000FFF70CFE801B02281FD828688007F7D448
:100A10002078000722D5824E83486169703671B113
:100A200001210160FFF7FAFD074604E0FFF7F6FD3C
:100A3000C01B022809D830688007F7D50EE0C0F83F
:100A400000A0FFF7EBFD074605E082E0FFF7E6FDBB
:100A5000C01B02287DD830688007F7D42078400773
:100A600068D5DFF8BCB100270BF13C0BDBF80000C8
:100A7000C0000BD4DBF8001041F08051CBF800101F
:100A8000DBF80000012700F080500090674E3068CE
:100A9000C00510D4306840F480703060FFF7BEFDB0
:100AA000009005E0FFF7BAFD0099401A022850D8DF
:100AB0003068C005F6D55A4EA0686C3601280FD0B4
:100AC0000528306810D020F001003060306820F038
:100AD00004003060A068B8B1FFF7A0FD00900FE0FF
:100AE000306840F00100F4E740F004003060F7E7C0
:100AF000FFF794FD0099411A41F28830814266D88F
:100B000030688007F4D50EE0FFF788FD009007E01D
:100B1000FFF784FD0099411A41F28830814256D88E
:100B200030688007F4D42FB1DBF8001021F0805139
:100B3000CBF80010A069C8B33949091D0968C1F391
:100B4000810102294AD00228504607D0C8F8600027
:100B500000E03CE0FFF762FD04463BE04746C8F892
:100B60006000FFF75BFD064605E000BFFFF756FD9E
:100B7000801B02282BD828688001F7D4D4E907010C
:100B80000843A16A2A4A490802EB0141626A41EA24
:100B90008211084394F82C1040EA0161C9F8001052
:100BA00001203866FFF73AFD044606E036E000BF54
:100BB000FFF734FD001B022809D828688001F7D50B
:100BC0002CE000BFFFF72AFD001B022802D90320FA
:100BD000BDE8F88F28688001F4D41FE00128F7D021
:100BE000D9F80000E26900F48001914214D1226A30
:100BF00000F03F0191420FD147F6C071626A014097
:100C0000914209D1A26A00F44031914204D1E16AD3
:100C100000F07060884201D00120D9E70020D7E7BA
:100C20000438024000004742800E474200700040F6
:100C30000000FFFF10B5401EB0F1807F01D30120FE
:100C400010BD4FF0E02460610F21601700F010FA32
:100C50000020A06107202061002010BD70B590F831
:100C60003C20012A32D0012480F83C40022280F846
:100C70003D2003685A689D6822F070060A68324376
:100C80005A60134B02689A4214D0B2F1804F11D0CF
:100C9000104B9A420ED0104B9A420BD00F4B9A42F7
:100CA00008D00F4B9A4205D00E4B9A4202D00E4B01
:100CB0009A4204D1496825F080031943916080F875
:100CC0003D40002180F83C10084670BD022070BDF8
:100CD000000001400004004000080040000C0040FB
:100CE00000040140004001400018004010B504001D
:100CF00003D094F83D0010B107E0012010BD0020A2
:100D000084F83C00204600F00DF8022084F83D00F5
:100D1000211D206800F012F9012084F83D00002018
:100D200010BD000008B50068B0F1804F08D105483B
:100D3000016841F001010160006800F001000090CD
:100D400008BD000040380240022180F83D100168D3
:100D50008A6802F00702062A03D00A6842F00102FC
:100D60000A60012180F83D100020704770B50446EC
:100D700090F83C00012817D0012584F83C5002204F
:100D800084F83D002068826822F0770222F47F42D6
:100D900082600868502830D00DDC20284DD005DC5A
:100DA00098B310283BD148E0022070BD302844D0D1
:100DB000402834D139E0602828D0702806D0B0F51A
:100DC000805F2CD0B0F5005F29D10AE0CB68D1E973
:100DD0000121206800F016F92068816841F0770150
:100DE00009E0CB68D1E90121206800F00BF9206807
:100DF000816841F48041816011E0CA6849682068D7
:100E000000F012F95021206807E016E0CA6849682E
:100E1000206800F01AF96021206800F0FDF884F8DD
:100E20003D50002084F83C0070BDCA6849682068C5
:100E300000F0FAF840212068EFE7226801461046EA
:100E4000EBE7FEE710B586B000241148009401944A
:100E50000294039404944FF08041059401600221B0
:100E6000C0E901140A21C0E903148461FFF73EFFC1
:100E70004FF48050009069460548FFF777FF202027
:100E8000CDE9040404A90248FFF7E8FE06B010BD4E
:100E900024000020FEE7704770477047FFF7C4BB8F
:100EA00030B593B030216846FFF7C2F914210CA881
:100EB000FFF7BEF918480025016841F08051016034
:100EC000006800F0805011901448016841F480419E
:100ED00001600068022400F480401190012003901A
:100EE00010200490009406940820CDE90750362085
:100EF000CDE9090404200B906846FFF7EDFC0CA92E
:100F00000F2081E83100E0020F90109001210CA821
:100F1000FFF716FC13B030BD4038024000700040AF
:100F20000548016841F47001016003494FF0006019
:100F3000803908607047000088ED00E0F0B5026875
:100F4000254C264D264E274F274B4FF0804CA04274
:100F500009D0604507D0A84205D0B04203D0B842BE
:100F600001D0984204D122F0700E4A6842EA0E0283
:100F7000A0421BD0604519D0A84217D0B04215D06E
:100F8000B84213D0984211D0184DA8420ED0184D37
:100F9000A8420BD0174DA84208D0174DA84205D043
:100FA000164DA84202D0164DA84203D122F4407536
:100FB000CA682A434D6922F080022A4302608A6887
:100FC000C2620A688262A04201D0984201D10969D6
:100FD000016301214161F0BD0000014000040040B7
:100FE00000080040000C00400004014000400140A7
:100FF000004401400048014000180040001C00402F
:101000000020004010B5846842EA032224F47F44A3
:101010000A432243826010BD826822F070020A43B4
:1010200042F007018160704710B5036A046A24F03A
:1010300001040462846924F0F00444EA021423F0F9
:101040000A020A438461026210BD10B5036A23F0EC
:10105000100303628369046A23F4704343EA023293
:1010600024F0A00343EA01118261016210BDFEE792
:101070000907090E002804DB00F1E02080F80014C5
:10108000704700F00F0000F1E02080F8141D704759
:1010900002E008C8121F08C1002AFAD17047704741
:1010A000002001E001C1121F002AFBD1704700009F
:1010B00086B0FFF7C1FAFFF7F3FE14216846FFF789
:1010C000B7F83B480024016841F001010160016864
:1010D00001F001010591016841F0400101600068E3
:1010E000344D00F0400005904FF41040CDE900046D
:1010F000694628460294FFF7AFF9304900942E481C
:10110000019408600846FFF70CF92420CDE900049B
:10111000102269462948FFF7E3F84FF430621021A6
:101120002648FFF7C3F8FFF78DFE24481430FFF779
:101130000BFE00212148FFF746F940F2FF744FF4FF
:10114000004640F6FF774FF4805831462846FFF7B7
:101150005FFA90B141462846FFF75AFA0028F4D1C9
:101160000A20FFF767F941462846FFF751FA0028A1
:10117000EBD1402C0FD9403C0EE00A20FFF75AF982
:1011800031462846FFF744FA0028DED14034BC42FD
:1011900002D33C4600E000240022234611460748C3
:1011A000FFF704F900210548FFF70DF9CDE700002E
:1011B0003038024000180240007400401000002047
:1011C00000000000000000000102030406070809F7
:1011D000F01100080000002010000000901000082E
:1011E000001200081000002058040000A0100008A1
:1011F0000100000010000000000000000024F400C6
:040000050800018965
:00000001FF
