:020000040800F2
:10000000B808002029020008732D000863230008A7
:10001000712D0008D5050008D3310008000000004C
:100020000000000000000000000000007B2D000820
:100030009506000800000000752D00087D2D0008C1
:10004000430200084302000843020008430200087C
:10005000430200084302000843020008430200086C
:10006000430200084302000843020008430200085C
:10007000430200084302000843020008430200084C
:10008000430200084302000843020008430200083C
:10009000430200084302000843020008430200082C
:1000A000430200084302000843020008430200081C
:1000B000252E0008312E00084302000843020008E4
:1000C00043020008430200084302000843020008FC
:1000D00043020008430200084302000843020008EC
:1000E0004302000843020008430200083D2E0008B6
:1000F00043020008430200084302000843020008CC
:1001000043020008430200084302000843020008BB
:1001100043020008430200084302000843020008AB
:10012000D9050008E505000843020008430200085D
:10013000430200084302000843020008430200088B
:10014000430200084302000843020008430200087B
:10015000430200084302000843020008430200086B
:10016000430200084302000843020008430200085B
:100170004302000843020008430200080000000098
:10018000430200084302000800F002F800F03CF8C7
:100190000AA090E8000C82448344AAF10107DA45E2
:1001A00001D100F031F8AFF2090EBAE80F0013F0F8
:1001B000010F18BFFB1A43F0010318474C4400001D
:1001C0006C440000103A24BF78C878C1FAD85207AE
:1001D00024BF30C830C144BF04680C6070470000C1
:1001E0000023002400250026103A28BF78C1FBD840
:1001F000520728BF30C148BF0B6070471FB503F0DE
:1002000009F91FBD10B510BD00F0CFF81146FFF77A
:10021000F5FF02F0FDFF00F0EDF803B4FFF7F2FF89
:1002200003BC00F0F5F80000094880470948004782
:10023000FEE7FEE7FEE7FEE7FEE7FEE7FEE7FEE796
:10024000FEE7FEE704480549054A064B70470000F3
:10025000152E000889010008B8020020B808002007
:10026000B8040020B804002053EA020C00F06980B2
:100270002DE9F04B4FF00006002B1FBFB3FA83F5BA
:1002800003FA05F424FA05F65E4012BF1643B2FAEB
:1002900082F502FA05F4C5F120051EBF22FA05FC1D
:1002A00044EA0C04203556EA044C4FEA144418BFC3
:1002B000641C4FF000084FF00009904271EB030CF2
:1002C00039D3002919BFB1FA81F701FA07F6B0FA5C
:1002D00080F700FA07F6C7F120071EBF20FA07FCD7
:1002E00046EA0C062037B6FBF4FCA7EB0507103FE7
:1002F00007F01F0BCBF120060CFA0BFB2CFA06F6CD
:1003000044BFB3460026202FA4BF5E464FF0000B2B
:100310005BEA060C08BF4FF0010B19EB0B09ABFBB6
:10032000027C48EB0608C01B06FB02CC0BFB03CC8F
:1003300071EB0C01C1E70B46024641464846BDE859
:10034000F08B13B54FF000004FF00001AFF30080C9
:10035000BDE81C4070474FF0000200B513469446BC
:100360009646203922BFA0E80C50A0E80C50B1F10D
:100370002001BFF4F7AF090728BFA0E80C5048BF21
:100380000CC05DF804EB890028BF40F8042B08BFBF
:10039000704748BF20F8022B11F0804F18BF00F8BB
:1003A000012B7047704770477047754600F02CF876
:1003B000AE4605006946534620F00700854618B052
:1003C00020B5FFF73FFFBDE820404FF000064FF09B
:1003D00000074FF000084FF0000B21F00701AC467A
:1003E000ACE8C009ACE8C009ACE8C009ACE8C00999
:1003F0008D46704710B50446AFF300802046BDE837
:100400001040FFF70ABF0000004870475802002064
:1004100001491820ABBEFEE726000200704710B568
:100420000146806B026C12F0500F05D0026CD206B0
:1004300026D500F0DBF910BD016C41F400710164B8
:1004400001688A6812F0405F17D1027EAAB9CA6AB1
:1004500012F4700F02D08A6852050ED44A6822F056
:1004600020024A60016C21F480710164016CC904AE
:1004700003D4016C41F00101016400F0B5F910BD35
:10048000806BC26CBDE810400846104710B5806B09
:1004900040210164416C41F00401416400F0A6F97F
:1004A00010BD10B5806B00F0A0F910BD464910B525
:1004B0004A6822F440324A604A6843681A434A60F4
:1004C00001684A6822F480724A6001684A680369D8
:1004D00042EA03224A6001684A6822F040724A6098
:1004E00001684A6883681A434A6001688A6822F48E
:1004F00000628A6001688A68C3681A438A60816AF8
:100500006FF07062D14201688A6822F070628A607E
:1005100001688A680CD0836A1A438A6001688A6815
:1005200022F040528A6001688A68C36A1A4301E077
:1005300022F040528A6001688A6822F002028A60D2
:1005400001688A68037E42EA43028A6090F82010BC
:10055000002901684A680FD042F400624A600168CD
:100560004A6822F460424A6001684A68174C436A4C
:1005700004EB43331A4301E022F400624A6001684D
:10058000CA6A22F47002CA620168CA6A838B104C7C
:1005900004EB03531A43CA6201688A6822F40072AA
:1005A0008A6001688A6890F8303042EA43228A60A3
:1005B00001688A6822F480628A6001688A684069FA
:1005C00042EA8020886010BD0023014000E0FFFF68
:1005D0000000F0FFFEE70000014800F05FBA0000F5
:1005E00098010020014800F059BA0000F8010020ED
:1005F00001681823CAB2103AB2FBF3F2054B6FF34D
:100600000901032A9B5CC36500D9091D8165084661
:1006100070470000EE45000810B5014600208B69C8
:100620008A6A4FF0C07453B1B3F5005F15D072B150
:10063000012A0CD0022A0AD0032A09D104E01AB1F7
:10064000012A06D0022A03D1C96AC90100D50120B6
:1006500010BDC96AA142FAD010BD002AF7D0012A04
:10066000F2D0022AF3D0032AF3D010BD30B50468CB
:10067000256825F480252560046863608368402B25
:10068000036803D099600068C26030BD9A6000685A
:10069000C16030BD704772B6FEE7000078B5002437
:1006A000009490F83C20012A19D0012280F83C20C7
:1006B0000A6807230568092A13D9EE680A3A02EB8B
:1006C000420293409E43EE600B788A680A3B03EB3C
:1006D00043039A400368DD682A43DA6010E0022091
:1006E00078BD2E6902EB420293409E432E610B7847
:1006F0008A6803EB43039A4003681D692A431A6121
:100700004A681F23072A13D205686E6B521E02EB3C
:10071000820293409E436E630B790A885B1E92B2FD
:1007200003EB83039A4003685D6B2A435A6327E017
:1007300005680D2A12D22E6BD21F02EB8202934063
:100740009E432E630B790A88DB1F92B203EB83036F
:100750009A4003681D6B2A431A6311E0EE6A0D3A52
:1007600002EB820293409E43EE620B790A880D3BB6
:1007700092B203EB83039A400368DD6A2A43DA628C
:10078000164B0568144A9D4206D10D68122D03D1FF
:10079000556845F48005556005689D4218D10B6881
:1007A000102B01D0112B13D1536843F40003536075
:1007B000096810290CD10A490A4A0968B1FBF2F10B
:1007C00001EB8101490000E0491E00910029FBD1A5
:1007D00080F83C40002078BD00230140002001400B
:1007E0002C00002040420F0070477047704770B5E2
:1007F00004004FF0000503D0206C002610B107E084
:10080000012070BD204600F01DF8666484F83C604D
:10081000206CC00610D4206C20F4885040F00200F8
:1008200020642046FFF742FE6664206C20F0020040
:1008300040F00100206400E0012584F83C60284677
:1008400070BD00002DE9F04F87B0064614216846C0
:10085000FFF781FD3548344C14383368002533499F
:10086000032207154FF400684FF400594FF4807AC3
:100870004FF4003BA34227D10B6843F480730B6015
:10088000096801F480710591016841F0040101607B
:100890000068694600F00400059010208DE82500EE
:1008A000234800F07FFA244C224804F10C03C4E9E9
:1008B0000005A56083E8A00F204665622CE0B463C4
:1008C000A66307B0BDE8F08F1C4CA342F9D10B68BA
:1008D00043F480630B60096801F48061059101684D
:1008E00041F0200101600068694600F02000059099
:1008F00060158DE82500124800F054FA114C0D489F
:1009000004F10C03183020604FF08060C4E9010549
:1009100083E8A00F2046656200F090F90028CED051
:10092000FFF7B9FECBE70000002001404438024049
:10093000000802401064024098010020002201409B
:1009400000140240F8010020F8B5044600200E46CD
:10095000009094F83C10012907D0012184F83C1044
:1009600021688B68DB0702D011E00220F8BD8B689C
:1009700043F001038B604049404B0968B1FBF3F140
:1009800001EB410100E0491E00910029FBD12168E3
:100990008B68DB0503D58B6823F480738B6021683B
:1009A0008B68DB075DD0236C40F20165AB4343F4F9
:1009B000807323644968490505D5216C21F40051F1
:1009C00041F480512164216CC90404D5616C21F08B
:1009D0000601616400E0606484F83C00A16B294872
:1009E000274DC863A16B28480864A16B2748C864D9
:1009F00021686FF0220008602068416841F0806142
:100A000041602068816841F48071816021681346EB
:100A100032464C31A06B00F07BF968681C49C00677
:100A2000206806D0884224D1816811F0405F13D03D
:100A30001FE08842F8D0174A904203D1D1F804232E
:100A4000D206F1D0144A904213D1D1F8041301F028
:100A50001F011029E8D30CE0816841F080418160DA
:100A600007E0206C40F010002064606C40F0010052
:100A700060640020F8BD00002C00002040420F0000
:100A8000002301401F040008A30400088D0400088F
:100A90000020014000210140002201402DE9F843DF
:100AA00004464FF00009CDF8009063484FF416510A
:100AB000A56D0068B0FBF1F72E6894F85C10082073
:100AC00000FA01F131420FD021680A6852070BD5B4
:100AD0000A6822F004020A6094F85C108840A8605A
:100AE000606D40F00100606594F85C104FF0010803
:100AF00008FA01F0304208D021684969090604D596
:100B0000A860606D40F00200606594F85C100420FD
:100B10008840304208D021680968890704D5A86058
:100B2000606D40F00400606594F85C10102088400F
:100B3000304218D021680968090714D5A8602068D8
:100B40000168490304D50068000308D5A16C07E0DB
:100B50000168C90503D4016821F008010160216C16
:100B600009B12046884794F85C1020208840304224
:100B700031D021680968C9062DD5A86094F83500E0
:100B800005282068016806D0490347D5006800039E
:100B90001DD4616C1CE021F01601016020684169E0
:100BA00021F080014161206C08B9A06C20B120685F
:100BB000016821F00801016094F85C103F20884032
:100BC000A86084F8358084F83490216D1FE0E16BD3
:100BD00009B120468847606D00282BD0606DC007A2
:100BE00014D0052084F835002068016821F0010147
:100BF00001600098401C0090B84203D8206800684B
:100C0000C007F6D184F8358084F83490E16C00296F
:100C100010D001B02046BDE8F04308470168C9057F
:100C2000D5D4016821F01001016084F8358084F882
:100C30003490CCE7BDE8F8832C0000202DE9F0418A
:100C4000044600F0B1F906465CB1022084F8350094
:100C5000002584F834502068016821F0010101600A
:100C60000DE00120BDE8F08100F09EF9801B052811
:100C700005D920206065032084F83500F2E720685C
:100C80000068C007F0D12268116820480140D4E90B
:100C900001031843D4E90336334318436369184307
:100CA000A3691843E3691843236A18430843616A38
:100CB000042903D1D4E90B131943084310602068B9
:100CC0004069666A20F0070130460E430127042878
:100CD0000CD1A06A0643E06A40B12046FFF79CFCB5
:100CE00020B14020606584F83570BAE7206846611D
:100CF0002046FFF77DFC94F85C203F219140816005
:100D0000656584F835700020ACE700003F8010F086
:100D10002DE9F0410446866D90F834000025012845
:100D20000DD0012084F8340094F835700020012F94
:100D300007D084F8340002252846BDE8F08102205F
:100D4000FBE7022784F8357060652046FFF78EFCCC
:100D500094F85C103F208840B0602068016841F042
:100D600016010160206C20B12068016841F0080183
:100D700001602068016841F001010160DCE70000CA
:100D800070B5044600F010F90546601C02D0044816
:100D90000078044400F008F9401BA042FAD370BD6B
:100DA000200000202DE9F84FDFF8BCA1002201252A
:100DB00003264FF00F090AF1040BAAF1040E00BF3D
:100DC0000B6805FA02F42340A34270D10F7907F0B3
:100DD0000307012F01D0022F16D187684FEA42087E
:100DE00006FA08FC27EA0C07D1F80CC00CFA08FC3C
:100DF0004CEA070CC0F808C04768A7430C79C4F355
:100E0000001494403C4344600C79E443A4070AD0A6
:100E1000C4684FEA420C06FA0CF7BC438F6807FA25
:100E20000CF72743C7600C7904F00304022C12D19D
:100E3000D40800EB840CDCF820405707FF0E09FAB9
:100E400007F824EA0804D1F8108008FA07F848EAFD
:100E50000408CCF8208004684FEA420C06FA0CF72C
:100E6000BC430F7907F0030707FA0CF72743076025
:100E70004C6814F4403F70D03C4C276847F48047DE
:100E80002760246822F0030704F480440094384C5F
:100E900007EB040CDCF8084897074FEA177809FAC3
:100EA00008F7BC43334FB84202D1002724E054E096
:100EB000314FB84201D101271EE0304FB84201D175
:100EC000022719E02E4FB84201D1032714E02D4F1D
:100ED000B84201D104270FE02B4FB84201D10527BA
:100EE0000AE02A4FB84201D1062705E0284FB84250
:100EF00001D1072700E0082707FA08F72743CCF8B5
:100F00000878DAF800405746D1F804C09C435FEAFD
:100F1000CC2C00D51C433C60DBF800405F46D1F888
:100F200004C09C435FEA8C2C00D51C433C60DEF877
:100F300000407746D1F804C09C435FEA8C3C00D562
:100F40001C433C60084F083F3C68D1F804C09C43F8
:100F50005FEACC3C00D51C433C60521C102AFFF4D5
:100F60002FAFBDE8F88F0000083C01404438024034
:100F7000003001400000024000040240000802402E
:100F8000000C024000100240001402400018024011
:100F9000001C02400069084000D0012070470AB1DF
:100FA000816170470904FBE70148806870470000D1
:100FB0002000002002488168027811448160704757
:100FC000200000200B4810B5016841F40071016059
:100FD000016841F480610160016841F48071016041
:100FE000032000F06FF80F2000F006F800F024F85E
:100FF000002010BD003C024070B50D4D04464FF47A
:101000007A712878B1FBF0F00A490968B1FBF0F079
:1010100000F0ECFA48B9102C07D200222146501EED
:1010200000F030F800206C6070BD012070BD000041
:10103000200000202C0000200A4808B5016841F477
:1010400080410160006800F4804000900548001F66
:10105000016841F080510160006800F0805000900C
:1010600008BD000044380240002809DB00F01F02E0
:10107000012191404009800000F1E020C0F80011FA
:1010800070470000F0B40E4B1B680C46C3F30223FC
:10109000C3F10705042D00D90425191D072901D224
:1010A000002300E0DB1E012606FA05F1491E21405F
:1010B00099409E40761E16403143F0BC02F08AB83B
:1010C0000CED00E0064900F0070208684FF6FF0348
:1010D000184040EA0220034A1043086070470000AD
:1010E0000CED00E00000FA052DE9F0470E46050082
:1010F00065D0DFF81481D8F80000F7B200F00700DF
:10110000B04207D288F80070D8F8000000F007005D
:10111000B04254D128683D4C810712D5400703D511
:10112000206840F4E05020602878000703D520684C
:1011300040F4604020602068A96820F0F000084377
:1011400020602878C0072DD0304968680839012808
:1011500012D0022813D0032811D00968890700296A
:101160002DDA216821F0030101432160FFF71CFF04
:10117000814641F2883A0EE009688903EFE7096881
:101180008901ECE7FFF710FFA0EB0901514502D9F7
:101190000320BDE8F0872068696800F00C00B0EB20
:1011A000810FEFD1D8F80010404601F00701B1429D
:1011B00007D90770006800F00700B04201D0012095
:1011C000E7E72878400705D52068E96820F4E05073
:1011D000084320602878000706D52068296920F494
:1011E000604040EAC100206000F018F82168084A19
:1011F000C1F30311515CC840064908600648006805
:10120000FFF7FAFE0020C4E7003C02400838024025
:10121000F64500082C00002024000020154810B5D9
:10122000006810F00C02144813D01449042A0FD09F
:10123000082A0ED10F4C241F2268236802F03F02B7
:101240005B0207D52068C0F38810A0FB010106E00F
:10125000084610BD2168C1F38811A1FB00010023DD
:10126000FFF702F82168C1F30141491C4900B0FBB6
:10127000F1F010BD083802400024F40040787D01F0
:101280002DE9F84F04006ED02078DFF84C93C007AA
:10129000A9F104054AD009F104000168C1F38101F4
:1012A000012908D00068C0F3810002280AD1D9F8CA
:1012B0000000400206D52868800337D56068002802
:1012C000E1D033E06068B0F5803F10D0B0F5A02FDA
:1012D000286810D020F480302860286820F480200E
:1012E00028606068A8B1FFF75FFE06460DE0286839
:1012F00040F48030F4E740F480202860F7E700BF36
:10130000FFF752FE801B642873D828688003F7D546
:101310000CE0FFF749FE064605E000BFFFF744FE7C
:10132000801B6428F0D828688003F7D42078DFF881
:10133000AC8280074FF0000A3ED5A748001D016827
:1013400011F00C0F08D00068C0F3810002280BD107
:10135000D9F80000400207D42868800716D5E06855
:10136000012800D112E033E1E068B8B10120C8F8EB
:101370000000FFF719FE064605E000BFFFF714FE68
:10138000801B0228C0D828688007F7D52868216903
:1013900020F0F80040EAC10028600DE0C8F800A085
:1013A000FFF702FE064604E0FFF7FEFD801B022861
:1013B0001FD828688007F7D42078000722D5864FE9
:1013C00087486169703771B101210160FFF7ECFD59
:1013D000064604E0FFF7E8FD801B022809D83868BC
:1013E0008007F7D50EE0C0F800A0FFF7DDFD064648
:1013F00005E082E0FFF7D8FD801B02287DD8386821
:101400008007F7D42078400768D5DFF8CCB10027F3
:101410000BF13C0BDBF80000C0000BD4DBF8001034
:1014200041F08051CBF80010DBF80000012700F0FC
:10143000805000906B4E3068C00510D4306840F486
:1014400080703060FFF7B0FD009005E0FFF7ACFD65
:101450000099401A022850D83068C005F6D55E4E73
:10146000A0686C3601280FD00528306810D020F015
:1014700001003060306820F004003060A068B8B12E
:10148000FFF792FD00900FE0306840F00100F4E7B4
:1014900040F004003060F7E7FFF786FD0099411A3D
:1014A00041F28830814266D830688007F4D50EE07A
:1014B000FFF77AFD009007E0FFF776FD0099411AEB
:1014C00041F28830814256D830688007F4D42FB179
:1014D000DBF8001021F08051CBF80010A069C8B3F0
:1014E0003D49091D0968C1F3810102294AD002283A
:1014F000504607D0C8F8600000E03CE0FFF754FD1C
:1015000004463BE04746C8F86000FFF74DFD06463D
:1015100005E000BFFFF748FD801B02282BD8286894
:101520008001F7D4D4E907010843A16A2E4A49088B
:1015300002EB0141626A41EA8211084394F82C10DF
:1015400040EA0161C9F8001001203866FFF72CFD60
:10155000044606E03EE000BFFFF726FD001B022820
:1015600009D828688001F7D534E000BFFFF71CFDDB
:10157000001B022802D90320BDE8F88F28688001EB
:10158000F4D427E00128F7D0D9F80000E26900F48C
:10159000800191421CD1226A00F03F01914217D193
:1015A00047F6C071626A0140B1EB821F10D1A26A96
:1015B0004FF0FF3300F4403103EB5202B1EB024F26
:1015C00006D194F82C1000F07060B0EB016F01D0E0
:1015D0000120D1E70020CFE7043802400000474255
:1015E000800E4742007000400000FFFF10B5401E13
:1015F000B0F1807F01D3012010BD4FF0E024606185
:101600000F21601701F0E6FD0020A0610720206196
:10161000002010BD10B500681249884221D1002178
:10162000114800F051FE04210F4800F04DFE082142
:101630000D4800F049FE002280210C48FFF7AFFC66
:101640000B4C002201212046FFF7A9FC00220221B9
:101650002046FFF7A4FC04480068C16821F080011F
:10166000C16010BD00040140500100200000024094
:1016700000040240704710B590F83C20012A22D0A7
:10168000012280F83C20CA688C6822F44072224310
:101690004C6822F4806222430C6822F400622243E8
:1016A0000C6922F4805222434C6922F400522243F6
:1016B000C969002322F480420A4301684A6480F821
:1016C0003C30002010BD022010BD000070B590F825
:1016D0003C20012A32D0012480F83C40022280F8CC
:1016E0003D2003685A689D6822F070060A683243FC
:1016F0005A60134B02689A4214D0B2F1804F11D055
:10170000104B9A420ED0104B9A420BD00F4B9A427C
:1017100008D00F4B9A4205D00E4B9A4202D00E4B86
:101720009A4204D1496825F080031943916080F8FA
:101730003D40002180F83C10084670BD022070BD7D
:10174000000001400004004000080040000C004080
:1017500000040140004001400018004010B50400A2
:1017600003D094F83D0010B107E0012010BD002027
:1017700084F83C00204600F01FF8022084F83D0069
:10178000211D206801F060FB012084F8460084F8E8
:101790003E0084F83F0084F8400084F8410084F85B
:1017A000420084F8430084F8440084F8450084F83B
:1017B0003D00002010BD0000F0B587B004461421A4
:1017C0006846FEF7C8FD3D48226800243B491038B2
:1017D00002253B4EB2F1804F14D03A4B9A4246D18B
:1017E000086840F0020008600868002200F002006B
:1017F000059011461D20FFF745FC1D20FFF734FC26
:1018000007B0F0BD0A6842F001020A60096801F001
:1018100001010591016841F002010160016801F0D8
:1018200002010591016841F001010160006802AA0E
:1018300000F0010005904FF48160CDE9000501271B
:1018400082E8B00069462048FFF7ACFAF803CDE91A
:10185000000502AA694682E8B0003046FFF7A2FA06
:10186000002211461C20FFF70DFC1C20C6E717497B
:101870008A42C5D11149091D0A6842F002020A6074
:10188000096801F002010591016841F00101016060
:101890000068694600F00100059040200090CDE905
:1018A00001540320CDE903403046FFF77BFA0022C4
:1018B00011462B20FFF7E6FB2B209FE74038024024
:1018C0000000024000040040000402400004014007
:1018D00090F83D10012901D001207047022180F8C5
:1018E0003D100168CA6842F00102CA6000681149EF
:1018F000884214D0B0F1804F11D00F4988420ED0E9
:101900000E4988420BD00E49884208D00D498842C2
:1019100005D00D49884202D00C49884204D1816823
:1019200001F00701062903D0016841F001010160BF
:101930000020704700000140000400400008004003
:10194000000C00400004014000400140001800402D
:1019500070B5044690F83C000025012817D00126F8
:1019600084F83C60022084F83D002068826822F000
:10197000770222F47F4282600868502838D00DDC5C
:1019800020284FD005DC90B3102811D14AE0022066
:1019900070BD302846D040280AD13BE060282FD0C7
:1019A00070280DD0B0F5805F03D0B0F5005F12D085
:1019B000012584F83D60002084F83C00284670BD75
:1019C000CB68D1E90121206801F0AFFA2068816875
:1019D00041F0770109E0CB68D1E90121206801F0ED
:1019E000A4FA2068816841F480418160E1E719E050
:1019F000CA684968206801F06DFB5021206806E044
:101A0000CA684968206801F0B7FB6021206801F0CE
:101A100096FACEE7CA684968206801F05BFB40216E
:101A20002068F4E7226801461046F0E70268506833
:101A300020F0800008435060002070472DE9F041FD
:101A40008F4C904DDFF84082217899B30068B0F157
:101A5000804F6FD129152846FFF79CFA01270026F1
:101A6000012845D0667108212846FFF793FA01281E
:101A700041D026714FF400414046FFF78BFA012810
:101A80003BD0E67000222079A0B300210A406179A2
:101A9000012937D000231A4236D000217B4800F0BC
:101AA000AFFB0421794800F00FFC0821774800F0D3
:101AB0000BFCC4E0FFE70021744800F005FC0421A2
:101AC000724800F001FC0821704800F0FDFB002284
:101AD00080214046FFF763FA002201212846FFF7E4
:101AE0005EFA2846BDE8F04100220221FFF757BA0E
:101AF0006771B8E704E02771BCE7E7700122C2E72D
:101B00000121C3E70123C6E7E278012A10D00023B0
:101B100088B100273B4081B100273B420FD0002114
:101B20005A4800F06DFB0421584800F0CDFB19E045
:101B30000123EDE79AE00127ECE70127EDE7012A11
:101B400020D0002301281FD000273B40F1B10027FF
:101B50003B421DD000214D4800F0B6FB04214B480C
:101B600000F04EFB0821494800F0AEFB0022802126
:101B70004046FFF714FA002201212846FFF70FFA2A
:101B8000012267E00123DDE70127DEE70127DFE728
:101B9000AAB10023012814D000273B4099B10027A7
:101BA0003B4212D00021394800F08EFB0421374817
:101BB00000F026FB0821354800F086FB1CE00123DD
:101BC000E8E70127E9E70127EAE7E2B10023012876
:101BD0001BD000273B40012919D000273B4218D0D9
:101BE00000212A4800F070FB0421284800F06CFB1B
:101BF0000821264800F004FB012280214046FFF71F
:101C0000CEF9002221E00123E1E70127E2E70127E5
:101C1000E4E76AB3002268B30020024001292BD018
:101C2000002002421AD00021184800F04DFB042188
:101C3000164800F049FB0821144800F0E1FA0022A0
:101C400080214046FFF7ABF9012201212846FFF72A
:101C5000A6F9002202212846FFF7A1F9E06868B141
:101C60002A21B1FBF0F000BFC4E90206BDE8F08113
:101C70000122D0E70120D0E70120D2E7A068F3E7F6
:101C80000400002000040240000002405001002037
:101C90002DE9F041054690F83C0000260C4601284D
:101CA00010D0012085F83C0072B1042A1CD0082A0B
:101CB0002CD00C2A50D00126002085F83C0030465C
:101CC000BDE8F0810220FBE7D4E90012E368286850
:101CD00001F012FA2868816921F00C0181612868FD
:101CE0008169A26811430FE0D4E90012E368286813
:101CF00001F054FA2868816921F440618161286803
:101D00008169A26841EA02218161D5E72868D4E9A6
:101D1000002C277B016A21F480710162C169036A8A
:101D200021F0030141EA0C0121F0F00C39074FF4D6
:101D300020674CEA116123F4206307EA02221A4368
:101D4000C16102622868C16921F00C01C161286883
:101D5000C169A268114328E02868D4E90027E16836
:101D6000036A23F480530362D0F81CC0036A2CF486
:101D7000407C4CEA07274FF6FF7C27F470470CEABB
:101D8000013139434FF4204723F4204307EA02325C
:101D90001A43C16102622868C16921F44061C161CE
:101DA0002868C169A26841EA0221C16184E710B5CF
:101DB000040003D094F83D0010B107E0012010BDED
:101DC000002084F83C00204600F01EF8022084F831
:101DD0003D00211D206801F037F8012084F84600FD
:101DE00084F83E0084F83F0084F8400084F8410005
:101DF00084F8420084F8430084F8440084F84500E5
:101E000084F83D00002010BD7047000030B5044646
:101E1000002551B104290DD0082910D094F84100B3
:101E200094F84520012811D10EE094F83E0094F872
:101E30004220F7E794F83F0094F84320F2E794F843
:101E4000400094F84420EDE7012A01D0012030BD84
:101E5000022059B1042912D0082919D084F8410070
:101E600084F845000C2944D0012540E084F83E0068
:101E700084F842002068C26842F0020210E084F850
:101E80003F0084F843002068C26842F0040207E083
:101E900084F8400084F844002068C26842F00802D8
:101EA000C2600122206801F033F81449206888429A
:101EB00014D0B0F1804F11D0114988420ED0114991
:101EC00088420BD01049884208D01049884205D07A
:101ED0000F49884202D00F49884204D1816801F03D
:101EE0000701062903D0016841F00101016028467D
:101EF00030BD2068C26842F01002D1E70000014006
:101F00000004004000080040000C004000040140B4
:101F1000004001400018004070B5044600680169A7
:101F20004FF00005C943890715D4C168C943890723
:101F300011D4E91E016101202077206880698007A3
:101F4000204602D0FFF77AFD04E000F0C3F82046F7
:101F500000F055F9257720680169C943490717D46E
:101F6000C168C943490713D46FF00401016102201D
:101F700020772068806910F4407F204602D0FFF768
:101F80005DFD04E000F0A6F8204600F038F9257762
:101F900020680169C943090716D4C168C943090704
:101FA00012D46FF008010161042020772068C06915
:101FB0008007204602D0FFF741FD04E000F08AF8D8
:101FC000204600F01CF9257720680169C943C9063D
:101FD00017D4C168C943C90613D46FF01001016159
:101FE000082020772068C06910F4407F204602D086
:101FF000FFF724FD04E000F06DF8204600F0FFF844
:10200000257720680169C943C90708D1C168C94358
:10201000C90704D1891E0161204600F093F92068A8
:102020000169C943090609D4C168C943090605D431
:102030006FF0800101612046FFF7ECFA206801692A
:10204000C943490609D4C168C943490605D46FF09C
:1020500040010161204600F083F920680169C9430D
:1020600089060BD4C168C943890607D46FF02001E3
:1020700001612046BDE87040FFF7FCBA70BD00006A
:1020800010B586B0044614216846FEF764F90E497F
:102090002068884216D10D480021026842F00402EF
:1020A0000260006800F0040005904FF4E0700090BA
:1020B0000220CDE901010320039004906946044801
:1020C000FEF770FE06B010BD00040140303802403B
:1020D00000080240704770B5044690F83C000026A6
:1020E0000D4601280FD0012084F83C006AB1042A73
:1020F0001DD0082A2FD00C2A3FD00126002084F8BA
:102100003C00304670BD022070BD206800F020FF0A
:102110002068816941F0080181612068816921F0AE
:1021200004018161206881692A69114311E02068F6
:1021300000F03EFF2068816941F400618161206800
:10214000816921F480618161206881692A6941EA9D
:1021500002218161D2E7206800F060FF2068C16938
:1021600041F00801C1612068C16921F00401C16129
:102170002068C1692A69114311E0206800F082FFDC
:102180002068C16941F40061C1612068C16921F41E
:102190008061C1612068C1692A6941EA0221C16187
:1021A000ACE710B5040003D094F83D0010B107E08F
:1021B000012010BD002084F83C00204600F01EF8ED
:1021C000022084F83D00211D206800F03DFE012022
:1021D00084F8460084F83E0084F83F0084F840000C
:1021E00084F8410084F8420084F8430084F84400F5
:1021F00084F8450084F83D00002010BD704770470A
:1022000010B50446022249B104290ED0082913D082
:1022100094F84100012816D0012010BD94F83E002A
:102220000128F9D184F83E200FE094F83F000128FE
:10223000F2D184F83F2008E094F840000128EBD167
:1022400084F8402001E084F841200122206800F059
:102250005FFE16492068164A884201D0904203D199
:10226000436C43F4004343642068884213D0B0F1C8
:10227000804F10D00F4988420DD00F4988420AD0B4
:102280000E49884207D0904205D00D49884202D0BD
:102290000C49884204D1816801F00701062903D066
:1022A000016841F001010160002010BD0000014003
:1022B000000401400004004000080040000C004001
:1022C000004001400018004030B504460D4600684B
:1022D000002200F01DFE194B41F2111120688A10F6
:1022E000984202D0164B984209D1036A0B4206D19C
:1022F000036A134203D1436C23F400434364206810
:10230000036A0B4206D1016A114203D1016821F030
:102310000101016001203DB1042D08D0082D09D034
:1023200084F84100002030BD84F83E00FAE784F8CC
:102330003F00F7E784F84000F4E7000000000140A8
:102340000004014000680449884203D10348C16881
:10235000491CC160704700000004004004000020D8
:102360007047FEE770B50646002440F23F11204654
:1023700000F05CF900F096FA4FF49635304600F024
:1023800067FA641CAC42F9D3BDE870400122110326
:10239000014800F03FB80000000802401A4810B59C
:1023A000016886B041F004010160016801F0040198
:1023B0000591016841F0020101600068694600F082
:1023C00002000590012001900290000300900F4848
:1023D000FEF7E8FC20200E4C009069462046FEF7F0
:1023E000E1FC002220212046FEF7D9FD002141F228
:1023F0008830491C8142FCD3012220212046FEF76F
:10240000CEFD06B010BD000030380240000802408A
:1024100000040240FEF7C3BD203AD2B2034B02EBE8
:10242000420203EB021200F01BB800001E34000849
:102430002DE9F041002500EB40000E462C46C70078
:1024400007E0F8B22146FFF7E7FF10346D1CA4B295
:10245000761C3278002A01D0142DF2D3BDE8F08129
:102460002DE9F05FA1F23F11C1F1000A914600266B
:1024700004461FFA8AF100F0D9F80127DFF84C80F2
:102480004FF4805B00F00EFA5FF0000539F816009B
:1024900007FA05F10842404601D1408800E0008873
:1024A00000F0D6F96D1C102DF0D3012259460848D2
:1024B000FFF7B0FF641CE4B21FFA8AF1204600F077
:1024C000B5F8761C182EDDD3BDE8F09F0000002083
:1024D000000802402DE9F04107460A24B2FBF4F05F
:1024E000164604FB10603030C2B20D46C1F5C07014
:1024F00081B23846FFF790FFB6FBF4F6002E3DD0D0
:10250000B6FBF4F004FB10603030C2B2C5F5B87011
:1025100081B23846FFF780FFB6FBF4F6002E2DD0CF
:10252000B6FBF4F004FB10603030C2B2C5F5B070F9
:1025300081B23846FFF770FFB6FBF4F6002E1DD0CF
:10254000B6FBF4F004FB10603030C2B2C5F5A870E1
:1025500081B23846FFF760FFB6FBF4F000280DD0DB
:10256000B0FBF4F104FB11003030C2B2C5F5A0702D
:1025700081B23846BDE8F041FFF74EBFBDE8F081BB
:1025800070B5274886B0016841F004010160016818
:1025900001F004010591016841F002010160016848
:1025A00001F002010591016841F008010160016834
:1025B00001F008010591016841F0400101600068E7
:1025C000184E00F0400005900120C40301900290D5
:1025D000694600943046FEF7E5FBA5116946304692
:1025E0000095FEF7DFFB8020009069463046FEF73D
:1025F000D9FBFF20009069460B48FEF7D3FB012270
:1026000080213046FEF7CBFC012229463046FEF7FA
:10261000C6FC012221463046FEF7C1FC06B070BD63
:1026200030380240000C02400018024010B50C4641
:102630000146202000F044F92146BDE81040212049
:1026400000F03EB901B5BDF800000149088008BDA1
:102650000000002010B5FFF7A1FEFFF791FF0A2050
:1026600000F0C8FD0121002000F02AF94FF480712C
:10267000012000F025F94FF4E061022000F020F97C
:1026800041F23001032000F01BF90021042000F08A
:1026900017F940F20221082000F012F90021092068
:1026A00000F00EF900210A2000F00AF900210C20A8
:1026B00000F006F900210D2000F002F900210F20A2
:1026C00000F0FEF80021102000F0FAF8002111209F
:1026D00000F0F6F80021122000F0F2F8002113209B
:1026E00000F0EEF80A2000F085FD41F2B0711020F4
:1026F00000F0E6F840F23711112000F0E1F80A206E
:1027000000F078FD40F23911122000F0D9F80A20CB
:1027100000F070FD4FF4E851132000F0D1F81321C0
:10272000292000F0CDF80A2000F064FD00212020CF
:1027300000F0C6F80021212000F0C2F80621302068
:1027400000F0BEF840F20111312000F0B9F8032189
:10275000322000F0B5F84FF48371352000F0B0F866
:1027600040F60231362000F0ABF840F2023137205B
:1027700000F0A6F840F20771382000F0A1F8072118
:10278000392000F09DF84FF4C0613C2000F098F82B
:1027900040F20B213D2000F093F80021502000F082
:1027A0008FF8EF21512000F08BF80021522000F02B
:1027B00087F840F23F11532000F082F84FF4274190
:1027C000602000F07DF80121612000F079F80021FF
:1027D0006A2000F075F80021802000F071F80021D7
:1027E000812000F06DF80021822000F069F80021BE
:1027F000832000F065F80021842000F061F80021BA
:10280000852000F05DF81021902000F059F800219B
:10281000922000F055F80321932000F051F84FF476
:102820008871952000F04CF80021972000F048F8BE
:102830000021982000F044F841F21801032000F034
:102840003FF8BDE8104040F27311072000F038B89F
:102850002DE9F041114E0446012280213046FEF759
:102860009EFB0F4D200A28604FF400470022394696
:102870003046FEF794FB012239463046FEF78FFBC7
:102880002C60002239463046FEF789FB3946304637
:10289000BDE8F0410122FEF782BB0000000C0240BF
:1028A0001418024010B5222000F046F8BDE8104090
:1028B00000224FF480510148FFF7ACBD00080240F0
:1028C0002DE9F0470C4600F037F8DFF860804FF450
:1028D0008056002231464046FFF79CFDDFF85090BD
:1028E000012280214846FEF75AFB124D200A28603B
:1028F000F700002239464846FEF751FB01223946CF
:102900004846FEF74CFB2C60002239464846FEF74D
:1029100046FB012239464846FEF741FB3146404618
:10292000BDE8F0470122FFF775BD00000008024036
:10293000000C0240141802402DE9F047DFF86880CF
:1029400007464FF48055002229464046FFF762FDB6
:10295000DFF85890002280214846FEF720FB144CF7
:10296000002020600246EE0031464846FEF717FB85
:10297000012231464846FEF712FB2760002231460D
:102980004846FEF70CFB012231464846FEF707FB9E
:10299000012280214846FEF702FB29464046BDE859
:1029A000F0470122FFF736BD00080240000C02404C
:1029B000141802407FB50024154800940194029435
:1029C0001249039401604FF48031C0E901140125DC
:1029D0000461057680F820400E49C0E90A14C561FB
:1029E000C46080F830504561FDF701FF08B172B650
:1029F000FEE70E20CDE90005694602940448FDF784
:102A00004DFE002801D072B6FEE77FBD00200140D8
:102A1000300000200100000F7FB50024154800940D
:102A2000019402941249039401604FF48031C0E98B
:102A300001140461047680F820400F49C0E90A14AB
:102A40000125C561C46080F830504561FDF7CFFEB7
:102A500008B172B6FEE70720CDE900056946029489
:102A60000448FDF71BFE002801D072B6FEE77FBDCB
:102A700000220140780000200100000F2DE9F04104
:102A800086B014216846FDF766FC2E484FF000081A
:102A9000016841F020010160016801F02001059109
:102AA000016841F080010160016801F08001059139
:102AB000016841F001010160016801F00101059127
:102AC000016841F004010160016801F00401059111
:102AD000016841F002010160016801F00201059105
:102AE000016841F0400101600068174E00F04000AD
:102AF0000590002280213046FEF751FA134F002244
:102B000003213846FEF74BFA01248020CDE900046A
:102B1000032569463046CDE90245FEF743F9CDE984
:102B2000005469463846CDE90245FEF73BF9A0025C
:102B3000CDE90008694602940548FEF733F906B06E
:102B4000BDE8F0813038024000000240000402403D
:102B50000018024010B58AB000242F480494059450
:102B600006940794089409940094019402944FF0F9
:102B70008041039401605321C0E901144FF6FF71B5
:102B8000C0E9031480218161FEF7E8FD08B172B647
:102B9000FEE74FF48050049004A91F48FEF7D8FECA
:102BA00008B172B6FEE71C48FFF701F908B172B62A
:102BB000FEE7089408A918480994FEF787FD08B1B4
:102BC00072B6FEE70A2000900120CDE9010408203A
:102BD0000390002269461048FFF75AF808B172B610
:102BE000FEE7042269460C48FFF752F808B172B6B6
:102BF000FEE7082269460848FFF74AF808B172B6AE
:102C0000FEE780210448FEF711FF002801D072B6CC
:102C1000FEE70AB010BD0000C000002010B586B06D
:102C200000241748009401940294039404941349D7
:102C30000594016042F2CF01C0E901140921C0E905
:102C4000031480218161FEF789FD08B172B6FEE7A9
:102C50004FF48050009069460948FEF779FE08B1AC
:102C600072B6FEE7049404A905480594FEF72EFD0C
:102C7000002801D072B6FEE706B010BD0004004087
:102C80000801002030B595B000240F9410941194E1
:102C9000129413941C2168461494FDF75CFB2021C8
:102CA00007A8FDF758FB31482F49C0E9001442F24C
:102CB000D001C0E9024180210461C0E90541FEF76D
:102CC0004DFD08B172B6FEE74FF480550FA92748B5
:102CD0000F95FEF73DFE08B172B6FEE72348FFF7F9
:102CE00060FA08B172B6FEE7139413A91F48149452
:102CF000FEF7ECFC08B172B6FEE76020CDE90004F7
:102D0000029403940494059400226946174806949B
:102D1000FFF7E1F908B172B6FEE7042269461348ED
:102D2000FFF7D9F908B172B6FEE7082269460F48E5
:102D3000FFF7D1F908B172B6FEE74FF400600790D3
:102D40004010CDE90804CDE90A450C9407A90748CD
:102D50000E94FEF790FC08B172B6FEE70348FFF749
:102D60008FF915B030BD0000000401405001002073
:102D7000FEE7FEE77047FFF76DBC7047FEF71AB934
:102D800030B593B030216846FDF7E5FA14210CA860
:102D9000FDF7E1FA1D480025016841F0805101600E
:102DA000006800F0805011901948016841F480419A
:102DB00001600068022400F480401190012003901B
:102DC00010200490009406940820CDE90750A82014
:102DD000CDE9090404200B906846FEF751FA08B1CA
:102DE00072B6FEE70CA90F2081E831004FF4A05025
:102DF0000F904FF48050109005210CA8FEF774F945
:102E0000002801D072B6FEE713B030BD4038024052
:102E1000007000400248016841F470010160704791
:102E200088ED00E00148FFF777B80000C0000020FF
:102E30000148FFF771B80000080100200148FFF7C2
:102E40006BB8000050010020F0B50268254C264DFB
:102E5000264E274F274B4FF0804CA04209D06045AB
:102E600007D0A84205D0B04203D0B84201D0984262
:102E700004D122F0700E4A6842EA0E02A0421BD032
:102E8000604519D0A84217D0B04215D0B84213D02F
:102E9000984211D0184DA8420ED0184DA8420BD020
:102EA000174DA84208D0174DA84205D0164DA8428C
:102EB00002D0164DA84203D122F44075CA682A43B5
:102EC0004D6922F080022A4302608A68C2620A6861
:102ED0008262A04201D0984201D1096901630121B7
:102EE0004161F0BD000001400004004000080040C6
:102EF000000C00400004014000400140004401403B
:102F00000048014000180040001C00400020004024
:102F100010B501F01F030121046A99408C4304623B
:102F2000016A9A401143016210BD10B5846842EAFB
:102F3000032224F47F440A432243826010BD826846
:102F400022F070020A4342F00701816070470000DE
:102F5000F0B5026A22F001020262036A42688469E3
:102F6000124E24F073050C682C4323F002058B6885
:102F70002B430D4DA84201D0B04205D123F00807E4
:102F8000CB683B4323F00403A84201D0B04205D1F3
:102F90004D6922F4407215438A692A434260846174
:102FA000496841630362F0BD000001400004014034
:102FB000F0B5026A22F010020262026A4368846974
:102FC0000D6824F4E64444EA05248D6822F02002CA
:102FD00042EA05120F4D104EA84201D0B04206D170
:102FE000CF6822F0800242EA071222F04002A84293
:102FF00001D0B04207D14D6923F4406343EA850311
:103000008D6943EA85034360846149688163026294
:10301000F0BD00000000014000040140F0B5026A6C
:1030200022F480720262026A4368C46922F4007268
:1030300024F073050C68124E2C438D6842EA052279
:103040000E4DA84201D0B04206D1CF6822F40062F2
:1030500042EA072222F48062A84201D0B04207D19E
:103060004D6923F4405343EA05138D6943EA051380
:103070004360C4614968C1630262F0BD0000014061
:103080000004014030B5026A22F480520262046AF0
:103090004268C3690D6823F4E64343EA05238D685B
:1030A00024F4005444EA0534084DA84202D0084DE7
:1030B000A84204D14D6922F4804242EA851242605E
:1030C000C36149680164046230BD00000000014032
:1030D0000004014010B5036A046A24F0010404628C
:1030E000846924F0F00444EA021423F00A020A433B
:1030F0008461026210BD000070B5046A24F001040E
:1031000004628469056A154EB04214D0B0F1804F54
:1031100011D0134EB0420ED0124EB0420BD0124E10
:10312000B04208D0114EB04205D0114EB04202D08C
:10313000104EB04203D124F00304144301E044F0E4
:1031400001041A0724F0F00444EA126225F00A038D
:1031500001F00A0119438261016270BD0000014063
:103160000004004000080040000C00400004014042
:10317000004001400018004010B5036A23F010031E
:1031800003628369046A23F4704343EA023224F041
:10319000A00343EA01118261016210BD30B5046AE7
:1031A00024F0100404628469056A24F4407444EA3B
:1031B000022222F470444FF6FF7202EA03322243E5
:1031C000A02425F0A00304EA0111194382610162E1
:1031D00030BDFEE70907090E002804DB00F1E020FE
:1031E00080F80014704700F00F0000F1E02080F834
:1031F000141D704701B581B00449019848430090FF
:10320000002801D0401EFAE70CBD0000A086010096
:1032100008B5FDF7D7FEFFF7B3FDFFF72FFC6F48AA
:103220004FF00009016841F48001016000684A46DE
:1032300000F48000009049463820FDF723FF382035
:10324000FDF712FF002211463920FDF71BFF392040
:10325000FDF70AFFFFF7AEFBFFF7DEFBFFF77AFC97
:10326000FFF7DCFCFFF70EFD00215D48FEF7CEFD09
:1032700004215B48FEF7CAFD08215948FEF7C6FD48
:10328000574800219030FEF7BBFF5548042190308D
:10329000FEF7B6FF524808219030FEF7B1FF5048C4
:1032A0004830FEF715FBFFF7D5F9FFF764FD4D48F1
:1032B0000088FFF757F81F20FFF7C4F94A4D642034
:1032C0004AA128600020FFF7B3F849A10220FFF7C8
:1032D000AFF849A10420FFF7ABF849A10620FFF79A
:1032E000A7F8DFF8FCA0494F0AF1900A4FF43478B0
:1032F0004FF48066A5F11004394801223A4990380C
:10330000FDF722FB6070384935480122091D483815
:10331000FDF71AFBA0706178B1B92A6841468A426C
:1033200009D9DAF800305A63DAF800309A63DAF82B
:103330000010CA6308E0DAF800305963DAF80030A8
:103340009963DAF80020D16368B92748DFED300AC5
:10335000001D90ED000AB8EE400A20EE200ABCEEF7
:10336000C00A84ED060A31463846FDF713FEB8B9A7
:103370000520FDF705FD31463846FDF70BFE78B90F
:103380002078C0F10100C0B22070012808D1144893
:10339000FEF754FB0520FDF7F3FC1148FEF74EFB4A
:1033A000E088092802D0401CE080A5E7C82114204D
:1033B0002A68FFF78FF80022C8214620FFF78AF815
:1033C000C8217820A268FFF785F8C821AA20A26941
:1033D000FFF780F8A4F806908EE70000303802402E
:1033E000C0000020020000201400002052503A00CB
:1033F00050574D3A0000000053504545443A0000F4
:10340000564F4C544147453A000000000018024016
:103410006C09793B4FF04070E1EE100A70470000F4
:10342000000000000000000000000000000000009C
:10343000000000000000000000000000000000008C
:10344000000000000000000000000000000000007C
:103450008001800180018001800180018001800164
:103460008001800180018001800100000000800156
:1034700080010000000000000000000000000000CB
:103480000000CC00CC00CC00CC00CC00CC00000074
:10349000000000000000000000000000000000002C
:1034A000000000000000000000000000000000001C
:1034B00000000000000000000000600C600C600CC8
:1034C00030063006FE1FFE1F300638071803FE1FA9
:1034D000FE1F180318038C018C018C0100000000F2
:1034E0008000E003F80F9C0E8C1C8C188C00980058
:1034F000F801E007800E801C8C188C189C18B80C02
:10350000F00FE003800080000000000000000000D9
:10351000000000000E181B0C110C110611061103FF
:1035200011039B018E01C038C06C6044604430447C
:1035300030441844186C0C380000000000000000F3
:10354000E001F0033807180618063003F001F00018
:10355000F8009C310E33061E061C061C063FFC7349
:10356000F02100000000000000000000000000004A
:1035700000000C000C000C000C000C000C00000003
:10358000000000000000000000000000000000003B
:10359000000000000000000000000000000000002B
:1035A000000200038001C000C00060006000300025
:1035B000300030003000300030003000300060005B
:1035C0006000C000C0008001000300020000000095
:1035D00020006000C000800180010003000300069D
:1035E00000060006000600060006000600060003AE
:1035F000000380018001C000600020000000000086
:1036000000000000000000000000C000C000D8065C
:10361000F807E00130033807000000000000000058
:10362000000000000000000000000000000000009A
:103630000000000000000000000080018001800107
:1036400080018001FC3FFC3F8001800180018001FE
:1036500080010000000000000000000000000000E9
:10366000000000000000000000000000000000005A
:10367000000000000000000000000000000000004A
:1036800080018001000100018000000000000000B6
:10369000000000000000000000000000000000002A
:1036A000000000000000E007E0070000000000004C
:1036B000000000000000000000000000000000000A
:1036C00000000000000000000000000000000000FA
:1036D00000000000000000000000000000000000EA
:1036E000C000C0000000000000000000000000005A
:1036F000000C000C00060006000600030003000397
:103700008003800180018001C000C000C000600013
:103710006000000000000000000000000000000049
:10372000E003F007380E180C0C180C180C180C18C5
:103730000C180C180C180C180C18180C380EF00774
:10374000E003000000000000000000000000000096
:1037500000018001C001F001980188018001800111
:103760008001800180018001800180018001800151
:1037700080010000000000000000000000000000C8
:10378000E003F80F180C0C180C1800180018000CA7
:10379000000600038001C000600030001800FC1F1C
:1037A000FC1F0000000000000000000000000000FE
:1037B000E001F807180E0C0C0C0C000C0006C003FE
:1037C000C007000C001800180C180C18180CF8078B
:1037D000E003000000000000000000000000000006
:1037E000000C000E000F000F800DC00C600C600C70
:1037F000300C180C0C0CFC3FFC3F000C000C000CB7
:10380000000C0000000000000000000000000000AC
:10381000F80FF80F180018000C00EC03FC071C0E42
:10382000001C0018001800180C181C0C180EF807C3
:10383000E0030000000000000000000000000000A5
:10384000C007F00F381C181818000C00CC03EC0F40
:103850003C0E1C1C0C180C180C18181C380EF00709
:10386000E003000000000000000000000000000075
:10387000FC1FFC1F000C00060006000380038001F3
:10388000C001C000E0006000600070003000300047
:1038900030000000000000000000000000000000F8
:1038A000E003F007380E180C180C180C3806F00757
:1038B000F007180C0C180C180C180C18380CF80F12
:1038C000E003000000000000000000000000000015
:1038D000E003F007380E1C0C0C180C180C181C1CFC
:1038E000381EF81BE0190018000C000C1C0EF8071D
:1038F000F0010000000000000000000000000000D7
:1039000000000000000000000000800180010000B5
:103910000000000000000000000000000000800126
:103920008001000000000000000000000000000016
:103930000000000000000000000080018001000085
:1039400000000000000000000000000000008001F6
:103950008001000100018000000000000000000064
:103960000000000000000000000000000000001047
:10397000001C800FE003F8001800F800E003800F3F
:10398000001C00100000000000000000000000000B
:103990000000000000000000000000000000F81F10
:1039A000000000000000F81F000000000000000000
:1039B0000000000000000000000000000000000007
:1039C00000000000000000000000000000000800EF
:1039D0003800F001C007001F0018001FC007F001E9
:1039E0003800080000000000000000000000000097
:1039F000E003F80F180C0C180C180018000C000647
:103A000000038001C000C000C00000000000C00032
:103A1000C0000000000000000000000000000000E6
:103A20000000E00718180420C229224A1144094462
:103A30000944094409221113E20C02400420181819
:103A4000E00700000000000000000000000000008F
:103A500080038003C006C006C006600C600C3018EE
:103A600030183018F83FF83F1C700C600C6006C02E
:103A700006C0000000000000000000000000000080
:103A8000FC03FC0F0C0C0C180C180C180C0CFC078D
:103A9000FC0F0C180C300C300C300C300C18FC1FC8
:103AA000FC07000000000000000000000000000013
:103AB000C007F01F38381C300C7006600600060086
:103AC000060006000600060006600C701C30F01FA1
:103AD000E0070000000000000000000000000000FF
:103AE000FE03FE0F060E06180618063006300630D6
:103AF000063006300630063006180618060EFE0F91
:103B0000FE030000000000000000000000000000B4
:103B1000FC3FFC3F0C000C000C000C000C00FC1FD8
:103B2000FC1F0C000C000C000C000C000C00FC3FF7
:103B3000FC3F00000000000000000000000000004A
:103B4000F83FF83F18001800180018001800F81F78
:103B5000F81F1800180018001800180018001800A6
:103B6000180000000000000000000000000000003D
:103B7000E00FF83F3C780E6006E007C0030003004A
:103B800003FE03FE03C007C006C00EC03CF0F83FB2
:103B9000E00F000000000000000000000000000036
:103BA0000C300C300C300C300C300C300C30FC3F36
:103BB000FC3F0C300C300C300C300C300C300C3026
:103BC0000C300000000000000000000000000000B9
:103BD00080018001800180018001800180018001DD
:103BE00080018001800180018001800180018001CD
:103BF0008001000000000000000000000000000044
:103C00000006000600060006000600060006000684
:103C10000006000600060006180618063807F0031E
:103C2000E0010000000000000000000000000000B3
:103C300006300618060C060606038601C600660056
:103C40007600DE008E0106030606060C0618063016
:103C500006600000000000000000000000000000FE
:103C60001800180018001800180018001800180094
:103C70001800180018001800180018001800F81F85
:103C8000F81F00000000000000000000000000001D
:103C90000EE01EF01EF01EF036D836D836D836D8D4
:103CA00066CC66CC66CCC6C6C6C6C6C6C6C686C305
:103CB00086C30000000000000000000000000000BB
:103CC0000C301C303C303C306C306C30CC30CC3064
:103CD0008C310C330C330C360C360C3C0C3C0C3851
:103CE0000C30000000000000000000000000000098
:103CF000E007F81F1C380E70066003C003C003C045
:103D000003C003C003C003C006600E701C38F81F58
:103D1000E0070000000000000000000000000000BC
:103D2000FC0FFC1F0C380C300C300C300C300C1815
:103D3000FC1FFC070C000C000C000C000C000C001D
:103D40000C00000000000000000000000000000067
:103D5000E007F81F1C380E70066003E003C003C0C4
:103D600003C003C003C007E006630E3F1C3CF83FDE
:103D7000E0F700C0000000000000000000000000AC
:103D8000FE0FFE1F06380630063006300638FE1FCE
:103D9000FE0706030606060C06180618063006304F
:103DA00006600000000000000000000000000000AD
:103DB000E003F80F1C0C0C180C180C001C00F80386
:103DC000E00F001E0038063006300E301C1CF80FC5
:103DD000E0070000000000000000000000000000FC
:103DE000FE7FFE7F800180018001800180018001D3
:103DF00080018001800180018001800180018001BB
:103E00008001000000000000000000000000000031
:103E10000C300C300C300C300C300C300C300C30C2
:103E20000C300C300C300C300C300C301818F81FE3
:103E3000E00700000000000000000000000000009B
:103E400003600630063006300C180C180C18180CDD
:103E5000180C380E30063006700760036003C0018E
:103E6000C001000000000000000000000000000091
:103E70000360C361C361C36166336633663366330F
:103E8000663366336C1B6C1B6C1B2C1A3C1E380E85
:103E9000380E0000000000000000000000000000DC
:103EA0000FE00C7018303018700C600EC0078003E3
:103EB0008003C003E006700C301C18180C300E6034
:103EC00007E000000000000000000000000000000B
:103ED00003C006600C301C383818300C6006E00750
:103EE000C003800180018001800180018001800188
:103EF0008001000000000000000000000000000041
:103F0000FC7FFC7F006000300018000C00060003FE
:103F10008001C0006000300018000C000600FE7F29
:103F2000FE7F000000000000000000000000000014
:103F3000E003E0036000600060006000600060007B
:103F40006000600060006000600060006000600071
:103F50006000600060006000E003E003000000001B
:103F600030003000600060006000C000C000C00091
:103F7000C0018001800180010003000300030006EE
:103F8000000600000000000000000000000000002B
:103F9000E003E00300030003000300030003000349
:103FA00000030003000300030003000300030003F9
:103FB0000003000300030003E003E003000000002F
:103FC0000000C001C00160036003600330063006DA
:103FD000180C180C00000000000000000000000099
:103FE00000000000000000000000000000000000D1
:103FF00000000000000000000000000000000000C1
:1040000000000000000000000000000000000000B0
:10401000FFFFFFFF000000000000000000000000A4
:104020000C000C000C000C000C000C000000000048
:104030000000000000000000000000000000000080
:104040000000000000000000000000000000000070
:1040500000000000000000000000F003F8071C0C46
:104060000C0C000FF00FF80C0C0C0C0C1C0FF80FC4
:10407000F018000000000000000000000000000038
:1040800018001800180018001800D803F80F380C92
:10409000181818181818181818181818380CF80FB5
:1040A000D803000000000000000000000000000035
:1040B00000000000000000000000C003F007300E08
:1040C000180C1800180018001800180C300EF00713
:1040D000C00300000000000000000000000000001D
:1040E00000180018001800180018C01BF01F301C22
:1040F000181818181818181818181818301CF01F45
:10410000C01B0000000000000000000000000000D4
:1041100000000000000000000000C003F00F300CA1
:104120001818F81FF81F180018003818301CF00F66
:10413000C0070000000000000000000000000000B8
:10414000800FC00FC000C000C000F007F007C00023
:10415000C000C000C000C000C000C000C000C0005F
:10416000C00000000000000000000000000000008F
:1041700000000000000000000000E00DF80F180E25
:104180000C0C0C0C0C0C0C0C0C0C0C0C180EF80F72
:10419000E00D000C0C0C1C06F807F00100000000FC
:1041A00018001800180018001800D807F80F381C5D
:1041B000181818181818181818181818181818187F
:1041C00018180000000000000000000000000000BF
:1041D000C000C000000000000000C000C000C0001F
:1041E000C000C000C000C000C000C000C000C000CF
:1041F000C0000000000000000000000000000000FF
:10420000C000C000000000000000C000C000C000EE
:10421000C000C000C000C000C000C000C000C0009E
:10422000C000C000C000C000F8007800000000001E
:104230000C000C000C000C000C000C0C0C060C0309
:104240008C01CC006C00FC009C018C030C030C0660
:104250000C0C000000000000000000000000000046
:10426000C000C000C000C000C000C000C000C0004E
:10427000C000C000C000C000C000C000C000C0003E
:10428000C00000000000000000000000000000006E
:10429000000000000000000000007C3CFF7EC7E33F
:1042A00083C183C183C183C183C183C183C183C1EE
:1042B00083C10000000000000000000000000000BA
:1042C000000000000000000000009807F80F381CF4
:1042D000181818181818181818181818181818185E
:1042E000181800000000000000000000000000009E
:1042F00000000000000000000000C003F00F300CC0
:10430000181818181818181818181818300CF00F52
:10431000C0030000000000000000000000000000DA
:1043200000000000000000000000D803F80F380C67
:10433000181818181818181818181818380CF80F12
:10434000D80318001800180018001800000000001A
:1043500000000000000000000000C01BF01F301C27
:10436000181818181818181818181818301CF01FD2
:10437000C01B0018001800180018001800000000EA
:1043800000000000000000000000B007F003700013
:10439000300030003000300030003000300030009D
:1043A00030000000000000000000000000000000DD
:1043B00000000000000000000000E003F003380EE1
:1043C000180C3800F003C007000C180C380EF0076A
:1043D000E0030000000000000000000000000000FA
:1043E00000008000C000C000C000F007F007C0005F
:1043F000C000C000C000C000C000C000C000C007B6
:104400008007000000000000000000000000000025
:10441000000000000000000000001818181818180C
:10442000181818181818181818181818381CF01F09
:10443000E019000000000000000000000000000083
:10444000000000000000000000000C18180C180C00
:10445000180C300630063006600360036003C001AC
:10446000C00100000000000000000000000000008B
:1044700000000000000000000000C141C141C36114
:104480006363636363633636363636361C1C1C1C26
:104490001C1C0000000000000000000000000000E4
:1044A000000000000000000000001C38381C300C28
:1044B000600660036003600360036006300C381C14
:1044C0001C38000000000000000000000000000098
:1044D0000000000000000000000018303018301804
:1044E0007018600C600CE00CC006C00680038003EE
:1044F000800380018001C001F00070000000000016
:1045000000000000000000000000FC1FFC1F000C69
:10451000000600038001C000600030001800FC1F8E
:10452000FC1F000000000000000000000000000070
:1045300000038001C000C000C000C000C000C00077
:1045400060006000300060004000C000C000C0009B
:10455000C000C000C0008001000300000000000097
:104560008001800180018001800180018001800143
:104570008001800180018001800180018001800133
:104580008001800180018001800180010000000025
:104590006000C000C00180018001800180018001B5
:1045A0000003000300060003000180018001800178
:1045B000800180018001C000600000000000000058
:1045C0000000000000000000000000000000F010EB
:1045D000F81F080F000000000000000000000000AD
:1045E00000000000000000000000000000000006C5
:1045F0001016000610160000000000000000010266
:1046000003040607080900002846000800000020EF
:1046100030000000C40100085846000830000020A7
:1046200088080000E00100080000FFFF0000000013
:10463000000000000000000000000000000000007A
:104640000000000000000000010000001000000059
:08465000000000000024F4004A
:040000050800018965
:00000001FF
