:020000040800F2
:10000000700E00209D010008A501000801270008CE
:10001000A9010008AB010008AD01000800000000C4
:10002000000000000000000000000000AF01000818
:10003000B101000800000000B3010008494F0008AA
:10004000B7010008B7010008B7010008B7010008B0
:10005000B7010008B70100082D0700083D07000898
:10006000B7010008B7010008B7010008B701000890
:10007000B7010008B7010008B7010008B701000880
:10008000B7010008B701000801030008B701000824
:10009000B7010008B7010008B7010008B701000860
:1000A000B7010008B7010008B7010008B701000850
:1000B0001550000839500008B7010008B7010008C2
:1000C000B7010008B7010008B7010008B701000830
:1000D000B7010008015E0008B7010008B701000879
:1000E000B7010008B7010008B70100084550000833
:1000F00071500008B7010008B7010008B7010008F7
:10010000B7010008B7010008B7010008B7010008EF
:10011000B701000811530008B7010008B701000833
:10012000B7010008B7010008B7010008B7010008CF
:10013000B7010008B7010008B7010008B7010008BF
:10014000B7010008B7010008B7010008B7010008AF
:10015000B7010008B7010008B7010008B70100089F
:10016000B7010008B7010008B7010008B70100088F
:10017000B7010008B7010008B7010008B70100087F
:10018000B7010008B7010008DFF80CD000F07AF8DA
:1001900000480047C9600008700E002006488047EC
:1001A00006480047FEE7FEE7FEE7FEE7FEE7FEE75C
:1001B000FEE7FEE7FEE7FEE7F94F000889010008C9
:1001C0002DE9F05F0546002092469B46884606468C
:1001D000814640241BE0284641464746224600F01F
:1001E00041F853465A46C01A914110D31146184659
:1001F000224600F028F82D1A67EB01084F462246E8
:100200000120002100F01FF817EB00094E41201ECD
:10021000A4F10104DFDC484631462A464346BDE8E6
:10022000F09FD2B201E000F8012B491EFBD27047CB
:100230000022F6E710B513460A4604461946FFF7B2
:10024000F0FF204610BD202A04DB203A00FA02F11C
:10025000002070479140C2F1200320FA03F31943B4
:1002600090407047202A04DB203A21FA02F0002156
:10027000704721FA02F3D040C2F1200291400843B6
:1002800019467047064C074D06E0E06840F0010350
:1002900094E8070098471034AC42F6D3FFF778FF94
:1002A000F86A0008186B000870B58C1810F8015B2C
:1002B00015F0070301D110F8013B2A1106D110F8FF
:1002C000012B03E010F8016B01F8016B5B1EF9D103
:1002D0002B0705D40023521E0DD401F8013BFAE789
:1002E00010F8013BCB1A921C03E013F8015B01F8F4
:1002F000015B521EF9D5A142D8D3002070BD000089
:100300000D4810B5016811F0040F09D0016821F003
:100310000C01016004F09CFFBDE8104005F0F4B949
:10032000D0F8001221F00C01C0F8001204F090FF88
:10033000BDE8104005F0E8B90020014010B40246C5
:1003400008460FFA81FC1CFB0CF40B1413FB034151
:10035000148864438C4224BF10BC704792F8B040AC
:10036000C4EB1161C9B202EB41014A8810BC0CFB1D
:1003700002F14FEAE17C01EB5C41C91361F30F002C
:1003800003FB02F1CA1701EB5241C91361F31F408D
:10039000704700002DE9F04104461F4DC08EEE135A
:1003A0004FF47007012817D1204694F8301005F05B
:1003B0000FFA06FA80F197FAA7F27001B2FA82F208
:1003C000D04005EB800082686FF30F12114381600B
:1003D000686840F001006860208F012818BFBDE800
:1003E000F081204694F8311005F0F2F906FA80F118
:1003F00097FAA7F24FF48000B2FA82F2D04005EBF0
:10040000800082686FF30F1211438160686840F0CA
:1004100002006860BDE8F08100740040084490F874
:100420003000704700EB4100B0F932007047000027
:10043000C28E0849012A03D10A6842F001020A600B
:10044000008F012818BF7047086840F480300860AA
:100450007047000000740040084480F83020704766
:1004600000EB41004286704770B504468089012543
:1004700030B1401E0004000CA08118BF002501D03F
:10048000284670BDB4F91400217E90FBF1F001B252
:10049000A06800F03AF90120A073F1E7C07B704733
:1004A0008360C0E9001200218173C1737047807BB3
:1004B0007047C173704710B504460022406811466A
:1004C00005F0EFFCB4F91410606805F025FD00217B
:1004D000206804F078FC00221146206804F0FAFB42
:1004E000E28AB4F91210206804F0F4FBE08A218A51
:1004F00048434FF47A71B0FBF1F0401CA08110BD6D
:10050000016A496A026F5143C27A4A43D31702EB28
:1005100013421214CB1701EB1341028009144180DE
:10052000104670472DE9F047036A077F00225C6A96
:10053000B0F824C0914682841B68BCF1010F03F01F
:10054000100584BF012380F87630B0F816C0038D03
:10055000102D63D0A34294BF00250125E31A05FBAB
:100560000C3390F86CC000EB8C0CCCF82C3000BF36
:10057000A7F1010CBCF1000F13DD00F1280317F007
:10058000010F08BF53F8042F00255E685FEA6C0C6A
:1005900006D03244F3E902864544BCF1010CF8D19F
:1005A0002A447B1E03D400EB8303DB6A1A44438B8B
:1005B00090F81CC05343C28A02FB0CF293FBF2F288
:1005C0000A808388D31A0381828090F86C20B0F867
:1005D000743000EB8202D26A5A43C37A5A43C38A08
:1005E00092FBF3F2838AC2EB024292FBF3F2C280E7
:1005F000048590F86C20521C80F86C2090F86C20D8
:10060000037F9A4208BF80F86C9090F876209AB1E8
:1006100080F82690027C0021827210E0A34234BF51
:1006200001250025E31A05FB1C3390F86CC000EB94
:100630008C0CCCF82C309BE704F0E6FA0146084617
:10064000BDE8F08790F81CC0BCF1000F17D0002364
:100650001CF001011A461CBF0123C2628C450EDD4D
:1006600000EB830C5B1CCCF82C2000EB830C891C6A
:10067000CCF82C2090F81CC05B1C8C45F0DC0121D0
:1006800080F826107047818C491C818400207047B7
:1006900010B4016A00224A62C28A4FF0FF33B3FBF2
:1006A000F2F20267428B4CF6CD435A43D20CA0F8CB
:1006B00074206FF001020A61CA6842F00102CA6048
:1006C0000A6842F001020A60037F002B04BF10BCDD
:1006D00070474FF0000C13F0010162461CBF4FF051
:1006E000010CC2629942A4BF10BC704700EB8C049D
:1006F0000CF1010CE26200EB8C04891C0CF1010C82
:10070000E2629942F2DB10BC7047026A4FF6FF7357
:100710000029B8BF494289B2B8BF591AC08A4843B4
:10072000B0FBF3F080B25062704700000249012034
:10073000086005F003BA0000143C0140022000F0FC
:1007400041BC000070B4002138B346780178731EB4
:100750003144002B18DD421C16F0010F02D112F8B3
:1007600001CF614454784FF0000C5B100AD000BFF9
:1007700012F8025F21445478AC4489B21FFA8CFC11
:100780005B1EF5D1614489B2721E03D41044807897
:10079000084481B201EB1120C1B270BC0846704719
:1007A000002141820175417580F8961080F89710FC
:1007B00080F8981080F8991080F89A1080F81B1132
:1007C00080F81C1180F81D117047DDF800C000286A
:1007D00018BF80E80E10704710B5044600EB4400C7
:1007E00000EB04121248002100EB42021148116094
:1007F0005160D1601161D183C2F81610C2F81A108D
:10080000118450F8240003F017F80B48002150F829
:10081000240003F011F8094850F8240004F052FABB
:10082000074850F82400BDE8104003F071B90000FB
:10083000E008002094060020980600208C06002086
:10084000A406002010B490F83C20012A02BF022028
:1008500010BC7047012280F83C200A680723D0F8BA
:1008600000C0092A18D9DCF80C400A3A02EB42020F
:1008700003FA02F224EA0202CCF80C200B788A6810
:100880000A3B03EB430302FA03F30268D2F80CC0FD
:1008900043EA0C03D36015E0DCF8104002EB42029F
:1008A00003FA02F224EA0202CCF810200B788A68DC
:1008B00003EB430302FA03F30268D2F810C043EAE1
:1008C0000C0313610268936B23F440139363026873
:1008D000936BB1F810C05A4C04EB0C5C43EA0C0368
:1008E00093630A790B7CD21AD21C02EB82021F237B
:1008F00093400268D2F838C02CEA030393630A7964
:100900000B7CD21A0B88D21C02EB82029BB2934062
:100910000268D2F838C043EA0C0393638A696FF423
:100920007023DA420268936823F4702393600268AC
:10093000936808BF23F440130FD0D1F818C043EADE
:100940000C0393600268936823F440139360026879
:100950009368D1F81CC043EA0C0393604A7D002AD7
:100960000268536814BF43F4806323F480635360C8
:100970000A7D002A0268536814BF43F4805323F4AD
:10098000805353604A68012A1BD0022A26D0032ACA
:10099000026830D0136A6FF30B0313620268136AA4
:1009A000D1F80CC043EA0C031362274BD0F800C007
:1009B000244A9C4504BFD1F800C0BCF1120F2CD1D1
:1009C00025E0026853696FF30B03536102685369B2
:1009D000D1F80CC043EA0C035361E6E7026893695F
:1009E0006FF30B03936102689369D1F80CC043EA7B
:1009F0000C039361D9E7D3696FF30B03D3610268EA
:100A0000D369D1F80CC043EA0C03D361CDE7D2F827
:100A100004C04CF4800CC2F804C0D0F800C09C455F
:100A200008D10968102918BF112903D1516841F470
:100A300000015160002180F83C1010BC084670474E
:100A40000000F0FF002301400020014030B482B0DC
:100A50004FF0000CCDF804C090F83C20012A01BFF3
:100A6000022002B030BC7047012280F83C200A68A6
:100A700007230468092A14D9E5680A3A02EB4202FE
:100A800003FA02F225EA0202E2600B788A680A3B66
:100A900003EB430302FA03F30268D4682343D360F1
:100AA00011E0256902EB420203FA02F225EA020292
:100AB00022610B788A6803EB430302FA03F30268AE
:100AC0001469234313614A681F23072A16D2046856
:100AD000656B521E02EB820203FA02F225EA020261
:100AE00062630B790A885B1E92B203EB830302FAFE
:100AF00003F30268546B234353632DE004680D2A0B
:100B000015D2256BD21F02EB820203FA02F225EA0C
:100B1000020222630B790A88DB1F92B203EB830384
:100B200002FA03F30268146B2343136314E0E56ACB
:100B30000D3A02EB820203FA02F225EA0202E262B5
:100B40000B790A880D3B92B203EB830302FA03F39D
:100B50000268D46A2343D362254B0468234A9C422B
:100B600004BF0C68122C03D1546844F48004546010
:100B700004689C422FD10B68102B18BF112B2AD16F
:100B8000536843F4000353600968102923D11949BD
:100B9000194A0968B1FBF2F101EB810149000191A9
:100BA000009118D0B1F1004F1BD20029D8BF00210D
:100BB00005DD11F0010102D0019A521E0192009A46
:100BC000491C521C914206DA019B891C5B1E5B1E6C
:100BD00001939142F8DB80F83CC002B0002030BCA9
:100BE00070470199491E0191FCD1F4E700230140AF
:100BF00000200140DC06002040420F0070B50400D8
:100C00004FF0000504BF012070BD206C002628B9FC
:100C1000204600F0ADF8666484F83C60206C10F06B
:100C2000100F18BF012503D084F83C60284670BD22
:100C3000206C20F4885040F002002064494841684C
:100C400021F440314160416862681143416020688D
:100C5000416821F48071416020684168226941EA5D
:100C6000022141602068416821F0407141602068A4
:100C70004168A268114341602068816821F40061E5
:100C8000816020688168E26811438160A06A6FF02A
:100C90007061C8422068816821F0706181602068BD
:100CA000816808BF21F040510BD0A26A11438160D6
:100CB0002068816821F04051816020688168E26A83
:100CC000114381602068816821F002018160206801
:100CD0008168227E41EA4201816094F82000002868
:100CE0002068416808BF21F400610ED041F4006122
:100CF00041602068416821F460414160206841689A
:100D0000194B626A03EB4232114341602068C16AA9
:100D100021F47001C1622068C16AA28B134B03EBFE
:100D200002521143C1622068816821F40071816020
:100D30002068816894F8302041EA4221816020686F
:100D4000816821F48061816020688168626941EA7C
:100D5000822181606664206C20F0020040F0010076
:100D6000206461E70023014000E0FFFF0000F0FF86
:100D70002DE9F04186B0002400940194029403947C
:100D8000049402683848394903254026384FDFF873
:100D9000E480A2F18043B3F590332DD0364B9A42D4
:100DA0001CBF06B0BDE8F081026842F40072026028
:100DB000006800F400700590086840F001000860C9
:100DC000086800F001000590086840F00200086023
:100DD0000868694600F002000590CDE900653846D4
:100DE00000F0FCF80095CDE901546946404600F05A
:100DF000F5F806B0BDE8F081026842F48072026046
:100E0000006800F480700590086840F004000860F5
:100E1000086800F004000590086840F001000860D0
:100E2000086800F001000590086840F002000860C2
:100E30000868694600F0020005900920CDE9000528
:100E40000E4800F0CBF80096CDE9015469463846CB
:100E500000F0C4F80095CDE901546946404600F021
:100E6000BDF806B0BDE8F081443802403038024099
:100E7000000002400004024000210140000802403E
:100E80004379012B04BF0220704730B44FF0010CAE
:100E900080F805C00223037103681C6840F6FE75E4
:100EA0009540AC43D1E90051294391402143196059
:100EB00001680B68C02404FA02F223EA02020A6005
:100EC00080F804C00021417130BC084670470028FA
:100ED00004BF0120704770B504460079002518B999
:100EE0006571204600F008F802202071256101207C
:100EF0002071002070BD000000B587B00021009176
:100F000001910291039104910068A0F18041B1F533
:100F1000E8411CBF07B000BD0D48016841F0005119
:100F20000160006800F0005005900A48016841F037
:100F3000010101600068694600F001000590302061
:100F4000009003200190044800F048F807B000BD6D
:100F500040380240303802400000024090F835101E
:100F6000022903D08021416501207047052180F8C6
:100F700035100068016821F0010101600020704710
:100F800070B5044600F04EF90546B4F1FF3F02D0BB
:100F900004480078044400F045F9401BA042FAD30D
:100FA00070BD0000D0060020022818BF704704481A
:100FB0000178002914BF0021012101707047000051
:100FC0000000002004490A68024208BF704710B5BB
:100FD0000860FFF7E9FF10BD143C01402DE9F84F10
:100FE00000220127874D03264FF00F080B6807FAF0
:100FF00002FC03EA0C03634540F0FD804C68012CC1
:1010000018BF022C03D0112C18BF122C18D1D0F805
:101010000890540006FA04FA29EA0A09D1F80CA04B
:101020000AFA04F444EA09048460446824EA0C0CD3
:101030000C79C4F30014944044EA0C0CC0F804C0CA
:10104000D0F80C904FEA420CD1F808A006FA0CF444
:1010500029EA04090AFA0CFA4AEA0909C0F80C90CC
:10106000D1F80490B9F1020F18BFB9F1120F15D1E0
:101070004FEAD20900EB890ADAF820B04FEA427948
:101080004FEAD96908FA09FE2BEA0E0BD1F810E0F5
:101090000EFA09F949EA0B09CAF82090D0F8009035
:1010A00029EA040491F8049009F0030909FA0CFCF8
:1010B0004CEA040CC0F800C0D1F804C01CF0805FFA
:1010C0007DD0D5F800C04CF4804CC5F800C0D5F8F0
:1010D00000C00CF4804CCDF800C022F0030C0CF1E1
:1010E000804404F59834D4F808984FEA827C4FEA9B
:1010F0001C7C08FA0CFA29EA0A09A0F1804ABAF520
:10110000003A38D0A0F1804ABAF5013A08BF4FF052
:10111000010A30D0A0F1804ABAF5023A08BF4FF078
:10112000020A28D0A0F1804ABAF5033A08BF4FF06E
:10113000030A20D0A0F1804ABAF5043A08BF4FF064
:10114000040A18D0A0F1804ABAF5053A08BF4FF05A
:10115000050A10D0A0F1804ABAF5063A08BF4FF050
:10116000060A08D0A0F1804ABAF5073A0CBF4FF042
:10117000070A4FF0080A0AFA0CFC4CEA090CC4F8FA
:1011800008C8214CD4F800C0D1F804902CEA030C14
:1011900019F4803F18BF4CEA030CC4F800C01B4C84
:1011A000D4F800C0D1F804902CEA030C19F4003FE5
:1011B00018BF4CEA030CC4F800C0154C00E01AE05C
:1011C000D4F800C0D1F804902CEA030C19F4801F65
:1011D00018BF4CEA030CC4F800C00E4CD4F800C091
:1011E000D1F804902CEA030C19F4001F18BF4CEA44
:1011F000030CC4F800C0521C102AFFF4F7AEBDE87F
:10120000F88F000044380240003C0140043C01409B
:10121000083C01400C3C01400069084018BF012017
:10122000704700000148806870470000D006002029
:10123000024881680278114481607047D00600201E
:101240000B4810B5016841F400710160016841F478
:1012500080610160016841F480710160032000F049
:1012600087F8042000F006F800F024F8002010BDF4
:10127000003C024070B50D4D04464FF47A71287859
:10128000B1FBF0F00A490968B1FBF0F000F08AFB0D
:1012900048B9102C07D200222146501E00F036F823
:1012A00000206C6070BD012070BD0000D0060020E1
:1012B000DC0600200B4882B0016841F480410160E7
:1012C000006800F4804000900748016841F08051B8
:1012D0000160006800F080500090042002B000F02F
:1012E00047B8000044380240403802400028B8BFE8
:1012F000704700F01F01012202FA01F1400980004D
:1013000000F1E020C0F8001170470000174B10B446
:101310001B68C3F30223C3F1070CBCF1040F88BFA1
:101320004FF0040C1C1D072C34BF0023DB1E0124CE
:1013300004FA0CFCACF1010C0CEA0101994004FA2E
:1013400003F35B1E1A40114300284FEA0111A1BFAD
:1013500000F1E02080F8001410BC704700F00F008E
:1013600000F1E02080F8141D10BC70470CED00E087
:10137000074900F007000A684FF6FF031A4042EAE7
:10138000002040F0FD7040F0806008607047000071
:101390000CED00E0002804BF012070472DE9F04764
:1013A0004D4E04460F46306801F0FF0800F00F0074
:1013B000B84206D286F80080306800F00F00B842CC
:1013C00061D12068454D10F0020F14D010F0040FC9
:1013D00003D0286840F4E0502860207810F0080F0F
:1013E00003D0286840F4604028602868A16820F095
:1013F000F00008432860207810F0010F37D06068B3
:101400003749012823D0022818BF0328096823D0B0
:1014100011F0020F37D0296821F00301084328603A
:10142000FFF700FF81462868616800F00C00B0EB10
:10143000810F18BF41F2883A19D000BFFFF7F2FEC2
:10144000A0EB090050450BD90320BDE8F0870968DF
:1014500011F4003FDFD116E011F0007FDBD112E084
:101460002868616800F00C00B0EB810FE6D13068AD
:1014700000F00F00B84209D986F80080306800F00B
:101480000F00B84202D00120BDE8F087207810F0AC
:10149000040F05D02868E16820F4E0500843286074
:1014A000207810F0080F06D02868216920F46040E9
:1014B00040EAC100286000F047F82968094AC1F3F2
:1014C0000311515CC8400849086008480068FFF7EC
:1014D000D1FE0020BDE8F087003C02400838024001
:1014E00000380240CC680008DC060020D40600204A
:1014F00001490120C8647047000047420148006864
:1015000070470000DC0600200448054900680968AF
:10151000044AC1F38221515CC8407047DC060020B8
:1015200008380240DC68000804480549006809687A
:10153000044AC1F34231515CC8407047DC060020C8
:1015400008380240DC6800081848006810F00C02F7
:10155000174808BF70471749042A04BF0846704758
:10156000082A18BF704710B5134C2268236802F090
:101570003F0213F4800F08D020680023C0F38810C6
:10158000A0FB0101FEF71CFE07E021680023C1F368
:101590008811A1FB0001FEF713FE2168C1F3014190
:1015A000491C4900B0FBF1F010BD000008380240B2
:1015B0000024F40000127A0004380240002804BF1E
:1015C000012070472DE9F84F04460078DFF8AC831E
:1015D00010F0010FA8F1040558D008F104000168CB
:1015E00001F00C01042909D0006800F00C00082863
:1015F0000DD1D8F8000010F4800F08D0286810F43E
:10160000003F43D06068002800F0B1813EE0606890
:10161000B0F5803F19D0B0F5A02F28680CBF40F47A
:10162000802020F48030286028680CBF40F480308F
:1016300020F4802028606068B8B1FFF7F3FD06460B
:10164000286810F4003F05D020E0286840F480307E
:101650002860F0E7FFF7E6FD801B642800F2278191
:10166000286810F4003FF5D010E0FFF7DBFD0646D8
:10167000286810F4003F09D0FFF7D4FD801B6428D0
:1016800000F21581286810F4003FF5D12078BC4F96
:1016900010F0020F47D0BB48016811F00C0F15D0B5
:1016A000006800F00C00082804BFD8F8000010F40F
:1016B000800F0BD0E06818B301203860FFF7B2FD4F
:1016C0000646286810F0020F09D011E0286810F0D3
:1016D000020F1CBFE06801280AD000F048B9FFF7EC
:1016E000A1FD801B02287DD8286810F0020FF6D0DB
:1016F0002868216920F0F80040EAC100286012E063
:1017000000203860FFF78EFD0646286810F0020FB3
:1017100009D000BFFFF786FD801B022862D8286829
:1017200010F0020FF6D1207810F0080F2AD096485A
:10173000964E616999B101210160FFF773FD814601
:10174000306810F0020F1DD1FFF76CFDA0EB09000F
:10175000022847D8306810F0020FF5D012E00021BF
:101760000160FFF75FFD8146306810F0020F09D07D
:10177000FFF758FDA0EB0900022833D8306810F0BD
:10178000020FF5D1207810F0040F77D080484FF089
:10179000000B006810F0805F0AD17D48016841F0BD
:1017A0008051016000684FF0010B00F08050009004
:1017B000784E306810F4807F16D1306840F4807025
:1017C0003060FFF72FFD8146306810F4807F0BD129
:1017D000FFF728FDA0EB0900022868D8306810F454
:1017E000807F00E063E0F3D0A0686B4E01281BD03F
:1017F000052830680CBF40F0040020F00100306084
:1018000030680CBF40F0010020F00400C6F8000072
:10181000A06841F2883AB8B1FFF704FD814630680C
:1018200010F0020F05D021E0306840F00100306078
:10183000EEE7FFF7F7FCA0EB0900504537D830681A
:1018400010F0020FF5D011E0FFF7ECFC8146306894
:1018500010F0020F0AD000BFFFF7E4FCA0EB090074
:10186000504524D8306810F0020FF5D1BBF1000FBD
:1018700004D04748016821F080510160A069E8B3B5
:101880004049096801F00C01082950D002284FF0A6
:10189000000038660ED0FFF7C5FC0446286810F03B
:1018A000007F67D0FFF7BEFC001B02283AD9032057
:1018B000BDE8F88FFFF7B6FC0646286810F0007FF9
:1018C00009D000BFFFF7AEFC801B0228EFD82868C4
:1018D00010F0007FF6D1D4E907010843A16A2F4A2E
:1018E000490802EB0141626A41EA8211084394F817
:1018F0002C1040EA0160C8F8000000E03AE0012046
:101900003866FFF78FFC0446286810F0007F31D15D
:10191000FFF788FC001B0228C9D8286810F0007F58
:10192000F6D027E0286810F0007FBBD122E0012824
:1019300008BFBDE8F88FD8F80000E26900F4800124
:10194000914214D1226A00F03F0191420FD147F633
:10195000C071626A0140914209D1A26A00F440312B
:10196000914204D1E16A00F07060884202D0012007
:10197000BDE8F88F0020BDE8F88F00000438024071
:101980000000474208380240800E47427438024047
:101990004038024000700040703802400000FFFFF5
:1019A00070470000411EB1F1807F24BF01207047C5
:1019B0004FF0E0204161054AF02182F8141D00211A
:1019C0008161072101610020704700000FE000E005
:1019D00010B5FFF7E5FF10BD7047704790F83C2049
:1019E000012A04BF02207047012280F83C20CA6807
:1019F0008B6822F440721A434B6822F480621A43C7
:101A00000B6822F400621A430B6922F480521A43D5
:101A10004B6922F400521A43C96922F480421143EF
:101A200002685164002180F83C100846704790F825
:101A30003C20012A04BF0220704730B4012380F803
:101A40003C30022280F83D2002685468D2F808C079
:101A50000D6824F070042C4354600268A2F18044A5
:101A6000B4F5803418BFB2F1804F1DD0A2F180448C
:101A7000B4F580641CBFA2F18044B4F5006413D0B7
:101A8000A2F18044B4F540641CBFA2F18044B4F5D7
:101A9000823409D0A2F18044B4F5A0341CBFA2F175
:101AA0008044B4F5C05405D149682CF0800C41EA5B
:101AB0000C01916080F83D30002180F83C1030BC72
:101AC00008467047002804BF0120704710B504463F
:101AD00090F83D0028B9002084F83C00204600F032
:101AE0000DF8022084F83D00211D206803F0CCFA97
:101AF000012084F83D00002010BD0000006881B086
:101B0000A0F18041B1F582311CBF01B0704705489A
:101B1000016841F002010160006800F002000090DD
:101B200001B0704744380240002804BF01207047CC
:101B300070B5044690F83D000D4628B9002084F8A1
:101B40003C00204600F048F8022084F83D00206860
:101B5000816821F0070121F480418160211D206806
:101B600003F092FA206883688269016AD5F800C0A0
:101B700022F00302AE694CEA030322F4407242EA07
:101B80000622D5F808C0EE694CEA020222F0FC02F7
:101B900022F47C42D5F80CC042EA06224CEA02024A
:101BA000D5F810C02E6A4FEA0C1C4CEA063C4CEAF1
:101BB0000202D5F804C06D6921F0AA0141EA0511BD
:101BC0004CEA010183602068826120680162012083
:101BD00084F83D00002070BD70B586B000240094EC
:101BE000019402940394049402682E492E4802251D
:101BF000B2F1804F28D0A2F18043B3F580631CBFBF
:101C000006B070BD0A6842F002020A60096801F07D
:101C100002010591016841F0040101600068694614
:101C200000F004000590C020CDE900051F48049590
:101C3000FFF7D4F9002211461D20FFF767FB1D2096
:101C4000FFF754FB06B070BD0A6842F001020A605B
:101C5000096801F001010591016841F0020101608C
:101C6000016801F002010591016841F00101016084
:101C70000068012600F0010005900820CDE900056C
:101C8000694604960A48FFF7A9F9F0030090CDE9E8
:101C90000154CDE9034669460648FFF79FF906B0AF
:101CA00070BD000040380240303802400008024059
:101CB00000040240000002400268C9B10429116A10
:101CC0001ED021F001011162116A41F0010111627F
:101CD00001680A6A22F010020A620A6A42F01002DF
:101CE0000A620068016841F001010160002070474C
:101CF000116A21F001011162116A41F0010105E050
:101D000021F010011162116A41F010011162E8E73F
:101D1000704770B50446006801694FF0000511F086
:101D2000020F1CBFC16811F0020F13D06FF0020147
:101D30000161012020772068806910F0030F2046A0
:101D400002D0FFF7E5FF04E000F0DAF8204600F0EB
:101D50001BFA25772068016911F0040F1CBFC168C8
:101D600011F0040F13D06FF00401016102202077FD
:101D70002068806910F4407F204602D0FFF7C8FF3A
:101D800004E000F0BDF8204600F0FEF92577206859
:101D9000016911F0080F1CBFC16811F0080F13D0C2
:101DA0006FF008010161042020772068C06910F0FD
:101DB000030F204602D0FFF7ABFF04E000F0A0F8CD
:101DC000204600F0E1F925772068016911F0100F35
:101DD0001CBFC16811F0100F13D06FF0100101612A
:101DE000082020772068C06910F4407F204602D088
:101DF000FFF78EFF04E000F083F8204600F0C4F9FE
:101E000025772068016911F0010F1CBFC16811F02E
:101E1000010F05D06FF001010161204600F0B5F916
:101E20002068016911F0800F1CBFC16811F0800F9C
:101E300005D06FF0800101612046FFF7CDFD2068DD
:101E4000016911F0400F1CBFC16811F0400F05D0AF
:101E50006FF040010161204600F0C3F9206801697C
:101E600011F0200F1ABFC16811F0200F70BD6FF084
:101E7000200101612046BDE87040FFF7AEBD0000C3
:101E800030B587B000210091019102910391049136
:101E90000068A0F18041B1F582311CBF07B030BDB0
:101EA0001448016841F480710160016801F4807197
:101EB0000591016841F0800101600068022400F092
:101EC00080000590E020CDE90004032502946946D6
:101ED0000948CDE90345FFF781F84FF46040CDE9AB
:101EE0000004029469460548CDE90345FFF776F8FA
:101EF00007B030BD3038024000200240001C0240D4
:101F00007047000090F83C30012B04BF022070475E
:101F10002DE9F001012480F83C40022380F83D3097
:101F2000894BDFF828C242B1042A48D0082A7CD065
:101F30000C2A00F0CC8000F0FDB80268156A25F08C
:101F400001051562156A56689769D1F8008027F077
:101F5000730748EA0707D1F8088025F0020548EA28
:101F600005059A4218BF624507D1D1F80C8025F0CB
:101F7000080548EA050525F004059A4218BF6245A0
:101F800009D1D1F814C026F440734CEA0303D1F808
:101F900018C04CEA0306566097614B68536315629C
:101FA0000268936943F0080393610268936923F020
:101FB00004039361026893690969194343E0026865
:101FC000156A25F010051562156A56689769D1F8EB
:101FD000008027F4E64747EA0827D1F8088025F073
:101FE000200545EA08159A4218BF624507D1D1F885
:101FF0000C8025F0800545EA081525F040059A4239
:1020000018BF624509D1D1F814C026F4406343EAF1
:102010008C03D1F818C043EA8C06566097614B6870
:10202000936315620268936900E00EE043F4006375
:1020300093610268936923F48063936102689369F2
:10204000096943EA0121916174E00268156A25F487
:1020500080751562166A5568D769D1F8008027F037
:10206000730748EA0707D1F8088026F4007646EAA5
:1020700008269A4218BF624507D1D1F80C8026F491
:10208000006646EA082626F480669A4218BF624532
:1020900009D1D1F814C025F4405343EA0C13D1F808
:1020A00018C043EA0C155560D7614B68D3631662BC
:1020B0000268D36943F00803D3610268D36923F04F
:1020C0000403D3610268D3690969194331E00268E6
:1020D000156A25F480551562176A5568D669D1F8D6
:1020E000008026F4E64646EA0826D1F8088027F460
:1020F000005747EA08379A4218BF624505D1D1F820
:1021000014C025F4804343EA8C155560D6614B68B2
:10211000136417620268D36943F40063D3610268F1
:10212000D36923F48063D3610268D369096943EA00
:102130000121D16180F83D40002180F83C10BDE8CC
:10214000F001084670470000000001400004014013
:10215000002804BF0120704710B5044690F83D00E8
:1021600028B9002084F83C00204600F00CF802203A
:1021700084F83D00211D206802F086FF012084F8CC
:102180003D00002010BD70477047704770B5044691
:1021900090F83C00012804BF022070BD012584F89E
:1021A0003C50022084F83D00204602F0D1FF01009F
:1021B0004FF0000005D084F83D5084F83C00012029
:1021C00070BD2168CA6822F04002CA602168CA68EE
:1021D00022F48042CA6084F83D5084F83C0000201C
:1021E00070BD70477047000070B50168044608680C
:1021F000CA684B6910F00F0F4FF0200541D003F073
:10220000010C02F490765CEA060600F0F98010F00A
:10221000010F18BF12F4807F03D0E66B46F0010671
:10222000E66310F0040F18BF13F0010F03D0E66B44
:1022300046F00206E66310F0020F18BF13F0010F1C
:1022400003D0E36B43F00403E36310F0080F1CBFFB
:1022500002F0200353EA0C0303D0E36B43F00803BE
:10226000E363E36B002B08BF70BD10F0200F18BFB5
:1022700012F0200F73D094F83A202046222A4BD037
:1022800087E010F0200F18BF12F0200F00F0B88088
:1022900094F83A202046222A18BF70BD8268B2F511
:1022A000805F23D0026982B3496801F07F02816AAE
:1022B0004B1C83620A70C18D491E0904090CC1853B
:1022C00018BF70BD0168CA6822F02002CA600168A8
:1022D000CA6822F48072CA6001684A6922F0010269
:1022E0004A6180F83A5000F075F970BD0369826A5E
:1022F0004968002B14BFC9B2C1F308011180816A7B
:1023000014BF491C891C8162D5E7FFE74A68816ACE
:102310004B1C83620A70CEE78268B2F5805F0FD0F3
:102320000269EAB1496801F07F02816A4B1C83624D
:102330000A70C18D491E0904090CC18529D115E017
:102340000369826A4968002B14BFC9B2C1F308014E
:102350001180816A14BF491C891C8162E9E718E079
:102360004A68816A4B1C83620A70E2E70168CA68A6
:1023700022F02002CA600168CA6822F48072CA6032
:1023800001684A6922F001024A6180F83A5000F07F
:1023900021F920684169E26BC1F3801102F0080263
:1023A000114326D0C16821F49071C1602068416951
:1023B00021F00101416184F83A502068416911F02F
:1023C000400F12D0416921F040014161606B60B162
:1023D0002D490165606BFEF7C1FD002808BF70BD87
:1023E000606B016DBDE8704008472046FFF7FAFEBC
:1023F00070BD2046FFF7F6FE0020E06370BD00BF11
:1024000010F0800F18BF12F0800F2CD094F8390014
:10241000212818BF70BDA068B0F5805F206A16D073
:10242000411C2162216800784860E08C401E000455
:10243000000CE08418BF70BD2068C16821F08001E5
:10244000C1602068C16841F04001C16070BD008872
:10245000C0F30800486020690028206A14BF401CAF
:10246000801C2062E1E710F0400F14BF12F0400F13
:1024700070BD2046CA6822F04002CA6084F8395014
:1024800000F03DF970BD00001D530008002804BF96
:102490000120704770B5044690F83900002520B936
:1024A00084F83850204600F023F8242084F83900BE
:1024B0002068C16821F40051C160204602F036FF57
:1024C0002068016921F4904101612068416921F08F
:1024D0002A0141612068C16841F40051C160E5638F
:1024E000202084F8390084F83A00002070BD0000F4
:1024F000F0B587B000210091019102910391049100
:1025000001682E480224A1F18042B2F5A04220D0F9
:10251000B2F540421CBF07B0F0BD29490A6842F03D
:1025200010020A60096801F010010591016841F08C
:10253000020101600068694600F002000590C020B9
:10254000CDE90004072004901E48FEF747FD07B0C0
:10255000F0BD1D490A6842F480120A60096801F45E
:1025600080110591016841F004010160016801F0EA
:1025700004010591016841F008010160006801252E
:1025800000F0080005904FF48050032608278DE8DE
:10259000F10069460D48FEF721FD04208DE8F100A9
:1025A00069460B48FEF71AFD002211463520FEF75A
:1025B000ADFE3520FEF79AFE07B0F0BD3038024080
:1025C0004438024000040240403802400008024003
:1025D000000C0240704700002DE9F84F044690F8C7
:1025E00039001D4617460E4620287DD1002E12BF09
:1025F000002F0120BDE8F88F94F8380001287BD027
:10260000012084F838004FF0000AC4F83CA02120D3
:1026100084F83900FEF706FEA7848046E78484F834
:1026200038A0E08C4FF02009002854D0E08C401EE8
:10263000E084A0684FF08007B0F5805F20680068F4
:1026400027EA00001FD000283ED000BFB5F1FF3FB1
:1026500035D02DB1FEF7E6FDA0EB0801A9422ED939
:102660002068C16821F4D071C1602068416921F0FF
:102670000101416184F8399084F83A9084F838A0D7
:102680000320BDE8F88F78B1B5F1FF3F07D0002DEA
:10269000E6D0FEF7C7FDA0EB0801A942E0D820680C
:1026A000006837EA0000EFD130882168C0F30800E5
:1026B0004860206900280CBFB61C761C08E0206822
:1026C000006837EA0000C1D1216816F8010B4860A4
:1026D000E08C0028AAD143460022402120460095E4
:1026E00002F0EEFE002800E006E012BF032084F8AE
:1026F00039900020BDE8F88F0220BDE8F88F7047C0
:1027000082B002F095FD184CD4F82001006810F05A
:10271000080F0AD0144802F00BFFD4F8200101681A
:1027200000914068009003F03DFAD4F82001006861
:1027300010F0800F1CBF0C4802F0AAFFD4F8200153
:10274000016811F0200FDFD04068C1B2064802F0E6
:10275000F9FE0088012804D0022808BF03F022FAFD
:10276000D2E703F019FACFE744050020012908BF9A
:10277000002115D0042908BF012111D0102908BF5C
:1027800002210DD0402908BF032109D0B1F5807F77
:1027900008BF042104D0B1F5806F0CBF05210621CC
:1027A000084B18305B5C1844D0F800C0064B595CED
:1027B00073238B402CEA030302FA01F119430160F1
:1027C00070470000E46A0008EB6A000810B5044690
:1027D000406802F0D0FAA168086110BD00680121CC
:1027E00002F031BB002808BF704710B50446007ED8
:1027F000012818BF10BD217B0020012904D0022927
:1028000010D003291ED026E0A16881F82400012100
:10281000606802F0D8FAE28AB4F90E10606802F03B
:1028200059FA0CE0A16881F824000021606802F0E8
:10283000CAFAE28AB4F91010606802F04BFA50B19B
:10284000022009E0A168012081F82400A068D4F8E2
:1028500012100161F4E70320207610BD01230373F9
:10286000C181C282037643767047022303730182DB
:10287000C28201210176002141767047006802F092
:10288000B0BA10B5406802F08CFABDE8104002F012
:10289000ABB9407E704780680068704780684068C8
:1028A00070478068C0687047806800697047027B25
:1028B0000021012A08BFB0F90E1008467047406891
:1028C00002F063BA006802F0B7BA8068B0F91E007F
:1028D00070478068D0F81A0070478068D0F81600FA
:1028E00070478360C0E9001200210173C181018239
:1028F000C1820176704703220273418209148182EA
:1029000001210176002141767047826851828068FA
:102910008182704710B504460068032102F093FAE3
:1029200000281CBF0121217610BD0068072102F09C
:102930008ABA406802F04DBA014661F30F0044F6CE
:10294000E61211FB02F244F6E61311FB23F10A44EE
:1029500011444942C913B1F5004FA8BF47F6FF71B2
:1029600004DA11F5004FB4BF054909B261F31F4005
:1029700011F5004F04BF48F2010161F31F40704799
:102980000080FFFF70B50546084600F059F82AB2EE
:1029900003B212FB03F14FEA254C05141CFB05F0B2
:1029A000081AC0131649B0F5004FA8BF47F6FF70CC
:1029B00004DA10F5004FB4BF084600B260F30F040C
:1029C000104E10F5004F08BF66F30F0412FB05F020
:1029D0001CFB03F21044C013B0F5004FA8BF47F62C
:1029E000FF7103DA10F5004FA8BF01B2204661F372
:1029F0001F4011F5004F08BF66F31F4070BD000077
:102A00000080FFFF0180FFFF10B50446084600F07C
:102A100017F814FB00F12214031412FB03FC6144A9
:102A20004FEAE13C29466CF30F0114FB03F312FB60
:102A300000F0C01AC01360F31F41084610BD00002B
:102A400000F50041890911F4407C00F50041C1F313
:102A500087121749C2F1FF0317D0BCF5807F1DD044
:102A6000BCF5007F0AD0BCF5407F18BF704731F835
:102A7000133031F8121063F31F400DE031F81220CB
:102A800031F8131062F31F400FE031F8122031F8D3
:102A90001310524262F31F40494206E031F81330EE
:102AA00031F812105B4263F31F4061F30F0070476F
:102AB000E4680008F8B58C460446DDE90710069D79
:102AC000C4F830C0C4E930010B481E4617460090D8
:102AD0000A4B0B4A21466046FDF777FE6763C4E95F
:102AE0000E65206BA847802084F8C800A16B206B7E
:102AF00001B0BDE8F0400847052B0008212B000875
:102B00007931000810B50446006BE16B88478020DE
:102B100084F8C800A16B206BBDE810400847000096
:102B20002DE9F04300269BB0994614460F46054612
:102B30005FEA511813D0A8F10102002103F04AF80E
:102B4000002808BF0B2000F00B83D5F8C40007F065
:102B50001F0720B1A8F10102002103F03BF80D2F5F
:102B600080F0FD82DFE807F0B207A1B1B0B0AFAEF0
:102B7000ADACABAAA900277805208DF86400462FDC
:102B800056D026DC0E2F70D009DC40D2DFE807F0EB
:102B90005F3F3F6E3F848484848484848484162FC2
:102BA0007AD009DCA7F10F00072830D2DFE800F067
:102BB0007440402F2F7474001C2F5ED004DC172F3C
:102BC00018BF182F23D167E01D2F5ED0412F63D08F
:102BD0001DE0612F60D010DCA7F14700152816D248
:102BE000DFE800F026261515151515155A151515CB
:102BF0005A5A5A5A5A5A5A152600772F18D00FDCAB
:102C0000742F33D007DC642F18BF652F44D0022007
:102C10008DF8640091E1752F18BF762FF7D107E08A
:102C2000782F18BF792F03D07D2F18BF7E2FEED1BC
:102C30006078A178227900EB0120E178090401EBAA
:102C4000026142183946284602F0C4FF13E0647856
:102C500039462246D5F8C40002F0BCFF2246394668
:102C6000284602F0B7FF064667E115E0627839466C
:102C7000284602F0AFFF06465FE162780021D5F8F2
:102C8000C40002F0A2FF012657E162780121D5F8C5
:102C9000C40002F09AFF4FE16178A07801EB0022B6
:102CA0003946284602F096FFE5E7217803208DF8A3
:102CB0006400832980F0568209E022E20CE2FDE103
:102CC000DAE1ACE198E16AE149E260E1D3E1880050
:102CD00078444068874400000C020000960200001F
:102CE0000C0200000C0200009602000074020000BA
:102CF00074020000740200007402000074020000FC
:102D000074020000740200007402000074020000EB
:102D100074020000740200007402000074020000DB
:102D200074020000740200007402000074020000CB
:102D300074020000740200007402000074020000BB
:102D400074020000740200002C0200004402000023
:102D50009602000074020000740200007402000079
:102D60000C0200008C0400008C0400008C040000A5
:102D70008C0400008C0400008C0400008C04000013
:102D80008C0400008C0400008C0400008C04000003
:102D90008C0400008C0400008C0400008C040000F3
:102DA0008C0400008C0400008C0400008C040000E3
:102DB0008C0400008C0400008C0400008C040000D3
:102DC0008C0400008C0400008C0400008C040000C3
:102DD0008C0400008C0400008C04000074020000CD
:102DE0008C0400008C0400008C0400008C040000A3
:102DF0009602000096020000960200007402000095
:102E00007402000074020000740200000C02000052
:102E100096020000740200007402000074020000B8
:102E200074020000740200007402000074020000CA
:102E300074020000740200007402000074020000BA
:102E40000C020000960200008C04000074020000D6
:102E5000740200007402000074020000740200009A
:102E60008C0400008C040000740200007402000056
:102E70000C0200000C020000960200009602000006
:102E80009602000096020000960200000C0200006C
:102E90007402000074020000960200008C0400001E
:102EA00074020000740200000C0200009602000090
:102EB00096020000960200009602000096020000B2
:102EC00096020000960200009602000096020000A2
:102ED00096020000960200000C0200008C04000024
:102EE0000C020000284602F073FC0090B0F1FF3F96
:102EF00000F03881D5E90C0C01236A46F02100F07E
:102F0000FCB800BFD5F8C400002800F02B810021D8
:102F100002F054FC8DF80000ECE700BFD5F8C400C7
:102F200058B1012102F04AFC8DF80000D5E90C0CE3
:102F300001236A46F021E0470126002E00F01281AD
:102F40000023D5E90C0C1A46F021D6E0284602F001
:102F50003FFC0090B0F1FF3F00F00481D5E90C0C7C
:102F600002236A46F021E0471BB0BDE8F083284603
:102F700002F02EFC0090B0F1FF3F7CD0D5E90C0CA4
:102F800004236A46F021E0471BB0BDE8F0832178B6
:102F900007208DF86400284602F0C6FB6BE600208F
:102FA000029003900490059006900790089002AA62
:102FB000099005E01318401CC0B2D9701D2804D236
:102FC000D5F8C010095C0929F4D1D5F8C010421D0C
:102FD00020238A5C8DF80820C21D0930895C8DF899
:102FE0000910D5F8C01002AA085C8DF80A00D5E9CE
:102FF0000C0CF021E047A3E720796179E37800EB3E
:10300000012082B22078617800EB0120A1780904C8
:1030100001EB03610144284602F0BEFB2BE618A831
:10302000009021781AAB15AA284602F05FFDBDF981
:103030006800082300EB400040008DF84800010ABA
:103040008DF84910010C8DF84A10000E8DF84B00D8
:10305000BDF860008DF84C00000A8DF84D00BDF8F9
:1030600054008DF84E00000A8DF84F00D5E90C0C85
:1030700012AAF021E04775E0E079227AA37800EB0C
:10308000022082B2607894F804C000EB0320E37859
:1030900021781B0403EB0C631844354B94F806C0ED
:1030A00083FB0030A0EBE07003B2607900EB0C20F2
:1030B00000B20090284602F02FFEDCE5207861780F
:1030C000E27800EB012001B2A07800EB022002B20E
:1030D000284602F06DFD33E70C208DF8640016944D
:1030E0008DF85C90234916A802F070FBB0B321481C
:1030F000F02103790268D5E90C0CE0471BB0BDE86C
:10310000F08300200AAA04E01154401CC0B2202819
:1031100004D2D5F8C010095C0029F5D1C0F1200116
:10312000002914DD1044401E11F0010F02D00022CE
:1031300000F8012FC1F34701002918BF002206D073
:103140004270491E00F8022F11F0FF01F8D1D5E9B5
:103150000C0C20230AAAF021E047F1E602E001204E
:103160008DF86400D5E90C0C012319AAFF21C4E7EE
:10317000ABAAAA2A8400002010B50446006BE16BBC
:103180008847802084F8C800A16B206BBDE8104000
:103190000847000001480068FFF720BB7C000020C2
:1031A00001480068FFF76DBB7C0000200148006803
:1031B000FFF788BB7C000020034603480A461946F7
:1031C0000068FFF74BBB00007C000020034603486B
:1031D0000A4619460068FFF748BB00007C00002043
:1031E0002DE9F0411E4C2078002808BFBDE8F08191
:1031F00000F03EF8207801282DD11A4800260068FA
:1032000000F0B8FA184D0746286800F08DFB074318
:10321000E06901F07EFC40EA0701C84382B205F193
:103220001004204601F0E8FD204601F005FE0A28C2
:1032300005D00B2804BF286800F06AFC09E0286864
:1032400000F066FC3046FDF7C7FA0848006800F059
:1032500065FA01F099FBBDE8F04102F087BC00007F
:1032600080060020A0060020A4060020A80600205A
:1032700038B5994C2078012818BF38BD60880028DF
:103280001CBF6088401E40F018810020ADF800008F
:1032900069469248FDF746F99148006800F014FB32
:1032A000904801F0C9FD132880F00681DFE800F0A6
:1032B0000A589B1A96BED5E4F9F795959563707CEC
:1032C00034424E008848FDF7E9F8002800F0F48009
:1032D00000218548FDF7EDF80321824801F0B3FD98
:1032E00000F0EAB88048FDF7E2F858B17F4800687E
:1032F00001F0E2FA1420A08010217A4801F0A3FD29
:1033000000F0DAB801217848FDF7D3F801217548BB
:1033100001F099FD00F0D0B8A088002840F0CC80E2
:1033200072480021006800F001FB11216D4801F096
:103330008AFDC1E06D480121006800F0F7FA00281D
:103340004BD01221674801F07EFDB5E06348FDF7E0
:1033500079F90421634801F076FD00283DD035E07D
:103360006248006801F0A8FA1420A0800D215D4891
:1033700001F069FDA0E0A08800282ED15B48002163
:10338000006800F0D3FA0E21564801F05CFD93E08E
:1033900056480121006800F0C9FA00281DD00F210D
:1033A000504801F050FD87E05149012081F8240088
:1033B00050485149006801F00AFD4B48FDF77BF881
:1033C0000221484801F03FFD002875D00020FDF79C
:1033D00003FA4648006801F0E5F96DE0052141482F
:1033E00001F031FD68E04048FDF73EF890B13F48FC
:1033F000006801F09CF93F4D0121286801F0E3FCD1
:103400003649286801F0E3FC072105F1280001F0A6
:103410001AFD51E0002060F30F053648006801F006
:1034200023FC60F31F453248056145E0304D95F8B7
:10343000240028B92F48006801F016FCE883288290
:103440000621284801F0FFFC2A48006801F08BFCA7
:103450002A480068FFF7C6F92EE028480068FFF701
:10346000C1F9234D95F8240008BB2248006801F0FB
:10347000FBFBE88328821FE01C48006801F057F935
:103480000020FDF7A9F91648006800F047F94FF44D
:103490004870E0800821134801F0D5FC0CE007E0FB
:1034A000FFE7E08818B909210E4801F0CCFC03E0E1
:1034B00000210C4801F0C7FC03206080A08810B1F7
:1034C000A088401EA080E088002808BF38BDE088A2
:1034D000401EE08038BD0000800600201C03002054
:1034E000A8060020B406002094030020A4060020B3
:1034F000E00800208C060020EC0200208806002056
:1035000001480068FFF706BA7C0000200148006807
:10351000FFF70BBA7C0000202DE9F35F574E002423
:1035200006F12C01347056480860A1F1080855488E
:10353000C8F8000000F056FC03F06EF906F1340004
:1035400001F07CFC504800F06DF906F1100B4E487C
:10355000CBF8000006F10C054C4828604C48FDF7FC
:1035600097F84B4B4B4A4C482968FCF799FFDBF81E
:103570000010474A286801F016FC464802F07BFC20
:10358000464800F04FF9464800F04CF905F10809AB
:103590004248C9F8000005F10C0A4148CAF8000089
:1035A0004048F06101F0F8FA05F11C013E4808605E
:1035B000F1693E4FC0E943713D4800F016F905F14D
:1035C00014003B49016005F124013A48086001F00C
:1035D0006FFA0020FDF700F9012087F82400286821
:1035E00001F0C9FB3861286801F0C5FB0014B882FE
:1035F00007F128002F1FA0F12803386005F12801EA
:103600002A68FFF76EF9286801F0C5FB3B680146A0
:1036100000221846FFF722F9009839680160264811
:10362000DBF800100160D9F800104160DAF80010F2
:10363000C0E90214D8F80010C0E904141449C0E924
:10364000061404622968416205F128018162143977
:103650000968C162F169C0E90C1405F11C018463B9
:103660000968C0E90F1444648464C4640199086063
:103670000120307002B0BDE8F09F000080060020FD
:103680009004002058020020A00100202402002005
:103690001C030020EC02002094030020CC01002039
:1036A000F8010020D80300208C000020E008002052
:1036B000B00300207C0400202409002070B4B0F87E
:1036C000002120F81210B0F80021A0F80221521CAD
:1036D00092B2A0F80021802A24BF0022A0F8002185
:1036E0000246B0F90030B0F902504FF0000C3F2410
:1036F00032F9046F2B44B2F90250B444641EF7D17E
:1037000003EB0C02B0F9FE301A44D31702EB5362FC
:10371000D211A0F8042170BC0846704710B50446C9
:103720004FF48071FCF784FD0020A4F80001A4F898
:10373000020110BDB0F904017047000008B5FDF7A3
:10374000DDFE4FF4FA61B0FBF1F0FEF72BF907490B
:10375000081FFFF7E1FE02F087FF044B04481A1F21
:1037600000900121101F02F0F3FA08BD8000002034
:103770007868000810B50446007800281CBF0020B7
:10378000E08201D080B210BD94F8260001F0BCF8B0
:10379000A0F57F41FF3907D0218B238A4A1E03FB06
:1037A0000200B0FBF1F02082208A618B884288BF42
:1037B000082004D8A18B81428CBF0020E08AE082DF
:1037C000E0E70178002918BF808A01D000B2704775
:1037D000018A026A891AB0F91E20808C5143CA17E7
:1037E00001EB124100EB2140F0E770B50446007890
:1037F000002518B1E582608A208270BD201D01F08D
:10380000E5F884F82600258270BDB0F922007047E3
:10381000B0F906007047408B7047B0F9040070475C
:10382000008B7047018881804188C180018C418470
:1038300000218160816270478160704741847047D8
:10384000C18070478180704770B4B0F904200024B3
:1038500002FB01F6B0F90620B0F914C0B0F9163039
:10386000002A04BF0021816014D085684A43A9184A
:1038700005D5002DC4BF002A6FF0004103E0002DE4
:10388000BCBF002A0F49C2688A42A5BF02699142A3
:1038900082608160827F8168057F41FA02F246FA88
:1038A00005F52A446245C4BFACEB0204624603DC62
:1038B0009342C4BF9C1A1A462144816070BC10B266
:1038C000704700000100008070B5D0F80C1104466C
:1038D000C868D1F8161010FB01F210FB3121C8178F
:1038E00001EB10400514D4F8100102F0BFFAD4F82F
:1038F000081148434FF4167190FBF1F0684300EB58
:1039000040000849400081FB00108110A1EBE071EC
:10391000C81701EB104001142046BDE87040FFF7C6
:10392000CDBE000067666666016B084770B5044649
:10393000002511B1012908D017E081688847B4F843
:103940006200A4F8520080B90BE0B4F852000028DD
:1039500008BF012509D0401E0004000CA4F8520045
:1039600003D12169204688470125284670BD426859
:10397000104730B40AB2B0F860C0091401FB0CF172
:10398000B0F8443049005A4349428B18A1EB020277
:1039900003EBD37302EBD2725B104FEA62024FEA81
:1039A0009C0C42D5002A14DA0421A0F84610991A7A
:1039B000CC1701EB94310CEBA14CD11702EBD131B8
:1039C0000CEB6142D91703EBD131ACEB6143816A57
:1039D0006DE0002914DC0323A0F846308B1ADC17B5
:1039E00003EB94330CEBA34CD31702EBD332CB177E
:1039F0000CEB624201EBD331A2EB6143416A56E02A
:103A00000222A0F846205A1AD41702EB94320CEB8B
:103A1000A24CDA1703EBD232ACEB6243CA1701EBCC
:103A2000D23103EB6142016A41E0002A14DB01213B
:103A3000A0F84610991ACC1701EB94310CEBA14C6D
:103A4000D11702EBD1310CEB6142D91703EBD13125
:103A5000ACEB6143C1692AE0002914DC0522A0F81F
:103A600046205A1AD41702EB94320CEBA24CDA1708
:103A700003EBD232ACEB6243CA1701EBD23103EB5A
:103A80006142C16A13E00023A0F846308B1ADC17AC
:103A900003EB94330CEBA34CD31702EBD332CB17CD
:103AA0000CEB624201EBD331A2EB614381691FFA57
:103AB0008CFCA0F848C092B2A0F84A209BB2A0F8B3
:103AC0004C30B0F85C40012C01D030BC0847B0F954
:103AD0005640002CB0F85E40CCBFA444ACEB040CC4
:103AE000A0F848C0B0F958C0BCF1000F1FFA84FC20
:103AF000CCBF6244A2EB0C02A0F84A20B0F95A20D5
:103B0000002AA2B2CCBF1A449A1AA0F84C20DCE7D3
:103B100081680847D0F890100A7D022A0FD18A697F
:103B2000898C09049161D0F89020116A928B12045B
:103B30008A61D0F890108A6A898D09049161012107
:103B400080F88C1054307047F0B50446D0F89000DF
:103B500000278568E7662767676784F88370286AA7
:103B60004EF6AA210840286232486060D4F89000DE
:103B70000079C003A067D4F890004079C003E067E3
:103B8000204600F00FFE94F883001026102809D27A
:103B9000E86810F0010F08BF84F8836094F8830090
:103BA0001028F5D384F8837023486060D4F890001F
:103BB0008179C903A1678079C003E067204600F0DE
:103BC000F1FD94F88300082809D2E86810F0010F8D
:103BD00008BF84F8836094F883000828F5D3E06E6A
:103BE000C008E066206FC0082067606FC00860678B
:103BF00012486060A9694FF2F7700140A961E96954
:103C00000840E861B4F880006863B4F88000A863F5
:103C1000B4F88000E863A96940F608000143A9618F
:103C2000E9690843E861286A40F25551084328626F
:103C3000F0BD00005D3D0008A13D0008413C0008CA
:103C400030B4D0F8903000229B685B0103F18443CC
:103C5000C3F8302480F8822090F846203D4BDFF8EE
:103C6000F8C047F6FF74062A65D2DFE802F01E416D
:103C70004103031EDA6BC56EA5EB420212F5004F3D
:103C8000D8BFA1F800C004DDB2F5004FACBF0C8076
:103C90000A80D3F83C21036FA3EB420212F5004FD8
:103CA00045DDB2F5004F3DDA44E0DA6B056FA5EB78
:103CB000420212F5004FD8BFA1F802C004DDB2F5F0
:103CC000004FACBF4C804A80D3F83C21436FC3EB1C
:103CD0004202B1F90230D21AB2F5004FA8BF0C80EF
:103CE00029DA12F5004FD4BFA1F800C00A8022E003
:103CF000DA6BC56EA5EB420212F5004FD8BFA1F8F2
:103D000000C004DDB2F5004FACBF0C800A80D3F8D0
:103D10003C21436FC3EB4202B1F90030D21AB2F535
:103D2000004F01DB4C8006E012F5004F02DCA1F8E9
:103D300002C000E04A800A88A0F856204A88A0F80D
:103D400058200A88498811444942A0F85A1030BCCA
:103D500070470000002001400180FFFFD0F8902054
:103D600000219268520102F18442C2F8301480F8B6
:103D7000821090F88310102928BF70470749C26E3F
:103D8000CB6B1A44C266026FD1F83C111144016733
:103D900090F88310491C80F8831070470020014080
:103DA000D0F8902000219268520102F18442C2F8BA
:103DB000301480F8821090F88310082928BF7047CB
:103DC0000749426FCB6B1A444267D1F83C1111444A
:103DD000416790F88310491C80F8831070470000F9
:103DE00000200140F0B4D0F8901089680A6822F0F1
:103DF00001020A60DFF82CC101F118029CF80030C2
:103E00009D182E680CF1070308241F7804FA07F7A1
:103E10003E432E609CF8025015442E689F7804FAA9
:103E200007F73E432E609CF8045015442E681F7916
:103E300004FA07F73E432E609CF806C06244D2F8AD
:103E400000C09B7904FA03F34CEA03031360D0F833
:103E5000902092F8302032B16FF080020A61CA6877
:103E600042F08002CA604A6942F001024A61D0F819
:103E700090209378022B03D090F8542072B111E077
:103E8000D378012B04BF927B032A07D101220A6356
:103E90004A6942F001024A6103220A63B0F88020B5
:103EA000521E4A62D0F890101F4A8B681F499342F5
:103EB000CB680CBF43F0010343F00203CB601C4905
:103EC0008B6843F001038B601A4BD3F808C04CF0A9
:103ED000010CC3F808C06FF004030B604B6843F09B
:103EE00080034B60CB6A23F47003CB62D0F8903030
:103EF00089689B68934221F47C11C0F888100CBF3C
:103F000041F4801141F4F011C0F88410002180F8D0
:103F10008C10A0F85C10B0F86410A0F85E10F0BC33
:103F200070470000E46A000800000140002004E03F
:103F3000002001400021014090F88C200021012A3E
:103F400003D14021002280F88C20084670470000F1
:103F500070B50546D0F89000846895F855000128A2
:103F600018BF70BD602201212046FEF7FFFB206ACA
:103F700040F001002062D5F89000007D012804BFC8
:103F8000206A40F0040005D0022804BF206A20F017
:103F9000040000D12062B5F8800040086063602210
:103FA00010212046FEF7E2FB206A40F0100020625C
:103FB000D5F89000007D012804BF206A40F0400041
:103FC00005D0022804BF206A20F0400000D1206202
:103FD000B5F880004008A06360224FF4807120464D
:103FE000FEF7C4FB206A40F480702062D5F8900090
:103FF000007D012804BF206A40F4806005D00228BB
:1040000004BF206A20F4806000D12062B5F88000EF
:104010004008E06305486860054868610548E86055
:104020000548A860002085F8550070BD413C000897
:10403000B9480008A54700082F47000870B5054695
:10404000D0F89000846895F85500002840D160228F
:1040500001212046FEF78AFB206A40F00100206221
:10406000206A20F00400206200206063D5F89000F0
:10407000007D012802D002280DD019E0102211463F
:104080002046FEF773FB206A20F010002062206AB1
:1040900040F040000BE0202210212046FEF766FB96
:1040A000206A40F010002062206A20F04000206268
:1040B00070224FF480712046FEF758FB206A20F4EE
:1040C00080702062206A20F480602062286FE86699
:1040D00005486860054868610548E8600548A860CB
:1040E000012085F8550070BD9541000891420008F7
:1040F000C94100082F4700080246D0F890008368A5
:10410000B2F880004843010CA2F84810D86948F67C
:10411000FF710840D861D86940F4C040D861B2F856
:104120008000B2F86610401A1864B2F86800D863CC
:10413000B2F8480058631649D2F888008860D2F86F
:104140008800C1F80801186A40F480501862D2F85B
:1041500084008860D2F88400C1F80801D2F8900089
:104160004079C0038863D2F890000079C003C1F899
:104170003801186910F0010018BF0120B2F84E1084
:10418000012918BF704701200021A2F84E10704786
:1041900000200140002280F88220094AD26B006F83
:1041A000A0EB4200074A9042D8BF104605DD47F613
:1041B000FF729042A8BF47F6FF70088048807047A2
:1041C000002001400180FFFFD0F890106FF0010344
:1041D00089680B610A6912F0010FFBD00B610122A3
:1041E0004A63B0F88020521F0A640A6912F0010F76
:1041F000FBD04A6C42F400424A64D0F89020137D10
:10420000022B24D10B6A40F2555C13EA0C0F0ED03E
:10421000D2E906329A61D0F89030D3E9082393614D
:10422000D0F890309A6A9B8D1B0493610FE09369DC
:10423000928B12049A61D0F890301A6A9B8C1B04FE
:104240009361D0F890309A6A9B8D1B0493610F4A5A
:10425000D0F888309360D0F88830C2F808310B6A03
:1042600043F480530B62D0F884109160D0F884102E
:10427000C2F80811D0F890104979C9039163D0F8B9
:1042800090004079C003C2F8380170470020014017
:10429000D0F89010002289684A63921E0A610A6968
:1042A00012F0010FFBD04A6C42F400424A64D0F88D
:1042B00090100A7D022A18BF7047D1E9062191614A
:1042C000D0F89020116A928C12048A61D0F8901074
:1042D000886A898D090481617047F0B4D0F8901024
:1042E0004FF480128C68D0F8841021F44011C0F88B
:1042F0008410B0F88030B0F84810A3EB010C1FFA1E
:104300008CF6D0F890C0BCF81050AE420ED9032104
:10431000A0F8461099B29CF80430491EDB0383676D
:104320009CF8053089B2DB03C3671CE0B0F84A7023
:10433000CF1BBFB2B7EB460F84BFBCF81230C91A0F
:1043400008D8294489B2994205D3C1EB43014FF4FF
:104350000012491E89B29CF80530DB0383679CF884
:104360000630DB03C367D0F884301A43C0F88420DA
:104370002164D0F89010B0F8482089684A63B0F8FA
:104380004A208A63B0F84C20CA6390F88200002863
:1043900018BF0120F0BC7047F0B4D0F890104FF473
:1043A00080128C68D0F8841021F44011C0F8841079
:1043B000B0F88030B0F84A10A3EB010C1FFA8CF66D
:1043C000D0F890C0BCF81050AE420ED90321A0F82E
:1043D000461099B29CF80430491EDB0383679CF8B1
:1043E000053089B2DB03C3671CE0B0F84870CF1B0F
:1043F000BFB2B7EB460F84BFBCF81230C91A08D859
:10440000294489B2994205D3C1EB43014FF400120C
:10441000491E89B29CF80430DB0383679CF80630A0
:10442000DB03C367D0F884301A43C0F884202164CA
:10443000D0F89010B0F8482089684A63B0F84A2054
:104440008A63B0F84C20CA6390F88200002818BF35
:104450000120F0BC7047F0B4D0F890104FF48012F7
:104460008C68D0F8841021F44011C0F88410B0F8A2
:104470008030B0F84A10A3EB010C1FFA8CF6D0F88C
:1044800090C0BCF81050AE420ED90321A0F84610DF
:1044900099B29CF80430491EDB0383679CF8053011
:1044A00089B2DB03C3671CE0B0F84C70CF1BBFB20E
:1044B000B7EB460F84BFBCF81230C91A08D829449C
:1044C00089B2994205D3C1EB43014FF40012491E52
:1044D00089B29CF80430DB0383679CF80630DB0369
:1044E000C367D0F884301A43C0F884202164D0F820
:1044F0009010B0F8482089684A63B0F84A208A636F
:10450000B0F84C20CA6390F88200002818BF012040
:10451000F0BC7047F0B4D0F890104FF480128C6863
:10452000D0F8841021F44011C0F88410B0F8803025
:10453000B0F84C10A3EB010C1FFA8CF6D0F890C029
:10454000BCF81050AE4206D90321A0F8461099B22B
:10455000491E89B214E0B0F84A70CF1BBFB2B7EB66
:10456000460F84BFBCF81230C91A08D8294489B252
:10457000994205D3C1EB43014FF40012491E89B2A1
:104580009CF80430DB0383679CF80530DB03C367CA
:10459000D0F884301A43C0F884202164D0F89010F9
:1045A000B0F8482089684A63B0F84A208A63B0F8B6
:1045B0004C20CA6390F88200002818BF0120F0BC8C
:1045C0007047F0B4D0F890104FF480128C68D0F897
:1045D000841021F44011C0F88410B0F88030B0F895
:1045E0004C10A3EB010C1FFA8CF6D0F890C0BCF86D
:1045F0001050AE4206D90321A0F8461099B2491EC8
:1046000089B214E0B0F84870CF1BBFB2B7EB460FC9
:1046100084BFBCF81230C91A08D8294489B299421B
:1046200005D3C1EB43014FF40012491E89B29CF837
:104630000430DB0383679CF80530DB03C367D0F8E5
:1046400084301A43C0F884202164D0F89010B0F868
:10465000482089684A63B0F84A208A63B0F84C2041
:10466000CA6390F88200002818BF0120F0BC704790
:10467000F0B4D0F890104FF480128C68D0F8841009
:1046800021F44011C0F88410B0F88030B0F8481020
:10469000A3EB010C1FFA8CF6D0F890C0BCF81050B8
:1046A000AE420ED90321A0F8461099B29CF804300E
:1046B000491EDB0383679CF8053089B2DB03C367BF
:1046C0001CE0B0F84C70CF1BBFB2B7EB460F84BFF5
:1046D000BCF81230C91A08D8294489B2994205D3C6
:1046E000C1EB43014FF40012491E89B29CF805301A
:1046F000DB0383679CF80630DB03C367D0F88430A4
:104700001A43C0F884202164D0F89010B0F84820F3
:1047100089684A63B0F84A208A63B0F84C20CA63BB
:1047200090F88200002818BF0120F0BC7047D0F834
:1047300090100022896880F85020CA6822F0010297
:10474000CA600A6A4FF6AA231A400A620A6912F07E
:10475000010F07D1CA6812F0010F04BF0A6912F0F5
:10476000010FF7D04A6C22F400424A64D0F890203E
:10477000137D022B0FD19369928B12049A61D0F8AA
:1047800090301A6A9B8C1B049361D0F89020906A39
:10479000928D12048261086A40F2555210430862F9
:1047A00070470000D0F890100022896880F85020EF
:1047B0001F4A136823F00C031360D2F8003123F072
:1047C0000C03C2F800316FF001020A61CA6842F0BE
:1047D0000102CA604A6C42F400424A64D0F8902058
:1047E000137D022B18BF7047096A40F255531942D6
:1047F0000CD0D2E906128A61D0F89010D1E90821D4
:104800009161D0F89010D1E90A010EE09169928B84
:1048100012048A61D0F890100A6A898C09049161A7
:10482000D0F89010886A898D090481617047000072
:1048300000200140D0F890C00121DCF8082080F869
:1048400082101C490B6803F00C03082B05D0002BC9
:1048500008BFBCF8003006D013E00B6803F00C036F
:104860000C2BFAD10DE0D2F824C09C45FBD30B6889
:1048700003F00C03082B04D10B6803F00C030C2B82
:10488000FAD150F8883F8B6050F80439C1F80831EC
:10489000136A43F48053136202688A6050F80C294B
:1048A000C1F8082150F8042B8A6350F82829C1F870
:1048B0003821704700200140D0F89010012289680B
:1048C00080F85020D21E0A6100224A638A63CA63BC
:1048D0000A6912F0010FFBD04A6C42F400424A64AC
:1048E000D0F890100A7D022A18BF7047D1E906213E
:1048F0009161D0F89020D2E908128A61D0F8901026
:10490000D1E90A01816170471D4910B451F8202096
:10491000D2F800C0127902EB4203092A99BF4FF086
:10492000007444EA0353174C04EB03531A434FF447
:10493000407494FAA4F44FF40073B4FA84F4E3409E
:104940000CEB8303D3F82CC002F01F022CF01F0CD9
:104950004CEA0202DA6251F820201268D36C01237B
:10496000520102F18442C2F8783151F82000006807
:10497000016811F0020FFBD0C06C10BC80B2704710
:1049800074090020000020FE10B50E4C607801284C
:1049900018BF10BD2078FFF7B7FF608001460220E6
:1049A0006070094A207852F83030002B08BF10BDE3
:1049B0004FF0000C02EBC00284F801C05268BDE861
:1049C00010401847BA0600208409002070B4014640
:1049D000FF20344B0C79002253F822C0BCF1000FA9
:1049E00002D1042888BF10469CF80450A54206D185
:1049F000DCF800C00D68AC4504BF10460422521C10
:104A0000D2B2042AE8D3042824BF70BC704743F80C
:104A100020100022244B43F830200A68936813F0DA
:104A2000010F03D1936843F0010393600A68D36ACE
:104A300023F47003D3620A790B684FF0007C092AD3
:104A400002EB420492BF4CEA0454184D05EB0454A7
:104A500022438C689CFAACFC02F00071BCFA8CFC1E
:104A600021FA0CF103EB8101D1F80CC04FF0F8737F
:104A700093FAA3F502F0F872B5FA85F522FA05F576
:104A8000072606FA05F593FAA3F3B3FA83F3DA409F
:104A90002CEA050C04FA02F24CEA0202CA6070BC6D
:104AA000704700007409002084090020000020FEE7
:104AB0000021416041808160C16001210161704736
:104AC00090F84800704701EB410100EB81008089BC
:104AD000704701EB410100EB8100B0F90E00704717
:104AE00001EB410100EB8100B0F91000704701EBD0
:104AF000410100EB81008281704701EB410100EB35
:104B00008100C281704701EB410100EB810002820C
:104B1000704770B5044690F83400FFF7F5FEA0F535
:104B20007F410546FF392AD094F8330004EB40005A
:104B3000C583238B0020ABB104F11C0113F0010FDE
:104B400018BF31F8020F4FF0000CC3F3470242B117
:104B50004E88521E304431F8046F12F0FF02B44404
:104B6000F6D16044B0FBF3F0E080A58094F8330008
:104B7000591E8842B4BF401C002084F83300E088EE
:104B8000618B884288BF022004D8A18B81428CBFF0
:104B900004200020208170BD10B504460C30FFF7C2
:104BA00015FF84F83400608BA18B08444108208BEA
:104BB000A0B1002210F001001CBFE1830122238B71
:104BC00083420BDD04EB4203521CD98304EB420306
:104BD000801CD983238B521C8342F3DCA180E180AB
:104BE000002084F8330010BDB0F904007047B0F91C
:104BF00000007047B0F90410B0F90C00C1EBC131EE
:104C000091FBF0F000B2704730B4B1F900500124CC
:104C100090F810C00023827A002DBABF694289B291
:104C2000098885898D4238BF0123C5898D4288BF97
:104C30000123B0F908100029BABF494289B201899D
:104C4000458A8D4228BF002B04D062453CBF511CD1
:104C5000CAB202E0624538BF0022624508BF0024A4
:104C60008272204630BC704770B505460078002837
:104C70000CBFAC686C68E968012904D9AA69A1F184
:104C80000101144405E005D169884FEA01444FF061
:104C90000001E960012805D0E01704EB1040001482
:104CA000AC6070BDE01704EB104006146869FFF7B4
:104CB0009BFF301A01B22869FEF7C6FD0104C5E961
:104CC000014170BD0178012918BF704700690021BA
:104CD000FEF7B2BD30B4047801235CB1D0F804C053
:104CE000C58B4FEA2C4C8D42A4BFB0F92450A94289
:104CF00017DA14E0D0F808C04FEAEC750CEB154C4D
:104D0000C58C4FEA2C4C8D4205DAB0F928500023AF
:104D1000A9421DDA03E0B0F92850A94208DA0023BD
:104D200016E0058CA942BCBFB0F922508D42F6DBDB
:104D30008AB14180848BA1EB0C0162434FF47A74F9
:104D4000B2FBF4F2521C090491FBF2F1C2608161E2
:104D500030BC184670470904012C14BF81604160C3
:104D60000021C160F3E710B504464069FFF73CFF3E
:104D70000004606010BD0146C28D098E62F30F0011
:104D800061F31F407047C08B70474068C11700EB4C
:104D9000114000147047B0F92C007047B0F924009E
:104DA000704740697047C0E9041290F82A100170FA
:104DB000818D09044160C18D090481600021418019
:104DC000C1608161704701700021C160704741611D
:104DD000704702780021012A01D1C16001210846F3
:104DE0007047027800210B2A04D1092101700021AB
:104DF0008180012108467047B0F802C003784CEA70
:104E0000010C2CEA02024280B0F804C00A2B4CEAE2
:104E10000101818005D012B10A2101700B461846AC
:104E20007047002AFBD10B2101700B46F7E7818800
:104E3000408841EA004070470078704700210170C7
:104E4000418081807047024600201378132B6AD27C
:104E5000DFE803F00D263B3E575C6164676E6969CD
:104E60000A2C3136484D5200002965D05BE00329F9
:104E70001CBF01290C295FD0072908BF7047518842
:104E80000A2B41F080015180918841F0800191808E
:104E9000518853D0002914BF0A2170471170704700
:104EA00007291CBF0D290E2946D03CE00E2918BF4A
:104EB000072941D037E00F2918BF07293CD032E03D
:104EC000022918BF072937D02DE0072934D02AE05E
:104ED000072918BF10292FD004291CBF1129012927
:104EE0002AD020E0112918BF072925D01BE012295C
:104EF00018BF072920D016E0042918BF07291BD0A6
:104F000011E0052918BF072916D00CE0062918BFA3
:104F1000072911D007E007290ED004E008290BD09B
:104F200001E0092908D0032914BF01297047A3E72C
:104F3000002918BF0C29F6D10120AFE7002908BFCE
:104F40000B21ABD07047000010B5084C2078022828
:104F500005D1FCF76DF9FCF73BFD00202070C0B2D5
:104F6000401C2070BDE81040FEF73AB9BE06002094
:104F700030B593B000241E48029403940494059421
:104F80000C940D940E940F941094016841F080518C
:104F90000160006800F0805011901648016841F4EB
:104FA000804101600068022500F4804011900120DA
:104FB0000090000401908001CDE906500420CDE965
:104FC0000A50A821CDE908016846FCF7F7FA0F203E
:104FD000CDE90C054FF4A050CDE90E40E802109049
:104FE00005210CA8FCF7D6F9FCF782FA13B030BD06
:104FF00040380240007000400448016841F47001EC
:10500000016003494FF000600860704788ED00E0E0
:1050100008ED00E00748006AC16811F0010F1ABFEF
:10502000016911F0010F70476FF001010161014842
:10503000FBF729BB1C0300200148FCF76ABE0000F7
:10504000E0070020094810B5D0F890008068016999
:1050500011F0800F05D06FF0800101610348FEF769
:1050600059FDBDE81040FEF703B9000058020020CA
:1050700004486FF00101D0F8900080680161014898
:10508000FFF7D8BB58020020F0B402682B4B2C4C21
:105090002C4D2D4EDFF8B4C0984218BFB0F1804FB0
:1050A00007D0A04218BFA84203D0B04218BF604545
:1050B00003D14F6822F070023A43984218BFB0F112
:1050C000804F25D0A04218BFA84221D0B04218BFBF
:1050D00060451DD0A0F18044B4F5A0341CBFA0F100
:1050E0008044B4F5A23413D0A0F18044B4F5A434C4
:1050F0001CBFA0F18044B4F5C05409D0A0F1804495
:10510000B4F5E0541CBFA0F18044B4F5005403D1C1
:10511000CC6822F4407222434C6922F08002224380
:1051200002608A68C2620A688262984212BF604561
:105130000969016301214161F0BC70470000014031
:105140000004004000080040000C00400004014042
:1051500002689368D1F804C023F070034CEA03039B
:10516000D1F800C023F007034CEA030393604A68B8
:1051700012F00F0F59D11211082A56D2DFE802F0AF
:1051800055555555122B41040068D1E90232D1F82A
:1051900010C0816843EA0C2321F47F411A43114374
:1051A000816042E00A68052A04BF01207047026856
:1051B000136AD2F820C02CF0010CC2F820C002689B
:1051C000D2F818C009692CF0F00C4CEA0111916179
:1051D0000068036229E000680B698A68016AD0F8F8
:1051E00020C02CF0010CC0F820C0D0F818C021F06D
:1051F0000A012CF0F00C4CEA0313114383610162A5
:1052000013E000688A680969036A23F010030362E7
:10521000D0F818C0036A2CF4704C4CEA013123F02A
:10522000A00343EA0212816102620020704700007D
:10523000054810B50068FFF77AFA0022BDE8104073
:1052400080210248FFF7D8BDA4060020B406002044
:105250002DE9F84F4FF000092948FBF751F929488B
:105260000068FFF79EFDFFF7C2FCDFF89C80064652
:105270006946D8F80000FEF77AFB0098FDF75CFB62
:1052800007463146FDF77EFB204C054629B2B4F9AE
:105290001000411AA8F110000068FEF7D5FA60F37B
:1052A0000F0AB4F91200A0EB2541A8F10C00006828
:1052B000FEF7CAFA514660F31F4108F10800C4F82E
:1052C00016100068FBF73AF83146FDF79DFB824661
:1052D0005146D8F80000FEF74CFB0099E560C4E9A0
:1052E0000017C4F81AA02684012805D10022012144
:1052F00008F11000FFF780FD4846BDE8F88F000078
:105300001C0300208C060020A4060020E0080020DA
:105310000148FCF769BF00006008002010B5806BF1
:105320000021C185C184FCF75DFF10BD2DE9F0416E
:10533000044600680169E26821F4405111430161AB
:105340002169A068E2690843616911430843216843
:10535000CA6822F4037222F414421043C860206821
:105360004169A26921F4407111434161E169192643
:105370003227B1F5004F4F4A4F48504D21684FF04A
:10538000000825D0814218BF914270D1FCF7CCF8BB
:1053900061688B0F8A00A0FB0601FAF711FF014636
:1053A000A5FB012040096FF01802424301EB820186
:1053B00007EB0111A5FB0121490901F0F00202EB05
:1053C000001001F00F01084421688860BDE8F081F9
:1053D000814218BF914224D1FCF7A6F861684A18AF
:1053E000A0FB060148EB0803FAF7EAFE0146A5FB1D
:1053F0000120420908466FF01801514300EB81007B
:1054000007EBC000A5FB00101301400900F0F801F4
:1054100003EB410100F00700084421688860BDE803
:10542000F081FCF771F861684A18A0FB060148EBAF
:105430000803FAF7C5FE0146A5FB0120420908460C
:105440006FF01801514300EB810007EBC000A5FB92
:1054500000101301400900F0F80103EB410100F0D6
:105460000700084421688860BDE8F081FFE7FCF789
:105470004BF861688B0F8A00A0FB0601FAF7A0FECB
:105480000146A5FB012040096FF01802424301EBE1
:10549000820107EB0111A5FB0121490901F0F0028E
:1054A00002EB001001F00F01084421688860BDE89C
:1054B000F081000000140140001001401F85EB51F5
:1054C0002DE9F04104460068069E1F4600680D461F
:1054D00031EA000023D000BFB6F1FF3F1AD026B159
:1054E000FBF7A0FEC01BB04214D92068C16821F4AC
:1054F000D071C1602068416921F001014161202023
:1055000084F8390084F83A00002084F83800032039
:10551000BDE8F0812068006835EA0000DCD1002099
:10552000BDE8F081002180F81C117047FBF738B905
:1055300008B508218DF8001001236A46FF2100F00C
:105540006FF808BD38B590F81C21284D0446002A94
:1055500049D094F81D21C9B29AB1012A04BF84F838
:105560009A10022013D094F89A309B1C9A4211D2C0
:1055700004F19900115494F81D01401C84F81D0198
:1055800031E084F89910208A194D6082012084F856
:105590001D0128E084F81B1100216182D4F820014C
:1055A000144DC26822F02002C26084F81C1104F17C
:1055B0009900FBF7C7F894F81B1188420AD1D4F878
:1055C00008C094F89A3094F8991004F19B0220686E
:1055D000E04708E00A208DF8000001236A46FF2119
:1055E000204600F01DF8284638BD0000F26A000889
:1055F000F46A0008F66A000890F81C1100291CBF24
:1056000001207047002180F81D11012180F81C1134
:10561000D0F82001C16841F02001C160022070472C
:1056200010B5044690F8970000281CBF012010BD5B
:1056300004F1160021756375191EA3F1010313DD32
:10564000511E401E13F0010F03D111F8012F00F875
:10565000012F5A1C521007D04B78437011F8023FAB
:1056600000F8023F521EF7D104F11400FBF76AF86C
:1056700084F89600002184F89810012184F897108E
:10568000D4F82001C16841F08001C160022010BD42
:1056900090F897200146002A08BF704791F898209B
:1056A000002A08BF0A7D0CD0012A08BF4A7D08D015
:1056B0004B7D9B1C9A423ABF01F11403D25C91F8D6
:1056C0009620D0F820315A604B7D91F898209B1C91
:1056D0009A423EBF501C81F898007047D1F82001D3
:1056E000C26822F08002C260002081F89700D1E9F0
:1056F000000108478169002908BF704708474169D0
:10570000002908BF7047084770B5064C0546A068D9
:1057100000F011FAA84218BF70BDA068BDE8704043
:10572000FFF7E8BFC006002070B5026A90F82C00B1
:1057300001240F2952F820502AD2DFE801F029195C
:1057400015082A2A111D212529292929150028464D
:10575000FDF7B8F8062804BF2846FDF7EAF818E078
:105760002846FDF7AFF818B12846FDF7DEF810E03F
:105770002846FDF7CFF80CE02846FDF77FF808E053
:105780002846FDF72BF804E02846FDF71FF800E057
:105790000024204670BD000010B5036A90F82C006C
:1057A00053F82000044B83FB0131A1EBE17109B2F6
:1057B000FDF754F8012010BDABAAAA2A03468320A6
:1057C0009A68002A08BF70471846104700207047A3
:1057D0002DE9F0410346406A93F82CC0232950F884
:1057E0002C20186A50F82C404FF0FF307ED016DC89
:1057F00028BFBDE8F081DFE801F066696E734B7881
:10580000848E93999EA3A8AEB3B83D3D3D3D3D3DEA
:105810003D3D3DBDC2C7CCD2DDE5E93DED000225F1
:105820000126302900F026810DDCA1F124010C298C
:1058300028BFBDE8F081DFE801F0D8DEE2C5C9E6A7
:10584000F0F4F8FCEBEA6E2956D029DC402900F090
:10585000388111DC3D2900F026813E2900F02A81A3
:105860003F2918BFBDE8F081506AFFF78CFA00EBC2
:1058700040004000BDE8F081412966D05B2918BF97
:10588000BDE8F0812046FDF704F8012800F02181F1
:105890002046FDF714F800EB40004000BDE8F08121
:1058A000722904BF0420BDE8F08106DC6F292DD0E9
:1058B000702908BF8C48BDE8F08173291CBF81297D
:1058C000BDE8F0810DE16046BDE8F081906ABDE879
:1058D000F041FFF7ACBA906ABDE8F041FFF7ACBA0F
:1058E0002046BDE8F041FCF7D4BF00E077E0106847
:1058F000BDE8F041FDF791BF1068BDE8F041FDF74C
:105900008FBF1068BDE8F041FDF782BF1068BDE8A9
:10591000F041FDF780BF1068BDE8F041FDF775BFAD
:105920002046FCF7C1FF00B2BDE8F0815068BDE839
:10593000F041FDF772BF5068BDE8F041FDF768BF68
:105940005068BDE8F041FDF760BF2046FCF7ACFFB2
:105950000014BDE8F0819068BDE8F041FDF75DBF3F
:105960009068BDE8F041FDF753BF9068BDE8F04195
:10597000FDF74BBF106BBDE8F04100F077BAD06A7D
:10598000BDE8F041FDF71DBFD06BBDE8F041FDF76C
:10599000D1BE00219A68832042B9BDE8F0819A689F
:1059A00001218320002A08BFBDE8F0811846BDE828
:1059B000F04110472046FCF764FF00EB4000400038
:1059C000BDE8F0812046FCF76CFF0BE02046FCF7B9
:1059D00068FF0DE05069BDE8F041FFF771B820465F
:1059E000FCF759FF00B2BDE8F0812046FCF753FFF9
:1059F0000014BDE8F0812046FCF750FFF2E7204696
:105A0000FCF74CFFF4E72046FCF74EFFEAE718E00E
:105A100013E00EE009E004E0FFE72046FCF744FF56
:105A2000E6E72046FCF759FFDCE72046FCF755FF88
:105A3000DEE72046FCF74DFFD4E72046FCF749FFA0
:105A4000D6E7996A51F82C300021B5EB137F14BFCB
:105A5000B6EB137F9169C3F30363022B14BF012BD1
:105A6000D169002908BFBDE8F0810846BDE8F041D2
:105A7000FFF7BDB8996A51F82C300021B5EB137FC0
:105A800014BFB6EB137F9169C3F30363022B14BFFA
:105A9000012BD169002908BFBDE8F0810846BDE8A7
:105AA000F041FFF7A7B81A69DAB1BDE8F04100216B
:105AB000184610471A69A2B1BDE8F0410121184605
:105AC0001047506AFFF76AF900EB40004000BDE85C
:105AD000F0812046FCF7EBFE00EB40004000BDE803
